:020000040000fa
:080000000002040000000000f2
:020000040000fa
:100400002f0521000eff27000e01880000000000cc
:100410000c000700e0392000010020000f00070059
:10042000000020000000e000020032000000020096
:1004300000000000cc020200000000000040da00d2
:100440000000fe00000020000000e000020032007a
:10045000000020009001880000000600a102880032
:10046000800078000000eb001a003700e2804000b6
:1004700054a0b4009101ba00e280400054a0b4003e
:100480009102ba00e280400054a0b4000002eb00e8
:10049000472bde00f507b200a6018800602ce100c2
:1004a00008003a000049eb000201e80002003900b0
:1004b0003420ec0002f0a0008301e900f9ff3e00c7
:1004c000040037006128e100010032000082eb00e7
:1004d000040007001101ba000200e000e3ff3a0047
:1004e0000000060004d0a300e20f49001c00390000
:1004f000810278003549ba000201e80002003900a3
:100500003420ec0002f0a0008301e9000f0032006b
:100510002549ba000201e800020039003420ec004d
:1005200002f0a0008301e900080032000400e000ae
:100530000600320015c9ba000201e80002003900c5
:100540003420ec0002f0a0008301e9008180e80083
:1005500054a0b4000300e000e2ff3a0000000600ef
:100560009102ba00055978008301e900f7ff3200d3
:10057000c82ade00055978008301e900f3ff320044
:100580000400e000f1ff320011d9ba00eeff37009d
:080590000040da000000fe004b
:020000040000fa
:0200000401f009
:04000c00f8ff0000f9
:020000040000fa
:0200000401f009
:040010007dff000070
:020000040000fa
:0200000401f009
:040014007fff00006a
:020000040000fa
:100008005c03000062030000c802000068030000ef
:100018007c03000082030000c8020000c802000040
:10002800c8020000c8020000c8020000c8020000a0
:10003800c8020000c8020000c8020000c802000090
:10004800c8020000c8020000c8020000c802000080
:10005800c8020000c8020000c8020000c802000070
:020000040000fa
:100598000000fa0061022000607420000108780061
:1005a8004074200010407800f2c3b300824060001d
:1005b8004074200001487800407420009040780082
:1005c80000ceb30080c0600040742000014878006d
:1005d8008000eb00807420000108780040a7a90083
:1005e8003200200081072000a00920003374200079
:1005f80081497800804978008249780012002000fb
:1006080061042000700520002374200081497800cf
:1006180080497800824978003074200010407800c2
:1006280002c7b3008240600000c3b30080cf50000f
:10063800f9ff3a0020742000104078000042b20010
:100648000004e000fbff320001000700ffff370055
:100658008f007800020180000f00780074004000cd
:1006680000018800c0002000801f78000000e90019
:10067800fdff3a00810778000201880000000600ab
:100688008f00780002018000f0ff20007400400015
:1006980080077800b0002000cf0178000000e90052
:1006a800fdff3a008107780002018800000006007b
:1006b8000000fa00c028a900ffff37000000fa0078
:1006c800c068a900ffff37003600f800809fbe0011
:1006d800829fbe00849fbe00869fbe000000fa0075
:1006e8000900070080828800c048a900ffff370082
:1006f8000000fa00c088a900ffff37000000fa00d8
:10070800c0a8a900ffff37000e017800780151004a
:1007180032007800b2007800f30720008380600080
:1007280022002000020050000001eb0082805800e7
:0407380000000600b7
:020000040000fa
:10073c0050100000020000008000000000000000cb
:00000001FF
