:020000040000fa
:080000000002040000000000f2
:020000040000fa
:100008005603000056030000560300005603000084
:100018005603000056030000560300005603000074
:100028005603000056030000560300009402000027
:100038005603000056030000560300005603000054
:10004800bc020000560300005603000044030000f1
:100058005603000056030000560300005603000034
:100068005603000056030000560300005603000024
:100078005603000056030000560300005603000014
:10008800560300005603000056030000d602000085
:10009800de02000056030000500300005603000073
:1000a80056030000560300005603000056030000e4
:1000b80056030000560300005603000056030000d4
:1000c80056030000560300005603000056030000c4
:1000d80056030000560300005603000056030000b4
:1000e80056030000560300005603000056030000a4
:1000f8005603000056030000560300005603000094
:100108005603000056030000fc02000056030000de
:100118005603000056030000560300005603000073
:100128005603000056030000560300005603000063
:100138005603000056030000560300005603000053
:100148005603000056030000560300002003000079
:100158005603000056030000560300005603000033
:100168005603000056030000560300005603000023
:100178005603000056030000560300005603000013
:100188005603000056030000560300005603000003
:1001980056030000560300005603000056030000f3
:1001a80056030000560300005603000056030000e3
:1001b80056030000560300005603000056030000d3
:1001c80056030000560300005603000056030000c3
:1001d80056030000560300005603000056030000b3
:1001e80056030000560300005603000056030000a3
:0801f80056030000560300004d
:020000040000fa
:100208005603000056030000560300005603000082
:100218005603000056030000560300005603000072
:100228005603000056030000560300009402000025
:100238005603000056030000560300005603000052
:10024800bc020000560300005603000044030000ef
:100258005603000056030000560300005603000032
:100268005603000056030000560300005603000022
:100278005603000056030000560300005603000012
:10028800560300005603000056030000d602000083
:10029800de02000056030000500300005603000071
:1002a80056030000560300005603000056030000e2
:1002b80056030000560300005603000056030000d2
:1002c80056030000560300005603000056030000c2
:1002d80056030000560300005603000056030000b2
:1002e80056030000560300005603000056030000a2
:1002f8005603000056030000560300005603000092
:100308005603000056030000fc02000056030000dc
:100318005603000056030000560300005603000071
:100328005603000056030000560300005603000061
:100338005603000056030000560300005603000051
:100348005603000056030000560300002003000077
:100358005603000056030000560300005603000031
:100368005603000056030000560300005603000021
:100378005603000056030000560300005603000011
:100388005603000056030000560300005603000001
:1003980056030000560300005603000056030000f1
:1003a80056030000560300005603000056030000e1
:1003b80056030000560300005603000056030000d1
:1003c80056030000560300005603000056030000c1
:1003d80056030000560300005603000056030000b1
:1003e80056030000560300005603000056030000a1
:0803f80056030000560300004b
:020000040000fa
:100400006fb220000e7f24000e0188000000000063
:1004100000012000200288000c000700c0f9230022
:100420000100200011000700000020000000e00093
:10043000020032000000020000000000f23d020055
:10044000000000000040da000000fe004440a90067
:10045000000520000000e000030032000000200042
:10046000a00188004440a800000006009101880017
:10047000800078000000eb0015003700e2804000ab
:1004800032a0b4009101ba00e280400032a0b40072
:100490009102ba00e280400032a0b4000002eb00fa
:1004a000472bde00f507b200602ce10004003a00a3
:1004b0000059eb008301e900fdff3e000400370016
:1004c0006128e100010032000082eb000400070017
:1004d0001101ba000200e000e8ff3a000000060047
:1004e0003159ba008301e9000c0032002159ba00e9
:1004f0008301e900080032000400e00003003a0034
:10050000e280400032a0b400f5ff370011d9ba00f4
:100510008301e900faff3a008100e800e180400031
:1005200032a0b400000006003600f800809fbe0034
:10053000829fbe00849fbe00869fbe000000fa001e
:100540008460a900d610070084a52000144278001a
:10055000e14f520001003a00ac0b07000080fa00a6
:100560004f03be004f02be004f01be004f00be0051
:100570003600f900004006000000fa00d2a2a900ef
:1005800094e0a9009460a9009760a9009780a90051
:100590009b40a9009d60a9001fe1a90005e1a900f9
:1005a00011e1a90021e1a900ffff37000000fa00d6
:1005b0008760a9000080fa00004006003600f800bd
:1005c000809fbe00829fbe00849fbe00869fbe00ab
:1005d0000000fa00951b07008780a9000080fa0040
:1005e0004f03be004f02be004f01be004f00be00d1
:1005f0003600f90000400600849fbe000000fa00ab
:100600008b40a900050f8000048020000482620056
:10061000e00f520004003200445780000402e8005a
:100620004457880003003700445780000402e90063
:10063000445788000080fa004f02be0000400600c8
:10064000849fbe000000fa008d60a900850f800025
:100650000480200004826200e00f52000400320097
:10066000545780000402e800545788000300370004
:10067000545780000402e900545788000080fa00b3
:100680004f02be00004006000000fa009560a9007d
:100690008560a9009560a8000080fa00004006006f
:1006a0000000fa000080fa00004006000040da0076
:1006b0000000fe002800fa00889fbe008a9fbe004e
:1006c0008c9fbe0007067800878669000c003b00ff
:1006d000030478008704780008f0a10009f0a10065
:1006e000840f5000858f5800860f5900890f5c00d9
:1006f000030033000cf0a20001003a000cf0a1004e
:10070000520107006400e1005f00320078014700f9
:100710006408e100610032006c01470074855700f5
:100720003200be001201be003a04be001a05be002f
:100730001e039000be0a90008503530006003d0092
:100740000004fd008104fd000205fd008305fd009d
:100750008703ea00050378000df8a30004003200c7
:1007600060041400e0841c0060051d00e0851d008d
:100770006022b8007d0320000d38e1008006eb0008
:100780000b0039004433dd00f300b2008301730035
:1007900039003700848272000d027800e10664009f
:1007a0008b85d1000a85d3008984d3000884d300c7
:1007b0008703e900f7ff3b000800400089804800fc
:1007c0000a0149008b81490004003b0060001000d1
:1007d000e080180060011900e08119000358a300af
:1007e000090032008d827200848272006102600012
:1007f0008301d1000281d3008180d3000080d30027
:100800000603e8001b0037000348a30017003a0066
:100810000600e000170034000603e9000d00a30005
:10082000000048008180480002014900838149009e
:100830000348a3000f003a000600e000090034005e
:100840000603e900000040008180480002014900e1
:100850008381490001003a000003eb000348a30034
:10086000f5ff32006022b800020037008482720077
:1008700061826600b700070003f0a1000cf0a7003a
:1008800003f0a00005013700640147006408e1009f
:1008900002003a000df8a300fd003a003200be004d
:1008a0001201be00fd0037000000fa00889fbe0064
:1008b0008a9fbe008c9fbe000404be000605be00d9
:1008c000d0000700040678000c78a30020003a004e
:1008d0000800fd008900fd000a01fd008b01fd00fc
:1008e000c8000700840678000d78a30018003a00bd
:1008f0000d0666006460e100190032006160e100ed
:10090000170032000002be000203be000a01be0052
:100910000800be00070478002000070003f0a100d3
:10092000e203070008f0a6000600370003f0a2006b
:1009300097002400b61f22004544250084d12200e0
:100940005cff07000bf0a70003f0a200d300370004
:1009500018022000285988000330a000cf0037007b
:100960001802200028598800c90037000002eb0057
:10097000ab0137008f1fd100820407008f87e90089
:100980000000e00000000600809feb007d040700ef
:100990008f87e9000000e000000006002800fa0050
:1009a000889fbe008a9fbe008c9fbe0003866b009e
:1009b000a60007006400e100440032006408e10082
:1009c0004a0032006100e100460032006108e100a7
:1009d00049003200ec0647006000b8003d02be004e
:1009e0003d03be00f48657006011b8003d04be0010
:1009f0003d05be007d0320000b0037000000a00075
:100a00008d06e900130032000402420085824a008c
:100a100006034b0087834b000000400081804800a4
:100a200002014900838149000802520089825a006c
:100a30000a035b008b835b00f0ff3b00080242006f
:100a400089824a000a034b008b834b008d06e90024
:100a5000edff3a008482720086827200f707b200ce
:100a60008782720001003200150020001e049000f1
:100a70003e0b900006035400e63fb0000368a3005d
:100a8000070032000000a7000500a0008301d1008c
:100a90000281d3008180d3000080d3000603e800e8
:100aa0008301d1000281d3008180d3000080d30074
:100ab0000002eb000482d2002600070003f0a10030
:100ac0000cf0a70003f0a000740037006402470098
:100ad0006408e1006e0032003400be003401be0044
:100ae000f6ff37006108e100690032006011b800cc
:100af0006000b800f1ff370003ff2700020020006c
:100b0000fbff3700839f68000100e00002003d000a
:100b100060001000e08018000300e00002003d00cb
:100b200060011100e08119003c0207004f00e00065
:100b300002003b0060001000e0801800000006008a
:100b4000801feb000f0407008f87e9000000e00022
:100b50000000060018002000570020000804530081
:100b60000d003d000600200097fc2f000740e1002b
:100b70001e00340084827200610260008301d10093
:100b80000281d3008180d3000080d3000804e800f4
:100b9000f8ff3a004700200061046000050474007b
:100ba000040464000d00320061004000e080480051
:100bb00060014900e081490003b8a5000700320048
:100bc0000603e8006538e10004003a008301d10023
:100bd0000281d3008180d3000080d300f87f200001
:100be0000830e10003003500080378006000b80019
:100bf0006011b8004433dd00f300b20083017300dc
:100c00000000060005ff2700058261000700320092
:100c10000428e1000100320024000500060007005e
:100c200001003a0044000500040805000200070026
:100c3000f9ff3a00140005006f8261008102700024
:100c400085027100850272000000060068044700fa
:100c50000294be000094be00fc0447008694be00cf
:100c60008494be0009007800fd03070008007800a6
:100c7000fb03070099007800814f70000b003b00d8
:100c80000800be00e80307004f00b1000300370072
:100c9000f3ff2700f2ff2f006110b9004f06be00de
:100ca0004f05be004f04be000080fa0000000600a1
:100cb000810378004e0007000001be006000b8000c
:100cc0000478a30013003a006220e10015003e0002
:100cd0000d0039008301d1000281d3008180d3004f
:100ce0008301d1000281d3008180d3008301d10030
:100cf0000281d3008180d3000538b000c42add0012
:100d0000f300b2008381720007f0a70003f0a00097
:100d100000000600f3ff2700f2ff2f006110b9006a
:100d2000fbff370003ff2700f7ff37001400fa002e
:100d3000889fbe008a9fbe008c9fbe000004be003c
:100d40000205be00680047000a90be000890be0081
:100d5000c30307000070a7000bf0a1003043200080
:100d60009e02900080825200b0fe2f000028e10019
:100d700011003d00b0fc2f000028e10015003400f8
:100d80001e0990008e0890007e0090000501b000c2
:100d90000201d1008180d3000080d3008502e800e9
:100da000fbff3a000b00e000bcff3b0060001000be
:100db000e0801800b9ff3700f0ff2f00f1ff270097
:100dc0000b00e000b5ff3b00010028000000200000
:100dd000b2ff37006000b800b0ff37004f89de0077
:100de00082017800c50337006011b800d3033700d3
:100df000c70ade00f107b200f50fb20008003200aa
:100e0000e1cf4200020032000170a0002400050082
:100e1000810f700001003200040805004400050045
:100e2000810f700002003a00140005008502e900fd
:100e30000000400081c04800fcff3b000170a000a2
:100e4000240005002800fa00889fbe008a9fbe008b
:100e50008c9fbe0003866b007cff07000028a30068
:100e600064003a000128a30067003a000008a300cc
:100e700062003a000108a30065003a001e009000dd
:100e8000be08900081064000ed3fb100f48057009d
:100e9000ee019000111ab8008e099000311bb800c5
:100ea0009e099000311cb800511db800f485570010
:100eb00046000700fe0190003a0007008b85e8001d
:100ec0003e0007008e09900040000700ee019000f0
:100ed000340007008b85e800380007008e09900079
:100ee000400007009e0990001b18b80089044000cc
:100ef0000a854800fe019000340007008b85e80059
:100f000038000700ee019000300007008e099000c5
:100f10001b18b800890440000a8548000a98a300fd
:100f200008003a000402420085824a0006034b0092
:100f300087834b0008044c0089844c000a054d004f
:100f40008d06e90084827200850273004c3add0050
:100f5000850272000100320015002000443ade00d4
:100f60001400b2004538de00cb45dd000b007000f8
:100f7000c540de00cb4ddd008b8070004549de00b2
:100f8000cb55dd000b017100c551de000d0378006b
:100f9000f0fe070003f0a1000cf0a70003f0a00092
:100fa0003eff37001b18b80085024000068348004a
:100fb000e0834b0060044c00070037001b18b800aa
:100fc0000603400087834800faff37001b18b8006b
:100fd0008703400008844800e0844c0060054d0011
:100fe000000006001b18b80008044000898448006f
:100ff000faff37000108a30025ff3a005800be00a1
:101000005801be00e3ff37000008a30020ff3a00ac
:1010100009047800f9ff37001400200000003700b1
:101020000800fa00889fbe008a9fbe008c9fbe0009
:10103000040678000004be000205be00f1fe0700b1
:101040006420e1009f003e009b0032006120e1002f
:101050009600320003f0a100171b240036582c0024
:1010600005a021000400200042fe07000800be0089
:101070000a01be000700350097012400b61f2200b8
:101080004544250084d12200570307000004be0018
:101090000205be008006eb000c00a700cf1ede009c
:1010a00003f0a1000bf0a10047fd230006f325008b
:1010b00095dc260034882c0062ff07006022b8000f
:1010c0000003eb0007fe23000c00a60007ff23002f
:1010d00078fd070015ff07000000a7000d00a20023
:1010e0003eff07000c00e00004003a0007fe23006a
:1010f000060020006022b800c600070003f0a2002e
:10110000009fbe000297be00970024000600220048
:101110006022b8004bff07000802be000a03be00b1
:1011200064fd0700809fbe00829fbe003e00be009f
:101130002e01be00f7f4230046542b00152d240089
:10114000a44628003fff07004f03be004f02be0029
:1011500058fd07000004be000205be0003f0a10018
:1011600067e42300e6092a00f5672600d4bc2300c3
:1011700000fe07000800be000a01be00480035005e
:101180000002be000203be002eff0700009fbe004b
:101190000297be0087ce2300f60f2800359926005f
:1011a00054f92d0027ff0700a7d62b0006422e007a
:1011b00085c02d00c49924003efd07003e02be00fc
:1011c0002e03be001fff070067de2300c623210099
:1011d000a586260004432d0036fd07003e02be0012
:1011e0002e03be0017ff0700a7e52b0056642e0054
:1011f000d5b52400b40a2c002efd07003e02be0027
:101200002e03be000fff070077ec230036de21001f
:1012100045522a0034062f0026fd07003e02be007c
:101220002e03be0007ff0700a7f22b00061a2000be
:1012300015a02100a4e123001efd07003e02be0010
:101240002e03be00fffe070017f823001611210031
:1012500015112100040b210016fd07003e02be00ff
:101260002e03be00f7fe070057fc2b005655250045
:1012700055552500545525000efd07003e02be00c1
:101280002e03be00effe07000802be000a03be00e8
:10129000ecfe07000802be000a03be0005fd0700c1
:1012a0000d00a70003f0a2007cfe37000c00a60092
:1012b00003ff230079fe3700f3ff2700f2ff2f0022
:1012c0006110b9000330a0001402200024598800e6
:1012d00072fe37001400fa00889fbe008a9fbe008d
:1012e0008c9fbe000004be000205be0068004700df
:1012f0000a90be000890be00590207000078a300c3
:101300003d003a006100e1003c0032000bf8a30010
:101310003d003a006400e100380032006c034700f1
:101320001e009000f03fb1003602be001603be0062
:101330000008a300040032000402420085824a0033
:1013400006034b0087834b00100798008e1f780020
:101350006000b8006011b8005c0020006d01200042
:101360006e002000020037008d86e900fc0020009e
:101370000402420085824a0006034b0087834b002b
:10138000000440008184480002054900838549002b
:101390006060e1001d60ad000804520089845a00bd
:1013a0000a055b008b855b00030039001e60ad0001
:1013b0000802be000a03be000c06e900ecff3b0079
:1013c0000e87e900e8ff3b004f07780061026000ec
:1013d000840278008301d1000281d3008180d30090
:1013e0000080d3001e03900041b3de00f63fb00042
:1013f000d8fd070029fe37000b30a0000800be0012
:101400000a01be0025fe3700120220002259880082
:101410001ffe370007f0a200a6fc37006022b800cc
:10142000060220000000d0008180d2000482d20099
:101430008582d2000000a0000202520083825a007e
:10144000030031000202420083824a000000a10032
:101450000603e900f3ff3a0000000600889fbe0083
:101460008a9fbe003004be002005be000404440074
:1014700085844c0006054d0087854d000898be0008
:101480000a90be000440e10005c8e10006d0e1007a
:1014900007d8e10002003100680040001008e800b1
:1014a0004f05be004f04be00000006001000fa0009
:1014b000889fbe008a9fbe000605be000404be00d1
:1014c0003002be002003be00c4b79f00d5b79f0006
:1014d000e6b79f00f7b79f000802520089825a00c2
:1014e0000a035b008b835b0084bf9f0095bf9f0056
:1014f000a6bf9f00b7bf9f000498be000698be001d
:10150000110020004fb29700dfb297006fb3970031
:10151000ffb397000820e10009a8e1000ab0e1004c
:101520000bb8e100010039008000eb0010881000ca
:101530004f05be004f04be000080fa000000060008
:101540001400fa00889fbe008a9fbe008c9fbe00d8
:101550003f0007000605be000404be000006eb00c5
:10156000ccb79f00bcb79f00acb79f009cb79f0053
:101570008cb79f000d0420004fb39700bfb29700b7
:10158000860343002fb29700e00f530004003d0094
:101590003d0007000f004000b0ff070003003700c8
:1015a000390007000f004000c0ff0700cfb29700ce
:1015b00095bf9f00e08f5200090035002b00070007
:1015c00014002000050020006033b8000000720005
:1015d0008180720002017300838173001c00070088
:1015e0000c06e8008d0f5600e3ff3a001fba970083
:1015f000e00f520005003d000802be000a03be00d5
:1016000000fe2f000f00400094ff07004faa970034
:10161000e00f520008003a000fb497009fb4970003
:101620002fb59700bfb59700d8b79f00e9b79f00c7
:10163000fab79f008bbf9f000c0007004f06be004b
:101640004f05be004f04be000080fa0000000600f7
:10165000010007000000060090b79f00a1b79f009f
:10166000b2b79f00c3b79f0000000600010007004b
:10167000000006001fb09700afb097003fb1970081
:10168000cfb19700000006004f2bde0087037300e8
:10169000a7b79f004f23de008582420085027300ba
:1016a00095b79f00ffaa97004f2bde00040242006f
:1016b0000402730084b79f006faa97004f23de00d7
:1016c0008582420085027300f5af9f00e9ff0700a5
:1016d0004f18de000402420000027200e4af9f00d7
:1016e000e4ff07000000400081804800020149003b
:1016f00083814900d8ff07000802be000a03be002c
:1017000000fe2f0000000600881f7800180020004f
:10171000881f78008aff07008f87e9004f04780050
:1017200000000600801feb0085ff07008f87e9009f
:1017300000000600889fbe008a9fbe00e00f500098
:10174000e08f5800e00f5900e08f59000c003d0079
:101750006044b8006055b8000000540081805c000f
:1017600002015d0083815d00180020001500070064
:1017700008003d00180007000004eb0005003700da
:101780000004eb000f00070002003d0012000700fc
:1017900018002000dcff0700e00f540006003200b4
:1017a0006022b8006033b8000000520081805a0007
:1017b00002015b0083815b004f05be004f04be0049
:1017c00000000600e00f5200e08f5a00e00f5b00bf
:1017d000e08f5b00000006006044b8006055b80070
:1017e0000402540085825c0006035d0087835d006f
:1017f00000000600889fbe008a9fbe008c1f7800f4
:10180000e00f5000e08f5800e00f5900e08f5900c2
:101810000d003d006044b8006055b8000000540061
:1018200081805c0002015d0083815d001c0020005e
:101830000820e10009a8e1000ab0e1000bb8e100ce
:101840000d003d00080037000006eb00e00f5200dd
:10185000e08f5a00e00f5b00e08f5b0006003d0068
:101860006044b8006055b8000402540085825c00f2
:1018700006035d0087835d00aaff0700e00f5600a6
:10188000060032006022b8006033b8000000520049
:1018900081805a0002015b0083815b004f06780063
:1018a0004f05be004f04be00000006000800fa000d
:1018b000889fbe008a9fbe008c9fbe000004be00b1
:1018c0000205be0083067800cefc07006420e1001c
:1018d000a3003e00a60032000006eb000bf0a100c2
:1018e00003ff2300020020006000b8000802be00d1
:1018f0000a03be0024fc070009003d0003ff23008b
:10190000020020006000b8000802be000a03be000a
:1019100022fc07000004be000205be002c002000cf
:1019200013fd230042612200e1e9250060d52c006f
:101930000802be000a03be0013fc07001d003d00a4
:10194000b3ff2300a2672b0081852e00a0ca2400cc
:101950000802be000a03be0056fb0700009fbe003f
:101960000297be0073fe230052cf2600010b2d000c
:10197000509529000802be000a03be0031fd070091
:1019800007ff2300060020006022b800a1fe070028
:101990000802be000a03be0046fb07003e02be006e
:1019a0002e03be00fdfb07000004be000205be00c2
:1019b0000c06e8000800be000a01be0003f0a1000a
:1019c00067e42300e6092a00f5672600d4bc23005b
:1019d000e8fb07000800be000a01be004c0035000d
:1019e0000802be000a03be0016fd0700009fbe00ed
:1019f0000297be00e702240096c42000a5142e0022
:101a000004712c002bfb07003e02be002e03be001b
:101a10000cfd0700d7042400a6a02c00d52023002d
:101a2000743d2a0023fb07003e02be002e03be00c9
:101a300004fd07005705240026a12800b54020001a
:101a400054da26001bfb07003e02be002e03be0038
:101a5000fcfc070047042400c687280045cc2b0067
:101a6000945a290013fb0700809fbe00829fbe008e
:101a70003e00be002e01be00a7fe2b00a6d72c0004
:101a8000159b2d00d47b2800eefc070007022c00dc
:101a9000f6d32f00d5c8250034a6260005fb070085
:101aa0003e02be002e03be00e6fc070047032c00ea
:101ab000f6172800259e2b00b4cc2b00fdfa07005a
:101ac0003e02be002e03be00defc0700b7022c0063
:101ad000660a26006510250024ce2100f5fa0700cd
:101ae0003e02be002e03be00d6fc07004f03be0020
:101af0004f02be00a9fb07000802be000a03be0099
:101b0000d0fc07000802be000a03be00e9fa070085
:101b10000c00e0000f0032000c10a70003f0a20040
:101b200084d1220045442500b61f220097ff2300e0
:101b30006260e1000600320064362700d58223008f
:101b400026152c0007fe23000c10a70007ff23001a
:101b5000d8fa07000df0a70003f0a2004ffc3700f1
:101b60000330a00014022000245988004bfc3700e9
:101b700093ff2300b21f22004144250080d12200a0
:101b8000f4ff3700889fbe008a9fbe008c9fbe0076
:101b90000404be000605be00809fbe00829fbe00fa
:101ba00018fc0700040678000800be000a01be0009
:101bb00014fc0700840678004f03be004f02be00ed
:101bc0008d4f76007fb0970013003300f0ff2f0099
:101bd0008b8f6b0006003b000d0666000c00a70013
:101be0000a00370007f0a600100020000a003700a6
:101bf000880f5200898f5a008a0f5b008b8f5b0021
:101c0000030039001000200001003e000000200009
:101c100007f0a7000000ea004f06be004f05be0017
:101c20004f04be0000000600e48240001078a300cc
:101c300007003200640240001178a3003400be00a7
:101c40001401be00040032000330a70000000600ab
:101c50003500be001501be000330a00000000600e4
:101c6000800078005002be005003be004439de0000
:101c7000f700b200f37f2000030161000900320089
:101c80000218e10016003a0085017200830173001a
:101c9000838173000008200015003a0040002000f6
:101ca0001300370085017200830173008381730084
:101cb00005003a0004a8be0006a8be0010002000df
:101cc0000b0037000201e9000402420085824a004d
:101cd00006034b0087834b000748a300f9ff32003f
:101ce0000740a00004a8be0006a8be0020002000f7
:101cf000800098009200980000000600881f78007d
:101d0000030478000300e00007003d0060001000bd
:101d1000e080180060011900e081190002003b001a
:101d200001f02d00030037000400070008f0a700b1
:101d300003f0a0004f04780000000600889fbe005a
:101d400000827000040271000482710024003200dd
:101d500036432000c50020008383cf000a003900ed
:101d60000541b1008283cf00070039000541b10071
:101d70008183cf00040039000541b1008083cf008a
:101d8000010039000541b10085c353006022b8004d
:101d9000120032000a003b0084827200610260007f
:101da0008301d1000281d3008180d3000080d30061
:101db0000603e8008743e800f7ff3a000700370012
:101dc00000004000818048000201490083814900f1
:101dd0000603e9008743e900f9ff3a005dfb0700cd
:101de0004f04be0000000600801feb000200070049
:101df0008f87e900000006002800fa00889fbe00d7
:101e00008a9fbe008c9fbe000efe97008ffb0700ce
:101e10006108e1005c0032006200e1005a003e000f
:101e2000540039006408e100520032006c014700a0
:101e3000748557003200be001201be003a04be0095
:101e40001a05be009e029000be0e90000d82520048
:101e500017003b000402e80046003a00880f5000db
:101e6000898f58008a0f59008b8f59004100340028
:101e700064014700780347003200be001201be0033
:101e80003602be001603be0007f0a10003f0a60054
:101e900007f0a0000c70a70006fa07007ffb3700d0
:101ea0000000400081804800020149008381490010
:101eb0000c00a00008005000898058000a01590059
:101ec0008b81590005003b000800400089804800d4
:101ed0000a0149008b8149000c00a1000402e900bd
:101ee000efff3b00000240008182480002034900ee
:101ef000838349001b0032000802520089825a0085
:101f00000a035b008b835b004200f800050037008a
:101f1000000040008180480002014900838149009f
:101f20008d06e9000340a600f9ff37006022b800e3
:101f30000d03780007fb0700780347004200f90013
:101f40000800350002003c000c08a3000500320028
:101f50003602be001603be0007f0a0000c70a700fa
:101f6000d4f907005e02900004f0a70003f0a2007d
:101f70004afb37002e009000be0090004e019000fa
:101f8000de01900045fb3700100220000c70a60017
:081f9000205988003efb3700d8
:020000040000fa
:101f98005541000052540000206300006f6e00009d
:101fa800666900006775000072650000200a00007d
:101fb8000d000000505700004d200000636f000026
:101fc8006e660000696700007572000065200000f9
:101fd8000a0d000000540000494d00004552000061
:101fe800206100006374000069760000652000002d
:101ff8000a0d0000000a00000a0d000061730000cd
:1020080073650000727600002061000063740000b0
:1020180069760000652000000a0a00000a0d000029
:1020280000000000090000000a0d00000000000088
:020000040000fa
:102038000000fa0024c0b3000440780059eab70051
:1020480024c0b300044078005aeab70024c0b300a3
:10205800044078005beab70014c0b300044078007d
:102068005eeab70014c0b300044078005feab70026
:1020780071000700e2070700d2a2a80014c0b3004d
:102088000440780058eab7000080fa000000060013
:102098000c00fa00008fbe00220798003307980052
:1020a80044079800550798001e00be00fefa070076
:1020b8000002be000203be00808220000498be0019
:1020c8000690be002e009000be009000f6fa0700b1
:1020d8000002be000203be00008320000498be0078
:1020e8000690be00848220003400be002401be0099
:1020f800c4842600f5122a00d64b280027052400a0
:102108004efb07000002be000203be00808a2000ca
:102118000498be000690be00048320003400be0070
:102128002401be00c4842600f5122a00d64b2800dc
:102138002705240041fb07000002be000203be0081
:10214800008c20000498be000690be004e0090004f
:10215800de00900022fb0700a4ee22004544250083
:10216800b61f22009700240034fb07000002be00bf
:102178000203be000400be000601be006022b800d3
:10218800060028006706240002fa07000002be00c5
:102198000203be000400be000601be0014da2b00d4
:1021a80045682f0026a12200670d240023fb0700a5
:1021b8000002be000203be000400be000601be000d
:1021c8006022b8000600200007002400f1f907008b
:1021d8000002be000203be00008020000498be007a
:1021e8000690be00048020005403be004402be00d6
:1021f800008f20000498be000690be000080fa0000
:10220800000006000000fa0080a420006022b80048
:102218006033b8000498be000690be0000a52000f8
:102228006022b8006033b8000498be000690be0073
:102238000080fa00000006000000fa0054c0b30055
:102248000440780060eab70054c0b3000440780046
:1022580061eab70020a620006022b8006033b80009
:102268000498be000690be00808d20006022b80051
:102278006033b8000498be000690be00008d2000b0
:102288006022b8006033b8000498be000690be0013
:10229800808c20006022b8006033b8000498be002b
:1022a8000690be00808e20006022b8006033b8001f
:1022b8000498be000690be00008e20006022b80080
:1022c8006033b8000498be000690be00809a2000d3
:1022d8006022b8006033b8000498be000690be00c3
:1022e800009b20006022b8006033b8000498be004c
:1022f8000690be00009c20006022b8006033b80041
:102308000498be000690be0000a220006022b8001b
:102318006033b8000498be000690be0080a3200079
:102328006022b8006033b8000498be000690be0072
:1023380080a220006022b8006033b8000498be0074
:102348000690be00009d20006022b8006033b800ef
:102358000498be000690be00809d20006022b80050
:102368006033b8000498be000690be00809e20002e
:102378006022b8006033b8000498be000690be0022
:10238800809f20006022b8006033b8000498be0027
:102398000690be0000a020006022b8006033b8009c
:1023a8000498be000690be0000a120006022b8007c
:1023b8006033b8000498be000690be000095200067
:1023c8006022b8006033b8000498be000690be00d2
:1023d800009420006022b8006033b8000498be0062
:1023e8000690be00809420006022b8006033b800d8
:1023f8000498be000690be00809620006022b800b7
:102408006033b8000498be000690be008095200096
:102418006022b8006033b8000498be000690be0081
:10242800009620006022b8006033b8000498be000f
:102438000690be00809020006022b8006033b8008b
:102448000498be000690be00808f20006022b8006d
:102458006033b8000498be000690be0000902000cb
:102468006022b8006033b8000498be000690be0031
:10247800009220006022b8006033b8000498be00c3
:102488000690be00009120006022b8006033b800ba
:102498000498be000690be00809120006022b8001b
:1024a8006033b8000498be000690be00d2a2a8000f
:1024b8000080fa00000006000000fa00881f78007b
:1024c80084a420003400be002401be0018c0b3005c
:1024d8006022b800060020009705240028f90700ac
:1024e80000027800e00f520001003c000044eb00bd
:1024f800e04f54000700320080a420006022b8009a
:1025080006002000970524000498be000690be002f
:102518001400370084a420003400be002401be004b
:1025280018c0b3006022b8000600200097052c00f0
:102538000ef9070000027800e00f52000100350094
:102548000044eb00e04f54000600320080a4200055
:102558006022b8000600200097052c000498be00f1
:102568000690be0004a520003400be002401be0071
:1025780018c0b3006022b8000600200097052400a8
:10258800fff8070000027800e00f520001003c004d
:102598000044eb00e04f54000700320000a5200083
:1025a8006022b80006002000970524000498be00a9
:1025b8000690be001400370004a520003400be00b9
:1025c8002401be0018c0b3006022b8000600200035
:1025d80097052c00e5f8070000027800e00f52008c
:1025e800010035000044eb00e04f540006003200c3
:1025f80000a520006022b8000600200097052c00e6
:102608000498be000690be004f0478000080fa00cf
:10261800000006000200fa00881f7800004f7800ca
:102628001e427800e14f520053003a008497200080
:102638003400be002401be00048920005403be00fb
:102648004402be0018c0b300cdf8070000027800ad
:10265800e00f520001003c000044eb00e04f540042
:1026680007003200048920005403be004402be0063
:10267800809720000498be000690be0093003700a3
:10268800849720003400be002401be000489200085
:102698005403be004402be0007f0a20018c0b300f5
:1026a800b2f8070000027800e00f52000100350080
:1026b8000044eb00e04f5400080032000489200079
:1026c8005403be004402be0007f0a2008097200019
:1026d8000498be000690be007c00370004972000d6
:1026e8003400be002401be006022b8006033b80088
:1026f8009ef8070000027800e00f520073003a00cd
:10270800849720005403be004402be000400be00ab
:102718000601be0083f907000002be00040278002b
:1027280004f0a7000402ea00cfa2de000400be0005
:10273800a8f90700049a20005403be004402be0012
:1027480018c0b30089f8070000027800e00f5200b3
:10275800010035000044eb00e04f54005b003200fc
:10276800809720006022b8006033b8000498be004b
:102778000690be00550037001e427800e24f520016
:1027880052003a00049320003400be002401be0029
:10279800848820005403be004402be0018c0b30061
:1027a80077f8070000027800e00f520001003c00b3
:1027b8000044eb00e04f54000700320084882000fa
:1027c8005403be004402be00009320000498be00db
:1027d8000690be003d003700049320003400be0080
:1027e8002401be00848820005403be004402be00b9
:1027f80007f0a20018c0b3005cf8070000027800d8
:10280800e00f5200010035000044eb00e04f540097
:1028180008003200848820005403be004402be0031
:1028280007f0a200009320000498be000690be00a6
:1028380026003700849220003400be002401be0028
:102848006022b8006033b80048f80700000278003a
:10285800e00f52001d003a00049320005403be000c
:102868004402be000400be000601be002df90700a8
:102878000002be000402780004f0a7000402ea0087
:10288800cfa2de000400be0052f9070084992000a0
:102898005403be004402be0018c0b30033f807005a
:1028a80000027800e00f5200010035000044eb0000
:1028b800e04f540005003200009320006022b80069
:1028c8006033b8000498be000690be004f0478003c
:1028d8000080fa00000006000800fa00881f78004f
:1028e800009fbe000297be0023020700848c2000d0
:1028f8003400be002401be0024c72100751c270037
:10290800c6712c00b70624004cf907000002be006f
:102918000203be00008920000498be000690be0095
:10292800048920003400be002401be00742f210059
:10293800a5bd240086f62e00c70a240015f8070056
:102948000002be000203be00008920000498be00f9
:102958000690be00048920003400be002401be0099
:102968003e02be002e03be0034f907000002be007e
:102978000203be00008920000498be000690be0035
:10298800048920003400be002401be006022b80083
:102998000600200097052400fef707000002be008d
:1029a8000203be00008920000498be000690be0005
:1029b800048920003400be002401be0018c0b30002
:1029c8006022b8006033b800e8f70700000278001a
:1029d800e00f5200010035000044eb00e04f5400c6
:1029e80007003200048920005403be004402be00e0
:1029f80007f0a200008920000498be000690be00df
:102a08004f0478000080fa00000006000000fa0079
:102a1800881f7800048920003400be002401be000d
:102a280018c0b30024c72100751c2700c6712c00ec
:102a3800b7062400cdf7070000027800e00f520027
:102a4800010035000044eb00e04f54008b003200d9
:102a5800848c20003400be002401be0018c0b300de
:102a68006022b8006033b800c5f70700000278009c
:102a7800e00f520001003c000044eb00e04f54001e
:102a88003f003200048920005403be004402be0007
:102a9800009920000498be000690be00049920000a
:102aa8003400be002401be006022b80006002000e9
:102ab80047032400e1f807000002be000203be003d
:102ac800009920000498be000690be0004992000da
:102ad8003400be002401be0024c72100751c270055
:102ae800c6712c00b7062400aaf707000002be0032
:102af8000203be00009920000498be000690be00a4
:102b0800048920005403be004402be00009a20003d
:102b18000498be000690be00049a20003400be004f
:102b28002401be006022b8000600200047042400eb
:102b3800c2f807000002be000203be00009a20008f
:102b48000498be000690be00049a20003400be001f
:102b58002401be0024c72100751c2700c6712c0063
:102b6800b70624008bf707000002be000203be0070
:102b7800009a20000498be000690be006500370049
:102b8800048920005403be004402be0000992000be
:102b98000498be000690be00049920003400be00d0
:102ba8002401be006022b80006002000470424006b
:102bb800a2f807000002be000203be000099200030
:102bc8000498be000690be00049920003400be00a0
:102bd8002401be0024c72100751c2700c6712c00e3
:102be800b70624006bf707000002be000203be0010
:102bf800009920000498be000690be0004892000b9
:102c08005403be004402be00009a20000498be008f
:102c18000690be00049a20003400be002401be00c5
:102c28006022b800060020004703240083f807004c
:102c38000002be000203be00009a20000498be00f5
:102c48000690be00049a20003400be002401be0095
:102c580024c72100751c2700c6712c00b706240064
:102c68004cf707000002be000203be00009a2000d5
:102c78000498be000690be0026003700848c200011
:102c88003400be002401be0018c0b3006022b800a2
:102c98006033b8003af7070000027800e00f5200ee
:102ca80001003c000044eb00e04f54000d003200ee
:102cb800009920006022b800060020004703240085
:102cc8000498be000690be00009a20006022b8005a
:102cd80006002000470424000498be000690be00a9
:102ce8000c003700009920006022b8000600200080
:102cf800470424000498be000690be00009a2000f5
:102d08006022b80006002000470324000498be0093
:102d18000690be004f0478000080fa00000006000c
:102d28000800fa00009fbe000297be0012010700cb
:102d380020c0b300f004070080882000d45e220081
:102d4800457b290006ed2500c70624000498be002f
:102d58000690be0004a220003400be002401be007c
:102d6800848820005403be004402be0033f80700e4
:102d78000002be000203be00808820000498be0046
:102d88000690be00848820003400be002401be00e6
:102d9800946525008588240086862600170d240062
:102da800fcf607000002be000203be008088200077
:102db8000498be000690be00848820003400be003f
:102dc8002401be003e02be002e03be001bf8070011
:102dd8000002be000203be00808820000498be00e6
:102de8000690be00848820003400be002401be0086
:102df8006022b8000600200097052400e5f60700c9
:102e08000002be000203be00808820000498be00b5
:102e18000690be00848820005403be004402be0011
:102e28000400be000601be00bef707000002be0097
:102e38000402780004f0a7000402ea00cfa2de0032
:102e48000400be00e3f707000002be000203be0054
:102e5800808820000498be000690be000080fa001a
:102e6800000006000000fa00881f7800848820000f
:102e78003400be002401be0018c0b300d45e220096
:102e8800457b290006ed2500c7062400b7f6070094
:102e980000027800e00f5200010035000044eb000a
:102ea800e04f54008b00320004a220003400be0022
:102eb8002401be0018c0b3006022b8006033b80017
:102ec800aff6070000027800e00f520001003c0056
:102ed8000044eb00e04f54003f003200848820009b
:102ee8005403be004402be00809820000498be002f
:102ef8000690be00849820003400be002401be0065
:102f08006022b8000600200007012400cbf7070064
:102f18000002be000203be00809820000498be0094
:102f28000690be00849820003400be002401be0034
:102f3800d45e2200457b290006ed2500c706240043
:102f480094f607000002be000203be00809820002d
:102f58000498be000690be00848820005403be007a
:102f68004402be00809920000498be000690be006e
:102f7800849920003400be002401be006022b800fd
:102f88000600200087012400acf707000002be00fd
:102f98000203be00809920000498be000690be007f
:102fa800849920003400be002401be00d45e2200b3
:102fb800457b290006ed2500c706240075f60700a5
:102fc8000002be000203be00809920000498be00e3
:102fd8000690be0065003700848820005403be00b8
:102fe8004402be00809820000498be000690be00ef
:102ff800849820003400be002401be006022b8007e
:1030080006002000870124008cf707000002be009c
:103018000203be00809820000498be000690be00ff
:10302800849820003400be002401be00d45e220033
:10303800457b290006ed2500c706240055f6070044
:103048000002be000203be00809820000498be0063
:103058000690be00848820005403be004402be00cf
:10306800809920000498be000690be008499200034
:103078003400be002401be006022b8000600200013
:10308800070124006df707000002be000203be001e
:10309800809920000498be000690be008499200004
:1030a8003400be002401be00d45e2200457b290006
:1030b80006ed2500c706240036f607000002be000c
:1030c8000203be00809920000498be000690be004e
:1030d8002600370004a220003400be002401be00f0
:1030e80018c0b3006022b8006033b80024f60700a7
:1030f80000027800e00f520001003c000044eb00a1
:10310800e04f54000d003200809820006022b80083
:1031180006002000070124000498be000690be00a7
:10312800809920006022b800060020008701240052
:103138000498be000690be000c003700809820005e
:103148006022b80006002000870124000498be0011
:103158000690be00809920006022b800060020007a
:10316800070124000498be000690be004f047800b2
:103178000080fa00000006000000fa00889fbe00e8
:103188008a9fbe00a4a6200014427800e24f520095
:1031980098003a00848920003400be002401be0053
:1031a800848a20005403be004402be0097f807003a
:1031b8000002be000203be0060ad20000498be00fd
:1031c8000690be00048b20003400be002401be001f
:1031d800048c20005403be004402be008bf8070094
:1031e8000002be000203be00e0ad20000498be004d
:1031f8000690be0064ad20005403be004402be0029
:10320800e0ad20005001be004000be00a4f507005c
:1032180014da2b0045682f0026a12200670c240031
:1032280006f707000002be000203be00008e200061
:103238000498be000690be0064ad20003400be00b5
:103248002401be0064ad20005403be004402be0049
:10325800faf607000002be000203be000404be0026
:103268000605be00e4ad20003400be002401be0007
:10327800e4ad20005403be004402be00eff6070090
:103288000002be000203be000800be000a01be0024
:1032980006f507000002be000203be000400be00df
:1032a8000601be0009f807000002be000203be00c6
:1032b800808c20000498be000690be00808d2000ff
:1032c8006022b8006033b8000498be000690be00c3
:1032d800048e20003400be002401be00048f2000ac
:1032e8005403be004402be0048f807000002be00b6
:1032f8000203be000400be000601be0018c0b300f1
:10330800846525008588240086862600170e2400fb
:103318009bf5070000027800e00f520001003c0016
:103328000044eb00e04f54000e003200048e2000f1
:103338003400be002401be00846525008588240071
:1033480086862600170f240030f807000002be000a
:103358000203be00008e20000498be000690be0046
:1033680024003700048e20003400be002401be0073
:10337800048f20005403be004402be0023f8070057
:103388000002be000203be000400be000601be002b
:1033980018c0b30084652500858824008686260029
:1033a800170e2c0071f5070000027800e00f52009c
:1033b800010035000044eb00e04f54000d003200de
:1033c800048e20003400be002401be008465250060
:1033d8008588240086862600170f2400b3f407008a
:1033e8000002be000203be00008e20000498be004a
:1033f8000690be004f05be004f04be000080fa00d4
:10340800000006000000fa00009420006022b800c6
:103418006033b8000498be000690be008095200076
:103428006022b8006033b8000498be000690be0061
:10343800c4a5200014427800e24f520028003a0048
:10344800d4a5200014427800e34f520024003a002b
:1034580024a620003400be002401be001400200071
:10346800050020006033b8000002420081824a0053
:1034780002034b0083834b0020a620000498be0063
:103488000690be00d2a2a90024a620003400be00e7
:103498002401be0034062000050020006033b80077
:1034a8000400e1000588e1000690e1000798e100ca
:1034b8000400360014c0b300044078005eeab70088
:1034c80007003700f4a5200014427800e24f5200ac
:1034d80003003a0014c0b300044078005eeab70065
:1034e800e4a5200014427800e14f52003900320070
:1034f800c4a5200014427800e44f520004003200b2
:10350800d4a5200014427800e44f520031003a005c
:1035180094a5200014427800e14f520001003a00bf
:1035280034000700b4a5200014427800e14f52008f
:1035380001003a0086010700a4a520001442780083
:10354800e14f52000a003a0094a520001442780086
:10355800e14f520001003a0017010700b4a520000e
:1035680014427800e14f520001003a00430207007c
:1035780024fb07000040eb00df020700cefb07003a
:1035880084a420005403be004402be000400be0010
:103598000601be00e3f507000002be000401be00fc
:1035a8000040eb002d12070004a520005403be00c4
:1035b8004402be000400be000601be00d9f50700a3
:1035c8000002be000401be0010c0b30023120700b1
:1035d800060037006011b8000040eb001f1207001a
:1035e8006011b80010c0b3001c1207000080fa0078
:1035f800000006000000fa00889fbe008a9fbe00f7
:10360800ddfe070010c0b300bb0207000002be00c9
:103618000203be0040ab20000498be000690be0026
:1036280044ab20005403be004402be000400be00a8
:103638000601be00bbf507000002be0004027800c8
:1036480004f0a7000402ea00cfa2de000400be00d6
:10365800e0f507000002be000203be00c0ab200078
:103668000498be000690be00c4ab20003400be0023
:103678002401be006022b800060020004702240092
:1036880062f707000002be000203be00c0ab2000c4
:103698000498be000690be00c4ab20003400be00f3
:1036a8002401be0018c0b3006022b8006033b8001f
:1036b800b3f4070000027800e00f520001003c005c
:1036c8000044eb00e04f5400a00032000002eb0081
:1036d8002456880044c0b300044078005deab7006f
:1036e80044ab20003400be002401be0018c0b30063
:1036f8006022b8006033b800a1f407000002780027
:10370800e00f520001003c000044eb00e04f540081
:103718001b003200048920005403be004402be008e
:10372800009720000498be000690be0084972000f1
:103738003404be002405be00049a20003400be00f4
:103748002401be006022b8000600200047022400c1
:1037580090f407000002be000203be000800be008d
:103768000a01be008bf407000002be000203be007f
:1037780060ac20000498be000690be002800370008
:1037880044ab20003400be002401be0018c0b300c2
:103798006022b8006033b80074f4070000027800b3
:1037a800e00f5200010035000044eb00e04f5400e8
:1037b8001b003200048920005403be004402be00ee
:1037c80007f0a200009720000498be000690be00f3
:1037d800849720003404be002405be00049920000c
:1037e8003400be002401be006022b800060020009c
:1037f8004702240067f407000002be000203be006f
:103808000800be000a01be0062f407000002be0004
:103818000203be0060ac20000498be000690be0003
:1038280044ab20003400be002401be008497200071
:103838005403be004402be0056f407000002be0056
:103848000203be00e0ac20000498be000690be0053
:1038580064ac20003400be002401be0018c0b300d0
:103868006022b8006033b80040f407000002780016
:10387800e00f5200010035000044eb00e04f540017
:103888000700320064ac20005403be004402be00ae
:1038980007f0a20060ac20000498be000690be00ad
:1038a800e4ac20003400be002401be0018c0b30000
:1038b8006022b8006033b8002cf4070000027800da
:1038c800e00f5200010035000044eb00e04f5400c7
:1038d80007003200e4ac20005403be004402be00de
:1038e80007f0a200e0ac20000498be000690be00dd
:1038f80064ac20003400be002401be00e4ac20000b
:103908005403be004402be0018c0b3001cf40700f4
:1039180000027800e00f520001003c000044eb0078
:10392800e04f54002000320044c0b3000440780047
:1039380061eab700009720006022b8006033b80041
:103948000498be000690be0017003700f4a52000ba
:1039580014427800e14f520010003a00809720008e
:103968006022b8006033b8000498be000690be001c
:10397800245680000402e80024568800255680005a
:1039880024032000848f520007003a0034c0b3009b
:10399800044078005deab7000300370034c0b30084
:1039a800044078005deab7004f05be004f04be0032
:1039b8000080fa00000006000000fa00889fbe00a0
:1039c8008a9fbe00849720003400be002401be00f8
:1039d800049720005403be004402be0018c0b30080
:1039e800e2f3070000027800e00f52000100350002
:1039f8000044eb00e04f540015003200849720008b
:103a08003404be002405be00049920003400be0022
:103a18002401be006022b8000600200047022400ee
:103a2800dcf307000002be000203be000800be006f
:103a38000a01be001df307000002be000203be001b
:103a4800809720000498be000690be002200370030
:103a5800849720003400be002401be000497200093
:103a68005403be004402be0018c0b300c4f30700ec
:103a780000027800e00f520001003c000044eb0017
:103a8800e04f540014003200849720003404be0034
:103a98002405be00049a20003400be002401be00a4
:103aa8006022b8000600200047022400b9f307008e
:103ab8000002be000203be000800be000a01be00ec
:103ac80052f607000002be000203be0080972000e5
:103ad8000498be000690be0010c0b300cdfa0700df
:103ae800049420003400be002401be008497200006
:103af8005403be004402be00ecf207000002be0000
:103b08000203be00009420000498be000690be0088
:103b1800849520003400be002401be008497200054
:103b28005403be004402be00e0f207000002be00db
:103b38000203be00809520000498be000690be00d7
:103b48004f05be004f04be000080fa0000000600ca
:103b58000000fa00881f780020c0b3006601070043
:103b68000002be000203be0080a920000498be0027
:103b78000690be0084a920005403be004402be0083
:103b88000400be000601be0066f407000002be0085
:103b98000402780004f0a7000402ea00cfa2de00c5
:103ba8000400be008bf4070018c0b300a4d424009e
:103bb8008572260006202c008707240070f3070072
:103bc80000027800e00f520001003c000044eb00c6
:103bd800e04f5400910032006022b800045588007c
:103be8001555880044c0b300044078005ceab7006b
:103bf80084a920003400be002401be0018c0b30010
:103c08006022b8006033b8005df307000002780056
:103c1800e00f520001003c000044eb00e04f54006c
:103c280013003200848820005403be004402be0002
:103c3800809220000498be000690be0004932000e5
:103c48003400be002401be00849920005403be0045
:103c58004402be004ff307000002be000203be008c
:103c680040aa20000498be000690be00200037003d
:103c780084a920003400be002401be0018c0b3008f
:103c88006022b8006033b80038f3070000027800fb
:103c9800e00f5200010035000044eb00e04f5400f3
:103ca80013003200848820005403be004402be0082
:103cb80007f0a200809220000498be000690be0083
:103cc800049320003400be002401be008498200024
:103cd8005403be004402be002ef307000002be00db
:103ce8000203be0040aa20000498be000690be0051
:103cf80084a920003400be002401be0004932000e3
:103d08005403be004402be0022f307000002be00b6
:103d18000203be00c0aa20000498be000690be00a0
:103d280044aa20003400be002401be0018c0b3001d
:103d38006022b8006033b8000cf307000002780076
:103d4800e00f5200010035000044eb00e04f540042
:103d58000700320044aa20005403be004402be00fb
:103d680007f0a20040aa20000498be000690be00fa
:103d7800c4aa20003400be002401be0018c0b3004d
:103d88006022b8006033b800f8f20700000278003b
:103d9800e00f5200010035000044eb00e04f5400f2
:103da80007003200c4aa20005403be004402be002b
:103db80007f0a200c0aa20000498be000690be002a
:103dc80044aa20003400be002401be00c4aa20007a
:103dd8005403be004402be0018c0b300e8f2070056
:103de80000027800e00f520001003c000044eb00a4
:103df800e04f54001e00320044c0b3000440780075
:103e080060eab700809220006022b8006033b800f2
:103e18000498be000690be001500370004558000c7
:103e28001555800061024200e0824a00045588006e
:103e380015558800009320006022b8006033b80050
:103e48000498be000690be000655800017558000f5
:103e58002403200005002000840f5300858f5b0099
:103e680003003a0024c0b300044078005ceab700bd
:103e78004f0478000080fa00000006000000fa00f5
:103e8800881f780004a6200014427800e54f5200ed
:103e980009003200849220003400be002401be00d4
:103ea8006022b8006033b800b0f207000002780062
:103eb800e00f520037003a00049320003400be009f
:103ec8002401be00849220005403be004402be00b8
:103ed80018c0b300a5f2070000027800e00f5200f6
:103ee800010035000044eb00e04f54000d003200a3
:103ef800049320003400be002401be0084982000f2
:103f08005403be004402be00e8f107000002be00f0
:103f18000203be00009320000498be000690be0075
:103f28001a003700049320003400be002401be00ac
:103f3800849220005403be004402be0018c0b3009f
:103f48008ff2070000027800e00f520001003c00e9
:103f58000044eb00e04f54000c00320004932000b2
:103f68003400be002401be00849920005403be0022
:103f78004402be0025f507000002be000203be0091
:103f8800009320000498be000690be0020c0b30035
:103f9800a0f90700049420003400be002401be00ec
:103fa800049320005403be004402be00bff1070082
:103fb8000002be000203be00009420000498be0068
:103fc8000690be00849520003400be002401be0087
:103fd800049320005403be004402be000bf5070002
:103fe8000002be000203be00809520000498be00b7
:103ff8000690be004f0478000080fa00000006001a
:104008000000fa0080832000a499290095992900ce
:104018009699290097fd23000498be000690be00db
:1040280000842000b4472100e57a240016ae27005a
:1040380047f923000498be000690be008084200043
:10404800a4992900959929009699290097fc23009d
:104058000498be000690be00808620006022b8004a
:104068000600200007ff23000498be000690be004b
:10407800008720006022b8006033b8000498be00b2
:104088000690be00808720006022b8006033b80028
:104098000498be000690be00008520006022b8008b
:1040a8000600200007ff23000498be000690be000b
:1040b800808520006022b8006033b8000498be00f4
:1040c8000690be00008620006022b8006033b80069
:1040d8000498be000690be00008820006022b80048
:1040e80006002000970324000498be000690be0036
:1040f8000080fa00000006000200fa00889fbe0057
:104108008a9fbe00004f78001e427800e04f5200a0
:10411800a5003a00049420003400be002401be002b
:10412800049520005403be004402be00b7f4070003
:104138000002be000203be00009d20000498be00dd
:104148000690be00849d20003400be002401be00fd
:10415800049d20005403be004402be0053f1070032
:104168000002be000203be00809d20000498be002d
:104178000690be00849520003400be002401be00d5
:10418800849620005403be004402be009ff407003a
:104198000002be000203be00809f20000498be00fb
:1041a8000690be0004a020003400be002401be001a
:1041b800849f20005403be004402be003bf1070068
:1041c8000002be000203be0000a020000498be004a
:1041d8000690be00049d20003400be002401be00ed
:1041e800848320005403be004402be0013f307007a
:1041f8000002be000203be000404be000605be00a5
:10420800849d20003400be002401be0004842000e8
:104218005403be004402be0008f307000002be00bb
:104228000203be000800be000a01be001ff107001d
:104238000002be000203be000404be000605be0064
:10424800049d20003400be002401be00849e20008e
:104258005403be004402be006cf407000002be0016
:104268000203be000400be000601be0084842000d4
:104278005403be004402be00f0f207000002be0074
:104288000203be000800be000a01be0007f10700d5
:104298000002be000203be0080a420000498be00f5
:1042a8000690be00849f20003400be002401be009a
:1042b800848320005403be004402be00dff20700de
:1042c8000002be000203be000404be000605be00d4
:1042d80004a020003400be002401be000484200095
:1042e8005403be004402be00d4f207000002be0020
:1042f8000203be000800be000a01be00ebf0070082
:104308000002be000203be000404be000605be0093
:10431800849f20003400be002401be0004a12000b8
:104328005403be004402be0038f407000002be0079
:104338000203be000400be000601be008484200003
:104348005403be004402be00bcf207000002be00d7
:104358000203be000800be000a01be00d3f0070039
:104368000002be000203be0000a520000498be00a3
:104378000690be00049d20005403be004402be0007
:10438800809e20000498be000690be00849f2000f6
:104398005403be004402be0000a120000498be00e1
:1043a8000690be00340137001e427800e14f5200eb
:1043b80056003a00848c20003400be002401be0060
:1043c800848d20005403be004402be000ff4070091
:1043d8000002be000203be00809a20000498be00be
:1043e8000690be00049b20003400be002401be00dd
:1043f800849a20005403be004402be00abf00700bc
:104408000002be000203be00009b20000498be000c
:104418000690be00849a20003400be002401be002d
:10442800848620005403be004402be0083f20700c5
:104438000002be000203be000404be000605be0062
:10444800049b20003400be002401be000487200025
:104458005403be004402be0078f207000002be000a
:104468000203be000800be000a01be008ff007006c
:104478000002be000203be000404be000605be0022
:10448800849a20003400be002401be00049c200051
:104498005403be004402be00dcf307000002be0065
:1044a8000203be000400be000601be00848720008f
:1044b8005403be004402be0060f207000002be00c2
:1044c8000203be000800be000a01be00cff30700c9
:1044d8000002be000203be0080a820000498be00af
:1044e8000690be00849a20005403be004402be0019
:1044f800009c20000498be000690be0084a82000fe
:104508005403be004402be00dd0037001e4278009e
:10451800e24f5200d8003a00048e20003400be005a
:104528002401be00048f20005403be004402be00d4
:10453800b6f307000002be000203be000400be007e
:104548000601be0018c0b3008465250085882400d4
:1045580086862600170e240009f10700000278005d
:10456800e00f520001003c000044eb00e04f540013
:104578000e003200048e20003400be002401be006c
:10458800846525008588240086862600170f240068
:104598009ef307000002be000203be00008e20004a
:1045a8000498be000690be0024003700048e200048
:1045b8003400be002401be00048f20005403be0056
:1045c8004402be0091f307000002be000203be00d1
:1045d8000400be000601be0018c0b30084652500b3
:1045e8008588240086862600170e2c00dff0070039
:1045f80000027800e00f5200010035000044eb0093
:10460800e04f54000d003200048e20003400be003c
:104618002401be008465250085882400868626003e
:10462800170f240021f007000002be000203be009d
:10463800008e20000498be000690be00048e200064
:104648003400be002401be00048f20005403be00c5
:104658004402be006df307000002be000203be0064
:1046680000a220000498be000690be0004a220000c
:104678003400be002401be0018c0b30084652500c4
:104688008588240086862600170e2400bcf00700c3
:1046980000027800e00f520001003c000044eb00eb
:1046a800e04f54000e00320004a220003400be0087
:1046b8002401be008465250085882400868626009e
:1046c800170f240051f307000002be000203be00ca
:1046d80000a220000498be000690be001c0037000f
:1046e80004a220003400be002401be0018c0b3009c
:1046f800846525008588240086862600170e2c00f0
:104708009af0070000027800e00f5200010035001f
:104718000044eb00e04f54000d00320004a22000da
:104728003400be002401be0084652500858824006d
:1047380086862600170f2400dcef07000002be0063
:104748000203be0000a220000498be000690be002e
:1047580084a220003400be002401be0004a2200070
:104768005403be004402be00d0ef07000002be00a2
:104778000203be0080a220000498be000690be007e
:1047880004a220003400be002401be0004852000dd
:104798005403be004402be00a8f107000002be0098
:1047a8000203be000404be000605be0084a2200069
:1047b8003400be002401be00848520005403be00de
:1047c8004402be009df107000002be000203be00c5
:1047d8000800be000a01be00b4ef07000002be00d8
:1047e8000203be000404be000605be0004a22000a9
:1047f8003400be002401be0084a320005403be0080
:104808004402be0001f307000002be000203be001e
:104818000400be000601be00048620005403be004a
:104828004402be0085f107000002be000203be007c
:104838000800be000a01be00f4f207000002be0034
:104848000203be0000a920000498be000690be0026
:1048580004a220005403be004402be0080a320002e
:104868000498be000690be0004a920005403be00b0
:104878004402be00020037006022b8006033b8006e
:104888000400be000601be004f05be004f04be0076
:104898000080fa00000006000000fa00889fbe00b1
:1048a8008a9fbe00100020005e0c07002000200038
:1048b8005c0c0700c6578000d7578000045880005a
:1048c800155880000402530085825b004f2bde00e0
:1048d800070020000602420087824a008582d10034
:1048e8000482d3006453880075538800c65780003b
:1048f800d7578000045880001558800006024200ef
:1049080087824a004f2bde00070020000602420083
:1049180087824a008582d1000482d30084538800ac
:1049280095538800848d20003404be002405be0001
:1049380084538000955380000400be0025f10700d1
:104948000002be000203be000800be000a01be004d
:1049580056ef07000002be000203be00808d200053
:104968000498be000690be008453800095538000d2
:104978000400be0017f107000002be000203be00db
:10498800009820000498be000690be00c45780001e
:10499800d55780000400be000ef107000002be00db
:1049a8000203be00009520000498be000690be00d9
:1049b80004588000155880000400be0005f1070067
:1049c8000002be000203be00809620000498be00cc
:1049d8000690be0064538000755380000400be003a
:1049e800fcf007000002be000203be008093200016
:1049f8000498be000690be00048f20003404be0058
:104a08002405be0064538000755380000400be0076
:104a1800f0f007000002be000203be000800be005e
:104a28000a01be0021ef07000002be000203be001b
:104a3800008f20000498be000690be00048f20005e
:104a48003400be002401be0018c0b30084652500f0
:104a58008588240086862600170e2400c8ef0700e4
:104a680000027800e00f520001003c000044eb0017
:104a7800e04f54000e003200048f20003400be00c6
:104a88002401be00846525008588240086862600ca
:104a9800170f24005df207000002be000203be00eb
:104aa800008f20000498be000690be001c0037004e
:104ab800048f20003400be002401be0018c0b300db
:104ac800846525008588240086862600170e2c001c
:104ad800a6ef070000027800e00f52000100350041
:104ae8000044eb00e04f54000d003200048f20001a
:104af8003400be002401be0084652500858824009a
:104b080086862600170f2400e8ee07000002be0084
:104b18000203be00008f20000498be000690be006d
:104b2800a6538000b75380006453800075538000fb
:104b38000602420087824a00a4538800b5538800c1
:104b4800048020003404be002405be00a453800065
:104b5800b55380000400be009ef0070014da2b0055
:104b680045682f0026a12200670c240089ef070062
:104b78000002be000203be000800be000a01be001b
:104b8800caee07000002be000203be00008120003a
:104b98000498be000690be00048120005403be00a5
:104ba8004402be000400be000601be006def07000f
:104bb8000004be000205be008453800095538000a7
:104bc8000400be0083f007000002be000203be001e
:104bd8000800be000a01be0098f007000002be00ef
:104be8000203be0080a720000498be000690be0005
:104bf800048120005403be004402be000400be002d
:104c08000601be0002f107000004be000205be0056
:104c180084538000955380000400be006df00700a7
:104c28000002be000203be000800be000a01be006a
:104c380082f007000002be000203be0000a82000a8
:104c48000498be000690be00848a20003400be008e
:104c58002401be0084a720005403be004402be0005
:104c680092ee07000002be000203be00808a200008
:104c78000498be000690be00048c20003400be00dc
:104c88002401be0004a820005403be004402be0054
:104c980086ee07000002be000203be00008c200062
:104ca8000498be000690be004f05be004f04be002b
:104cb8000080fa00000006000600fa00004f7800a5
:104cc80012079800230798001e427800e14f52000f
:104cd80025003a001e009000ae0090004b0007002f
:104ce800000278004411880021e2a90022a2a9004c
:104cf800141180000460a1000470a1001411880040
:104d08002362a90023c2a90023a2a90023e2a900c3
:104d180022c2a90022e2a9002002a90004118000f1
:104d28000410a1000420a100041188002062a8003a
:104d38002082a90020a2a90020c2a90020e2a9007f
:104d4800041180000480a1000490a10004118800cf
:104d58002162a9002182a90021a2a90021e2a800bc
:104d68002342a800270037001e427800e34f520074
:104d780024003a001e009000ae00900023000700b7
:104d880000027800c411880031e2a90032a2a9000b
:104d9800941180000460a1000470a100941188009f
:104da8003362a90033c2a90033a2a90033e2a900e3
:104db80032c2a90032e2a9003002a90084118000a1
:104dc8000410a1000420a100841188003062a8000a
:104dd8003082a90030a2a90030c2a90030e2a9009f
:104de800841180000480a1000490a100841188002f
:104df8003162a9003182a90031a2a90031e2a800dc
:104e08003342a8000080fa00000006000400fa00ff
:104e1800889fbe008a9fbe00008fbe001e02be0093
:104e280006d4200037002000860f5200878f5a00d2
:104e38004200320006d4200037002000860f5200be
:104e4800878f5a001b003e0006b024000700200090
:104e5800860f5200878f5a003e00320006b02400a9
:104e680007002000860f5200878f5a0006003e0078
:104e78000658220007002000860f5200878f5a002c
:104e8800360032003700370006102e0007002000d9
:104e9800860f5200878f5a002c00320006202c0003
:104ea80017002000860f5200878f5a002500320015
:104eb8002c00370006a8210067002000860f52004a
:104ec800878f5a001900320006a8210067002000c9
:104ed800860f5200878f5a0006003e0006092d00f3
:104ee80037002000860f5200878f5a0011003200c9
:104ef8001c00370006122a0077002000860f520097
:104f0800878f5a000700320006242400f70020008b
:104f1800860f5200878f5a0012003a009400200032
:104f280033003700340120003100370084012000ad
:104f38002f003700740220002d00370014032000d2
:104f48002b0037006405200029003700d40a200010
:104f58002700370084202000250037001441200056
:104f6800230037001e04be000005eb008005eb009f
:104f78000802be000a03be00b0b7270021262000a1
:104f88006011b800e9f107000203be000002be008c
:104f9800e00f5200e08f5a00e00f5b00e08f5b00eb
:104fa80007003d0030002000010020006011b8001b
:104fb80004024000858248000603490087834900af
:104fc8004222de00ce28dd0004827000c22ade0004
:104fd800ce30dd00858270004233de00ce38dd0041
:104fe80006837000c2bbde00040278000402e900f8
:104ff800040078004f05be004f04be000080fa0090
:10500800000006000600fa00004f7800120798001a
:10501800230798001e427800e14f520007003a002b
:1050280021e2a9001e009000ae00900077ff070063
:10503800000278004411880021e2a8000080fa00ec
:10504800000006000200fa00004f7800114798009f
:105058001e427800e14f52000a003a0000000000aa
:10506800151180000420200004826200e00f520025
:10507800fbff3a001e4290000482fb0024118800c6
:105088000c0037001e427800e34f520009003a0036
:1050980000000000951180000420200004826200b6
:1050a800e00f5200fbff3a001e4290000482fb0012
:1050b800a41188000080fa00000006000400fa002d
:1050c800004f7800110798001e02900014427800e3
:1050d800844078001e407800daff07001e02900026
:1050e800144278000482fb000402ea004f22de002a
:1050f800044278009e0290008502e8001507980097
:10510800e04f5200f0ff3a000080fa00000006006d
:105118000800fa00204798002107980032079800f5
:105128000002eb00040f7800160037002e429000b2
:10513800e14f520008003a001e027800ae029000cb
:1051480004824200144278008440780010c0b30002
:10515800bcff07000a0037002e429000e34f5200c0
:1051680007003a001e027800ae0290000482420056
:10517800144278008440780030c0b300b1ff0700c3
:105188001e0fe8009e0278003e029000848f5200b5
:10519800e6ff39000080fa00000006000e00fa0061
:1051a800600798000002eb00040f78006e02900080
:1051b800e00f520008003d006e0290000402ea0071
:1051c8006407980094b120009e024200d4c2b30044
:1051d800844a78001e0fe800ee0290000471220055
:1051e800110009008402d800000278001407980012
:1051f8009e029000048f2d0004aab9008402780052
:105208006e02900084824200843e20001100090052
:105218008402d80000027800240798009e029000bb
:10522800048f2d0004aab90004037800ae02900090
:1052380084c12f0004aab900040278008402430044
:105248006e0290008482420044062000110009008a
:105258008402d80000027800340798009e0290006b
:10526800048f2d0004aab90004037800ae02900050
:1052780084c12f0004aab900040278008402430004
:105288006e02900004834200be029000c4f92f0011
:1052980004aab9000402780084024300a400200094
:1052a800110009008402d800000278004407980021
:1052b8009e029000048f2d0004aab9000403780010
:1052c800ae02900084c12f0004aab900040278003d
:1052d800840243006e02900004834200ce029000d4
:1052e80064ff2f0004aab90084037800be0290006e
:1052f800c4f92f0004aab90004027800048243000c
:1053080004024300540798001e02900004427800eb
:105318000443b00095b120009e824200844a780080
:105328001e0fe8002e029000044278000443b000eb
:1053380095b120009e824200844a78001e0fe80042
:105348003e029000044278000443b00095b120006a
:105358009e824200844a78001e0fe8004e029000a8
:10536800044278000443b00095b120009e824200b8
:10537800844a78001e0fe8005e029000044278001c
:105388000443b00095b120009e824200844a780010
:105398001e0fe80094b120009e0242000042eb007c
:1053a800844a78001e0fe80094b1200004007800b9
:1053b8000080fa00000006002e00fa00889fbe0058
:1053c80050179800611798000002eb00040f78004e
:1053d8005e129000ee129000e00f5200e08f5a002b
:1053e8000b003d005e129000ee1290006002120069
:1053f800e0821a005417980065179800a4b020009e
:105408009e024200d4c2b300844a78001e0fe8000e
:105418005e129000ee12900002a02c00a3b92300a7
:105428000400be00b5ed07000002be001407980096
:10543800250798001e029000ae0290000660230027
:1054480006abb9000603780057462c0007a0b90040
:105458008003780007034300840278000460230077
:10546800042ab80005034300860278005e13900002
:10547800ee1390000402430085824b0002102e00b8
:10548800535f20000400be009ced07000002be0030
:1054980034079800450798001e029000ae0290005d
:1054a8000660230006abb9000600780056462c00bb
:1054b80006a3b900060378000600400084027800bd
:1054c80004602300042bb800070040008003780024
:1054d8003e029000ce02900000f0210000a8b90022
:1054e80000007800a1a02f0001a1b9008200780077
:1054f800010040008402780004f02100042ab8006a
:1055080005004000800278000603420087834a00b5
:105518005e129000ee1290000602420087824a0056
:1055280002682900830920000400be0073ed07000b
:105538000002be0054079800650798001e029000fc
:10554800ae0290000660230006abb90006007800a2
:1055580056462c0006a3b900060378000600400052
:105568008402780004602300042bb8000700400080
:10557800800378003e029000ce02900000f02100e7
:1055880000a8b90000007800a1a02f0001a1b9006f
:1055980082007800010040008402780004f02100b5
:1055a800042ab80005004000800278000603420083
:1055b80087834a005e129000ee12900006004200b7
:1055c80087804a005e029000ee029000069826004e
:1055d80006abb9000603780077f62f0007a1b900db
:1055e80082037800070343008402780004982600a9
:1055f800042ab8000503430086027800000242002e
:1056080081824a0002242400f30020000400be0026
:105618003aed07000002be0074079800050f9800d5
:105628001e029000ae0290000660230006abb9008f
:105638000600780056462c0006a3b9000603780039
:10564800060040008402780004602300042bb800a0
:1056580007004000800378003e029000ce029000d0
:1056680000f0210000a8b90000007800a1a02f00d8
:1056780001a1b9008200780001004000840278008e
:1056880004f02100042ab8000500400080027800d8
:105698000603420087834a005e129000ee129000d3
:1056a8000601420087814a007e0290008e0a90001f
:1056b80006dc2b0006abb9000600780006ff2f00b9
:1056c80006a3b900060378000600400084027800ab
:1056d80004dc2b00042bb80007004000800378008e
:1056e8005e029000ee0290000098260000a8b90023
:1056f8000000780071f62f0001a4b9008800780036
:10570800010040008402780004982600042ab800aa
:1057180005004000800278000602420087824a00a5
:105728000202420083824a00026a28001300200015
:105738000400be00f1ec07000002be00140f980040
:10574800250f98001e029000ae029000066023000c
:1057580006abb9000600780056462c0006a3b9002f
:1057680006037800060040008402780004602300e5
:10577800042bb80007004000800378003e02900028
:10578800ce02900000f0210000a8b90000007800c7
:10579800a1a02f0001a1b9008200780001004000fb
:1057a8008402780004f02100042ab80005004000b3
:1057b800800278000603420087834a005e12900048
:1057c800ee1290000601420087814a007e02900096
:1057d8008e0a900006dc2b0006abb90006007800a4
:1057e80006ff2f0006a3b900060378000600400054
:1057f8008402780004dc2b00042bb800070040006a
:10580800800378005e029000ee0290000098260067
:1058180000a8b9000000780071f62f0001a4b900b3
:10582800880078000100400084027800049826006f
:10583800042ab800050040008002780006024200f1
:1058480087824a000200420083804a001e0a9000b4
:10585800ae0a90000696270006abb900060378004a
:10586800e7ff2f0007a1b900820378000703430070
:105878008402780004962700042ab8000503430030
:10588800860278000002420081824a0002712200ea
:10589800030020000400be0098ec07000002be00d0
:1058a800340f9800450f98001e029000ae02900039
:1058b8000660230006abb9000600780056462c00a7
:1058c80006a3b900060378000600400084027800a9
:1058d80004602300042bb800070040008003780010
:1058e8003e029000ce02900000f0210000a8b9000e
:1058f80000007800a1a02f0001a1b9008200780063
:10590800010040008402780004f02100042ab80055
:1059180005004000800278000603420087834a00a1
:105928005e129000ee1290000601420087814a0044
:105938007e0290008e0a900006dc2b0006abb900b0
:105948000600780006ff2f0006a3b90006037800ba
:10595800060040008402780004dc2b00042bb80009
:1059680007004000800378005e029000ee0290007d
:105978000098260000a8b9000000780071f62f00f2
:1059880001a4b90088007800010040008402780072
:1059980004982600042ab800050040008002780018
:1059a8000602420087824a000201420083814a00bf
:1059b8003e0a9000ce0a9000068f2d0006abb90073
:1059c800060078000083eb0006a3b9000603780000
:1059d8000600400084027800048f2d00042bb800d4
:1059e80007004000800378001e0a9000ae0a90006d
:1059f8000096270000a8b90000007800e1ff2f00fa
:105a080001a4b900880078000100400084027800f1
:105a180004962700042ab800050040008002780098
:105a28000602420087824a000202420083824a003c
:105a3800823e2000030020000400be002fec070077
:105a48000002be00540f9800650f98001e029000d7
:105a5800ae0290000660230006abb900060078008d
:105a680056462c0006a3b90006037800060040003d
:105a78008402780004602300042bb800070040006b
:105a8800800378003e029000ce02900000f02100d2
:105a980000a8b90000007800a1a02f0001a1b9005a
:105aa80082007800010040008402780004f02100a0
