:020000040000fa
:080000000002040000000000f2
:020000040000fa
:0400080034050000bb
:020000040000fa
:04000c0034050000b7
:020000040000fa
:0400100034050000b3
:020000040000fa
:0400140034050000af
:020000040000fa
:0400180034050000ab
:020000040000fa
:04001c0034050000a7
:020000040000fa
:0400200034050000a3
:020000040000fa
:04002400340500009f
:020000040000fa
:04002800340500009b
:020000040000fa
:04002c003405000097
:020000040000fa
:040030003405000093
:020000040000fa
:04003400d4020000f2
:020000040000fa
:04003800340500008b
:020000040000fa
:04003c003405000087
:020000040000fa
:040040003405000083
:020000040000fa
:040044007403000041
:020000040000fa
:04004800ae03000003
:020000040000fa
:04004c003405000077
:020000040000fa
:040050003405000073
:020000040000fa
:04005400cc040000d8
:020000040000fa
:04005800340500006b
:020000040000fa
:04005c003405000067
:020000040000fa
:040060003405000063
:020000040000fa
:04006400340500005f
:020000040000fa
:04006800340500005b
:020000040000fa
:04006c003405000057
:020000040000fa
:040070003405000053
:020000040000fa
:04007400340500004f
:020000040000fa
:04007800340500004b
:020000040000fa
:04007c003405000047
:020000040000fa
:040080003405000043
:020000040000fa
:04008400340500003f
:020000040000fa
:04008800340500003b
:020000040000fa
:04008c003405000037
:020000040000fa
:040090003405000033
:020000040000fa
:04009400e003000085
:020000040000fa
:04009800560400000a
:020000040000fa
:04009c003405000027
:020000040000fa
:0400a000fe0400005a
:020000040000fa
:0400a4002005000033
:020000040000fa
:0400a800340500001b
:020000040000fa
:0400ac003405000017
:020000040000fa
:0400b0003405000013
:020000040000fa
:0400b400340500000f
:020000040000fa
:0400b800340500000b
:020000040000fa
:0400bc003405000007
:020000040000fa
:0400c0003405000003
:020000040000fa
:0400c40034050000ff
:020000040000fa
:0400c80034050000fb
:020000040000fa
:0400cc0034050000f7
:020000040000fa
:0400d00034050000f3
:020000040000fa
:0400d40034050000ef
:020000040000fa
:0400d80034050000eb
:020000040000fa
:0400dc0034050000e7
:020000040000fa
:0400e00034050000e3
:020000040000fa
:0400e40034050000df
:020000040000fa
:0400e80034050000db
:020000040000fa
:0400ec0034050000d7
:020000040000fa
:0400f00034050000d3
:020000040000fa
:0400f40034050000cf
:020000040000fa
:0400f80034050000cb
:020000040000fa
:0400fc0034050000c7
:020000040000fa
:0401000034050000c2
:020000040000fa
:0401040034050000be
:020000040000fa
:0401080034050000ba
:020000040000fa
:04010c0034050000b6
:020000040000fa
:040110008404000063
:020000040000fa
:0401140034050000ae
:020000040000fa
:0401180034050000aa
:020000040000fa
:04011c0034050000a6
:020000040000fa
:0401200034050000a2
:020000040000fa
:04012400340500009e
:020000040000fa
:04012800340500009a
:020000040000fa
:04012c003405000096
:020000040000fa
:040130003405000092
:020000040000fa
:04013400340500008e
:020000040000fa
:04013800340500008a
:020000040000fa
:04013c003405000086
:020000040000fa
:040140003405000082
:020000040000fa
:04014400340500007e
:020000040000fa
:04014800340500007a
:020000040000fa
:04014c003405000076
:020000040000fa
:040150003405000072
:020000040000fa
:04015400a8040000fb
:020000040000fa
:04015800340500006a
:020000040000fa
:04015c003405000066
:020000040000fa
:040160003405000062
:020000040000fa
:04016400340500005e
:020000040000fa
:0402080034050000b9
:020000040000fa
:04020c0034050000b5
:020000040000fa
:0402100034050000b1
:020000040000fa
:0402140034050000ad
:020000040000fa
:0402180034050000a9
:020000040000fa
:04021c0034050000a5
:020000040000fa
:0402200034050000a1
:020000040000fa
:04022400340500009d
:020000040000fa
:040228003405000099
:020000040000fa
:04022c003405000095
:020000040000fa
:040230003405000091
:020000040000fa
:04023400340500008d
:020000040000fa
:040238003405000089
:020000040000fa
:04023c003405000085
:020000040000fa
:040240003405000081
:020000040000fa
:04024400340500007d
:020000040000fa
:040248003405000079
:020000040000fa
:04024c003405000075
:020000040000fa
:040250003405000071
:020000040000fa
:04025400340500006d
:020000040000fa
:040258003405000069
:020000040000fa
:04025c003405000065
:020000040000fa
:040260003405000061
:020000040000fa
:04026400340500005d
:020000040000fa
:040268003405000059
:020000040000fa
:04026c003405000055
:020000040000fa
:040270003405000051
:020000040000fa
:04027400340500004d
:020000040000fa
:040278003405000049
:020000040000fa
:04027c003405000045
:020000040000fa
:040280003405000041
:020000040000fa
:04028400340500003d
:020000040000fa
:040288003405000039
:020000040000fa
:04028c003405000035
:020000040000fa
:040290003405000031
:020000040000fa
:04029400340500002d
:020000040000fa
:040298003405000029
:020000040000fa
:04029c003405000025
:020000040000fa
:0402a0003405000021
:020000040000fa
:0402a400340500001d
:020000040000fa
:0402a8003405000019
:020000040000fa
:0402ac003405000015
:020000040000fa
:0402b0003405000011
:020000040000fa
:0402b400340500000d
:020000040000fa
:0402b8003405000009
:020000040000fa
:0402bc003405000005
:020000040000fa
:0402c0003405000001
:020000040000fa
:0402c40034050000fd
:020000040000fa
:0402c80034050000f9
:020000040000fa
:0402cc0034050000f5
:020000040000fa
:0402d00034050000f1
:020000040000fa
:0402d40034050000ed
:020000040000fa
:0402d80034050000e9
:020000040000fa
:0402dc0034050000e5
:020000040000fa
:0402e00034050000e1
:020000040000fa
:0402e40034050000dd
:020000040000fa
:0402e80034050000d9
:020000040000fa
:0402ec0034050000d5
:020000040000fa
:0402f00034050000d1
:020000040000fa
:0402f40034050000cd
:020000040000fa
:0402f80034050000c9
:020000040000fa
:0402fc0034050000c5
:020000040000fa
:0403000034050000c0
:020000040000fa
:0403040034050000bc
:020000040000fa
:0403080034050000b8
:020000040000fa
:04030c0034050000b4
:020000040000fa
:0403100034050000b0
:020000040000fa
:0403140034050000ac
:020000040000fa
:0403180034050000a8
:020000040000fa
:04031c0034050000a4
:020000040000fa
:0403200034050000a0
:020000040000fa
:04032400340500009c
:020000040000fa
:040328003405000098
:020000040000fa
:04032c003405000094
:020000040000fa
:040330003405000090
:020000040000fa
:04033400340500008c
:020000040000fa
:040338003405000088
:020000040000fa
:04033c003405000084
:020000040000fa
:040340003405000080
:020000040000fa
:04034400340500007c
:020000040000fa
:040348003405000078
:020000040000fa
:04034c003405000074
:020000040000fa
:040350003405000070
:020000040000fa
:04035400340500006c
:020000040000fa
:040358003405000068
:020000040000fa
:04035c003405000064
:020000040000fa
:040360003405000060
:020000040000fa
:04036400340500005c
:020000040000fa
:10040000af6b22000e7f24000e0188000000000068
:10041000000020000000e000020032000001200087
:100420002002880014000700f10107000000e0002e
:1004300003003a0040d42c000100200002003700e5
:100440000000200001002000810f70000100320038
:1004500014000700000020000000e000020032004d
:10046000000002000000000082e302000000000023
:100470000040da000000fe004440a9000000200017
:100480000000e0000300320000002000a00188000e
:100490004440a800000006008a1f78008b1f7800e7
:1004a0000000060091018800800478000000eb0045
:1004b0001a003700e284440032a0b4009905ba0063
:1004c000e284440032a0b4009906ba00e2844400f9
:1004d00032a0b4000006eb00476fde00fd07b2005b
:1004e000636ce10003003a00ebff07000000eb0043
:1004f0000a003700606ce10004003a00005deb0088
:100500008b05e900fdff3e00040037006168e10053
:10051000010032000086eb000b00070019c7ba008b
:100520001905ba000e04e00003003a000a00e000da
:10053000e0ff3a0000000600fe07b2009e018800be
:100540008a047800f5ff3700395dba008b05e900b1
:100550000c003200295dba008b05e900080032006a
:100560000c00e00003003a00e284440032a0b40032
:10057000f5ff370019ddba008b05e900faff3a00f4
:100580008904e800e184440032a0b40000000600c1
:100590004a1d0400000000000000040000000000ec
:1005a000b22f0400000000003600f800809fbe005b
:1005b000829fbe00849fbe00869fbe000000fa009e
:1005c0008460a9004a5007008059800061006000e3
:1005d0000000e0000100320097480700405f800003
:1005e0004f00de00004078000004e0001e003200f2
:1005f000305f8000435f8000f2ff2700828061004f
:1006000065004000e0804800f2ff2f00f3ff270064
:1006100080027800810078000202780003007800f0
:1006200004826200008060008000eb00c000dd00fa
:10063000000020000001be006120b8000001710030
:10064000818171000200be00305f8800f2ff270048
:1006500002806000425f800001002800810061008c
:1006600001007000405f8800e06180000000e80049
:10067000e0618800e161800040062000808f50002a
:1006800012003a00f0618000e10f500002003a00d1
:100690003e2cef000200370010002000f0618800bf
:1006a000f061800000407800614060000080fb0045
:1006b000610060004200dd00911680000120a10071
:1006c00001007000901688003c2cef000080fa00ba
:1006d0004f03be004f02be004f01be004f00be00e0
:1006e0003600f900004006003600f800809fbe008a
:1006f000829fbe00849fbe00869fbe000000fa005d
:1007000084e0a900d66d0700605f8000e10f500013
:100710000a003a00206080000000e80020608800a5
:100720002160800060092000808f500004003600a6
:10073000600920002060880001003700042cef00d1
:100740000080fa004f03be004f02be004f01be0002
:100750004f00be003600f900004006003600f800e9
:10076000809fbe00829fbe00849fbe00869fbe0009
:100770000000fa0013e1a900d66f0700004922002b
:100780001080fb004500de00614060000004e000d6
:1007900001003200b96e07000a21ef008500a900b0
:1007a00013e1a8000080fa004f03be004f02be0014
:1007b0004f01be004f00be003600f90000400600a9
:1007c0003600f800809fbe00829fbe00849fbe005e
:1007d000869fbe000000fa00305f8000435f80000b
:1007e000f2ff270082806100f2f82500130020004c
:1007f000820f5000838f580022003600d2a2a90039
:100800009460a90094e0a9009500a9009760a90050
:100810009780a9009b40a9009d60a900c2e2a900a1
:1008200005e1a90011e1a90013e1a9001fe1a90058
:100830006022b8006033b8000040eb00816c070014
:100840006022b8006033b80010c0b3007d6c0700b0
:100850006022b8006033b80020c0b300796c070094
:1008600091058000000027000100700090058800bd
:100870009105800000702000010070009005880044
:10088000ffff3700004922001080fb008760a900ad
:100890000080fa004f03be004f02be004f01be00b1
:1008a0004f00be003600f900004006003600f80098
:1008b000809fbe00829fbe00849fbe00869fbe00b8
:1008c0000000fa0021e1a9000049220090407800d0
:1008d00061c060000004e00001003200eb5107003d
:1008e0001821ef008780a90021e1a8000080fa000c
:1008f0004f03be004f02be004f01be004f00be00be
:100900003600f90000400600809fbe000000fa009b
:100910008b40a900010f8000008020000080600053
:100920000000e00004003200b9cbbf000040e80046
:10093000b9ebb70003003700b9cbbf000040e900b6
:10094000b9ebb7000080fa004f00be00004006007f
:10095000809fbe000000fa008d60a900810f80001a
:1009600000802000008060000000e00004003200f1
:10097000bacbbf000040e800baebb7000300370075
:10098000bacbbf000040e900baebb7000080fa0024
:100990004f00be00004006003600f800809fbe00f9
:1009a000829fbe00849fbe00869fbe000200fa00a8
:1009b0009560a9008560a90030118000004f780083
:1009c000004922009040780061c060000004e0000f
:1009d000020032001e407800595107009560a800bf
:1009e0000080fa004f03be004f02be004f01be0060
:1009f0004f00be003600f900004006003600f80047
:100a0000809fbe00829fbe00849fbe00869fbe0066
:100a10000000fa0097c0a90087c0a9005e61070026
:100a200097c0a8000080fa004f03be004f02be002e
:100a30004f01be004f00be003600f9000040060026
:100a4000809fbe000000fa0087e0a90061098100d4
:100a50000000280001007000600989000080fa0091
:100a60004f00be00004006000040da000000fe001b
:100a70000a00fa0011002000b1bf9f00c0bf9f0014
:100a80006a805700f71c07004fb897000080fa00f3
:100a9000000006000a00fa00e20f50001f003e00ae
:100aa000b0358100e10f50000600320080232000a5
:100ab0004523200023232000042320000000e00021
:100ac00004003a008022200045222000232220003a
:100ad00004222000060028009403630002003a006c
:100ae00007087800140a730013a8a30001003a0055
:100af00013a0a00002007800050037001388a300af
:100b0000feff32003102fb00840a78000000e90099
:100b10000000e000f9ff3a00080037003300200031
:100b2000b3bf9f00c0bf9f00d1bf9f00e2bf9f0027
:100b30006a805700cd1c07006fb99700020078004b
:100b40000080fa00000006000a00fa0051002000b0
:100b5000b1bf9f00c0bf9f006a805700c51c07003f
:100b60005fb897000080fa0000000600889fbe0072
:100b700080047800c03581000000e00004003a00e5
:100b80000e0007000084eb000000e00008003500c4
:100b9000c83581000900e00005003200090044006a
:100ba000060007000000e00001003d000084eb00ab
:100bb000080078004f04be000000060080007800a6
:100bc0000100e00003003a0000002000c035890069
:100bd000000005000080eb0002002000828f500022
:100be00002003e00c13589000000eb000000060055
:100bf000000005002800fa00889fbe008a9fbe0002
:100c00008c9fbe0007067800878669000c003b00b9
:100c1000030478008704780008f0a10009f0a1001f
:100c2000840f5000858f5800860f5900890f5c0093
:100c3000030033000cf0a20001003a000cf0a10008
:100c4000a10107006400e1005f0032007801470065
:100c50006408e100610032006c01470074855700b0
:100c60003200be001201be003a04be001a05be00ea
:100c70001e039000be0a90008503530006003d004d
:100c80000004fd008104fd000205fd008305fd0058
:100c90008703ea00050378000df8a3000400320082
:100ca00060041400e0841c0060051d00e0851d0048
:100cb0006022b8007d0320000d38e1008006eb00c3
:100cc0000b0039004433dd00f300b20083017300f0
:100cd00039003700848272000d027800e10664005a
:100ce0008b85d1000a85d3008984d3000884d30082
:100cf0008703e900f7ff3b000800400089804800b7
:100d00000a0149008b81490004003b00600010008b
:100d1000e080180060011900e08119000358a30069
:100d2000090032008d8272008482720061026000cc
:100d30008301d1000281d3008180d3000080d300e1
:100d40000603e8001b0037000348a30017003a0021
:100d50000600e000170034000603e9000d00a300c0
:100d60000000480081804800020149008381490059
:100d70000348a3000f003a000600e0000900340019
:100d80000603e9000000400081804800020149009c
:100d90008381490001003a000003eb000348a300ef
:100da000f5ff32006022b800020037008482720032
:100db000618266000601070003f0a1000cf0a700a5
:100dc00003f0a00054013700640147006408e1000b
:100dd00002003a000df8a3004c013a003200be00b8
:100de0001201be004c01370003f0a200889fbe0034
:100df0008a9fbe008c1f78005c02070063023300ec
:100e00006450e1004f0032006420e10052003200e3
:100e100003826c0007003b000905d0000306d000e8
:100e2000820f54000c065d000200390002003200ff
:100e300089017800030678008582550004003d0092
:100e40000003fd008103fd008502ea008b8542005e
:100e5000840f720002003b0060001000e080180068
:100e60006011b8000005eb007a28e1000a003900a3
:100e700006007800c75ddd00f707b20087807500c7
:100e80002d003700828171000a0178006105600041
:100e90008180d1000080d3008502e900f9ff3b008a
:100ea000060440008784480002003b0060041400f0
:100eb000e0841c000988a300070032008a817100c9
:100ec00082817100610164008904d1000884d3002b
:100ed0008b05e800170037000978a30013003a00db
:100ee0000b00e000130034008b05e9000804440007
:100ef00089844c000a4474000978a3000d003a006c
:100f00000b00e000070034008b05e90008044400f2
:100f100089844c0001003a000b0020000978a300ee
:100f2000f7ff32000001eb00020037008281710000
:100f30000a017800d20107000cf0a70001f0a00020
:100f40001b0237006420e10002003a00838f6c002e
:100f50001b0233000801be000200be00140237006d
:100f60000000fa00889fbe008a9fbe008c9fbe00d2
:100f70000404be000605be00c10007000406780098
:100f80000c78a30020003a000800fd008900fd0055
:100f90000a01fd008b01fd00b900070084067800fe
:100fa0000d78a30018003a000d0666006460e100a9
:100fb000190032006160e100170032000002be003b
:100fc0000203be000a01be000800be00070478004c
:100fd0002000070003f0a100fc04070008f0a600b1
:100fe0000600370003f0a20097002400b61f22007d
:100ff0004544250084d12200fefe07000bf0a70027
:1010000003f0a200c4003700180220000862880024
:101010000330a000c00037001802200008628800da
:10102000ba0037000002eb00930237008f1fd10097
:101030009c0507008f87e9000000e0000000060023
:10104000809feb00970507008f87e9000000e00014
:10105000000006002800fa00889fbe008a9fbe009c
:101060008c9fbe0003866b00970007006400e100c0
:10107000440032006408e1004a0032006100e100ef
:10108000460032006108e10049003200ec064700ea
:101090006000b8003d02be003d03be00f48657006c
:1010a0006011b8003d04be003d05be007d03200078
:1010b0000b0037000000a0008d06e900130032008d
:1010c0000402420085824a0006034b0087834b00de
:1010d00000004000818048000201490083814900ee
:1010e0000802520089825a000a035b008b835b006e
:1010f000f0ff3b000802420089824a000a034b00cd
:101100008b834b008d06e900edff3a00848272006c
:1011100086827200f707b2008782720001003200f7
:10112000150020001e0490003e0b900006035400a2
:10113000e63fb0000368a300070032000000a700ec
:101140000500a0008301d1000281d3008180d3007b
:101150000080d3000603e8008301d1000281d300a0
:101160008180d3000080d3000002eb000482d20013
:101170001700070003f0a1000cf0a70003f0a00087
:1011800065003700640247006408e1005f00320038
:101190003400be003401be00f6ff37006108e100f4
:1011a0005a0032006011b8006000b800f1ff37004b
:1011b00003ff270002002000fbff3700801feb0029
:1011c000380507008f87e9000000e00000000600f6
:1011d0001800200057002000080453000d003d00b7
:1011e0000600200097fc2f000740e1001e0034009d
:1011f00084827200610260008301d1000281d30009
:101200008180d3000080d3000804e800f8ff3a0092
:1012100047002000610460000504740004046400b9
:101220000d00320061004000e0804800600149008c
:10123000e081490003b8a500070032000603e8007a
:101240006538e10004003a008301d1000281d30037
:101250008180d3000080d300f87f20000830e100b7
:1012600003003500080378006000b8006011b80082
:101270004433dd00f300b200830173000000060078
:1012800005ff270005826100070032000428e10005
:1012900001003200240005000600070001003a00aa
:1012a000440005000408050002000700f9ff3a00a9
:1012b000140005006f8261008102700085027100d8
:1012c0008502720000000600680447000294be0018
:1012d0000094be00fc0447008694be008494be00c7
:1012e000090078002605070008007800240507009b
:1012f00099007800814f70000b003b000800be0091
:10130000110507004f00b10003003700f3ff27006d
:10131000f2ff2f006110b9004f06be004f05be005e
:101320004f04be000080fa00000006008103780030
:10133000f90007000001be006000b8000478a300b7
:1013400013003a006220e10015003e000d00390054
:101350008301d1000281d3008180d3008301d100b9
:101360000281d3008180d3008301d1000281d300a8
:101370008180d3000538b000c42add00f300b2003c
:101380008381720007f0a70003f0a00000000600b0
:10139000f3ff2700f2ff2f006110b900fbff3700b9
:1013a00003ff2700f7ff37001400fa00889fbe00f4
:1013b0008a9fbe008c9fbe000004be000205be00d6
:1013c000680047000a90be000890be00ec040700c9
:1013d0000070a7000bf0a100304320009e02900097
:1013e00080825200b0fe2f000028e10011003d0075
:1013f000b0fc2f000028e100150034001e09900009
:101400008e0890007e0090000501b0000201d1001e
:101410008180d3000080d3008502e800fbff3a0002
:101420000b00e000bcff3b0060001000e0801800f3
:10143000b9ff3700f0ff2f00f1ff27000b00e0009d
:10144000b5ff3b000100280000002000b2ff37007c
:101450006000b800b0ff37000001be00ae0007001a
:101460000470a70003f0a1006509b1001600320066
:101470000d0035006828e10006003500f0ff2f0060
:10148000f1ff27000300e00013003b0001002800eb
:101490000000050000004000818048008502e9004e
:1014a000fcff3a0008003700f88f420002003c00c1
:1014b0008000eb00000005008100d1000080d30017
:1014c0008502e800fcff3a000300e00002003b0058
:1014d00060001000e0801800000006001400fa0010
:1014e000889fbe008a9fbe008c9fbe000004be0085
:1014f0000205be00680047000a90be000890be00ca
:101500009f0407000070a7000bf0a1000bf8a300d8
:1015100016003a009e029000304320008082520064
:10152000b0fe2f000028e1000d003c00b0fc2f00b1
:101530000028e1000d0034001e0990008e08900084
:101540007e0090000501b0000201d1008180d3002f
:101550000080d3008502e800fbff3a006eff3700f1
:1015600001002800000020006bff37006000b80079
:1015700069ff3700881f7800030478000300e0004b
:1015800007003d0060001000e080180060011900b5
:10159000e081190002003b0001f02d00030037003c
:1015a0000a00070008f0a70003f0a0004f0478002d
:1015b000000006004f89de0082017800edff370051
:1015c0004f89de008201780094043700889fbe00b6
:1015d0000082700004027100048271002400320055
:1015e00036432000c50020008383cf000a00390065
:1015f0000541b1008283cf00070039000541b100e9
:101600008183cf00040039000541b1008083cf0001
:10161000010039000541b10085c353006022b800c4
:10162000120032000a003b008482720061026000f6
:101630008301d1000281d3008180d3000080d300d8
:101640000603e8008743e800f7ff3a000700370089
:101650000000400081804800020149008381490068
:101660000603e9008743e900f9ff3a00d8fe0700c6
:101670004f04be00000006006011b800d3ff370021
:1016800081002000618055000b003d000b00200010
:1016900061fe2f000100e1001d0034008281710015
:1016a000610164008904d1000884d3000000e800cf
:1016b000faff3a007100200061006400030070002e
:1016c000020060000900320061044400e0844c0024
:1016d0000988a500050032008b05e8006808e100d4
:1016e00002003a008904d1000884d300f20f2000e0
:1016f0000258e10005003d00c75ddd00f907b200ba
:101700008980750008007800000006000bf82700ab
:101710008b00780000000500c70ade00f107b20068
:10172000f50fb20008003200e1cf420002003200a3
:101730000170a00024000500810f7000010032003c
:101740000408050044000500810f700002003a0003
:10175000140005008502e9000000400081c0480037
:10176000fcff3b000170a000240005000004be0047
:10177000e9ff07000003be000405be000200be0032
:10178000e5ff0700844f7500000006000200be0060
:101790006450e100050036006420e10002003600dc
:1017a0000968a30001003a000800be000160a00023
:1017b0004f0678004f05be004f04be000000060033
:1017c000f0ff2f00f1ff2700f9ff37002800fa0093
:1017d000889fbe008a9fbe008c9fbe0003866b0060
:1017e000b9fe07000028a30064003a000128a30006
:1017f00067003a000008a30062003a000108a30055
:1018000065003a001e009000be089000810640006e
:10181000ed3fb100f4805700ee019000111ab800be
:101820008e099000311bb8009e099000311cb80051
:10183000511db800f485570046000700fe019000d6
:101840003a0007008b85e8003e0007008e099000f3
:1018500040000700ee019000340007008b85e8008f
:10186000380007008e099000400007009e09900094
:101870001b18b800890440000a854800fe0190004a
:10188000340007008b85e80038000700ee01900067
:10189000300007008e0990001b18b8008904400032
:1018a0000a8548000a98a30008003a000402420092
:1018b00085824a0006034b0087834b0008044c00d6
:1018c00089844c000a054d008d06e900848272006f
:1018d000850273004c3add0085027200010032007f
:1018e00015002000443ade001400b2004538de0046
:1018f000cb45dd000b007000c540de00cb4ddd00a8
:101900008b8070004549de00cb55dd000b01710076
:10191000c551de000d0378002dfe070003f0a10085
:101920000cf0a70003f0a0007bfe37001b18b800e6
:101930008502400006834800e0834b0060044c00b1
:10194000070037001b18b8000603400087834800d3
:10195000faff37001b18b8008703400008844800ce
:10196000e0844c0060054d00000006001b18b80024
:101970000804400089844800faff37000108a300ea
:1019800062fe3a005800be005801be00e3ff370077
:101990000008a3005dfe3a0009047800f9ff370053
:1019a000889fbe008a9fbe008c1f78006fff0700d3
:1019b00076ff330003866c006450e100240032009f
:1019c0006420e100270032006150e1002200320073
:1019d0006120e100210032008b854200eb07b1005d
:1019e0000134b800003ab8000804420089844a0073
:1019f000013ab8000030b8008880400009014a0070
:101a000004003300000040008180480002014900ca
:101a10008b05e900c909dd00830170000100320077
:101a200013002000c814de004814dd004709de0062
:101a30001200b200c808de000884700010ff070022
:101a400001f0a1000cf0a70001f0a00058ff370042
:101a50006120e1005aff32000801be000200be0012
:101a6000f7ff37006150e100fcff3a0054ff3700f8
:101a700014002000000037000800fa00889fbe0014
:101a80008a9fbe008c9fbe00040678000004be0042
:101a90000205be00fafd07006420e1009f003e0041
:101aa0009b0032006120e1009600320003f0a100ab
:101ab000171b240036582c0005a02100040020002c
:101ac0005afd07000800be000a01be0007003500ed
:101ad00097012400b61f22004544250084d122002e
:101ae0008d0307000004be000205be008006eb0067
:101af0000c00a700cf1ede0003f0a1000bf0a10038
:101b000047fd230006f3250095dc260034882c00d1
:101b10002eff07006022b8000003eb0007fe230041
:101b20000c00a60007ff230032fc07001efe070082
:101b30000000a7000d00a2009efe07000c00e000c0
:101b400004003a0007fe2300060020006022b800cf
:101b5000c600070003f0a200009fbe000297be006f
:101b600097002400060022006022b80017ff07003b
:101b70000802be000a03be001efc0700809fbe00d4
:101b8000829fbe003e00be002e01be00f7f423007f
:101b900046542b00152d2400a44628000bff0700f7
:101ba0004f03be004f02be0012fc07000004be003f
:101bb0000205be0003f0a10067e42300e6092a0045
:101bc000f5672600d4bc230018fd07000800be00fe
:101bd0000a01be00480035000002be000203be003c
:101be000fafe0700009fbe000297be0087ce2300ca
:101bf000f60f28003599260054f92d00f3fe070052
:101c0000a7d62b0006422e0085c02d00c4992400c3
:101c1000f8fb07003e02be002e03be00ebfe0700ed
:101c200067de2300c6232100a586260004432d007d
:101c3000f0fb07003e02be002e03be00e3fe0700dd
:101c4000a7e52b0056642e00d5b52400b40a2c005d
:101c5000e8fb07003e02be002e03be00dbfe0700cd
:101c600077ec230036de210045522a0034062f008f
:101c7000e0fb07003e02be002e03be00d3fe0700bd
:101c8000a7f22b00061a200015a02100a4e12300d2
:101c9000d8fb07003e02be002e03be00cbfe0700ad
:101ca00017f823001611210015112100040b210043
:101cb000d0fb07003e02be002e03be00c3fe07009d
:101cc00057fc2b0056552500555525005455250029
:101cd000c8fb07003e02be002e03be00bbfe07008d
:101ce0000802be000a03be00b8fe07000802be00dc
:101cf0000a03be00bffb07000d00a70003f0a2000f
:101d000085fd37000c00a60003ff230082fd37008d
:101d1000f3ff2700f2ff2f006110b9000330a0008d
:101d200014022000046288007bfd37001400fa00d2
:101d3000889fbe008a9fbe008c9fbe000004be002c
:101d40000205be00680047000a90be000890be0071
:101d50008b0207000078a3003d003a006100e1001b
:101d60003c0032000bf8a3003d003a006400e100a3
:101d7000380032006c0347001e009000f03fb100b5
:101d80003602be001603be000008a30004003200a5
:101d90000402420085824a0006034b0087834b0001
:101da000100798008e1f78006000b8006011b8001e
:101db0005c0020006d0120006e0020000200370052
:101dc0008d86e900fc0020000402420085824a0062
:101dd00006034b0087834b000004400081844800c9
:101de00002054900838549006060e1001d60ad0087
:101df0000804520089845a000a055b008b855b0049
:101e0000030039001e60ad000802be000a03be00d8
:101e10000c06e900ecff3b000e87e900e8ff3b0001
:101e20004f07780061026000840278008301d100ce
:101e30000281d3008180d3000080d3001e03900074
:101e400041b3de00f63fb000e1fc070032fd370091
:101e50000b30a0000800be000a01be002efd3700b6
:101e6000120220000262880028fd370007f0a2005d
:101e700060fb37001400fa00889fbe008a9fbe00f6
:101e80008c9fbe000005be000206be006800470031
:101e90000c90be000a90be00390207006400e10009
:101ea0001a00320016003e006100e1001a00320004
:101eb0006e049000fe0490000e0b90009e0b9000ac
:101ec0006011b8009e0590000b38b100d5012000cc
:101ed00082817100610164008703d1000683d30011
:101ee0008984d3000884d3008502e900f8ff3a0012
:101ef000e3fd07000df0a70001f0a00006fd37008c
:101f0000f1ff2700f0ff2f0003fd370001f8270045
:101f100000002000f7ff37006000b800f5ff370031
:101f2000889fbe008a9fbe0030044200b0844a00f1
:101f300030054b0090854b006000b1000898be0052
:101f40000a90be000440e10005c8e10006d0e100af
:101f500007d8e10002003100680040001008e800e6
:101f60004f05be004f04be0000000600889fbe0063
:101f70008a9fbe003004be002005be000418540035
:101f800005985c0006185d0007985d0011002000b0
:101f90000440e10005c8e10006d0e10007d8e100f7
:101fa000010039008000eb00108810004f05be00d2
:101fb0004f04be00000006001200fa00889fbe0019
:101fc0008a9fbe008c9fbe00e0b79f00f1b79f00c4
:101fd00082bf9f0093bf9f000605be000404be00a1
:101fe0000000eb00d0b79f00c0b79f00b0b79f00c4
:101ff000a0b79f0090b79f000006eb005fb197006d
:10200000cfb09700820141003fb097000200e0008e
:1020100004003d00370007007e805700c0ff070026
:1020200003003700330007007e805700cfff070012
:10203000dfb697000d00e0000c0035006fb297008e
:10204000ffb297000fbb97009fbb970010002000c6
:10205000010020006011b80000027200818272004d
:1020600002037300838373001b0007000c06e80063
:1020700001042000810f5600e0ff3a000d00e0004f
:1020800004003d000802be000a03be007e80570027
:10209000a3ff07005fa897000000e00005003a00da
:1020a0001fb29700afb297003fb39700cfb397002e
:1020b000090007006fb09700ffb097000fb99700b5
:1020c0009fb997004f06be004f05be004f04be00eb
:1020d0000080fa0000000600010007000000060072
:1020e000a4b79f00b5b79f00c6b79f00d7b79f00a2
:1020f000000006004f09de0082817100b3b79f0027
:102100004f01de008180400082807000a1b79f00f7
:102110008fb097004f09de00000040000200700001
:1021200090b79f007fa897004f01de00818040009c
:102130008280700081b79f000d0007004f3ade00db
:102140000000400004007000f0af9f00080007008e
:102150000402420085824a0006034b0087834b003d
:10216000dfff07000802be000a03be0000000600f1
:102170002fb29700bfb297004fb39700dfb397001d
:1021800000000600881f780018002000881f7800d3
:1021900089ff07008f87e9004f04780000000600e0
:1021a000801feb0084ff07008f87e9000000060016
:1021b000889fbe008a9fbe00e00f5000e08f58004d
:1021c000e00f5900e08f59000c003d006044b8005a
:1021d0006055b8000000540081805c0002015d0081
:1021e00083815d00180020001500070008003d00f5
:1021f000180007000004eb00050037000004eb00a6
:102200000f00070002003d00120007001800200028
:10221000dcff07000800e000060032006022b80082
:102220006033b8000000520081805a0002015b0058
:1022300083815b004f05be004f04be000000060016
:10224000e00f5200e08f5a00e00f5b00e08f5b0070
:10225000000006006044b8006055b8000402540055
:1022600085825c0006035d0087835d000000060038
:10227000889fbe008a9fbe008c1f7800e00f500030
:10228000e08f5800e00f5900e08f59000d003d002d
:102290006044b8006055b8000000540081805c00c4
:1022a00002015d0083815d001c0020000820e10028
:1022b00009a8e1000ab0e1000bb8e1000d003d0003
:1022c000080037000006eb00e00f5200e08f5a00d4
:1022d000e00f5b00e08f5b0006003d006044b8004b
:1022e0006055b8000402540085825c0006035d005e
:1022f00087835d00aaff07000c00e00006003200a3
:102300006022b8006033b8000000520081805a009b
:1023100002015b0083815b004f0678004f05be0021
:102320004f04be0000000600889fbe008a9fbe00ca
:102330008c1f78000006eb00e00f5000e08f580083
:10234000e00f5900e08f590007003d006044b800dd
:102350006055b8000000540081805c0002015d00ff
:1023600083815d001c002000e00f5200e08f5a00c6
:10237000e00f5b00e08f5b0007003d006044b800a9
:102380006055b8000402540085825c0006035d00bd
:1023900087835d000c00a200630107000c00e000d1
:1023a000060032006022b8006033b800000052001e
:1023b00081805a0002015b0083815b004f06780038
:1023c0004f05be004f04be00000006000800fa00e2
:1023d000889fbe008a9fbe008c9fbe000004be0086
:1023e0000205be0083067800a5fb07006420e1001b
:1023f000a3003e00a60032000006eb000bf0a10097
:1024000003ff2300020020006000b8000802be00a5
:102410000a03be000afb070009003d0003ff23007a
:10242000020020006000b8000802be000a03be00df
:1024300008fb07000004be000205be002c002000bf
:1024400013fd230042612200e1e9250060d52c0044
:102450000802be000a03be00f9fa07001d003d0095
:10246000b3ff2300a2672b0081852e00a0ca2400a1
:102470000802be000a03be00def90700009fbe008e
:102480000297be0073fe230052cf2600010b2d00e1
:10249000509529000802be000a03be00cbfc0700cd
:1024a00007ff2300060020006022b8006ffe07002f
:1024b0000802be000a03be00cef907003e02be00bd
:1024c0002e03be00e3fa07000004be000205be00b2
:1024d0000c06e8000800be000a01be0003f0a100df
:1024e00067e42300e6092a00f5672600d4bc230030
:1024f000cefa07000800be000a01be004c003500fd
:102500000802be000a03be00b0fc0700009fbe0028
:102510000297be00e702240096c42000a5142e00f6
:1025200004712c00b3f907003e02be002e03be006a
:10253000a6fc0700d7042400a6a02c00d520230069
:10254000743d2a00abf907003e02be002e03be0018
:102550009efc07005705240026a12800b540200056
:1025600054da2600a3f907003e02be002e03be0087
:1025700096fc070047042400c687280045cc2b00a2
:10258000945a29009bf90700809fbe00829fbe00dd
:102590003e00be002e01be00a7fe2b00a6d72c00d9
:1025a000159b2d00d47b280088fc070007022c0017
:1025b000f6d32f00d5c8250034a626008df90700d4
:1025c0003e02be002e03be0080fc070047032c0025
:1025d000f6172800259e2b00b4cc2b0085f90700a8
:1025e0003e02be002e03be0078fc0700b7022c009e
:1025f000660a26006510250024ce21007df907001b
:102600003e02be002e03be0070fc07004f03be005a
:102610004f02be008ffa07000802be000a03be0088
:102620006afc07000802be000a03be0071f9070039
:102630000c00e0000f0032000c10a70003f0a20015
:1026400084d1220045442500b61f220097ff2300b5
:102650006260e1000600320064362700d582230064
:1026600026152c0007fe23000c10a70007ff2300ef
:1026700060f907000df0a70003f0a20026fb370069
:102680000330a000140220000462880022fb3700ff
:1026900093ff2300b21f22004144250080d1220075
:1026a000f4ff3700889fbe008a9fbe008c9fbe004b
:1026b0000404be000605be00809fbe00829fbe00cf
:1026c000effa0700040678000800be000a01be0009
:1026d000ebfa0700840678004f03be004f02be00ed
:1026e0008d4f76007fb0970013003300f0ff2f006e
:1026f0008b8f6b0006003b000d0666000c00a700e8
:102700000a00370007f0a600100020000a0037007a
:10271000880f5200898f5a008a0f5b008b8f5b00f5
:10272000030039001000200001003e0000002000de
:1027300007f0a7000000ea004f06be004f05be00ec
:102740004f04be0000000600e48240001078a300a1
:1027500007003200640240001178a3003400be007c
:102760001401be00040032000330a7000000060080
:102770003500be001501be000330a00000000600b9
:10278000800078005002be005003be004439de00d5
:10279000f700b200f37f200003016100090032005e
:1027a0000218e10016003a008501720083017300ef
:1027b000838173000008200015003a0040002000cb
:1027c0001300370085017200830173008381730059
:1027d00005003a0004a8be0006a8be0010002000b4
:1027e0000b0037000201e9000402420085824a0022
:1027f00006034b0087834b000748a300f9ff320014
:102800000740a00004a8be0006a8be0020002000cb
:10281000800098009200980000000600881f780051
:10282000030478000300e00007003d006000100092
:10283000e080180060011900e081190002003b00ef
:1028400001f02d00030037000400070008f0a70086
:1028500001f0a0004f04780000000600889fbe0031
:102860008a9fbe0000827000040271000482710021
:10287000260032000004be000200be006011b80055
:102880006b092000950220000182cf000a00390068
:102890000541b1000082cf00070039000541b100b9
:1028a0000982cf00040039000541b1000882cf0041
:1028b000010039000541b10005425200120032000a
:1028c0000a003b0082817100610164008100d10037
:1028d0000080d3008984d3000884d3008b05e800ee
:1028e0000442e800f7ff3a000700370008044400fc
:1028f00089844c0000004800818048008b05e90075
:102900000442e900f9ff3a005dfb07004f05be00f5
:102910004f04be0000000600801feb0024000700eb
:102920008f87e90000000600889fbe008a9fbe00d6
:102930008c9fbe000404b8000506b8008904460058
:1029400060854e000606b8000a054600e0854e0088
:102950000706b8008b054600040eb800890446003f
:102960000a854e00e0854d00050eb8000a054600b8
:102970008b854e00060eb8008b0546000416b80085
:102980000a0546008b854e000516b8008b054600eb
:10299000041eb8008b0546000800be000a01be00f8
:1029a0004f06be004f05be004f04be0000000600eb
:1029b0002800fa00889fbe008a9fbe008c9fbe0040
:1029c0000efe970040fa07006108e1005c0032004b
:1029d0006200e1005a003e00540039006408e10042
:1029e000520032006c014700748557003200be006f
:1029f0001201be003a04be001a05be009e029000fd
:102a0000be0e90000d82520017003b000402e80049
:102a100046003a00880f5000898f58008a0f5900ed
:102a20008b8f590041003400640147007803470050
:102a30003200be001201be003602be001603be0008
:102a400007f0a10003f0a60007f0a0000c70a7009b
:102a500068f8070030fa3700000040008180480025
:102a600002014900838149000c00a00008005000c9
:102a7000898058000a0159008b81590005003b00ec
:102a800008004000898048000a0149008b81490004
:102a90000c00a1000402e900efff3b00000240002f
:102aa0008182480002034900838349001b003200f1
:102ab0000802520089825a000a035b008b835b0084
:102ac0004200f80005003700000040008180480007
:102ad00002014900838149008d06e9000340a600f8
:102ae000f9ff37006022b8000d037800b8f907003d
:102af000780347004200f9000800350002003c005e
:102b00000c08a300050032003602be001603be000a
:102b100007f0a0000c70a70036f807005e029000d6
:102b200004f0a70003f0a200fbf937002e0090008c
:102b3000be0090004e019000de019000f6f93700d3
:102b4000100220000c70a60000628800eff9370028
:102b5000889fbe008a1f78000004be00c900900054
:102b600069009000808f500005003900090078004e
:102b70001f0007008080eb000000e0001600350019
:102b8000084578004900900008587800c004980073
:102b90001900780000b8a30004003a0000a8a300c0
:102ba00007003200ea4f540005003a00090078009f
:102bb000c80307008080eb000000e00006003a0038
:102bc00000c020001900600002003200490090009f
:102bd000e00498008a80fb00010078004f0578002f
:102be0004f04be0000000600012d2200d8ff370070
:102bf000889fbe008a1f780000047800c8009000fb
:102c0000680190000000eb00828f50003c0039000a
:102c1000180078002200290002016000e20f510034
:102c200007003200012024000000e00001003d0008
:102c300001202000008c70000080eb003000370085
:102c40000200260002006000820f500009003a00d6
:102c500038009000808f500006003900080078008e
:102c60009c030700800078000080eb000100e0007a
:102c700023003a001805780000c02000000065001d
:102c800018003a00a80490006002200008004000ec
:102c9000808f540013003a0000202000d711070055
:102ca000200498000000e00005003a002904980084
:102cb000490498008904e8003904980008003700a6
:102cc0000a60a0000a0c780040049800012020004f
:102cd0008080400031049800400c9800500c98000f
:102ce0001b03070028009000500498003800900053
:102cf0006004980000002600180c70000000eb0033
:102d00004f0578004f04be00000006004f02b000df
:102d1000889fbe008a9fbe008c9fbe008e1f7800d9
:102d2000a0b79f00010478000206be0000077800eb
:102d3000880078007c805700c3000700e80060002e
:102d4000b1b79f00000278000430a100e10f5200eb
:102d500048003a002400200083fd2f008f814100ad
:102d600008017800afb097000e007800dc0407007f
:102d7000000778000e00e00007003a006000b8008d
:102d80006011b80080af9f0091af9f00a2af9f007d
:102d9000b3af9f00320037004272dd0082fd2f008a
:102da0000f014100040241001400be00e4b79f007f
:102db00000fa07000004be000205be0088af9f00b5
:102dc00099af9f00aaaf9f00bbaf9f006fb2970063
:102dd000c4b79f0084652200d4b79f00fcb79f0052
:102de0008dbf9f00150037004fb197004200be0015
:102df000c2b79f00e00f5000e08f58000c00320077
:102e0000ecf907005fb697003c02be002c03be0041
:102e10006efa07000002be000203be000800be00fa
:102e20000a01be0073f707000004be000205be00e1
:102e30005fb0970068004000d0b79f000e07e90020
:102e40004240a900e8ff3c007fb697008fbe970084
:102e500088af9f0099af9f00aaaf9f00bbaf9f00b4
:102e60004faa9700dfaa97000c0242008d824a0009
:102e70004a003700e20f52004e003a0083fd2f0057
:102e80008f81410008017800afb097000e007800f4
:102e900098010700000778000e00e00007003a00e4
:102ea0006000b8006011b80080af9f0091af9f0034
:102eb000a2af9f00b3af9f00320037004272dd0027
:102ec00081fd2f008f804000048240001400be006e
:102ed000e4b79f00b7f907000004be000205be007a
:102ee00088af9f0099af9f00aaaf9f00bbaf9f0024
:102ef0006fb29700c4b79f0082642200d2b79f00d0
:102f0000fcb79f008dbf9f00150037004fb19700a1
:102f10004200be00c2b79f00e00f5000e08f580093
:102f20000c003200a3f907005fb697003c02be0018
:102f30002c03be0025fa07000002be000203be00fb
:102f40000800be000a01be002af707000004be0008
:102f50000205be005fb0970068004000d0b79f0038
:102f60000e07e9004240a900e8ff3c007fb6970049
:102f70008fbe970088af9f0099af9f00aaaf9f00b8
:102f8000bbaf9f004fa99700dfa9970000fd2f005e
:102f90000f004000150307000c02be000fa89700a9
:102fa0009fa897002fa99700bfa99700a403070027
:102fb00013003700e30f520004003a006000b8002d
:102fc0000200200003ff2700080037006000b8005f
:102fd0006011b800e40f520009003a00f0ff2f0022
:102fe000f1ff2f00f2ff2f00f3ff270080af9f00bb
:102ff00091af9f00a2af9f00b3af9f0004003700c6
:1030000080af9f0091af9f00a2af9f00b3af9f0022
:103010000fa897009fa897002fa99700bfa9970016
:103020003fb297000400e0000100320003f0a2006c
:103030004f0778004f06be004f05be004f04be008c
:103040004f02b10000000600889fbe008a9fbe00ac
:103050008c9fbe0000047800010678009804780078
:10306000890578000b0578008a057800bb46780052
:103070000d00fb00250207000000e000f9ff3a0008
:10308000d0c2b30080cf560003003a000b05780091
:1030900081002000050037008000eb00b0c2b300c3
:1030a00080cf560001003a000b0578001a407800e6
:1030b000e2c6b300824f500003003200e2c4b30006
:1030c000824f500027003a008a0078005141780072
:1030d00010c6b300804f5100040032000000eb0026
:1030e00013c4b300834f51005c003a005141780093
:1030f000e0c6b300804f5100040032000000eb0036
:10310000e3c4b300834f510054003a0081047800b7
:1031100080c2b300d94f10000b003a00640545008f
:103120008a057800ba4678000d00fb00e901070027
:103130000000e000faff3a00f0c5b30080cf56006f
:10314000f7ff3200010037008905780040002000b9
:1031500091c2b3009bcf100040003a008b04e800fe
:103160003e00370092c6b300824f50000300320089
:1031700092c4b300824f50003c003a005a4178009c
:10318000e0c6b300804f5100040032000000eb00a5
:10319000e3c4b300834f510030003a005a41780035
:1031a00060c6b300804f5100040032000000eb0005
:1031b00063c4b300834f510028003a008a047800aa
:1031c000010078003000b300d940780092c6b30007
:1031d00082cf50000300320092c4b30082cf50006f
:1031e0001e003a008900780051417800e3c6b30020
:1031f000834f510003003200e3c4b300834f5100fa
:1032000016003a005141780093c6b300834f510035
:103210000300320093c4b300834f51000f003a0003
:103220005141780043c7b300834f5100030032007f
:1032300043c5b300834f510008003a005141780064
:1032400093c7b300834f51000300320093c5b3000e
:10325000834f510001003a008104e8000c00e000b7
:1032600005003200090e78000300370001007800e5
:103270000000a0008a047800090c78004f06be0008
:103280004f05be004f04be0000000600ee87470059
:10329000889fbe008a9fbe008c9fbe008e1f780054
:1032a000f0b79f00010678008205780000047800de
:1032b000080578000a047800b84678000d00fb0085
:1032c000920107000000e000f9ff3a00d0c2b3000d
:1032d00080cf56000300320000c0e90080cf5600c6
:1032e00002003a000a05e800010037008046780035
:1032f0000b00e00005003500e18f550003003200af
:1033000040022000808f5500060034006044b80061
:103310000c00e000700032007fb09700000e7800d3
:103320006d0037000b00e0000e003200f08f5500fa
:103330001a003a0000c3b3009a4f100017003a0079
:103340001a40900081c7b300814f50000300320043
:1033500081c5b300814f500010003a000a85e80093
:103360000e003700ab00200000c3b3009a4f1000de
:103370000a003a001a40900081c7b300814f500004
:10338000040032008b00200081c5b300814f500043
:1033900002003a000a85e8000b0120000a007800cc
:1033a000000278000400780001c3b300b0cf100021
:1033b000fbff3200040778006044b800b4b79f00f8
:1033c0000d003700a14d220081405000c1ef9f0049
:1033d0006159b9000800be00ca1207004fea970001
:1033e0000401fb00cf91de00c8b79f00d9b79f0052
:1033f00002044000838448008e0278003e00fb00f7
:1034000085bf9f00490107000b017800800078000c
:10341000a04d2200231007008fba97000000e000a3
:10342000e8ff3a003fb29700850f550005003a00cb
:103430006044b8000c00e00027003200ffb29700a3
:103440002400370004825200f04f220060c07d004b
:103450000000fb00000252001700330011003a0088
:103460004fe997000200fb00cf80de00000054000f
:1034700081805c00800f5400818f5c00090039005e
:103480006159b90085bf9f008b1207008fba970062
:103490004fb19700dfb19700820f5000838f580023
:1034a0000500320020022000006288000084eb004a
:1034b0008084eb0005003700d0c2b30080cf5600f7
:1034c00002003a0060041400e0841c000c00e000dc
:1034d00001003200050e78000800be004f0778009a
:1034e0004f06be004f05be004f04be00ef00b10006
:1034f00000000600e8874700889fbe008a9fbe0044
:103500008c9fbe008e1f7800e0b79f008204780079
:10351000030478006722b9000006eb0001003700c1
:103520001c0020008101780000c3b300b14f1000df
:10353000fbff3200000ceb0038147800880578009f
:103540000005eb002a003700840f550016003d00ef
:1035500072002000110009000205d8000100e000ff
:1035600003003a00e4854500800deb00bb157800b0
:103570001b06be00446bdd00cc63de0087037300d6
:103580004463dd00a15e220001805200415d220003
:10359000614078000000fb00cf80de00801d43000a
:1035a00081954b0010003700100020000100200022
:1035b000180c400058944800840f55000b003a0046
:1035c000a15e220001805200415d2200614078002e
:1035d000e74f5000050034001000200001002000db
:1035e0009b0d4000db9548000a05e8001c00200008
:1035f000830678008d017800334778008e00fb0049
:1036000062012000a05e2200f3b79f0084bf9f00ec
:10361000a40f070080027800ffb197000fba97004f
:103620000500e000c8ff3a00840f55000100340097
:1036300004057800e0c2b300804f570001003a0053
:103640008d06e8000a00e00029003a000d0078002d
:10365000050037000081eb008081eb00180c410071
:10366000589449001c0020008006780001c3b30074
:10367000b0cf1000f7ff32001d003700840f550057
:103680001a003d0072002000110009000205d80058
:103690000100e00003003a00e4854500800deb00e6
:1036a000bb1578001b03be004439dd00cc31de00c1
:1036b000830171004431dd00a15e220001805200cf
:1036c000415d2200614078000000fb00cf80de00f9
:1036d000801d4100819549000a05e8000081eb004a
:1036e0008081eb00180c4100589449001c00200018
:1036f0000d0778008e067800bd00fb0062012000f7
:10370000a05e220084bf9f00660f07008002780041
:103710000fba97000500e000d8ff3a000c017800ce
:1037200073002000110009000305d8000100e0002b
:103730001300320001805100c200dd001b02be00f8
:103740008100e900030033000402420085824a0040
:10375000fbff3700848dbe000a054000cf80de00ed
:10376000181c100018941800050037006705550054
:103770007000200001002000180c40005894480000
:10378000e60f5500040034002b00be00e00f50008f
:10379000e08f5800f5ff32001800be00420add003d
:1037a000ce02de00850272004202dd00048cbe0003
:1037b0000c00e000380032001e40780001c7b30062
:1037c000814f50000300320001c5b300814f50000b
:1037d00030003a000e067800dc457800b0c2b30035
:1037e00080cf550003003200d1c2b30081cf550015
:1037f00002003a000c06e80001003700804578001e
:103800006000b8000001eb0013003700f20f2e003b
:10381000535f2000820f5000838f58000d003c0042
:10382000a20020000300200084bf9f00f5b79f0086
:10383000b41107000d01fb00cf91de000203b100bf
:103840000380b1000200400083804800ffb297006f
:103850000fba9700120020000c0778000e067800bf
:10386000bc4678008d01fb000303b100e98f5100d5
:10387000e6ff3600d3c2b30083cf550002003a0002
:1038800060001000e0801800041c4000059448000f
:10389000010037000c0178000900e000040032004c
:1038a0000200e00001003a006fb797008e0c78002c
:1038b00072002000110009000205d8004f077800af
:1038c0004f06be004f05be004f04be008f00b10082
:1038d000000006000003b1000b0035009000b100ad
:1038e000080034008000b100070035009001b100ed
:1038f000040034007000b100030035009001b100f5
:1039000001003c0010000500000005006900e10016
:10391000040035006d00e100030034000002b10036
:103920000100320000000500100005008000780052
:103930001104b100030035009101b10001003c0009
:103940000050a00000000600a0d421009b0037001a
:10395000881f7800a86a22001804e00003003a00db
:10396000f9ff070020c0b300004c78004f04780036
:1039700000000600889fbe00000478000800780060
:103980005400070080047800000420001800600044
:103990000200320028009000ca0d07000000eb0072
:1039a00020049800384090000004e0000500350035
:1039b0000000fb002ef407000000e00001003200d0
:1039c0008084eb00181090000000e0000800320036
:1039d0005df407000000e000010032008084eb008d
:1039e00018109000b70d07000000eb0010149800ad
:1039f0000008200018006000150032000001eb00f4
:103a00006000b800033222000202d00063027a0094
:103a1000880f520005003a000000400081804800f5
:103a2000008041000008eb00060037006100400004
:103a3000e08048000201e800e80f5000e08f5800e5
:103a4000f0ff3a00080078009e0d07000e003700d6
:103a5000000c780000c0eb003044980060022000a9
:103a6000080040002004980040049800500498008a
:103a7000400c980060049800500c98007004980066
:103a800076004400000c9800090078004f04be0046
:103a900000000600881f78000004eb006140b800b9
:103aa000e2ff2f00f3ff2f0016110700e232220081
:103ab000620078000000e00001003200adff070066
:103ac0000804e800e80f5400f4ff3a004f047800bf
:103ad00000000600889fbe00000478000800e00097
:103ae0000e003a008004eb008800d0000032220073
:103af000610078000000e00004003200f5ff0700dc
:103b00000000e00001003d008084eb000804e800b4
:103b1000e80f5400f4ff3a002500370000002200af
:103b2000180060008004eb0021003200a80490001f
:103b30000f00370009015100384090000000fb00e1
:103b400089007800d3f307000000e00007003c0084
:103b5000280090004004980060049800500c9800e1
:103b60001890a0008084eb0011003700808444008e
:103b700048019000828f5400eeff39002800900029
:103b8000400498009800780002c020000281600084
:103b900001003a003800900001e8a3000200320062
:103ba0006004980001003700500c98008004eb007e
:103bb000090078004f04be0000000600010020004c
:103bc0000100e00008003200010080000100e00078
:103bd000050032008100e900010088008100d0006a
:103be0000200800000b17800000006000400fa0026
:103bf000889fbe0000047800e604440019007800a5
:103c00008000d000c508de00f47f2000848f5000c3
:103c10000e003a00ef006000200020006b003a0028
:103c2000a80090000100e00068003a0098009000b1
:103c30000100e00065003a00100020001800e000dc
:103c40006200320020002000600037000100e00028
:103c50000a003a0008007800c2bf9f00d3bf9f004f
:103c6000330e0700800078000000eb004fb997008a
:103c7000dfb997000100e00054003c004f88de00ef
:103c80000281400083014800e07f2000800f510046
:103c9000e08f59000d0034001900e00004003d00e1
:103ca0006000b8000200200003ff2f00030037006f
:103cb0006000b8000200200003ff2700009cbe0047
:103cc0000294be001000200040003700e00f5100b9
:103cd000e08f5900050034004411dd00f000280099
:103ce00019006000800c710037003700190078005f
:103cf00004002800040260006f0060000040a00083
:103d0000800c7800d0fc2f00f1ff2f00800f5100b5
:103d1000818f590006003d00840c78000000eb0004
:103d20002004980010049800000ceb0027003700d6
:103d30006f0141000600370008007800500c780041
:103d4000e40044001108780099087800800ceb002a
:103d5000700051007001410001fe2f008280400080
:103d6000ef8f4000f4ff35000000ea00150032003c
:103d70008800780070011000d1027800822add00ee
:103d8000980178008019de00038c720064044400fe
:103d900098027800822add00910178008019de0007
:103da00083887200990078000209dd00980078008d
:103db0008008de00010c7100990078000008de0028
:103dc000800c7800990c72000080eb004f04be005c
:103dd0000080fa00000006000a00fa00881f780040
:103de00000047800880078006c805700b4bf9f0002
:103df000c5bf9f00d6bf9f00e7bf9f008e00070092
:103e00003fba9700cfba97005fbb9700efbb970010
:103e10003800be002801be006cf60700009cbe0002
:103e20000294be002fb99700cf91de000800780001
:103e30006eff07004f0478000080fa0000000600c3
:103e40000800fa00889fbe008a1f780090bf9f007c
:103e5000a1bf9f00b2bf9f00c3bf9f000404be006c
:103e6000e00f5200e08f5a006b0032006022b80071
:103e70006033b8006df407000000e0006600320017
:103e8000e00f5400e08f5c0031003d00600414003e
:103e9000e0841c000005eb006000b8000200200078
:103ea00003ff23000808a30006003200c352dd0010
:103eb00044522200048242005403be004402be0069
:103ec00042f607008904d1000884d300e00f5400b3
:103ed000e08f5c00030032000a05e800e80f55009f
:103ee000f0ff3a000002be000203be006000b8000e
:103ef0000200200003ff230056f407000002be006a
:103f00000203be006e805700b3ff07000000e00010
:103f100039003d00e00f5400e08f5c003e003200ad
:103f200034f42600c54a26008662200087ac2000b3
:103f30006e805700a8ff07000000e0002e003d0043
:103f400061045400e0845c00f5ff3a002e00370065
:103f50000005eb006000b8000200200003ff230012
:103f60000808a30006003200c352dd0044522200bc
:103f7000048242005403be004402be0013f6070050
:103f80008984d1000884d300e00f5400e08f5c00e6
:103f9000030032000a05e800e80f5500f0ff3a0080
:103fa0000002be000203be006e8057008aff0700b9
:103fb0000000e00010003d00e00f5400e08f5c00c6
:103fc00015003200c4f32b0035f72700d6fd24007e
:103fd000575127006e8057007fff07000000e00068
:103fe00005003d0061045400e0845c004240a900eb
:103ff000f4ff3c00040037000000e00002003a003b
:104000000001200003003700e10f500002003a00d9
:1040100080002000920d07001fb89700afb89700ee
:104020003fb99700cfb997004f0578004f04be0005
:104030000080fa0000000600889fbe00000478009f
:10404000e68440001900d0004500de00f27f200029
:10405000820f500010003a00000ceb009904780029
:104060006f816400200020001b003a0021019000b5
:104070000200e00018003a00110190000200e00088
:1040800015003a00100020001100e000120032007c
:1040900020002000100037000000e00004003a007b
:1040a00001007800220d07000000e00008003c003d
:1040b000f20028001901610001fe2300810c71004b
:1040c00021c02f00010c40000080eb0002003700ef
:1040d000000ceb000000eb004f04be0000000600e7
:1040e000f4874700889fbe008a9fbe008c9fbe0059
:1040f0008e1f780080b79f00c2b79f00030478002e
:104100006926b9000000eb008005eb0001003700d4
:104110001b002000610ab8006101b80004034100df
:1041200096b79f000000e800e441790002c3b300a5
:1041300082cf5100f6ff3200000ceb0038147800fb
:10414000080578000007eb008004eb002c00370026
:104150008c8f54001b003d009400200011000900ca
:104160008404d800010278000400e00003003a0053
:1041700064054500000deb003a1578007fb097000c
:104180008fb89700604279000402fb00cfa2de00e6
:104190000403b1000580b100a2002000030020004c
:1041a0001a00be00e4b79f00d5b79f00550f070067
:1041b0006fb29700dfb29700001d420001954a00e0
:1041c0000c0037001200200003002000180c4100f2
:1041d000589449008c8f540007003a00e6c07a00da
:1041e00040c3b30080cf5000030034001a0d4100db
:1041f0005a9549008904e8000e07e8001b002000da
:104200009fb097006108b800f0b79f0081bf9f0082
:104210006171b8000200400083804800a0b79f0091
:10422000b1b79f008006780002037800ffb29700c4
:1042300062c27a008403fb000703b100e98f5300d8
:10424000c3ff36002fb097008c8f5400010034005c
:104250008c047800e1c2b300814f520001003a00a3
:104260008006e8000000eb000900e00007003200d3
:104270000007eb00330037000081eb008081eb008a
:10428000180c4100589449001b002000616ab800d6
:104290006101b8000203420083834a000000e80085
:1042a0006441790001c3b300814f5100f2ff320035
:1042b00086067800eeff37008c8f54001f003d000b
:1042c00094002000110009008404d8000102780045
:1042d0000400e00003003a0064054500000deb0017
:1042e0003a1578002fb09700bfb09700624278006f
:1042f0000402fb00cfa2de000403b1000580b10080
:10430000a2002000030020001a00be00e4b79f00b6
:10431000d5b79f00fb0e07006fb29700dfb2970082
:10432000001d420001954a008904e8000081eb006d
:104330008081eb00180c4100589449000e07e800fa
:104340001b0020006169b8006170b800a0b79f0031
:10435000b1b79f0000034100818349000602780045
:10436000e24278008502fb000503b100e98f5200ac
:10437000d1ff36000b067800060778009d0020006c
:10438000110009008d04d8000100e0001200320085
:10439000818656001a01be00e00f5100e08f5900df
:1043a000090032000d00e9004200dd0081662200b4
:1043b000010040001000be00e6b79f00d10e0700cc
:1043c000008dbe006fb29700898446006168b90015
:1043d000181c1000189418008006eb000500370028
:1043e000e98454009200200003002000180c4100d2
:1043f00058944900e88f54000c0034006168b800fc
:10440000c2ff2f00f3ff2f00e4b79f00bd0e07008f
:10441000800045001100be008d06e8006fb29700d5
:10442000e00f5000e08f5800edff32000b00e0007d
:10443000370032001e40780051c6b300814f500053
:104440000300320051c4b300814f50002f003a00e6
:104450000e057800da457800b0c2b30080cf550071
:1044600003003200d1c2b30081cf550002003a00f0
:104470000a05e80001003700804578008006eb005f
:104480006000b8000006eb0010003700f20f2e00ad
:10449000535f2000820f5000838f580009003c00ba
:1044a000a200200003002000960e07000e01fb0072
:1044b000cf91de000203b1000380b1000200400092
:1044c000838048008d06e8001c0020006153b8007e
:1044d0006169b80006024100664779000e01fb00e1
:1044e0000203b100e90f5100e8ff3600d2c2b30069
:1044f00082cf550002003a0060001000e0801800f2
:10450000180c400058944800010037000b06780052
:10451000cfb197000300e000050032000c00e0007e
:1045200001003a000fb297004fb39700040b7800d8
:1045300092002000110009008204d8004f07780083
:104540004f06be004f05be004f04be004f01b10034
:10455000000006002f04b000889fbe008a9fbe00a6
:104560008c9fbe008e1f78000007780081f79f00a7
:104570003e04be002e05be005e0890000000e00074
:1045800002003d0060002000500f98008e0078006f
:1045900020fb2f000f004000a7fe0700e20f500095
:1045a0000a003a0030002000100f9800b1c9b30093
:1045b0000ff097008140400040332200e1cf5000cf
:1045c0000d003e00003322000b0037000000e00029
:1045d0000f00340030002000100f9800b1c9b30064
:1045e0000ff1970081404100c0332200e1cf50001d
:1045f00001003e0080332200ee009000b0487800b9
:10460000b06878001040780090409800f3003700c0
:104610000000e00005003a0022fb2f000f014100de
:10462000001978008001eb00e70037006022b80035
:104630006033b8000800be000a01be007bf207002c
:104640000000e00001003d000bf0a20070592700bf
:104650009f9897000088b900026a28001300200084
:10466000060e0700640650009c9f9f0013003b004d
:1046700063061600c0ff2f00000666008c01ea00ea
:10468000939f9f000d3422000800be000a01be0067
:10469000070037000c08a300030032003d02be00f3
:1046a0002d03be0049f407000c86d100e8864600c1
:1046b0000c00e000f7ff3c00180037000c00e000a1
:1046c00018003200c0ff2f00000666009c9f9f006c
:1046d0000d3422006000b8000200200003ff230018
:1046e000070037000c08a300030032003d02be00a3
:1046f0002d03be0035f407000c86d100e886460085
:104700000c00e000f7ff3c000002be000203be0008
:104710000800be000a01be004ef207000004be0001
:104720000205be00de08900060c6b3000ff29700dd
:10473000804f5200040032006000200062c4b300c9
:10474000824f520002003a009f9a97006a8042000e
:1047500081004000f1b79f0001037800f30f530080
:104760000200340037012000f7b79f0000c3b300f8
:10477000c0779f0056fb2f000f0343000e00780008
:10478000a0b79f00060778003d0037000800be0074
:104790000a01be0004f307000006be007fb19700c7
:1047a00068015100f2b79f004240a9000c0034009c
:1047b00080f307000002be000203be000800be0036
:1047c0000a01be00a9f507006022b80046782d0056
:1047d00077192400fdf307000004be000205be00a7
:1047e000e80047008e0020000802be000a03be0059
:1047f000b4b79f00c5b79f00d6b79f00e7b79f002b
:104800000c01be00010478000c003700a400200059
:1048100005002000c0fd2f000f004000af0a070078
:104820006fa89700ffa897000fb197009fb197005e
:1048300005c3b300056441000001be00e00f510054
:10484000e08f5900030034000e07e900e10f470034
:10485000eeff3a00880078003fb49700cfb497008d
:104860005fb59700efb597000200370000c3b300b3
:10487000806078000e07e900fcff3b00688740007d
:104880007fb397000600e000070034006022b80004
:104890006033b8000800be000a01be00e8f107005e
:1048a0000000e000b9ff3c000e0378002fb797002e
:1048b00051fb2f008f804000010353009f9b970006
:1048c00067804300909f9f00020037000603e900c5
:1048d0000000e900010178008200780003c3b30002
:1048e000b1cf1100f9ff3200909f9f00de099000c8
:1048f00061c6b3000ff29700814f520003003200ef
:1049000061c4b300814f520002003a000000e80089
:104910000a0037001000200051c6b3008ff2970044
:1049200081cf5200050032000540780050c4b2002b
:104930000080fb000000e9004f00de008301400022
:10494000868f510001003400860178000300e000ea
:104950001d00350000c3b300868f510006003d00e6
:1049600062c279006940400041c3b300814f5200e8
:1049700001003c00694050008300e90081004100d3
:1049800001003700840178000302e9000103780088
:10499000a142780080cf5200faff320091c3b300e9
:1049a000814f500001003a00054be8000400e00090
:1049b00005003d000201e9008301e8001f9b97000c
:1049c0000603e800969f9f008ff397008700fb0087
:1049d0001f9a97000e007800060007004f07780026
:1049e0004f06be004f05be004f04be002f04b100ad
:1049f00000000600f0874700889fbe008a9fbe0027
:104a00008c9fbe008e1f78000004780081447800df
:104a10000205be00040678000b00e00002003c0026
:104a20001b002000ca6a220060c6b30080cf540079
:104a30000e00320060c4b30080cf54000b0032007f
:104a400070c6b30080cf54000300320070c4b300be
:104a500080cf540081003a00e40f46007f0035000b
:104a600058089000800f56007c003d000c06e800be
:104a700060c6b30080cf54001000320060c4b300a1
:104a800080cf54000d003200081090000038a300c1
:104a900004003a0058089000808f550001003d0046
:104aa0005b0c9800580890000c005000500c9800c7
:104ab00002003b000000eb00500c9800180890002a
:104ac000e80090000c00e00026003c0002c3b300a8
:104ad000827078000000e800100c9800d808900060
:104ae0000100e00003003c00881090000138a300a2
:104af00005003200e8009000e2c2b3008270780046
:104b00000000e800100c9800580890008c00ea00a3
:104b1000810f500001003d000006ea008c00ea0011
:104b2000210c9800000646005c0c98008b0f560084
:104b3000010034000b0678003c0c9800e80090005f
:104b400018089000008040000c0178008a0078006e
:104b50005e0a0700580890000c0650004c0c9800a4
:104b6000900037008c8f550018003d0000804000f9
:104b70000b0178008a007800540a0700180890009a
:104b800000804500100c98008b0556002b0c9800f7
:104b9000d80890000100e00003003c00881090005d
:104ba0000138a30006003200e8009000e2c2b30022
:104bb00082707800380890000000e800300c9800ff
:104bc00058089000400c98007600370000804000a4
:104bd0000c0178008a0078003c0a07001808900051
:104be00000004600100c98008c855500d8089000f5
:104bf0000100e00003003c00881090000138a30091
:104c000005003200e8009000e2c2b3008270780034
:104c10000000e800100c980058089000808f5500a4
:104c20000100340080057800e8009000180890002a
:104c3000008040008c0045000b017800230a07002b
:104c4000180890000b004000100c980058089000c5
:104c50008b0550002b0c980052003700180890006c
:104c6000e80090009a7078000000e800100c9800ae
:104c7000d80890000100e00003003c00881090007c
:104c80000138a30005003200e8009000e2c2b30042
:104c9000827078000000e800100c9800580890001e
:104ca0000000e000100034008b05e900808f550003
:104cb0000100340080057800e8009000180890009a
:104cc000008040008a00e8000b017800ff0907001f
:104cd000180890000b004000100c98005808900035
:104ce0008b0550002b0c9800e800900018089000ed
:104cf00000804000095878000007e8000c00e00040
:104d000004003500b1c2b300014878008e04780079
:104d100004003700d1c2b300014878008e04780047
:104d20000c06ea007d8557008006eb00090037007d
:104d3000a20020008c00780072805700d60807007f
:104d40007fb097008fb89700016d7800000678005b
:104d50008d06e8000c00e000f5ff3c000d00e000cf
:104d600009003a008e04780000c3b300805c78002c
:104d7000050037008d06e900fc80570061c07e0009
:104d800002c3b300825c40000d00e000f9ff3c006c
:104d9000e8009000180890000080400080845400d3
:104da000390c98000810900074006000f00f50005b
:104db0000e003a00980890007800900000804000b3
:104dc000a808900001004000b808900001004000d1
:104dd000c808900001004000f8089000810f5000c2
:104de00002003d0000805000000c98004f07780042
:104df0004f06be004f05be004f04be000f01b100bc
:104e0000000006002f04b000889fbe008a9fbe00ed
:104e10008c9fbe008e1f78000007780081f79f00ee
:104e20003e04be002e05be005e0890000000e000bb
:104e300002003d0060002000500f98008e007800b6
:104e400020fb2f000f0040007bfc0700e20f50000a
:104e50000a003a0030002000100f9800b1c9b300da
:104e60000ff0970081404000c0382200e1cf500091
:104e70000d003e00803822000b0037000000e000eb
:104e80000f00340030002000100f9800b1c9b300ab
:104e90000ff197008140410040392200e1cf5000de
:104ea00001003e0000392200ee009000b04878007a
:104eb000b06878001040780090409800f300370008
:104ec0000000e00005003a0022fb2f000f01410026
:104ed000001978008001eb00e70037006022b8007d
:104ee0006033b8000800be000a01be004ff00700a2
:104ef0000000e00001003d000bf0a2007059270007
:104f00009f9897000088b900026a280013002000cb
:104f1000da0b0700640650009c9f9f0013003b00c3
:104f200063061600c0ff2f00000666008c01ea0031
:104f3000939f9f008d3922000800be000a01be0029
:104f4000070037000c08a300030032003d02be003a
:104f50002d03be001df207000c86d100e886460036
:104f60000c00e000f7ff3c00180037000c00e000e8
:104f700018003200c0ff2f00000666009c9f9f00b3
:104f80008d3922006000b8000200200003ff2300da
:104f9000070037000c08a300030032003d02be00ea
:104fa0002d03be0009f207000c86d100e8864600fa
:104fb0000c00e000f7ff3c000002be000203be0050
:104fc0000800be000a01be0022f007000004be0077
:104fd0000205be00de08900060c6b3000ff2970025
:104fe000804f5200040032006000200062c4b30011
:104ff000824f520002003a009f9a97006a80420056
:1050000081004000f1b79f0001037800f30f5300c7
:105010000200340037012000f7b79f0000c3b3003f
:10502000c0779f0056fb2f000f0343000e0078004f
:10503000a0b79f00060778003d0037000800be00bb
:105040000a01be00d8f007000006be007fb197003d
:1050500068015100f2b79f004240a9000c003400e3
:1050600054f107000002be000203be000800be00ab
:105070000a01be007df307006022b80046782d00cb
:1050800077192400d1f107000004be000205be001c
:10509000e80047008e0020000802be000a03be00a0
:1050a000b4b79f00c5b79f00d6b79f00e7b79f0072
:1050b0000c01be00010478000c003700a4002000a1
:1050c00005002000c0fd2f000f00400083080700ee
:1050d0006fa89700ffa897000fb197009fb19700a6
:1050e00005c3b300056441000001be00e00f51009c
:1050f000e08f5900030034000e07e900e10f47007c
:10510000eeff3a00880078003fb49700cfb49700d4
:105110005fb59700efb597000200370000c3b300fa
:10512000806078000e07e900fcff3b0068874000c4
:105130007fb397000600e000070034006022b8004b
:105140006033b8000800be000a01be00bcef0700d3
:105150000000e000b9ff3c000e0378002fb7970075
:1051600051fb2f008f804000010353009f9b97004d
:1051700067804300909f9f00020037000603e9000c
:105180000000e900010178008200780003c3b30049
:10519000b1cf1100f9ff3200909f9f00de0990000f
:1051a00061c6b3000ff29700814f52000300320036
:1051b00061c4b300814f520002003a000000e800d1
:1051c0000a0037001000200051c6b3008ff297008c
:1051d00081cf5200050032000540780050c4b20073
:1051e0000080fb000000e9004f00de00830140006a
:1051f000868f510001003400860178000300e00032
:105200001d00350000c3b300868f510006003d002d
:1052100062c279006940400041c3b300814f52002f
:1052200001003c00694050008300e900810041001a
:1052300001003700840178000302e90001037800cf
:10524000a142780080cf5200faff320091c3b30030
:10525000814f500001003a00054be8000400e000d7
:1052600005003d000201e9008301e8001f9b970053
:105270000603e800969f9f008ff397008700fb00ce
:105280001f9a97000e007800060007004f0778006d
:105290004f06be004f05be004f04be002f04b100f4
:1052a00000000600f0874700889fbe008a9fbe006e
:1052b0008c9fbe008e1f7800000478008144780027
:1052c0000205be00040678000b00e00002003c006e
:1052d0001b002000ea6a220060c6b30080cf5400a1
:1052e0000e00320060c4b30080cf54000b003200c7
:1052f00070c6b30080cf54000300320070c4b30006
:1053000080cf540081003a00e40f46007f00350052
:1053100058089000800f56007c003d000c06e80005
:1053200060c6b30080cf54001000320060c4b300e8
:1053300080cf54000d003200081090000038a30008
:1053400004003a0058089000808f550001003d008d
:105350005b0c9800580890000c005000500c98000e
:1053600002003b000000eb00500c98001808900071
:10537000e80090000c00e00026003c0002c3b300ef
:10538000827078000000e800100c9800d8089000a7
:105390000100e00003003c00881090000138a300e9
:1053a00005003200e8009000e2c2b300827078008d
:1053b0000000e800100c9800580890008c00ea00eb
:1053c000810f500001003d000006ea008c00ea0059
:1053d000210c9800000646005c0c98008b0f5600cc
:1053e000010034000b0678003c0c9800e8009000a7
:1053f00018089000008040000c0178008a007800b6
:1054000032080700580890000c0650004c0c980019
:10541000900037008c8f550018003d000080400040
:105420000b0178008a00780028080700180890000f
:1054300000804500100c98008b0556002b0c98003e
:10544000d80890000100e00003003c0088109000a4
:105450000138a30006003200e8009000e2c2b30069
:1054600082707800380890000000e800300c980046
:1054700058089000400c98007600370000804000eb
:105480000c0178008a0078001008070018089000c6
:1054900000004600100c98008c855500d80890003c
:1054a0000100e00003003c00881090000138a300d8
:1054b00005003200e8009000e2c2b300827078007c
:1054c0000000e800100c980058089000808f5500ec
:1054d0000100340080057800e80090001808900072
:1054e000008040008c0045000b017800f7070700a2
:1054f000180890000b004000100c9800580890000d
:105500008b0550002b0c98005200370018089000b3
:10551000e80090009a7078000000e800100c9800f5
:10552000d80890000100e00003003c0088109000c3
:105530000138a30005003200e8009000e2c2b30089
:10554000827078000000e800100c98005808900065
:105550000000e000100034008b05e900808f55004a
:105560000100340080057800e800900018089000e1
:10557000008040008a00e8000b017800d307070094
:10558000180890000b004000100c9800580890007c
:105590008b0550002b0c9800e80090001808900034
:1055a00000804000095878000007e8000c00e00087
:1055b00004003500b1c2b300014878008e047800c1
:1055c00004003700d1c2b300014878008e0478008f
