:020000040000fa
:080000000002040000000000f2
:020000040000fa
:04000800c60400002a
:020000040000fa
:04000c00c604000026
:020000040000fa
:04001000c604000022
:020000040000fa
:04001400c60400001e
:020000040000fa
:04001800c60400001a
:020000040000fa
:04001c00c604000016
:020000040000fa
:04002000c604000012
:020000040000fa
:04002400c60400000e
:020000040000fa
:04002800c60400000a
:020000040000fa
:04002c00c604000006
:020000040000fa
:04003000c604000002
:020000040000fa
:04003400b402000012
:020000040000fa
:04003800c6040000fa
:020000040000fa
:04003c00c6040000f6
:020000040000fa
:04004000c6040000f2
:020000040000fa
:04004400c6040000ee
:020000040000fa
:04004800220300008f
:020000040000fa
:04004c00c6040000e6
:020000040000fa
:04005000c6040000e2
:020000040000fa
:04005400580400004c
:020000040000fa
:04005800c6040000da
:020000040000fa
:04005c00c6040000d6
:020000040000fa
:04006000c6040000d2
:020000040000fa
:04006400c6040000ce
:020000040000fa
:04006800c6040000ca
:020000040000fa
:04006c00c6040000c6
:020000040000fa
:04007000c6040000c2
:020000040000fa
:04007400c6040000be
:020000040000fa
:04007800c6040000ba
:020000040000fa
:04007c00c6040000b6
:020000040000fa
:04008000c6040000b2
:020000040000fa
:04008400c6040000ae
:020000040000fa
:04008800c6040000aa
:020000040000fa
:04008c00c6040000a6
:020000040000fa
:04009000c6040000a2
:020000040000fa
:04009400ca0300009b
:020000040000fa
:04009800ee03000073
:020000040000fa
:04009c00c604000096
:020000040000fa
:0400a00092040000c6
:020000040000fa
:0400a400b4040000a0
:020000040000fa
:0400a800c60400008a
:020000040000fa
:0400ac00c604000086
:020000040000fa
:0400b000c604000082
:020000040000fa
:0400b400c60400007e
:020000040000fa
:0400b800c60400007a
:020000040000fa
:0400bc00c604000076
:020000040000fa
:0400c000c604000072
:020000040000fa
:0400c400c60400006e
:020000040000fa
:0400c800c60400006a
:020000040000fa
:0400cc00c604000066
:020000040000fa
:0400d000c604000062
:020000040000fa
:0400d400c60400005e
:020000040000fa
:0400d800c60400005a
:020000040000fa
:0400dc00c604000056
:020000040000fa
:0400e000c604000052
:020000040000fa
:0400e400c60400004e
:020000040000fa
:0400e800c60400004a
:020000040000fa
:0400ec00c604000046
:020000040000fa
:0400f000c604000042
:020000040000fa
:0400f400c60400003e
:020000040000fa
:0400f800c60400003a
:020000040000fa
:0400fc00c604000036
:020000040000fa
:04010000c604000031
:020000040000fa
:04010400c60400002d
:020000040000fa
:04010800c604000029
:020000040000fa
:04010c00c604000025
:020000040000fa
:0401100010040000d7
:020000040000fa
:04011400c60400001d
:020000040000fa
:04011800c604000019
:020000040000fa
:04011c00c604000015
:020000040000fa
:04012000c604000011
:020000040000fa
:04012400c60400000d
:020000040000fa
:04012800c604000009
:020000040000fa
:04012c00c604000005
:020000040000fa
:04013000c604000001
:020000040000fa
:04013400c6040000fd
:020000040000fa
:04013800c6040000f9
:020000040000fa
:04013c00c6040000f5
:020000040000fa
:04014000c6040000f1
:020000040000fa
:04014400c6040000ed
:020000040000fa
:04014800c6040000e9
:020000040000fa
:04014c00c6040000e5
:020000040000fa
:04015000c6040000e1
:020000040000fa
:04015400340400006f
:020000040000fa
:04015800c6040000d9
:020000040000fa
:04015c00c6040000d5
:020000040000fa
:04016000c6040000d1
:020000040000fa
:04016400c6040000cd
:020000040000fa
:04020800c604000028
:020000040000fa
:04020c00c604000024
:020000040000fa
:04021000c604000020
:020000040000fa
:04021400c60400001c
:020000040000fa
:04021800c604000018
:020000040000fa
:04021c00c604000014
:020000040000fa
:04022000c604000010
:020000040000fa
:04022400c60400000c
:020000040000fa
:04022800c604000008
:020000040000fa
:04022c00c604000004
:020000040000fa
:04023000c604000000
:020000040000fa
:04023400c6040000fc
:020000040000fa
:04023800c6040000f8
:020000040000fa
:04023c00c6040000f4
:020000040000fa
:04024000c6040000f0
:020000040000fa
:04024400c6040000ec
:020000040000fa
:04024800c6040000e8
:020000040000fa
:04024c00c6040000e4
:020000040000fa
:04025000c6040000e0
:020000040000fa
:04025400c6040000dc
:020000040000fa
:04025800c6040000d8
:020000040000fa
:04025c00c6040000d4
:020000040000fa
:04026000c6040000d0
:020000040000fa
:04026400c6040000cc
:020000040000fa
:04026800c6040000c8
:020000040000fa
:04026c00c6040000c4
:020000040000fa
:04027000c6040000c0
:020000040000fa
:04027400c6040000bc
:020000040000fa
:04027800c6040000b8
:020000040000fa
:04027c00c6040000b4
:020000040000fa
:04028000c6040000b0
:020000040000fa
:04028400c6040000ac
:020000040000fa
:04028800c6040000a8
:020000040000fa
:04028c00c6040000a4
:020000040000fa
:04029000c6040000a0
:020000040000fa
:04029400c60400009c
:020000040000fa
:04029800c604000098
:020000040000fa
:04029c00c604000094
:020000040000fa
:0402a000c604000090
:020000040000fa
:0402a400c60400008c
:020000040000fa
:0402a800c604000088
:020000040000fa
:0402ac00c604000084
:020000040000fa
:0402b000c604000080
:020000040000fa
:0402b400c60400007c
:020000040000fa
:0402b800c604000078
:020000040000fa
:0402bc00c604000074
:020000040000fa
:0402c000c604000070
:020000040000fa
:0402c400c60400006c
:020000040000fa
:0402c800c604000068
:020000040000fa
:0402cc00c604000064
:020000040000fa
:0402d000c604000060
:020000040000fa
:0402d400c60400005c
:020000040000fa
:0402d800c604000058
:020000040000fa
:0402dc00c604000054
:020000040000fa
:0402e000c604000050
:020000040000fa
:0402e400c60400004c
:020000040000fa
:0402e800c604000048
:020000040000fa
:0402ec00c604000044
:020000040000fa
:0402f000c604000040
:020000040000fa
:0402f400c60400003c
:020000040000fa
:0402f800c604000038
:020000040000fa
:0402fc00c604000034
:020000040000fa
:04030000c60400002f
:020000040000fa
:04030400c60400002b
:020000040000fa
:04030800c604000027
:020000040000fa
:04030c00c604000023
:020000040000fa
:04031000c60400001f
:020000040000fa
:04031400c60400001b
:020000040000fa
:04031800c604000017
:020000040000fa
:04031c00c604000013
:020000040000fa
:04032000c60400000f
:020000040000fa
:04032400c60400000b
:020000040000fa
:04032800c604000007
:020000040000fa
:04032c00c604000003
:020000040000fa
:04033000c6040000ff
:020000040000fa
:04033400c6040000fb
:020000040000fa
:04033800c6040000f7
:020000040000fa
:04033c00c6040000f3
:020000040000fa
:04034000c6040000ef
:020000040000fa
:04034400c6040000eb
:020000040000fa
:04034800c6040000e7
:020000040000fa
:04034c00c6040000e3
:020000040000fa
:04035000c6040000df
:020000040000fa
:04035400c6040000db
:020000040000fa
:04035800c6040000d7
:020000040000fa
:04035c00c6040000d3
:020000040000fa
:04036000c6040000cf
:020000040000fa
:04036400c6040000cb
:020000040000fa
:10040000afce21000e7f24000e0188000000000006
:10041000000020000000e000020032000001200087
:10042000200288000c00070020ff2a0001002000a5
:1004300011000700000020000000e0000200320070
:100440000000020000000000f2b302000000000003
:100450000040da000000fe004440a900e007200050
:100460000000e0000300320000002000a00188002e
:100470004440a80000000600910188008000780038
:100480000000eb0015003700e280400032a0b4000d
:100490009101ba00e280400032a0b4009102ba009b
:1004a000e280400032a0b4000002eb00472bde00e7
:1004b000f507b200602ce10004003a000059eb009f
:1004c0008301e900fdff3e00040037006128e100e0
:1004d000010032000082eb000b00070011c3ba00dc
:1004e0001101ba000604e00003003a000200e00037
:1004f000e5ff3a0000000600f607b200960188000a
:1005000082007800f5ff37003159ba008301e90015
:100510000c0032002159ba008301e90008003200c2
:100520000400e00003003a00e280400032a0b40082
:10053000f5ff370011d9ba008301e900faff3a004c
:100540008100e800e180400032a0b4000000060015
:10055000c215040000000000142404000000000084
:1005600000000400000000003600f800809fbe007c
:10057000829fbe00849fbe00869fbe000000fa00de
:100580008460a900c1440700c0cabf00e14f500009
:1005900001003a00223e0700505b8000ea0f500045
:1005a00003003a00705b80000000e800705b880088
:1005b000f05d80000000e800f05d8800f15d8000e3
:1005c00040062000808f500008003a00005e800046
:1005d000e10f500002003a00c02bef00020037008c
:1005e00010002000005e8800be2bef00105e80002f
:1005f000e10f50000a003a00205c80000000e80093
:10060000205c8800215c8000c0122000808f500098
:1006100004003600c0122000205c88000100370072
:10062000842bef00000000000080fa004f03be00a2
:100630004f02be004f01be004f00be003600f90061
:10064000004006003600f800809fbe00829fbe007a
:10065000849fbe00869fbe000000fa0070cbbf00e2
:100660000040e80070ebb70001b72000914078002f
:1006700060c3b30080cf50000b003600bdcbbf007d
:100680000004e00008003a006ccbbf00e94f5000c6
:100690000200320080c0b3006cebb70010c0b300a2
:1006a000bdebb7003300370001b720009140780060
:1006b00040c5b30080cf500006003600bdcbbf0060
:1006c000e14f500003003a0020c0b300bdebb7007b
:1006d0002800370001b720009140780090c5b30092
:1006e00080cf500023003600d2a2a90094e0a900d8
:1006f0009460a9009760a9009780a9009b40a90079
:100700009d60a900c2e2a9001fe1a90005e1a900be
:1007100011e1a90021e1a9006022b8006033b8000e
:100720000040eb00745507006022b8006033b80049
:1007300010c0b300705507006022b8006033b800e5
:1007400020c0b3006c5507009005800000c0a000d9
:1007500000d0a00000e0a000900588009005800077
:100760000080a0000090a00000a0a00090058800dc
:10077000ffff37008500a9000080fa004f03be008c
:100780004f02be004f01be004f00be003600f90010
:10079000004006003600f800809fbe00829fbe0029
:1007a000849fbe00869fbe000000fa001fe1a900e2
:1007b0001c4d07001421ef008760a9001fe1a8006d
:1007c0000080fa004f03be004f02be004f01be0082
:1007d0004f00be003600f900004006003600f80069
:1007e000809fbe00829fbe00849fbe00869fbe0089
:1007f0000000fa0021e1a900cb5607008780a9007c
:1008000021e1a8000080fa004f03be004f02be00a5
:100810004f01be004f00be003600f9000040060048
:10082000809fbe000000fa008b40a900010f8000ed
:1008300000802000008060000000e0000400320022
:10084000105a80000000e800105a880003003700aa
:10085000105a80000000e900105a88000080fa0059
:100860004f00be0000400600809fbe000000fa005e
:100870008d60a900810f8000008020000080600052
:100880000000e00004003200205a80000000e80070
:10089000205a880003003700205a80000000e90039
:1008a000205a88000080fa004f00be000040060079
:1008b000809fbe00821f78000200fa009560a900a8
:1008c0008560a90030118000004f7800bccbbf00cc
:1008d000614060000080fb00610060004500dd00b9
:1008e00092168000f1fd2f00810061000100700070
:1008f00090168800bccbbf000004e00003003a0063
:1009000010c0b300bcebb70001003700bc6bef00b8
:100910009560a8000080fa004f0178004f00be00eb
:10092000004006003600f800809fbe00829fbe0097
:10093000849fbe00869fbe000000fa0097c0a900f9
:1009400087c0a900c447070097c0a8000080fa002c
:100950004f03be004f02be004f01be004f00be005d
:100960003600f90000400600809fbe000000fa003b
:1009700087e0a900609f210011c0b3000148780002
:100980000080fa004f00be00004006000040da0080
:100990000000fe000a00fa0011002000b1bf9f0015
:1009a000c0bf9f006a805700ba1307004fb8970076
:1009b0000080fa00000006000a00fa00e20f500072
:1009c00020003e0030e78000e10f500006003200ba
:1009d000802320004523200023232000042320001f
:1009e0000000e00004003a008022200045222000a0
:1009f00023222000042220000600280014036300a4
:100a000003003a000608780000002800140a70006d
:100a100013a8a30001003a0013a0a0000200780070
:100a2000050037001388a300feff32003102fb00ef
:100a3000840a78000000e9000000e000f9ff3a00b5
:100a40000800370033002000b3bf9f00c0bf9f00e5
:100a5000d1bf9f00e2bf9f006a8057008f1307003d
:100a60006fb99700020078000080fa0000000600cd
:100a70000a00fa0051002000b1bf9f00c0bf9f00d4
:100a80006a805700871307005fb897000080fa005c
:100a900000000600889fbe008004780040e78000c8
:100aa0000000e00004003a000e0007000084eb00a4
:100ab0000000e0000800350048e780000900e00081
:100ac0000500320009004400060007000000e000b5
:100ad00001003d000084eb00080078004f04be00d8
:100ae00000000600800078000100e00003003a00ea
:100af0000000200040e78800000005000080eb00b7
:100b000002002000828f500002003e0041e7880072
:100b10000000eb00000006002800fa00889fbe00dd
:100b20008a9fbe008c9fbe000706780087866900fa
:100b30000c003b00030478008704780008f0a10053
:100b400009f0a100840f5000858f5800860f5900ce
:100b5000890f5c00030033000cf0a20001003a0092
:100b60000cf0a100a10107006400e1005f00320069
:100b7000780147006408e100610032006c01470021
:100b8000748557003200be001201be003a04be0058
:100b90001a05be001e039000be0a90008503530094
:100ba00006003d000004fd008104fd000205fd007b
:100bb0008305fd008703ea00050378000df8a30014
:100bc0000400320060041400e0841c0060051d0075
:100bd000e0851d006022b8007d0320000d38e10093
:100be0008006eb000b0039004433dd00f300b20057
:100bf0008301730039003700848272000d0278008f
:100c0000e10664008b85d1000a85d3008984d30076
:100c10000884d3008703e900f7ff3b000800400089
:100c2000898048000a0149008b81490004003b008b
:100c300060001000e080180060011900e0811900d8
:100c40000358a300090032008d8272008482720072
:100c5000610260008301d1000281d3008180d30052
:100c60000080d3000603e8001b0037000348a30000
:100c700017003a000600e000170034000603e90000
:100c80000d00a300000048008180480002014900d7
:100c9000838149000348a3000f003a000600e000ea
:100ca000090034000603e90000004000818048008c
:100cb000020149008381490001003a000003eb0072
:100cc0000348a300f5ff32006022b800020037009d
:100cd00084827200618266000601070003f0a100b1
:100ce0000cf0a70003f0a000540137006401470096
:100cf0006408e10002003a000df8a3004c013a003c
:100d00003200be001201be004c01370003f0a20009
:100d1000889fbe008a9fbe008c1f780025020700b6
:100d20002c0233006450e1004f0032006420e100e7
:100d30005200320003826c0007003b000905d0001e
:100d40000306d000820f54000c065d00020039003b
:100d50000200320089017800030678008582550080
:100d600004003d000003fd008103fd008502ea0050
:100d70008b854200840f720002003b00600010006f
:100d8000e08018006011b8000005eb007a28e1004f
:100d90000a00390006007800c75ddd00f707b200e1
:100da000878075002d003700828171000a0178006c
:100db000610560008180d1000080d3008502e900d8
:100dc000f9ff3b00060440008784480002003b0016
:100dd00060041400e0841c000988a30007003200ae
:100de0008a81710082817100610164008904d100ef
:100df0000884d3008b05e800170037000978a300aa
:100e000013003a000b00e000130034008b05e900ea
:100e10000804440089844c000a4474000978a30043
:100e20000d003a000b00e000070034008b05e900dc
:100e30000804440089844c0001003a000b002000a3
:100e40000978a300f7ff32000001eb000200370031
:100e5000828171000a0178009b0107000cf0a70055
:100e600001f0a000e40137006420e10002003a0034
:100e7000838f6c00e40133000801be000200be0055
:100e8000dd0137000000fa00889fbe008a9fbe0087
:100e90008c9fbe000404be000605be00c100070012
:100ea000040678000c78a30020003a000800fd003a
:100eb0008900fd000a01fd008b01fd00b90007005b
:100ec000840678000d78a30018003a000d0666002d
:100ed0006460e100190032006160e1001700320037
:100ee0000002be000203be000a01be000800be00f0
:100ef000070478002000070003f0a1009c0407000d
:100f000008f0a6000600370003f0a20097002400b6
:100f1000b61f22004544250084d12200fefe0700b2
:100f20000bf0a70003f0a200c40037001802200055
:100f3000285e88000330a000c0003700180220009f
:100f4000285e8800ba0037000002eb005c02370020
:100f50008f1fd1003c0507008f87e9000000e000eb
:100f600000000600809feb00370507008f87e9002f
:100f70000000e000000006002800fa00889fbe0084
:100f80008a9fbe008c9fbe0003866b0097000700ff
:100f90006400e100440032006408e1004a003200cd
:100fa0006100e100460032006108e10049003200c2
:100fb000ec0647006000b8003d02be003d03be00e5
:100fc000f48657006011b8003d04be003d05be0028
:100fd0007d0320000b0037000000a0008d06e90013
:100fe000130032000402420085824a0006034b00cf
:100ff00087834b00000040008180480002014900c7
:10100000838149000802520089825a000a035b006a
:101010008b835b00f0ff3b000802420089824a009c
:101020000a034b008b834b008d06e900edff3a006d
:101030008482720086827200f707b2008782720093
:1010400001003200150020001e0490003e0b9000ad
:1010500006035400e63fb0000368a3000700320017
:101060000000a7000500a0008301d1000281d30089
:101070008180d3000080d3000603e8008301d10003
:101080000281d3008180d3000080d3000002eb00f6
:101090000482d2001700070003f0a1000cf0a700a3
:1010a00003f0a00065003700640247006408e10017
:1010b0005f0032003400be003401be00f6ff37008e
:1010c0006108e1005a0032006011b8006000b80009
:1010d000f1ff370003ff270002002000fbff37006d
:1010e000801feb00d80407008f87e9000000e000b4
:1010f00000000600180020005700200008045300dc
:101100000d003d000600200097fc2f000740e10085
:101110001e00340084827200610260008301d100ed
:101120000281d3008180d3000080d3000804e8004e
:10113000f8ff3a00470020006104600005047400d5
:10114000040464000d00320061004000e0804800ab
:1011500060014900e081490003b8a50007003200a2
:101160000603e8006538e10004003a008301d1007d
:101170000281d3008180d3000080d300f87f20005b
:101180000830e10003003500080378006000b80073
:101190006011b8004433dd00f300b2008301730036
:1011a0000000060005ff27000582610007003200ed
:1011b0000428e100010032002400050006000700b9
:1011c00001003a0044000500040805000200070081
:1011d000f9ff3a00140005006f826100810270007f
:1011e0008502710085027200000006006804470055
:1011f0000294be000094be00fc0447008694be002a
:101200008494be0009007800c60407000800780036
:10121000c404070099007800814f70000b003b0068
:101220000800be00b10407004f00b1000300370002
:10123000f3ff2700f2ff2f006110b9004f06be0038
:101240004f05be004f04be000080fa0000000600fb
:1012500081037800c20007000001be006000b800f2
:101260000478a30013003a006220e10015003e005c
:101270000d0039008301d1000281d3008180d300a9
:101280008301d1000281d3008180d3008301d1008a
:101290000281d3008180d3000538b000c42add006c
:1012a000f300b2008381720007f0a70003f0a000f2
:1012b00000000600f3ff2700f2ff2f006110b900c5
:1012c000fbff370003ff2700f7ff37001400200063
:1012d000bb043700f4ff2f00b90437001400fa00f4
:1012e000889fbe008a9fbe008c9fbe000004be0087
:1012f0000205be00680047000a90be000890be00cc
:10130000880407000070a7000bf0a1003043200004
:101310009e02900080825200b0fe2f000028e10063
:1013200011003d00b0fc2f000028e1001500340042
:101330001e0990008e0890007e0090000501b0000c
:101340000201d1008180d3000080d3008502e80033
:10135000fbff3a000b00e000b8ff3b00600010000c
:10136000e0801800b5ff3700f0ff2f00f1ff2700e5
:101370000b00e000b1ff3b0001002800000020004e
:10138000aeff37006000b800acff37000001be00c0
:10139000730007000470a70003f0a1006509b10005
:1013a000160032000d0035006828e1000600350007
:1013b000f0ff2f00f1ff27000300e00013003b00c7
:1013c0000100280000000500000040008180480066
:1013d0008502e900fcff3a0008003700f88f420060
:1013e00002003c008000eb00000005008100d100fd
:1013f0000080d3008502e800fcff3a000300e00013
:1014000002003b0060001000e080180000000600b1
:101410001400fa00889fbe008a9fbe008c9fbe0009
:101420000004be000205be00680047000a90be002e
:101430000890be003b0407000070a7000bf0a1005d
:101440000bf8a30016003a009e02900030432000e3
:1014500080825200b0fe2f000028e1000d003c0009
:10146000b0fc2f000028e1000d0034001e099000a0
:101470008e0890007e0090000501b0000201d100ae
:101480008180d3000080d3008502e800fbff3a0092
:101490006aff3700010028000000200067ff3700c6
:1014a0006000b80065ff37004f89de0082017800d8
:1014b0005e0437004f89de00820178006b0437003c
:1014c0006011b80079043700810020006180550068
:1014d0000b003d000b00200061fe2f000100e10029
:1014e0001d00340082817100610164008904d10013
:1014f0000884d3000000e800faff3a0071002000e1
:101500006100640003007000020060000900320006
:1015100061044400e0844c000988a5000500320005
:101520008b05e8006808e10002003a008904d10058
:101530000884d300f20f20000258e10005003d00ae
:10154000c75ddd00f907b2008980750008007800ea
:10155000000006000bf827008b0078000000050053
:10156000c70ade00f107b200f50fb2000800320032
:10157000e1cf4200020032000170a000240005000b
:10158000810f7000010032000408050044000500ce
:10159000810f700002003a00140005008502e90086
:1015a0000000400081c04800fcff3b000170a0002b
:1015b000240005000004be00e9ff07000003be0090
:1015c0000405be000200be00e5ff0700844f750061
:1015d000000006000200be006450e1000500360075
:1015e0006420e100020036000968a30001003a000f
:1015f0000800be000160a0004f0678004f05be0045
:101600004f04be0000000600f0ff2f00f1ff27008e
:10161000f9ff37002800fa00889fbe008a9fbe00ad
:101620008c9fbe0003866b00f0fe07000028a3001d
:1016300064003a000128a30067003a000008a300f4
:1016400062003a000108a30065003a001e00900005
:10165000be08900081064000ed3fb100f4805700c5
:10166000ee019000111ab8008e099000311bb800ed
:101670009e099000311cb800511db800f485570038
:1016800046000700fe0190003a0007008b85e80045
:101690003e0007008e09900040000700ee01900018
:1016a000340007008b85e800380007008e099000a1
:1016b000400007009e0990001b18b80089044000f4
:1016c0000a854800fe019000340007008b85e80081
:1016d00038000700ee019000300007008e099000ee
:1016e0001b18b800890440000a8548000a98a30026
:1016f00008003a000402420085824a0006034b00bb
:1017000087834b0008044c0089844c000a054d0077
:101710008d06e90084827200850273004c3add0078
:10172000850272000100320015002000443ade00fc
:101730001400b2004538de00cb45dd000b00700020
:10174000c540de00cb4ddd008b8070004549de00da
:10175000cb55dd000b017100c551de000d03780093
:1017600064fe070003f0a1000cf0a70003f0a00046
:10177000b2fe37001b18b8008502400006834800ff
:10178000e0834b0060044c00070037001b18b800d2
:101790000603400087834800faff37001b18b80093
:1017a0008703400008844800e0844c0060054d0039
:1017b000000006001b18b800080440008984480097
:1017c000faff37000108a30099fe3a005800be0056
:1017d0005801be00e3ff37000008a30094fe3a0062
:1017e00009047800f9ff3700889fbe008a9fbe0079
:1017f0008c1f78006fff070076ff330003866c00b4
:101800006450e100240032006420e100270032002f
:101810006150e100220032006120e100210032002d
:101820008b854200eb07b1000134b800003ab800e4
:101830000804420089844a00013ab8000030b80028
:101840008880400009014a00040033000000400085
:1018500081804800020149008b05e900c909dd00cb
:10186000830170000100320013002000c814de0064
:101870004814dd004709de001200b200c808de008f
:101880000884700010ff070001f0a1000cf0a70011
:1018900001f0a00058ff37006120e1005aff32003c
:1018a0000801be000200be00f7ff37006150e100f2
:1018b000fcff3a0054ff37001400200000003700fe
:1018c0000800fa00889fbe008a9fbe008c9fbe0061
:1018d000040678000004be000205be0031fe0700c9
:1018e0006420e1009f003e009b0032006120e10087
:1018f0009600320003f0a100171b240036582c007c
:1019000005a021000400200091fd07000800be0092
:101910000a01be000700350097012400b61f22000f
:101920004544250084d12200ba0307000004be000c
:101930000205be008006eb000c00a700cf1ede00f3
:1019400003f0a1000bf0a10047fd230006f32500e2
:1019500095dc260034882c002eff07006022b8009a
:101960000003eb0007fe23000c00a60007ff230086
:1019700069fc070059fe07000000a7000d00a20047
:10198000c9fe07000c00e00004003a0007fe230037
:10199000060020006022b800c600070003f0a20085
:1019a000009fbe000297be009700240006002200a0
:1019b0006022b80017ff07000802be000a03be003d
:1019c00055fc0700809fbe00829fbe003e00be0007
:1019d0002e01be00f7f4230046542b00152d2400e1
:1019e000a44628000bff07004f03be004f02be00b5
:1019f00049fc07000004be000205be0003f0a10080
:101a000067e42300e6092a00f5672600d4bc23001a
:101a10004ffd07000800be000a01be004800350067
:101a20000002be000203be00fafe0700009fbe00d7
:101a30000297be0087ce2300f60f280035992600b6
:101a400054f92d00f3fe0700a7d62b0006422e0006
:101a500085c02d00c49924002ffc07003e02be0063
:101a60002e03be00ebfe070067de2300c623210025
:101a7000a586260004432d0027fc07003e02be0079
:101a80002e03be00e3fe0700a7e52b0056642e00e0
:101a9000d5b52400b40a2c001ffc07003e02be008e
:101aa0002e03be00dbfe070077ec230036de2100ac
:101ab00045522a0034062f0017fc07003e02be00e4
:101ac0002e03be00d3fe0700a7f22b00061a20004b
:101ad00015a02100a4e123000ffc07003e02be0078
:101ae0002e03be00cbfe070017f8230016112100bd
:101af00015112100040b210007fc07003e02be0067
:101b00002e03be00c3fe070057fc2b0056552500d0
:101b10005555250054552500fffb07003e02be0029
:101b20002e03be00bbfe07000802be000a03be0073
:101b3000b8fe07000802be000a03be00f6fb07005d
:101b40000d00a70003f0a200bcfd37000c00a600aa
:101b500003ff2300b9fd3700f3ff2700f2ff2f003a
:101b60006110b9000330a00014022000245e880038
:101b7000b2fd37001400fa00889fbe008a9fbe00a5
:101b80008c9fbe000004be000205be006800470036
:101b90000a90be000890be00620207000078a30011
:101ba0003d003a006100e1003c0032000bf8a30068
:101bb0003d003a006400e100380032006c03470049
:101bc0001e009000f03fb1003602be001603be00ba
:101bd0000008a300040032000402420085824a008b
:101be00006034b0087834b00100798008e1f780078
:101bf0006000b8006011b8005c0020006d0120009a
:101c00006e002000020037008d86e900fc002000f5
:101c10000402420085824a0006034b0087834b0082
:101c20000004400081844800020549008385490082
:101c30006060e1001d60ad000804520089845a0014
:101c40000a055b008b855b00030039001e60ad0058
:101c50000802be000a03be000c06e900ecff3b00d0
:101c60000e87e900e8ff3b004f0778006102600043
:101c7000840278008301d1000281d3008180d300e7
:101c80000080d3001e03900041b3de00f63fb00099
:101c900018fd070069fd37000b30a0000800be00ea
:101ca0000a01be0065fd370012022000225e880096
:101cb0005ffd370007f0a20097fb37001400fa0021
:101cc000889fbe008a9fbe008c9fbe000005be009c
:101cd0000206be00680047000c90be000a90be00dd
:101ce000100207006400e1001a00320016003e00f6
:101cf0006100e1001a0032006e049000fe049000c2
:101d00000e0b90009e0b90006011b8009e05900095
:101d10000b38b100d501200082817100610164009f
:101d20008703d1000683d3008984d3000884d300bd
:101d30008502e900f8ff3a00e3fd07000df0a70077
:101d400001f0a0003dfd3700f1ff2700f0ff2f005c
:101d50003afd370001f8270000002000f7ff3700a8
:101d60006000b800f5ff3700889fbe008a9fbe0064
:101d700030044200b0844a0030054b0090854b008f
:101d80006000b1000898be000a90be000440e10067
:101d900005c8e10006d0e10007d8e10002003100eb
:101da000680040001008e8004f05be004f04be0068
:101db00000000600889fbe008a9fbe003004be005f
:101dc0002005be000418540005985c0006185d004c
:101dd00007985d00110020000440e10005c8e10003
:101de00006d0e10007d8e100010039008000eb00d7
:101df000108810004f05be004f04be000000060012
:101e00001200fa00889fbe008a9fbe008c9fbe0011
:101e1000e0b79f00f1b79f0082bf9f0093bf9f0074
:101e20000605be000404be000000eb00d0b79f0012
:101e3000c0b79f00b0b79f00a0b79f0090b79f00aa
:101e40000006eb005fb19700cfb097008201410020
:101e50003fb097000200e00004003d00370007009b
:101e60007e805700c0ff07000300370033000700e3
:101e70007e805700cfff0700dfb697000d00e0001f
:101e80000c0035006fb29700ffb297000fbb9700b0
:101e90009fbb970010002000010020006011b800d7
:101ea0000002720081827200020373008383730058
:101eb0001b0007000c06e80001042000810f5600fb
:101ec000e0ff3a000d00e00004003d000802be0003
:101ed0000a03be007e805700a3ff07005fa897009b
:101ee0000000e00005003a001fb29700afb2970073
:101ef0003fb39700cfb39700090007006fb097007a
:101f0000ffb097000fb997009fb997004f06be002a
:101f10004f05be004f04be000080fa00000006001e
:101f20000100070000000600a4b79f00b5b79f009e
:101f3000c6b79f00d7b79f00000006004f09de001c
:101f400082817100b3b79f004f01de0081804000a5
:101f500082807000a1b79f008fb097004f09de000c
:101f6000000040000200700090b79f007fa897001b
:101f70004f01de00818040008280700081b79f00a9
:101f80000d0007004f3ade00000040000400700022
:101f9000f0af9f00080007000402420085824a005b
:101fa00006034b0087834b00dfff07000802be00db
:101fb0000a03be00000006002fb29700bfb29700d0
:101fc0004fb39700dfb3970000000600881f78002a
:101fd00018002000881f780089ff07008f87e9001c
:101fe0004f04780000000600801feb0084ff07000c
:101ff0008f87e90000000600889fbe008a9fbe0010
:10200000e00f5000e08f5800e00f5900e08f5900ba
:102010000c003d006044b8006055b800000054005a
:1020200081805c0002015d0083815d00180020005a
:102030001500070008003d00180007000004eb0031
:10204000050037000004eb000f00070002003d0010
:102050001200070018002000dcff07000800e00065
:10206000060032006022b8006033b8000000520061
:1020700081805a0002015b0083815b004f05be0036
:102080004f04be0000000600e00f5200e08f5a002f
:10209000e00f5b00e08f5b00000006006044b800ca
:1020a0006055b8000402540085825c0006035d00a0
:1020b00087835d0000000600889fbe008a9fbe00e7
:1020c0008c1f7800e00f5000e08f5800e00f59009f
:1020d000e08f59000d003d006044b8006055b80025
:1020e0000000540081805c0002015d0083815d007e
:1020f0001c0020000820e10009a8e1000ab0e1006e
:102100000bb8e1000d003d00080037000006eb00b1
:10211000e00f5200e08f5a00e00f5b00e08f5b00a1
:1021200006003d006044b8006055b8000402540049
:1021300085825c0006035d0087835d00aaff0700bf
:102140000c00e000060032006022b8006033b800e6
:102150000000520081805a0002015b0083815b0015
:102160004f0678004f05be004f04be000000060079
:102170000800fa00889fbe008a9fbe008c9fbe00a8
:102180000004be000205be008306780005fc0700bf
:102190006420e100a3003e00a60032000006eb0030
:1021a0000bf0a10003ff2300020020006000b80034
:1021b0000802be000a03be006afb070009003d00da
:1021c00003ff2300020020006000b8000802be00e8
:1021d0000a03be0068fb07000004be000205be0043
:1021e0002c00200013fd230042612200e1e92500bc
:1021f00060d52c000802be000a03be0059fb070090
:102200001d003d00b3ff2300a2672b0081852e0037
:10221000a0ca24000802be000a03be003efa07005e
:10222000009fbe000297be0073fe230052cf26001f
:10223000010b2d00509529000802be000a03be00c4
:10224000f4fc070007ff2300060020006022b8000e
:1022500098fe07000802be000a03be002efa07001f
:102260003e02be002e03be0043fb07000004be007a
:102270000205be000c06e8000800be000a01be0010
:1022800003f0a10067e42300e6092a00f5672600b1
:10229000d4bc23002efb07000800be000a01be00cc
:1022a0004c0035000802be000a03be00d9fc07003e
:1022b000009fbe000297be00e702240096c42000e3
:1022c000a5142e0004712c0013fa07003e02be0074
:1022d0002e03be00cffc0700d7042400a6a02c00cc
:1022e000d5202300743d2a000bfa07003e02be00f1
:1022f0002e03be00c7fc07005705240026a12800b6
:10230000b540200054da260003fa07003e02be0062
:102310002e03be00bffc070047042400c687280028
:1023200045cc2b00945a2900fbf90700809fbe0082
:10233000829fbe003e00be002e01be00a7fe2b0005
:10234000a6d72c00159b2d00d47b2800b1fc0700dc
:1023500007022c00f6d32f00d5c8250034a626008e
:10236000edf907003e02be002e03be00a9fc0700e7
:1023700047032c00f6172800259e2b00b4cc2b0019
:10238000e5f907003e02be002e03be00a1fc0700d7
:10239000b7022c00660a26006510250024ce210015
:1023a000ddf907003e02be002e03be0099fc0700c7
:1023b0004f03be004f02be00effa07000802be0046
:1023c0000a03be0093fc07000802be000a03be0019
:1023d000d1f907000c00e0000f0032000c10a7003c
:1023e00003f0a20084d1220045442500b61f22003c
:1023f00097ff23006260e100060032006436270088
:10240000d582230026152c0007fe23000c10a70000
:1024100007ff2300c0f907000df0a70003f0a2009a
:1024200086fb37000330a00014022000245e8800e1
:1024300082fb370093ff2300b21f22004144250096
:1024400080d12200f4ff3700889fbe008a9fbe0023
:102450008c9fbe000404be000605be00809fbe0027
:10246000829fbe004ffb0700040678000800be00f4
:102470000a01be004bfb0700840678004f03be0034
:102480004f02be008d4f76007fb0970013003300df
:10249000f0ff2f008b8f6b0006003b000d066600df
:1024a0000c00a7000a00370007f0a600100020006b
:1024b0000a003700880f5200898f5a008a0f5b008c
:1024c0008b8f5b00030039001000200001003e00ec
:1024d0000000200007f0a7000000ea004f06be0041
:1024e0004f05be004f04be0000000600e48240001d
:1024f0001078a30007003200640240001178a300a6
:102500003400be001401be00040032000330a700f6
:10251000000006003500be001501be000330a0001b
:1025200000000600800078005002be005003be008c
:102530004439de00f700b200f37f200003016100a0
:10254000090032000218e10016003a00850172000d
:1025500083017300838173000008200015003a0096
:1025600040002000130037008501720083017300d2
:102570008381730005003a0004a8be0006a8be00cf
:10258000100020000b0037000201e90004024200a5
:1025900085824a0006034b0087834b000748a3004f
:1025a000f9ff32000740a00004a8be0006a8be0044
:1025b0002000200080009800920098000000060093
:1025c000889fbe008a9fbe00841f7800f9fb070029
:1025d0004f00780011003300f0ff2f00838f6c0054
:1025e00006003b00040565000a00a700080037004c
:1025f00009f0a6001000200008003700820f5400e8
:10260000838f5c00030039001000200001003e00b1
:102610000000200009f0a7000000ea004f05be00fe
:102620004f04be000000e00000000600881f780094
:10263000030478000300e00007003d006000100084
:10264000e080180060011900e081190002003b00e1
:1026500001f02d00030037001400070008f0a70068
:1026600003f0a0004f04780000000600881f7800e7
:10267000030478000300e00007003d006000100044
:10268000e080180060011900e081190002003b00a1
:1026900001f02d00030037002f00070008f0a7000d
:1026a00001f0a0004f04780000000600889fbe00e3
:1026b0000082700004027100048271002400320064
:1026c00036432000c50020008383cf000a00390074
:1026d0000541b1008283cf00070039000541b100f8
:1026e0008183cf00040039000541b1008083cf0011
:1026f000010039000541b10085c353006022b800d4
:10270000120032000a003b00848272006102600005
:102710008301d1000281d3008180d3000080d300e7
:102720000603e8008743e800f7ff3a000700370098
:102730000000400081804800020149008381490077
:102740000603e9008743e900f9ff3a0069fa070048
:102750004f04be0000000600889fbe008a9fbe0096
:1027600000827000040271000482710026003200b1
:102770000004be000200be006011b8006b0920001a
:10278000950220000182cf000a0039000541b10006
:102790000082cf00070039000541b1000982cf0057
:1027a000040039000541b1000882cf000100390062
:1027b0000541b10005425200120032000a003b0000
:1027c00082817100610164008100d1000080d3002a
:1027d0008984d3000884d3008b05e8000442e80014
:1027e000f7ff3a00070037000804440089844c00d2
:1027f00000004800818048008b05e9000442e900a0
:10280000f9ff3a0030fb07004f05be004f04be0041
:1028100000000600801feb00020007008f87e90020
:10282000000006002800fa00889fbe008a9fbe00b4
:102830008c9fbe000efe97006cfa07006108e10055
:102840005c0032006200e1005a003e005400390092
:102850006408e100520032006c01470074855700a3
:102860003200be001201be003a04be001a05be00ce
:102870009e029000be0e90000d82520017003b0099
:102880000402e80046003a00880f5000898f580083
:102890008a0f59008b8f59004100340064014700b2
:1028a000780347003200be001201be003602be00af
:1028b0001603be0007f0a10003f0a60007f0a00079
:1028c0000c70a70094f807005cfa37000000400085
:1028d0008180480002014900838149000c00a0006a
:1028e00008005000898058000a0159008b81590066
:1028f00005003b0008004000898048000a014900ab
:102900008b8149000c00a1000402e900efff3b00ad
:10291000000240008182480002034900838349008d
:102920001b0032000802520089825a000a035b0031
:102930008b835b004200f800050037000000400078
:102940008180480002014900838149008d06e90029
:102950000340a600f9ff37006022b8000d0378009d
:10296000e4f90700780347004200f9000800350049
:1029700002003c000c08a300050032003602be0035
:102980001603be0007f0a0000c70a70062f8070055
:102990005e02900004f0a70003f0a20027fa3700bf
:1029a0002e009000be0090004e019000de019000cd
:1029b00022fa3700100220000c70a600205e88006a
:1029c0001bfa3700c1b8210000003700889fbe0005
:1029d0008a1f78000004be00c900900069009000c2
:1029e000808f500005003900090078001d000700a5
:1029f0008080eb000000e0001600350008457800fc
:102a00004900900008587800c00498001900780028
:102a100000b8a30004003a0000a8a3000700320099
:102a2000ea4f540005003a000900780089070700c2
:102a30008080eb000000e00006003a0000c02000ab
:102a4000190060000200320049009000e004980084
:102a50008a80fb00010078004f0578004f04be001b
:102a600000000600889fbe008a1f780000047800de
:102a7000c8009000680190000000eb00828f5000b9
:102a80003d00390018007800220029000201600092
:102a9000e20f510007003200012024000000e00096
:102aa00001003d0001202000008c70000080eb0040
:102ab000310037000200260002006000820f500043
:102ac00009003a0038009000808f5000060039005d
:102ad000080078005f070700800078000080eb00a6
:102ae0000100e00024003a001805780000c0200032
:102af0000000650019003a00a80490006002200060
:102b000008004000808f540014003a00002020008c
:102b100001002000be080700200498000000e0002b
:102b200005003a0029049800490498008904e80047
:102b300039049800080037000a60a0000a0c7800e9
:102b4000400498000120200080804000310498005b
:102b5000400c9800500c9800e806070028009000f0
:102b6000500498003800900060049800000026008f
:102b7000180c70000000eb004f0578004f04be00f9
:102b800000000600881f78008a9fbe0000047800bd
:102b9000010078000205be00880078000202be0035
:102ba0001200200003002000f30707008a0f5000e6
:102bb0008b8f5800010032000004eb000800780001
:102bc0004f05be004f047800000006000000fa0028
:102bd000e88157004fb99700c1b82100205c21005f
:102be000020007000080fa00000006006200fa0000
:102bf000889fbe008a9fbe0000057800810478008f
:102c0000020478008300780060f92f000f00400074
:102c1000a20707008a979f0099979f000000eb008a
:102c2000a09f9f001885fb008a04fb000a05ea00ac
:102c30004f55de0050022000808f54000e003200fd
:102c4000e10f55000c003a001200200003002000a4
:102c5000880078001f9097000f92970004000100f1
:102c600090979f000000e0009d0032002f98970091
:102c70000000e800a09f9f000a04440050022000ca
:102c8000808f5400040032000900e000e5ff3a00a4
:102c90002f989700930037000000eb00809f9f0063
:102ca000f0979f00e0979f00d0979f00c0979f00ec
:102cb000b0979f00c09f9f008004eb000800370082
:102cc00021cd2100810050008100d00062cc210084
:102cd000828040004f98970011007000c09f9f00b5
:102ce0006141b8006148b80002054000e245780043
:102cf0008b00fb0020cd2100260707008904e80097
:102d00000000e000eeff3a00a1c2b30081cf550001
:102d10000e003a00bf8897000180e900b08f9f0045
:102d200010007800b09f9f000000e00005003d000b
:102d30000000ea00b09f9f004f9897000020a0007d
:102d4000c09f9f000a04e80012003700b09f9f0058
:102d50006000b80006003700f3ff2700830f500023
:102d6000020032006a02b900040041008100e8005c
:102d70006152b8006109b80004044100644179005f
:102d80000201fb000203b100e90f5100f2ff36001f
:102d9000b09f9f00e0c2b300984f100003003200c4
:102da0000080eb00909f9f00210037000800780012
:102db000a1c2b300d0cf100007003a003f899700ae
:102dc0008280e900b18f9f0091007800919f9f0061
:102dd0000004e800160037000000eb00909f9f0001
:102de0008000eb0006003700f3ff2700830f500040
:102df000020032006a02b900040041008100e800cc
:102e00000802e8008002eb006109b80002034200fa
:102e100083834a00644179000201fb000203b10090
:102e2000e90f5100f0ff3600909f9f0006047800e4
:102e3000984478008900fb00e0cb2100d50607000c
:102e40000000e000020032000804e8000100370042
:102e50008044eb00a97f9f0080c6b30080cf540060
:102e600004003a0098cf14000a003a00664050006f
:102e700006003700c0c6b30080cf540005003a00fa
:102e800098cf140003003a0065404000a07f9f00e7
:102e90000804e8001801fb00c3fb2f008f814100ec
:102ea00061f92f008f80400080f92f000f00400053
:102eb000100007000000e00009003a00c1fb2f00ed
:102ec0008f80400080f92f000f004000b2090700fa
:102ed0000000e000020035000804e80051ff370060
:102ee0000080eb004f05be004f04be000080fa00da
:102ef00000000600881f78000102780082407800f8
:102f000072c6b30082cf50001a003c0002c1e90033
:102f100082cf5000ca003d006d41510082cf500069
:102f2000780032000b003c007141510082cf50000c
:102f300026013c0002c1e90082cf5000c0003d00e4
:102f400052c2b30082cf50001d0132007c414100cb
:102f50000500370032c6b30082cf50001a0032009d
:102f600021003c0002c1e90082cf500017013a0065
:102f7000b3003700f2c6b30082cf500061003200c8
:102f800007003c006641510082cf5000160032001d
:102f90006541410082cf50000c013a00c600370065
:102fa00052c7b30082cf5000560032006341410047
:102fb00082cf50005300320005c7b30085cf5000c8
:102fc00002013a00f10037001481e900020a78009a
:102fd000f00090001241780082f178008100e80052
:102fe000710098000101370020619000c5c6b30050
:102ff000854f510007003a00940278006481520026
:10300000020a78001202be004fabde008603780091
:103010001100370015c7b300854f5100030032007f
:10302000a5c6b300854f510006003a00940278000f
:1030300068815200020a78003202be002203be00fc
:10304000050037001481e900020a780012027800b6
:10305000cfa2de00612bb9000498be000690be002e
:103060002061900088c6b300884f51000d003200e7
:1030700028c6b300884f510004003a000402fb0048
:10308000cfa2de00612bb9000800370048c7b300ab
:10309000884f51000300320066444400884f5100bd
:1030a00004003a00cfa2de00612bb9000498be00f4
:1030b0000690be003002be002003be0070019000ea
:1030c000e00f5200e08f5a00e00f5b00e08f5b00e2
:1030d00002003d00d4c2b300080037000012900087
:1030e0000418a30002003200b4c2b300030037008a
:1030f0000408a3004e00320004c2b30084717900ba
:103100004900370020619000c5c6b300854f5100cb
:1031100006003a009402780064815200020a7800a6
:103120001202be006033b8001100370015c7b300ab
:10313000854f510003003200a5c6b300854f5100f2
:1031400006003a009402780068815200020a780072
:103150003202be002203be00050037001481e900e0
:10316000020a7800120278008002eb006033b80097
:103170000498be000690be002061900088c6b3008f
:10318000884f510003003a008002eb006033b80022
:103190000e00370028c6b300884f510004003a00e3
:1031a0000482fb008002eb006033b80007003700a8
:1031b00048c7b300884f5100030032006644440002
:1031c000884f510003003a006033b8000498be00f5
:1031d0000690be00001190000238a30014003200d7
:1031e0003002be002003be00e00f5200e08f5a0004
:1031f000e00f5b00e08f5b000d00320082c7b30080
:1032000082cf50000300320082c5b30082cf50004d
:1032100007003a007001900004c3b3008471790084
:103220000201e800817179000201e8007200980053
:103230007001900082814100630098005e003700b9
:103240009402780068815200020a78003202be00bf
:103250002203be000498be000690be00300290001b
:10326000700190000400e00002003d00d4c2b300f1
:1032700008003700001290000418a300020032007a
:10328000b4c2b300030037000408a30004003200f6
:1032900004c2b300847179000201e8007200980052
:1032a0007001900082814100630098008100fb0062
:1032b000510007004d00370020619000c3c6b300e5
:1032c0009480e900834f5100240032000a003c0042
:1032d000e4c15100834f51002700320083c1e80050
:1032e000834f51001500320021c6b300814f5100b9
:1032f00020003a000a00370043c7b300834f510053
:103300001d003200e6c14100834f5100130032001e
:1033100011c7b300814f510016003a000600370074
:103320009480e900010a78009100780040589000ec
:10333000804878002d0037009480e900010a780069
:1033400091007800600a9000cfa2de00612bb900e6
:103350008498be008690be0024003700010a7800e1
:103360009100780060099000cf91de008288be0055
:103370001e0037009480e900010a7800910078006f
:103380006008900080087800180037009480e900f9
:10339000010a780011027800cfa2de00612bb9008b
:1033a0000498be000690be00f000900081814100ac
:1033b0006300980082407800470707000b00370041
:1033c0007001900081717900060037007001900053
:1033d000828141000104e00001003a0051c2b300c3
:1033e000814978000201e800720098000000eb00bb
:1033f0004f047800000006004f04b000889fbe0014
:103400008a9fbe008c9fbe008e1f78000007780048
:1034100081f79f003e04be002e05be005e089000ae
:103420000000e00002003d0060002000500f980006
:103430008e00780000fb2f000f0040006d05070094
:10344000e20f50000a003a0030002000100f9800f0
:10345000b1c9b3000ff097008140400000bf2100c8
:10346000e1cf50000d003e00c0be21000b00370030
:103470000000e0000f00340030002000100f980022
:10348000b1c9b3000ff197008140410080bf210016
:10349000e1cf500001003e0040bf2100ee0090004f
:1034a000b0487800b06878001040780090409800ec
:1034b000170137000000e00005003a0002fb2f0072
:1034c0000f014100001978008001eb000b0137006b
:1034d0006022b8006033b8000800be000a01be00d8
:1034e0009bf607000000e00001003d000bf0a20089
:1034f000705927008f9897000088b900026a280049
:1035000013002000e9080700640650008c9f9f000c
:1035100016003b0063061600c0ff2f000006660081
:103520008c01ea00839f9f008006eb000800be002c
:103530000a01be000a0037000c08a3000600320092
:10354000c36add00c4bf2100048242005403be00f0
:103550004402be002ff807000c86d1008d06e8005b
:103560000c00e000f4ff3c001b0037000c00e00002
:103570001b003200c0ff2f00000666008c9f9f00da
:103580006000b8000200200003ff23008006eb006b
:103590000a0037000c08a30006003200c36add00f1
:1035a000c4bf2100048242005403be004402be0096
:1035b00018f807000c86d1008d06e8000c00e0002a
:1035c000f4ff3c000002be000203be000800be0083
:1035d0000a01be0068f607000004be000205be0036
:1035e000de08900060c6b3000ff29700804f5200d3
:1035f000040032006000200062c4b300824f520019
:1036000002003a008f9a97006a80420081004000d1
:10361000f1b79f0001037800f30f5300020034005c
:1036200037012000f7b79f0000c3b300a0779f00c9
:1036300030fb2f0000804700e0b79f000e017800ac
:1036400092b79f004b0037000800be000a01be0081
:1036500022f707000006be00ffb19700e881510085
:10366000f3b79f004240a9000c0034008ef707001a
:103670000002be000203be000800be000a01be0038
:103680008cf907006022b80046782d0077192400d5
:10369000e0f707000004be000205be000007eb00d3
:1036a000810020000802be000a03be00a4b79f00ec
:1036b000b5b79f00c6b79f00d7b79f000104780039
:1036c0000c01be000e003700a40020000500200001
:1036d000a0fd2f000f004000990407005fa897008d
:1036e000efa897007fa997008fb1970006c3b3009a
:1036f000864241000e02ea0005727d000001be0014
:10370000efb39700688543008005eb000e0055007d
:10371000e00f5100e08f590007003c00880078005e
:103720002fb49700bfb497004fb59700dfb597004f
:103730000001eb00080037000804e9000e07e8006c
:10374000e10f4400e0ff3a00f4ff37008201ea0095
:1037500006c3b30086717a006102b800820152008c
:103760000201e80002835000f8ff3b00e8814100bd
:10377000e3b79f007fb097000000e000070034002f
:103780006022b8006033b8000800be000a01be0025
:10379000f4f507000000e000abff3c001fb7970006
:1037a00034fb2f000f0242006fb19700040251005a
:1037b0008f999700e7804100819f9f000000eb00f8
:1037c00080815000800252003afb2f000f05450017
:1037d0008005eb006104b8000803450089834d00b3
:1037e000060178000000e8006a457c0008c3b300c9
:1037f000884f5500f2ff320006027800839f9f0039
:103800005e08900061c6b3000ff39700814f53002c
:103810000300320061c4b300814f530002003a003c
:103820008301e8000a0037001300200051c6b300ee
:103830008ff3970081cf5300050032008741780055
:1038400053c4b2008381fb008301e900cf19de007d
:1038500080814100858f510001003400850178008e
:103860000300e0002500350001c3b300858f51003f
:1038700006003d00e4c27900e9c0400040c3b30047
:1038800080cf520001003c00e9c0500003007800e6
:103890008002eb0001003700060078000003e90019
:1038a000030442000804e9008004eb00612eb80024
:1038b0000c0554000c06ea00ec437c008502e8008d
:1038c00081cf5300f4ff320093c3b30083cf500085
:1038d00001003a00074de8000600e00006003d0048
:1038e0000401e9008001e8000f9897000000e8005b
:1038f000809f9f0001003700800178000ff2970041
:103900008400fb000f9a97000e0078000600070065
:103910004f0778004f06be004f05be004f04be00a3
:103920004f04b100000006001200fa00889fbe009c
:103930008a9fbe008c9fbe0000047800014578007d
:103940008205780083047800040678000900e0000e
:1039500002003c00190020000bce210060c6b3001d
:10396000804f55000e00320060c4b300804f5500f8
:103970000b00320070c6b300804f550003003200c8
:1039800070c4b300804f550085003a00e40f460034
:103990008300350058089000800f560080003d00dd
:1039a0000c06e80060c6b300804f550010003200de
:1039b00060c4b300804f55000d0032000810900025
:1039c0000038a30004003a0058089000808f54008b
:1039d00001003d00590c9800580890000c00500060
:1039e000500c980002003b000000eb00500c9800c7
:1039f00018089000e80090000c00e00026003c0051
:103a000002c3b300827078000000e800100c980038
:103a1000d80890000100e00003003c0088109000ee
:103a20000138a30005003200e8009000e2c2b300b4
:103a3000827078000000e800100c98005808900090
:103a40008c00ea00810f500001003d000006ea00f2
:103a50008c00ea00210c9800000646005c0c9800df
:103a6000890f560001003400090678003c0c9800cc
:103a700018089000e8009000008040006161b900e3
:103a80008b00780031050700580890000c065000a4
:103a90004c0c98009b0037008c8f540018003d00a0
:103aa000008040006149b9008b00780027050700bd
:103ab0001808900000804400100c980089045600fb
:103ac000290c9800d80890000100e00003003c0099
:103ad000881090000138a30006003200e800900032
:103ae000e2c2b30082707800380890000000e8005d
:103af000300c980058089000400c98008100370066
:103b00006162b900008040000401be008b007800b3
:103b100084bf9f0095bf9f000c0507001808900008
:103b200000004600100c98008c845400d8089000c7
:103b30000fba97000100e00003003c0088109000dd
:103b40000138a30005003200e8009000e2c2b30093
:103b5000827078000000e800100c9800580890006f
:103b6000808f540001003400800478001808900011
:103b7000e8009000008040006149b9008480450061
:103b8000f20407001808900009004000100c98008b
:103b9000580e900089045600290c980059003700ef
:103ba00018089000e80090009b7078000000e80082
:103bb000100c9800d80890000100e00003003c00c1
:103bc000881090000138a30005003200e800900042
:103bd000e2c2b300827078000000e800100c980088
:103be000580890000000e000100034008904e9004b
:103bf000808f540001003400800478001808900081
:103c0000e8009000008040006149b9008b00e800a6
:103c1000ce0407001808900009004000100c98001e
:103c20005808900089045000290c9800180890004a
:103c3000e8009000008040000a5878008006e80004
:103c40000c00e00004003500b1c2b3000148780068
:103c50008d05780004003700d1c2b3000148780018
:103c60008d0578000c06ea000005eb000b0037001c
:103c7000a20020008c007800748057009202070098
:103c80006fb09700ffb0970001437800fe815700a6
:103c900086717d00000678000a05e8000c00e0004f
:103ca000f3ff3c000a00e00003003a008d057800b5
:103cb00000c3b300805d78000000eb000700370010
:103cc0000a05e9007e8357008a00430006c3b3005b
:103cd0009140430001717a000000e8006159b8008a
:103ce0006102b800820042000a00e000f4ff3c00dc
:103cf000180890006801900000004100008050000a
:103d0000300c98000810900074006000f00f500014
:103d10000e003a0098089000780090000080400063
:103d2000a808900001004000b80890000100400081
:103d3000c808900001004000f8089000810f500072
:103d400002003d0000805000000c98004f06be00ad
:103d50004f05be004f04be000080fa0000000600c0
:103d60004f04b000889fbe008a9fbe008c9fbe009b
:103d70008e1f78000007780081f79f003e04be0088
:103d80002e05be005e0890000000e00002003d002d
:103d900060002000500f98008e00780000fb2f007c
:103da0000f00400013030700e20f50000a003a0022
:103db00030002000100f9800b1c9b3000ff0970039
:103dc0008140400080c42100e1cf50000d003e0042
:103dd00040c421000b0037000000e0000f00340059
:103de00030002000100f9800b1c9b3000ff1970008
:103df0008140410000c52100e1cf500001003e009c
:103e0000c0c42100ee009000b0487800b06878008f
:103e10001040780090409800170137000000e00043
:103e200005003a0002fb2f000f0141000019780045
:103e30008001eb000b0137006022b8006033b8004e
:103e40000800be000a01be0041f407000000e000c7
:103e500001003d000bf0a200705927008f989700d9
:103e60000088b900026a2800130020008f060700ae
:103e7000640650008c9f9f0016003b0063061600ee
:103e8000c0ff2f00000666008c01ea00839f9f00a0
:103e90008006eb000800be000a01be000a003700e1
:103ea0000c08a30006003200c36add0044c52100ef
:103eb000048242005403be004402be00d5f5070050
:103ec0000c86d1008d06e8000c00e000f4ff3c00f9
:103ed0001b0037000c00e0001b003200c0ff2f0069
:103ee000000666008c9f9f006000b8000200200062
:103ef00003ff23008006eb000a0037000c08a30034
:103f000006003200c36add0044c52100048242007d
:103f10005403be004402be00bef507000c86d1006b
:103f20008d06e8000c00e000f4ff3c000002be003b
:103f30000203be000800be000a01be000ef4070026
:103f40000004be000205be00de08900060c6b3009b
:103f50000ff29700804f52000400320060002000f2
:103f600062c4b300824f520002003a008f9a970059
:103f70006a80420081004000f1b79f000103780091
:103f8000f30f53000200340037012000f7b79f0001
:103f900000c3b300a0779f0030fb2f0000804700d4
:103fa000e0b79f000e01780092b79f004b003700ea
:103fb0000800be000a01be00c8f407000006be00eb
:103fc000ffb19700e8815100f3b79f004240a9007c
:103fd0000c00340034f507000002be000203be00ee
:103fe0000800be000a01be0032f707006022b800d8
:103ff00046782d007719240086f507000004be00de
:104000000205be000007eb00810020000802be0090
:104010000a03be00a4b79f00b5b79f00c6b79f00b4
:10402000d7b79f00010478000c01be000e003700d6
:10403000a400200005002000a0fd2f000f0040007c
:104040003f0207005fa89700efa897007fa997009d
:104050008fb1970006c3b300864241000e02ea000a
:1040600005727d000001be00efb397006885430034
:104070008005eb000e005500e00f5100e08f590065
:1040800007003c00880078002fb49700bfb4970069
:104090004fb59700dfb597000001eb00080037002f
:1040a0000804e9000e07e800e10f4400e0ff3a00d1
:1040b000f4ff37008201ea0006c3b30086717a007c
:1040c0006102b800820152000201e8000283500040
:1040d000f8ff3b00e8814100e3b79f007fb0970005
:1040e0000000e000070034006022b8006033b80030
:1040f0000800be000a01be009af307000000e000bd
:10410000abff3c001fb7970034fb2f000f024200ab
:104110006fb19700040251008f999700e78041002a
:10412000819f9f000000eb008081500080025200c0
:104130003afb2f000f0545008005eb006104b80035
:104140000803450089834d00060178000000e8005f
:104150006a457c0008c3b300884f5500f2ff320067
:1041600006027800839f9f005e08900061c6b3003e
:104170000ff39700814f53000300320061c4b30076
:10418000814f530002003a008301e8000a00370023
:104190001300200051c6b3008ff3970081cf530066
:1041a000050032008741780053c4b2008381fb00d0
:1041b0008301e900cf19de0080814100858f510025
:1041c00001003400850178000300e000250035007f
:1041d00001c3b300858f510006003d00e4c27900a1
:1041e000e9c0400040c3b30080cf520001003c0052
:1041f000e9c05000030078008002eb0001003700a6
:10420000060078000003e900030442000804e90006
:104210008004eb00612eb8000c0554000c06ea0087
:10422000ec437c008502e80081cf5300f4ff3200ac
:1042300093c3b30083cf500001003a00074de8005c
:104240000600e00006003d000401e9008001e800ee
:104250000f9897000000e800809f9f000100370042
:10426000800178000ff297008400fb000f9a9700fe
:104270000e007800060007004f0778004f06be00ca
:104280004f05be004f04be004f04b1000000060001
:104290001200fa00889fbe008a9fbe008c9fbe005d
:1042a00000047800014578008205780083047800d6
:1042b000040678000900e00002003c00190020001c
:1042c0002bce210060c6b300804f55000e00320097
:1042d00060c4b300804f55000b00320070c6b300bd
:1042e000804f55000300320070c4b300804f55006a
:1042f00085003a00e40f460083003500580890001e
:10430000800f560080003d000c06e80060c6b30038
:10431000804f55001000320060c4b300804f55003c
:104320000d003200081090000038a30004003a008d
:1043300058089000808f540001003d00590c9800ef
:10434000580890000c005000500c980002003b00f0
:104350000000eb00500c980018089000e800900056
:104360000c00e00026003c0002c3b300827078001d
:104370000000e800100c9800d80890000100e00050
:1043800003003c00881090000138a30005003200b3
:10439000e8009000e2c2b300827078000000e800fc
:1043a000100c9800580890008c00ea00810f500013
:1043b00001003d000006ea008c00ea00210c980094
:1043c000000646005c0c9800890f5600010034007e
:1043d000090678003c0c980018089000e80090004e
:1043e000008040006161b9008b007800d7020700af
:1043f000580890000c0650004c0c98009b003700a9
:104400008c8f540018003d00008040006149b900c5
:104410008b007800cd02070018089000008044004f
:10442000100c980089045600290c9800d8089000b8
:104430000100e00003003c00881090000138a30058
:1044400006003200e8009000e2c2b30082707800fb
:10445000380890000000e800300c980058089000e0
:10446000400c9800810037006162b9000080400074
:104470000401be008b00780084bf9f0095bf9f00a1
:10448000b20207001808900000004600100c9800c7
:104490008c845400d80890000fba97000100e00007
:1044a00003003c00881090000138a3000500320092
:1044b000e8009000e2c2b300827078000000e800db
:1044c000100c980058089000808f540001003400b0
:1044d0008004780018089000e800900000804000f8
:1044e0006149b900848045009802070018089000cf
:1044f00009004000100c9800580e900089045600e6
:10450000290c98005900370018089000e800900026
:104510009b7078000000e800100c9800d80890000c
:104520000100e00003003c00881090000138a30067
:1045300005003200e8009000e2c2b300827078000b
:104540000000e800100c9800580890000000e000ff
:10455000100034008904e900808f54000100340009
:104560008004780018089000e80090000080400067
:104570006149b9008b00e800740207001808900038
:1045800009004000100c9800580890008904500061
:10459000290c980018089000e80090000080400066
:1045a0000a5878008006e8000c00e000040035009e
:1045b000b1c2b300014878008d05780004003700cf
:1045c000d1c2b300014878008d0578000c06ea00de
:1045d0000005eb000b003700a20020008c007800e3
:1045e00074805700380007006fb09700ffb0970045
:1045f00001437800fe81570086717d000006780037
:104600000a05e8000c00e000f3ff3c000a00e000af
:1046100003003a008d05780000c3b300805d780088
:104620000000eb00070037000a05e9007e83570011
:104630008a00430006c3b3009140430001717a0031
:104640000000e8006159b8006102b8008200420031
:104650000a00e000f4ff3c00180890006801900098
:104660000000410000805000300c980008109000bd
:1046700074006000f00f50000e003a00980890009f
:104680007800900000804000a808900001004000e1
:10469000b808900001004000c808900001004000e8
:1046a000f8089000810f500002003d00008050008b
:1046b000000c98004f06be004f05be004f04be0020
:1046c0000080fa00000006008002780001037800f4
:1046d000110009000203d80080017800830a7800e5
:1046e0000299b90002015300920298000500780077
:1046f0000000060040412200b2003700881f780009
:1047000048ce21001804e00003003a00f9ff07003a
:1047100020c0b300004c78004f0478000000060071
:10472000889fbe0000047800080078004900070058
:1047300080047800000420001800600002003200ad
:1047400028009000d70007000000eb00200498002c
:10475000384090000004e000050035000000fb0038
:104760008cf007000000e000010032008084eb00c4
:10477000181090000000e00008003200bcf00700b4
:104780000000e000010032008084eb00181090006f
:10479000c40007000000eb0010149800000820007f
:1047a000180060000f003200a1bd21000000eb00e6
:1047b000d10f140005003a0000004000c1bd2100e7
:1047c000008040000008eb00030037000000e80014
:1047d000e80f5000f6ff3a0008007800b10007002b
:1047e0000e003700000c780000c0eb003044980049
:1047f0006002200008004000200498004004980057
:1048000050049800400c980060049800500c9800e8
:104810007004980076004400000c980009007800ad
:104820004f04be0000000600889fbe00c8be2100e5
:10483000f0045400480078000000e000010032005d
:10484000b7ff0700890f5400faff3a004f04be007b
:1048500000000600889fbe008a1f780000047800d0
:104860000800e0000d003a00a8bd210070054400da
:104870008004eb00580078000000e00004003200e3
:10488000f4ff07000000e00001003d008084eb0021
:104890008a0f5400f7ff3a0025003700000022007d
:1048a000180060008004eb0021003200a804900092
:1048b0000f00370009015100384090000000fb0054
:1048c000890078003cf007000000e00007003c0091
:1048d000280090004004980060049800500c980054
:1048e0001890a0008084eb00110037008084440001
:1048f00048019000828f5400eeff3900280090009c
:10490000400498009800780002c0200002816000f6
:1049100001003a003800900001e8a30002003200d4
:104920006004980001003700500c98008004eb00f0
:10493000090078004f0578004f04be000000060013
:10494000881f78008a9fbe008c9fbe0000047800fc
:104950000205be000406be000401be000a00be003f
:10496000d2030700008cbe000c01be00f10307005b
:104970000005550081855d002a0498003b049800dd
:10498000080078004f06be004f05be004f047800b7
:1049900000000600020037000304e00006003200b9
:1049a0000001780002007800b041780081cf51000a
:1049b000f9ff3a00010037000001eb000200780027
:1049c00000000600010020000100e00008003200a5
:1049d000010080000100e000050032008100e900d4
:1049e00001008800818040000200800000b1780052
:1049f00000000600889fbe0000047800e6844000a6
:104a00001900d0004500de00f27f2000820f500028
:104a100010003a00000ceb00990478006f816400ec
:104a2000200020001b003a00210190000200e0005d
:104a300018003a00110190000200e00015003a0051
:104a4000100020001100e0001200320020002000c1
:104a5000100037000000e00004003a000100780078
:104a6000450107000000e00008003c00f2002800bb
:104a70001901610001fe2300810c710021c02f008b
:104a8000010c40000080eb0002003700000ceb003e
:104a90000000eb004f04be00000006000108780093
:104aa000000006000000e000320032004002be00bc
:104ab000e50f5200e08f5a002e0036000408a300d4
:104ac0002c003a00f1e680000100e0000200320014
:104ad000810f50000400310021009800f0e68800aa
:104ae0001700370082007800210190000200e000ea
:104af00002003200800f5100faff39001103be009e
:104b000086814000830f50001a003900808f5100c9
:104b100004003a008418430085904b00010078009f
:104b2000070037000200e0000300320004024000ea
:104b3000840f51000f00390022009800a000980057
:104b4000a00090000100e0000a00320010014000c7
:104b5000828f500007003a00c2cd21000009eb000f
:104b60001001be003118410021904900a1009000c1
:104b70002100980000000600ea874700889fbe00d9
:104b80008a9fbe008c9fbe008e1f780000067800b2
:104b90000204be000405be00010778000400be0048
:104ba00064030700d0b79f00e1b79f00e00f5000fb
:104bb000e08f580052003200e00f5400e08f5c009c
:104bc00050003200fcb79f000006be00ce009000ef
:104bd0006e009000808f5000040039000e007800b5
:104be000a0f707000000e00033003500004020007f
:104bf0001e0060000c0032000c01be00a10020006d
:104c00007fb09700b9000700000278000400e000c0
:104c100008003200ffb19700618511000a054200cb
:104c2000cfd5de00040037000c05be000002eb000b
:104c3000010037000c05be004e0090006e01900090
:104c400000015100cf91de008a0f51008b8f590077
:104c5000020031000205be000002eb000a01be00a6
:104c6000ffb0970084bf9f00b80007000a065600f7
:104c70008b865e004e0090000a00400040079800be
:104c80000fba97000400e000040032000e00780024
:104c9000f0fe07000000e00007003a00e00f5600b9
:104ca000e08f5e00040032007fb097000a004000f1
:104cb000f0b79f00c5ff3700008020001e00600095
:104cc000020032000e007800e2fe070000c0200063
:104cd0001e00600002003200ce00900061079800c4
:104ce0005fb19700efb197000c0051008d80590023
:104cf0000801be00fc0207000005be0001003700ed
:104d00006055b8000a00be004f0778004f06be008d
:104d10004f05be004f04be00af00b100000006000a
:104d2000889fbe008a9fbe000004be00e1e68000ae
:104d30000100e00002003200010078000f0037009f
:104d4000f1e68000e0cd210005003700b10f5400ee
:104d5000a18f5c002b00360064804000a100900011
:104d60000100e000f9ff3a0012003700b20f5400d2
:104d7000a28f5c002300360064004100100178001f
:104d80000200e000f9ff3a0011017800f1e680002e
:104d9000e0cd210005003700b10f5400a18f5c0069
:104da0001800360064804000a1009000828f5000ff
:104db000f9ff3a00cae68000dbe68000880f550064
:104dc000898f5d00010031000805be000a00be00a9
:104dd000b50007000000e00006003a00880f55000b
:104de000898f5d00060032008b05d1000a85d30053
:104df000f2ff37000a98be002aff0700cbff3700fa
:104e00000000eb004f05be004f04be00000006008e
:104e1000889fbe000002be0065004000e0804800a0
:104e2000000378000600a1008101780006017800e7
:104e30000204be008000eb00840f5400858f5c00ec
:104e400027003600e50f5400e08f5c0002003e00b2
:104e500068002000090020000800be00b0ff070025
:104e60008000eb000000e0001d00320090007800a0
:104e7000a4ff2f00f5ff2f0031014200a1814a005d
:104e8000880f5100898f590003003100a102900062
:104e90000508780008003700088140000208780003
:104ea000a10190002301980010017800311914002d
:104eb00021911c008888be00100178000000eb00e2
:104ec0000200e00004003200a20190000300e000b4
:104ed0000100320064004100e0e68800e480400008
:104ee000010078004f04be0000000600889fbe004d
:104ef0008a9fbe000202be008001eb000600370060
:104f00008301e80066417c00814f51000b003200b4
:104f100061025200e0825a006103b800611cb800cf
:104f20000805430089854b00e00f5200e08f5a00ce
:104f3000f3ff3a000000eb00010037000a007800a0
:104f40004f05be004f04be00000006000202be0076
:104f50008001eb000400370061f07900610252002b
:104f6000e0825a008301e800e00f5200e08f5a000f
:104f7000f9ff3a0000000600e60040001101780049
:104f800005002800850261006f0161008208780039
:104f9000020032001200200011003700a001900032
:104fa000120020000300e0000d003a009001900084
:104fb0000300e0000a003a001000e00008003a0098
:104fc00036003700640340009608780080017800be
:104fd000530b7800900978000408780070015100a4
:104fe000110278000400e000f6ff320013003700e1
:104ff00064024000140378004f33de0083814100d7
:105000008308730080017800d3037800cf3bde0073
:105010001403780006034300068a73001302780025
:1050200004024200100378004f33de00860972004c
:1050300090017800038841000201e90091017800a5
:10504000ef8f5100eaff3600100037008001780032
:10505000530378004f33dd001002d10004087300c1
:105060006402400094037800cf3bdd001303d100bd
:1050700086897300110378004f33dd009401d1005d
:10508000030a73009108d1000201e8009101780041
:10509000ff8f5100edff3e00ef88610091887200a4
:1050a00002007800000006000001be008000eb0056
:1050b0000200e000060034000200780075ee0700f0
:1050c00080007800e18f400001003a008000eb0092
:1050d0000100780000000600fc874700889fbe00a2
:1050e0008a9fbe008c9fbe008e1f7800000678004d
:1050f00080c5b30080cf50000a00320077404000e6
:1051000080cf50000a0032006940400080cf50003c
:105110000b003200d0ca210080bf9f00ae002000eb
:105120000a003700c2c9210082bf9f000600370075
:10513000d3ca210083bf9f008e00200003003700e8
:10514000d4ca210084bf9f000e0120003c02be0093
:105150002c03be000605be000404be0040c6b3001a
:1051600080cf5000030032006540400080cf5000e7
:105170000b003a00e00f5200e08f5a00e00f5b0096
:10518000e08f5b0006003d006000b8006011b800d1
:10519000040450008584580006055900878559008d
:1051a000e80f57000400320040002000f00f5700c5
:1051b00038003a000100370030002000e00f5400b2
:1051c000e08f5c00e00f5d00e08f5d0004003a00be
:1051d000dc0890008d0120000100e0000600320094
:1051e0008e00e900888060008fba9700e5c07800e3
:1051f000f1ef9f007d012000800078008100e90030
:10520000050033008b05d1000a85d3008984d300c3
:105210000884d300f9ff3700089ebe000a96be003e
:10522000120037008d06e9008e00e90084806000de
:105230000fb99700e2c1780082fd2f000f014100f5
:1052400003f17e00800078008100e9000500330052
:105250008783d1000683d3008582d3000482d300e4
:10526000f9ff3700049ebe000696be003c02be0059
:105270002c03be00e00f5200e08f5a00e00f5b00ed
:10528000e08f5b008b0034000d00e000e5ff3c0088
:10529000880037002c60900081c6b300814f500019
:1052a0000b00320006003c000004e0000800320061
:1052b000e6c05000814f50004e003a000400370015
:1052c000c1c6b300814f50004a003a0021003700a8
:1052d0000800e00004003a005c0890008d01200006
:1052e0000000e00006003200110009000e84d80022
:1052f0000fb99700e2c07800f1ef9f007d01200018
:10530000110009000e84d8000a00370011000900be
:105310000e04d8008d06e9000e81b9000204540085
:105320008fb8970061417c0081fd2f008f80400085
:1053300082f07e00000478000800e00002003200e5
:105340000d00e000f1ff3c00cfc4de00614db9006c
:1053500025003700e00f5400e08f5c0004003a00a5
:105360005c0890008d0120000000e0000700320082
:105370006171b9000800be006b0107008fb997008a
:10538000e3417800f3ef9f007d0120006171b900d7
:105390000800be00540107000b0037006171b9001e
:1053a0000800be00410107008d06e90000f1b900c8
:1053b000020454000fba9700e4427c0084fd2f00e1
:1053c0000f02420005f27e000004be00e00f500014
:1053d000e08f5800020032000d00e000efff3c00bb
:1053e0004fcdde008a057800089ebe000a96be00fa
:1053f00030003700e00f5400e08f5c00e00f5d00ec
:10540000e08f5d0004003a005c0890008d012000f0
:105410000000e000090032006172b900612bb900a0
:105420000800be000a01be00eff207000fba9700a5
:1054300064427800f4ef9f007d0120006172b900a2
:10544000612bb9000800be000a01be00dff20700b0
:105450000d0037006172b900612bb9000800be0071
:105460000a01be00e4f207008d06e90000f2b9006f
:10547000040454008fba970065427c0085fd2f001c
:105480008f82420084f27e00009ebe000296be0023
:105490003c04be002c05be00e00f5400e08f5c0011
:1054a000e00f5d00e08f5d00020034000d00e000c1
:1054b000e8ff3c00e80f570010003a000c10900085
:1054c0000038a3000d003200f78f560006003e00a2
:1054d00085fd2f008f824200e5c07e0000c3b3002f
:1054e00080cf5000050032008d06e90002c3b300f2
:1054f00081fd2f008f80400082f07e00f880160032
:10550000110e98006c0090006109b90084fd2f0015
:105510000f0242008d0042008cfe07001c08900024
:10552000dc089000810f500006003d000080500014
:10553000000e98000c1090000040a100001698008a
:105540000f0037000100e0000d003d008c109000be
:10555000f4806000f08f500009003a007c09900050
:10556000fc009000810051000c09900082805000e6
:10557000008050004240a90001003400000e980055
:105580004f0778004f06be004f05be004f04be0017
:10559000cf01b100000006000400fa00889fbe00a1
:1055a0008a9fbe008c1f78000004780001067800f6
:1055b000f80d900078009000808555000808900054
:1055c00080855500180890008085550028089000b7
