:020000040000fa
:080000000002040000000000f2
:020000040000fa
:100008005603000056030000560300005603000084
:100018005603000056030000560300005603000074
:100028005603000056030000560300009402000027
:100038005603000056030000560300005603000054
:10004800bc020000560300005603000044030000f1
:100058005603000056030000560300005603000034
:100068005603000056030000560300005603000024
:100078005603000056030000560300005603000014
:10008800560300005603000056030000d602000085
:10009800de02000056030000500300005603000073
:1000a80056030000560300005603000056030000e4
:1000b80056030000560300005603000056030000d4
:1000c80056030000560300005603000056030000c4
:1000d80056030000560300005603000056030000b4
:1000e80056030000560300005603000056030000a4
:1000f8005603000056030000560300005603000094
:100108005603000056030000fc02000056030000de
:100118005603000056030000560300005603000073
:100128005603000056030000560300005603000063
:100138005603000056030000560300005603000053
:100148005603000056030000560300002003000079
:100158005603000056030000560300005603000033
:100168005603000056030000560300005603000023
:100178005603000056030000560300005603000013
:100188005603000056030000560300005603000003
:1001980056030000560300005603000056030000f3
:1001a80056030000560300005603000056030000e3
:1001b80056030000560300005603000056030000d3
:1001c80056030000560300005603000056030000c3
:1001d80056030000560300005603000056030000b3
:1001e80056030000560300005603000056030000a3
:0801f80056030000560300004d
:020000040000fa
:100208005603000056030000560300005603000082
:100218005603000056030000560300005603000072
:100228005603000056030000560300009402000025
:100238005603000056030000560300005603000052
:10024800bc020000560300005603000044030000ef
:100258005603000056030000560300005603000032
:100268005603000056030000560300005603000022
:100278005603000056030000560300005603000012
:10028800560300005603000056030000d602000083
:10029800de02000056030000500300005603000071
:1002a80056030000560300005603000056030000e2
:1002b80056030000560300005603000056030000d2
:1002c80056030000560300005603000056030000c2
:1002d80056030000560300005603000056030000b2
:1002e80056030000560300005603000056030000a2
:1002f8005603000056030000560300005603000092
:100308005603000056030000fc02000056030000dc
:100318005603000056030000560300005603000071
:100328005603000056030000560300005603000061
:100338005603000056030000560300005603000051
:100348005603000056030000560300002003000077
:100358005603000056030000560300005603000031
:100368005603000056030000560300005603000021
:100378005603000056030000560300005603000011
:100388005603000056030000560300005603000001
:1003980056030000560300005603000056030000f1
:1003a80056030000560300005603000056030000e1
:1003b80056030000560300005603000056030000d1
:1003c80056030000560300005603000056030000c1
:1003d80056030000560300005603000056030000b1
:1003e80056030000560300005603000056030000a1
:0803f80056030000560300004b
:020000040000fa
:100400002fa220000e7f24000e01880000000000b3
:1004100000012000200288000c00070000ac220030
:100420000100200011000700000020000000e00093
:10043000020032000000020000000000182a020042
:10044000000000000040da000000fe004440a90067
:10045000000520000000e000030032000000200042
:10046000a00188004440a800000006009101880017
:10047000800078000000eb0015003700e2804000ab
:1004800032a0b4009101ba00e280400032a0b40072
:100490009102ba00e280400032a0b4000002eb00fa
:1004a000472bde00f507b200602ce10004003a00a3
:1004b0000059eb008301e900fdff3e000400370016
:1004c0006128e100010032000082eb000400070017
:1004d0001101ba000200e000e8ff3a000000060047
:1004e0003159ba008301e9000c0032002159ba00e9
:1004f0008301e900080032000400e00003003a0034
:10050000e280400032a0b400f5ff370011d9ba00f4
:100510008301e900faff3a008100e800e180400031
:1005200032a0b400000006003600f800809fbe0034
:10053000829fbe00849fbe00869fbe000000fa001e
:100540008460a9007c0e0700849a20001442780081
:10055000e14f520001003a00040c07000080fa004d
:100560004f03be004f02be004f01be004f00be0051
:100570003600f900004006000000fa00d2a2a900ef
:1005800094e0a9009460a9009760a9009780a90051
:100590009b40a9009d60a9001fe1a90005e1a900f9
:1005a00011e1a90021e1a900ffff37000000fa00d6
:1005b0008760a9000080fa00004006003600f800bd
:1005c000809fbe00829fbe00849fbe00869fbe00ab
:1005d0000000fa00731207008780a9000080fa006b
:1005e0004f03be004f02be004f01be004f00be00d1
:1005f0003600f90000400600849fbe000000fa00ab
:100600008b40a900050f8000048020000482620056
:10061000e00f520004003200244f80000402e80082
:10062000244f880003003700244f80000402e900b3
:10063000244f88000080fa004f02be0000400600f0
:10064000849fbe000000fa008d60a900850f800025
:100650000480200004826200e00f52000400320097
:10066000344f80000402e800344f88000300370054
:10067000344f80000402e900344f88000080fa0003
:100680004f02be00004006000000fa009560a9007d
:100690008560a9009560a8000080fa00004006006f
:1006a0000000fa000080fa00004006000040da0076
:1006b0000000fe002800fa00889fbe008a9fbe004e
:1006c0008c9fbe0007067800878669000c003b00ff
:1006d000030478008704780008f0a10009f0a10065
:1006e000840f5000858f5800860f5900890f5c00d9
:1006f000030033000cf0a20001003a000cf0a1004e
:100700000a0107006400e1005f0032007801470041
:100710006408e100610032006c01470074855700f5
:100720003200be001201be003a04be001a05be002f
:100730001e039000be0a90008503530006003d0092
:100740000004fd008104fd000205fd008305fd009d
:100750008703ea00050378000df8a30004003200c7
:1007600060041400e0841c0060051d00e0851d008d
:100770006022b8007d0320000d38e1008006eb0008
:100780000b0039004433dd00f300b2008301730035
:1007900039003700848272000d027800e10664009f
:1007a0008b85d1000a85d3008984d3000884d300c7
:1007b0008703e900f7ff3b000800400089804800fc
:1007c0000a0149008b81490004003b0060001000d1
:1007d000e080180060011900e08119000358a300af
:1007e000090032008d827200848272006102600012
:1007f0008301d1000281d3008180d3000080d30027
:100800000603e8001b0037000348a30017003a0066
:100810000600e000170034000603e9000d00a30005
:10082000000048008180480002014900838149009e
:100830000348a3000f003a000600e000090034005e
:100840000603e900000040008180480002014900e1
:100850008381490001003a000003eb000348a30034
:10086000f5ff32006022b800020037008482720077
:10087000618266008100070003f0a1000cf0a70070
:1008800003f0a000bd003700640147006408e100e8
:1008900002003a000df8a300b5003a003200be0095
:1008a0001201be00b50037000002eb0094013700d2
:1008b0008f1fd100650307008f87e9000000e0006b
:1008c00000000600809feb00600307008f87e900af
:1008d0000000e000000006002800fa00889fbe002b
:1008e0008a9fbe008c9fbe0003866b008f000700ae
:1008f0006400e100440032006408e1004a00320074
:100900006100e100460032006108e1004900320068
:10091000ec0647006000b8003d02be003d03be008b
:10092000f48657006011b8003d04be003d05be00ce
:100930007d0320000b0037000000a0008d06e900b9
:10094000130032000402420085824a0006034b0075
:1009500087834b000000400081804800020149006d
:10096000838149000802520089825a000a035b0011
:100970008b835b00f0ff3b000802420089824a0043
:100980000a034b008b834b008d06e900edff3a0014
:100990008482720086827200f707b200878272003a
:1009a00001003200150020001e0490003e0b900054
:1009b00006035400e63fb0000368a30007003200be
:1009c0000000a7000500a0008301d1000281d30030
:1009d0008180d3000080d3000603e8008301d100aa
:1009e0000281d3008180d3000080d3000002eb009d
:1009f0000482d2002100070003f0a1000cf0a70040
:100a000003f0a0005d003700640247006408e100c5
:100a1000570032003400be003401be00f6ff37003c
:100a20006108e100520032006011b8006000b800b7
:100a3000f1ff370003ff270002002000fbff370013
:100a4000839f68000100e00002003d00600010008c
:100a5000e08018000300e00002003d00600111008a
:100a6000e0811900d50107004f00e00002003b00c3
:100a700060001000e0801800000006001800200050
:100a800057002000080453000d003d000600200020
:100a900097fc2f000740e1001e00340084827200a2
:100aa000610260008301d1000281d3008180d30004
:100ab0000080d3000804e800f8ff3a004700200057
:100ac0006104600005047400040464000d00320039
:100ad00061004000e080480060014900e081490079
:100ae00003b8a500070032000603e8006538e100fe
:100af00004003a008301d1000281d3008180d30039
:100b00000080d300f87f20000830e10003003500aa
:100b1000080378006000b8006011b8004433dd00bd
:100b2000f300b20083017300000006006804470070
:100b30000294be000094be00fc0447008694be00f0
:100b40008494be00090078000903070008007800bb
:100b50000703070099007800814f70000b003b00ed
:100b60000800be00e20207004f00b100030037009a
:100b7000f3ff2700f2ff2f006110b9004f06be00ff
:100b80004f05be004f04be000080fa0000000600c2
:100b9000810378004e0007000001be006000b8002d
:100ba0000478a30013003a006220e10015003e0023
:100bb0000d0039008301d1000281d3008180d30070
:100bc0008301d1000281d3008180d3008301d10051
:100bd0000281d3008180d3000538b000c42add0033
:100be000f300b2008381720007f0a70003f0a000b9
:100bf00000000600f3ff2700f2ff2f006110b9008c
:100c0000fbff370003ff2700f7ff37001400fa004f
:100c1000889fbe008a9fbe008c9fbe000004be005d
:100c20000205be00680047000a90be000890be00a2
:100c3000cf0207000070a7000bf0a1003043200096
:100c40009e02900080825200b0fe2f000028e1003a
:100c500011003d00b0fc2f000028e1001500340019
:100c60001e0990008e0890007e0090000501b000e3
:100c70000201d1008180d3000080d3008502e8000a
:100c8000fbff3a000b00e000bcff3b0060001000df
:100c9000e0801800b9ff3700f0ff2f00f1ff2700b8
:100ca0000b00e000b5ff3b00010028000000200021
:100cb000b2ff37006000b800b0ff37004f89de0098
:100cc00082017800d10237006011b800df023700de
:100cd000c70ade00f107b200f50fb20008003200cb
:100ce000e1cf4200020032000170a00024000500a4
:100cf000810f700001003200040805004400050067
:100d0000810f700002003a00140005008502e9001e
:100d10000000400081c04800fcff3b000170a000c3
:100d2000240005002800fa00889fbe008a9fbe00ac
:100d30008c9fbe0003866b007cff07000028a30089
:100d400064003a000128a30067003a000008a300ed
:100d500062003a000108a30065003a001e009000fe
:100d6000be08900081064000ed3fb100f4805700be
:100d7000ee019000111ab8008e099000311bb800e6
:100d80009e099000311cb800511db800f485570031
:100d900046000700fe0190003a0007008b85e8003e
:100da0003e0007008e09900040000700ee01900011
:100db000340007008b85e800380007008e0990009a
:100dc000400007009e0990001b18b80089044000ed
:100dd0000a854800fe019000340007008b85e8007a
:100de00038000700ee019000300007008e099000e7
:100df0001b18b800890440000a8548000a98a3001f
:100e000008003a000402420085824a0006034b00b3
:100e100087834b0008044c0089844c000a054d0070
:100e20008d06e90084827200850273004c3add0071
:100e3000850272000100320015002000443ade00f5
:100e40001400b2004538de00cb45dd000b00700019
:100e5000c540de00cb4ddd008b8070004549de00d3
:100e6000cb55dd000b017100c551de000d0378008c
:100e700002ff070003f0a1000cf0a70003f0a000a0
:100e80003eff37001b18b80085024000068348006b
:100e9000e0834b0060044c00070037001b18b800cb
:100ea0000603400087834800faff37001b18b8008c
:100eb0008703400008844800e0844c0060054d0032
:100ec000000006001b18b800080440008984480090
:100ed000faff37000108a30025ff3a005800be00c2
:100ee0005801be00e3ff37000008a30020ff3a00ce
:100ef00009047800f9ff37001400200000003700d3
:100f00000800fa00889fbe008a9fbe008c9fbe002a
:100f1000040678000004be000205be0002020700bd
:100f20006420e1009f003e009b0032006120e10050
:100f30009600320003f0a100171b240036582c0045
:100f400005a021000400200059fe07000800be0093
:100f50000a01be000700350097012400b61f2200d9
:100f60004544250084d12200630207000004be002e
:100f70000205be008006eb000c00a700cf1ede00bd
:100f800003f0a1000bf0a10047fd230006f32500ac
:100f900095dc260034882c0062ff07006022b80030
:100fa0000003eb0007fe23000c00a60007ff230050
:100fb000c0fd070015ff07000000a7000d00a200fc
:100fc0003eff07000c00e00004003a0007fe23008b
:100fd000060020006022b8007600070003f0a2009f
:100fe000009fbe000297be0097002400060022006a
:100ff0006022b8004bff07000802be000a03be00d3
:10100000acfd0700809fbe00829fbe003e00be0078
:101010002e01be00f7f4230046542b00152d2400aa
:10102000a44628003fff07004f03be004f02be004a
:10103000a0fd07000004be000205be0003f0a100f1
:1010400067e42300e6092a00f5672600d4bc2300e4
:1010500017fe07000800be000a01be004800350068
:101060000002be000203be002eff0700009fbe006c
:101070000297be0087ce2300f60f28003599260080
:1010800054f92d0027ff0700a7d62b0006422e009b
:1010900085c02d00c499240086fd07003e02be00d5
:1010a0002e03be001fff070067de2300c6232100ba
:1010b000a586260004432d007efd07003e02be00eb
:1010c0002e03be0017ff0700a7e52b0056642e0075
:1010d000d5b52400b40a2c0076fd07003e02be0000
:1010e0002e03be000fff070077ec230036de210041
:1010f00045522a0034062f006efd07003e02be0056
:101100002e03be0007ff0700a7f22b00061a2000df
:1011100015a02100a4e1230066fd07003e02be00e9
:101120002e03be00fffe070017f823001611210052
:1011300015112100040b21005efd07003e02be00d8
:101140002e03be00f7fe070057fc2b005655250066
:10115000555525005455250056fd07003e02be009a
:101160002e03be00effe07000802be000a03be0009
:10117000ecfe07000802be000a03be004dfd07009a
:101180000d00a70003f0a2007cfe37000c00a600b3
:1011900003ff230079fe3700f3ff2700f2ff2f0043
:1011a0006110b9000330a00014022000045188002f
:1011b00072fe370007f0a2003efd37006022b80043
:1011c000060220000000d0008180d2000482d200fc
:1011d0008582d2000000a0000202520083825a00e1
:1011e000030031000202420083824a000000a10095
:1011f0000603e900f3ff3a0000000600889fbe00e6
:101200008a9fbe003004be002005be0004044400d6
:1012100085844c0006054d0087854d000898be006a
:101220000a90be000440e10005c8e10006d0e100dc
:1012300007d8e10002003100680040001008e80013
:101240004f05be004f04be00000006001000fa006b
:10125000889fbe008a9fbe000605be000404be0033
:101260003002be002003be00c4b79f00d5b79f0068
:10127000e6b79f00f7b79f000802520089825a0024
:101280000a035b008b835b0084bf9f0095bf9f00b8
:10129000a6bf9f00b7bf9f000498be000698be007f
:1012a000110020004fb29700dfb297006fb3970094
:1012b000ffb397000820e10009a8e1000ab0e100af
:1012c0000bb8e100010039008000eb00108810002d
:1012d0004f05be004f04be000080fa00000006006b
:1012e0001400fa00889fbe008a9fbe008c9fbe003b
:1012f0003f0007000605be000404be000006eb0028
:10130000ccb79f00bcb79f00acb79f009cb79f00b5
:101310008cb79f000d0420004fb39700bfb2970019
:10132000860343002fb29700e00f530004003d00f6
:101330003d0007000f004000b0ff0700030037002a
:10134000390007000f004000c0ff0700cfb2970030
:1013500095bf9f00e08f5200090035002b00070069
:1013600014002000050020006033b8000000720067
:101370008180720002017300838173001c000700ea
:101380000c06e8008d0f5600e3ff3a001fba9700e5
:10139000e00f520005003d000802be000a03be0037
:1013a00000fe2f000f00400094ff07004faa970097
:1013b000e00f520008003a000fb497009fb4970066
:1013c0002fb59700bfb59700d8b79f00e9b79f002a
:1013d000fab79f008bbf9f000c0007004f06be00ae
:1013e0004f05be004f04be000080fa00000006005a
:1013f000010007000000060090b79f00a1b79f0002
:10140000b2b79f00c3b79f000000060001000700ad
:10141000000006001fb09700afb097003fb19700e3
:10142000cfb19700000006004f2bde00870373004a
:10143000a7b79f004f23de0085824200850273001c
:1014400095b79f00ffaa97004f2bde0004024200d1
:101450000402730084b79f006faa97004f23de0039
:101460008582420085027300f5af9f00e9ff070007
:101470004f18de000402420000027200e4af9f0039
:10148000e4ff07000000400081804800020149009d
:1014900083814900d8ff07000802be000a03be008e
:1014a00000fe2f0000000600881f780018002000b2
:1014b000881f78008aff07008f87e9004f047800b3
:1014c00000000600801feb0085ff07008f87e90002
:1014d00000000600889fbe008a9fbe00e00f5000fb
:1014e000e08f5800e00f5900e08f59000c003d00dc
:1014f0006044b8006055b8000000540081805c0072
:1015000002015d0083815d001800200015000700c6
:1015100008003d00180007000004eb00050037003c
:101520000004eb000f00070002003d00120007005e
:1015300018002000dcff0700e00f54000600320016
:101540006022b8006033b8000000520081805a0069
:1015500002015b0083815b004f05be004f04be00ab
:1015600000000600e00f5200e08f5a00e00f5b0021
:10157000e08f5b00000006006044b8006055b800d2
:101580000402540085825c0006035d0087835d00d1
:1015900000000600889fbe008a9fbe008c1f780056
:1015a000e00f5000e08f5800e00f5900e08f590025
:1015b0000d003d006044b8006055b80000005400c4
:1015c00081805c0002015d0083815d001c002000c1
:1015d0000820e10009a8e1000ab0e1000bb8e10031
:1015e0000d003d00080037000006eb00e00f520040
:1015f000e08f5a00e00f5b00e08f5b0006003d00cb
:101600006044b8006055b8000402540085825c0054
:1016100006035d0087835d00aaff0700e00f560008
:10162000060032006022b8006033b80000005200ab
:1016300081805a0002015b0083815b004f067800c5
:101640004f05be004f04be0000000600889fbe008c
:101650008a9fbe008c9fbe000404be000605be002b
:10166000809fbe00829fbe002f0007000406780006
:101670000800be000a01be002b00070084067800a7
:101680004f03be004f02be008d4f76007fb0970023
:1016900013003300f0ff2f008b8f6b0006003b0020
:1016a0000d0666000c00a7000a00370007f0a60030
:1016b000100020000a003700880f5200898f5a005e
:1016c0008a0f5b008b8f5b00030039001000200045
:1016d00001003e000000200007f0a7000000ea0023
:1016e0004f06be004f05be004f04be0000000600be
:1016f000e48240001078a30007003200640240003a
:101700001178a3003400be001401be0004003200b2
:101710000330a700000006003500be001501be0022
:101720000330a0000000060005ff270005826100cd
:10173000070032000428e100010032002400050007
:101740000600070001003a004400050004080500f7
:1017500002000700f9ff3a00140005006f826100e3
:10176000810270008502710085027200000006008f
:10177000800078005002be005003be004439de00f5
:10178000f700b200f37f200003016100090032007e
:101790000218e10016003a0085017200830173000f
:1017a000838173000008200015003a0040002000eb
:1017b0001300370085017200830173008381730079
:1017c00005003a0004a8be0006a8be0010002000d4
:1017d0000b0037000201e9000402420085824a0042
:1017e00006034b0087834b000748a300f9ff320034
:1017f0000740a00004a8be0006a8be0020002000ec
:10180000800098009200980000000600881f780071
:10181000030478000300e00007003d0060001000b2
:10182000e080180060011900e081190002003b000f
:1018300001f02d00030037000400070008f0a700a6
:1018400003f0a0004f04780000000600889fbe004f
:1018500000827000040271000482710024003200d2
:1018600036432000c50020008383cf000a003900e2
:101870000541b1008283cf00070039000541b10066
:101880008183cf00040039000541b1008083cf007f
:10189000010039000541b10085c353006022b80042
:1018a000120032000a003b00848272006102600074
:1018b0008301d1000281d3008180d3000080d30056
:1018c0000603e8008743e800f7ff3a000700370007
:1018d00000004000818048000201490083814900e6
:1018e0000603e9008743e900f9ff3a0063fc0700bb
:1018f0004f04be0000000600801feb00020007003e
:101900008f87e900000006002800fa00889fbe00cb
:101910008a9fbe008c9fbe000efe970083fc0700ce
:101920006108e1005c0032006200e1005a003e0004
:10193000540039006408e100520032006c01470095
:10194000748557003200be001201be003a04be008a
:101950001a05be009e029000be0e90000d8252003d
:1019600017003b000402e80046003a00880f5000d0
:10197000898f58008a0f59008b8f5900410034001d
:1019800064014700780347003200be001201be0028
:101990003602be001603be0007f0a10003f0a60049
:1019a00007f0a0000c70a70042fb070073fc370093
:1019b0000000400081804800020149008381490005
:1019c0000c00a00008005000898058000a0159004e
:1019d0008b81590005003b000800400089804800c9
:1019e0000a0149008b8149000c00a1000402e900b2
:1019f000efff3b00000240008182480002034900e3
:101a0000838349001b0032000802520089825a0079
:101a10000a035b008b835b004200f800050037007f
:101a20000000400081804800020149008381490094
:101a30008d06e9000340a600f9ff37006022b800d8
:101a40000d0378000dfc0700780347004200f90001
:101a50000800350002003c000c08a300050032001d
:101a60003602be001603be0007f0a0000c70a700ef
:101a700010fb07005e02900004f0a70003f0a20034
:101a80003efc37002e009000be0090004e019000fa
:101a9000de01900039fc3700100220000c70a60017
:081aa0000051880032fc370000
:020000040000fa
:101aa8005541000052540000206300006f6e000092
:101ab800666900006775000072650000200a000072
:101ac8000d000000505700004d200000636f00001b
:101ad8006e660000696700007572000065200000ee
:101ae8000a0d000000540000494d00004552000056
:101af8002061000063740000697600006520000022
:101b08000a0d0000000a00000a0d000061730000c1
:101b180073650000727600002061000063740000a5
:101b280069760000652000000a0a00000a0d00001e
:101b380000000000090000000a0d0000000000007d
:020000040000fa
:101b48000600fa00004f7800120798002307980053
:101b58001e427800e14f520025003a001e00900016
:101b6800ae0090004b000700000278004411880086
:101b780021e2a90022a2a900141180000460a1009a
:101b88000470a100141188002362a90023c2a900cf
:101b980023a2a90023e2a90022c2a90022e2a900e7
:101ba8002002a900041180000410a1000420a10053
:101bb800041188002062a8002082a90020a2a900a0
:101bc80020c2a90020e2a900041180000480a1001d
:101bd8000490a100041188002162a9002182a900b3
:101be80021a2a90021e2a8002342a800270037006b
:101bf8001e427800e34f520024003a001e00900075
:101c0800ae0090002300070000027800c41188008d
:101c180031e2a90032a2a900941180000460a10059
:101c28000470a100941188003362a90033c2a9008e
:101c380033a2a90033e2a90032c2a90032e2a90006
:101c48003002a900841180000410a1000420a10022
:101c5800841188003062a8003082a90030a2a9004f
:101c680030c2a90030e2a900841180000480a100dc
:101c78000490a100841188003162a9003182a90072
:101c880031a2a90031e2a8003342a8000080fa007e
:101c9800000006000400fa00889fbe008a9fbe006c
:101ca800008fbe001e02be0006d4200037002000b0
:101cb800860f5200878f5a004200320006d4200057
:101cc80037002000860f5200878f5a001b003e0005
:101cd80006b0240007002000860f5200878f5a00a4
:101ce8003e00320006b0240007002000860f520094
:101cf800878f5a0006003e00065822000700200081
:101d0800860f5200878f5a0036003200370037009e
:101d180006102e0007002000860f5200878f5a00f9
:101d28002c00320006202c0017002000860f5200dd
:101d3800878f5a00250032002c00370006a82100a2
:101d480067002000860f5200878f5a001900320062
:101d580006a8210067002000860f5200878f5a00ce
:101d680006003e0006092d0037002000860f5200ad
:101d7800878f5a00110032001c00370006122a0013
:101d880077002000860f5200878f5a000700320024
:101d980006242400f7002000860f5200878f5a007f
:101da80012003a009400200033003700340120006c
:101db80031003700840120002f0037007402200012
:101dc8002d003700140320002b0037006405200085
:101dd80029003700d40a200027003700842020007b
:101de8002500370014412000230037001e04be00e0
:101df8000005eb008005eb000802be000a03be00e8
:101e0800b0b72700212620006011b800affd0700f9
:101e18000203be000002be00e00f5200e08f5a002d
:101e2800e00f5b00e08f5b0007003d003000200002
:101e3800010020006011b8000402400085824800bb
:101e480006034900878349004222de00ce28dd00d0
:101e580004827000c22ade00ce30dd008582700068
:101e68004233de00ce38dd0006837000c2bbde00e0
:101e7800040278000402e900040078004f05be005f
:101e88004f04be000080fa00000006000600fa00b9
:101e9800004f780012079800230798001e42780028
:101ea800e14f520007003a0021e2a9001e0090000d
:101eb800ae00900077ff0700000278004411880008
:101ec80021e2a8000080fa00000006000200fa00e3
:101ed800004f7800114798001e427800e14f5200e9
:101ee8000a003a00000000001511800004202000bc
:101ef80004826200e00f5200fbff3a001e4290008d
:101f08000482fb00241188000c0037001e42780070
:101f1800e34f520009003a000000000095118000cc
:101f28000420200004826200e00f5200fbff3a0008
:101f38001e4290000482fb00a41188000080fa0071
:101f4800000006000400fa00004f7800110798000e
:101f58001e02900014427800844078001e407800e9
:101f6800daff07001e029000144278000482fb008a
:101f78000402ea004f22de00044278009e0290002c
:101f88008502e80015079800e04f5200f0ff3a007c
:101f98000080fa00000006000800fa0020479800b8
:101fa80021079800320798000002eb00040f780020
:101fb800160037002e429000e14f520008003a0008
:101fc8001e027800ae02900004824200144278009b
:101fd8008440780010c0b300bcff07000a00370037
:101fe8002e429000e34f520007003a001e0278008c
:101ff800ae029000048242001442780084407800c7
:1020080030c0b300b1ff07001e0fe8009e02780041
:102018003e029000848f5200e6ff39000080fa00eb
:10202800000006000e00fa00600798000002eb00ae
:10203800040f78006e029000e00f520008003d0087
:102048006e0290000402ea006407980074a1200060
:102058009e024200d4c2b300844a78001e0fe800f2
:10206800ee02900004712200110009008402d800d9
:1020780000027800140798009e029000048f2d003b
:1020880004aab900840278006e029000848242009b
:10209800843e2000110009008402d8000002780064
:1020a800240798009e029000048f2d0004aab9000e
:1020b80004037800ae02900084c12f0004aab9007e
:1020c80004027800840243006e0290008482420079
:1020d80044062000110009008402d800000278009c
:1020e800340798009e029000048f2d0004aab900be
:1020f80004037800ae02900084c12f0004aab9003e
:1021080004027800840243006e02900004834200b7
:10211800be029000c4f92f0004aab9000402780096
:1021280084024300a4002000110009008402d800a2
:1021380000027800440798009e029000048f2d004a
:1021480004aab90004037800ae02900084c12f00ed
:1021580004aab90004027800840243006e029000c9
:1021680004834200ce02900064ff2f0004aab90045
:1021780084037800be029000c4f92f0004aab900b5
:1021880004027800048243000402430054079800c4
:102198001e029000044278000443b00075a120009c
:1021a8009e824200844a78001e0fe8002e029000aa
:1021b800044278000443b00075a120009e824200ca
:1021c800844a78001e0fe8003e029000044278001e
:1021d8000443b00075a120009e824200844a780022
:1021e8001e0fe8004e029000044278000443b0003d
:1021f80075a120009e824200844a78001e0fe800e4
:102208005e029000044278000443b00075a12000eb
:102218009e824200844a78001e0fe80074a12000c4
:102228009e0242000042eb00844a78001e0fe8003c
:1022380074a12000040078000080fa000000060065
:102248002e00fa00889fbe0050179800611798006a
:102258000002eb00040f78005e129000ee1290006e
:10226800e00f5200e08f5a000b003d005e12900014
:10227800ee12900060021200e0821a0054179800d3
:102288006517980084a020009e024200d4c2b300c3
:10229800844a78001e0fe8005e129000ee1290004b
:1022a80002a02c00a3b923000400be00e2f9070035
:1022b8000002be0014079800250798001e0290002f
:1022c800ae0290000660230006abb9000603780052
:1022d80057462c0007a0b900800378000703430085
:1022e8008402780004602300042ab8000503430030
:1022f800860278005e139000ee13900004024300fb
:1023080085824b0002102e00535f20000400be009f
:10231800c9f907000002be00340798004507980075
:102328001e029000ae0290000660230006abb900c2
:102338000600780056462c0006a3b900060378006c
:10234800060040008402780004602300042bb800d3
:1023580007004000800378003e029000ce02900003
:1023680000f0210000a8b90000007800a1a02f000b
:1023780001a1b900820078000100400084027800c1
:1023880004f02100042ab80005004000800278000b
:102398000603420087834a005e129000ee12900006
:1023a8000602420087824a00026829008309200049
:1023b8000400be00a0f907000002be005407980000
:1023c800650798001e029000ae0290000660230088
:1023d80006abb9000600780056462c0006a3b900e3
:1023e8000603780006004000840278000460230099
:1023f800042bb80007004000800378003e029000dc
:10240800ce02900000f0210000a8b900000078007a
:10241800a1a02f0001a1b9008200780001004000ae
:102428008402780004f02100042ab8000500400066
:10243800800278000603420087834a005e129000fb
:10244800ee1290000600420087804a005e0290006b
:10245800ee0290000698260006abb9000603780045
:1024680077f62f0007a1b90082037800070343001d
:102478008402780004982600042ab8000503430063
:10248800860278000002420081824a000224240069
:10249800f30020000400be0067f907000002be0038
:1024a80074079800050f98001e029000ae02900075
:1024b8000660230006abb9000600780056462c00db
:1024c80006a3b900060378000600400084027800dd
:1024d80004602300042bb800070040008003780044
:1024e8003e029000ce02900000f0210000a8b90042
:1024f80000007800a1a02f0001a1b9008200780097
:10250800010040008402780004f02100042ab80089
:1025180005004000800278000603420087834a00d5
:102528005e129000ee1290000601420087814a0078
:102538007e0290008e0a900006dc2b0006abb900e4
:102548000600780006ff2f0006a3b90006037800ee
:10255800060040008402780004dc2b00042bb8003d
:1025680007004000800378005e029000ee029000b1
:102578000098260000a8b9000000780071f62f0026
:1025880001a4b900880078000100400084027800a6
:1025980004982600042ab80005004000800278004c
:1025a8000602420087824a000202420083824a00f1
:1025b800026a2800130020000400be001ef907006c
:1025c8000002be00140f9800250f98001e0290000c
:1025d800ae0290000660230006abb9000600780042
:1025e80056462c0006a3b9000603780006004000f2
:1025f8008402780004602300042bb8000700400020
:10260800800378003e029000ce02900000f0210086
:1026180000a8b90000007800a1a02f0001a1b9000e
:1026280082007800010040008402780004f0210054
:10263800042ab80005004000800278000603420022
:1026480087834a005e129000ee1290000601420055
:1026580087814a007e0290008e0a900006dc2b00db
:1026680006abb9000600780006ff2f0006a3b900e4
:1026780006037800060040008402780004dc2b0082
:10268800042bb80007004000800378005e02900029
:10269800ee0290000098260000a8b900000078001b
:1026a80071f62f0001a4b9008800780001004000ed
:1026b8008402780004982600042ab8000500400027
:1026c800800278000602420087824a000200420027
:1026d80083804a001e0a9000ae0a900006962700e2
:1026e80006abb90006037800e7ff2f0007a1b90081
:1026f80082037800070343008402780004962700c9
:10270800042ab8000503430086027800000242004c
:1027180081824a0002712200030020000400be00ea
:10272800c5f807000002be00340f9800450f980056
:102738001e029000ae0290000660230006abb900ae
:102748000600780056462c0006a3b9000603780058
:10275800060040008402780004602300042bb800bf
:1027680007004000800378003e029000ce029000ef
:1027780000f0210000a8b90000007800a1a02f00f7
:1027880001a1b900820078000100400084027800ad
:1027980004f02100042ab8000500400080027800f7
:1027a8000603420087834a005e129000ee129000f2
:1027b8000601420087814a007e0290008e0a90003e
:1027c80006dc2b0006abb9000600780006ff2f00d8
:1027d80006a3b900060378000600400084027800ca
:1027e80004dc2b00042bb8000700400080037800ad
:1027f8005e029000ee0290000098260000a8b90042
:102808000000780071f62f0001a4b9008800780054
:10281800010040008402780004982600042ab800c9
:1028280005004000800278000602420087824a00c4
:102838000201420083814a003e0a9000ce0a9000bd
:10284800068f2d0006abb900060078000083eb0068
:1028580006a3b90006037800060040008402780049
:10286800048f2d00042bb800070040008003780077
:102878001e0a9000ae0a90000096270000a8b90032
:1028880000007800e1ff2f0001a4b900880078005b
:10289800010040008402780004962700042ab8004a
:1028a80005004000800278000602420087824a0044
:1028b8000202420083824a00823e20000300200078
:1028c8000400be005cf807000002be00540f980028
:1028d800650f98001e029000ae029000066023006b
:1028e80006abb9000600780056462c0006a3b900ce
:1028f8000603780006004000840278000460230084
:10290800042bb80007004000800378003e029000c6
:10291800ce02900000f0210000a8b9000000780065
:10292800a1a02f0001a1b900820078000100400099
:102938008402780004f02100042ab8000500400051
:10294800800278000603420087834a005e129000e6
:10295800ee1290000601420087814a007e02900034
:102968008e0a900006dc2b0006abb9000600780042
:1029780006ff2f0006a3b9000603780006004000f2
:102988008402780004dc2b00042bb8000700400008
:10299800800378005e029000ee0290000098260006
:1029a80000a8b9000000780071f62f0001a4b90052
:1029b800880078000100400084027800049826000e
:1029c800042ab80005004000800278000602420090
:1029d80087824a000201420083814a003e0a900031
:1029e800ce0a9000068f2d0006abb90006007800cd
:1029f8000083eb0006a3b900060378000600400038
:102a080084027800048f2d00042bb80007004000d2
:102a1800800378001e0a9000ae0a900000962700f6
:102a280000a8b90000007800e1ff2f0001a4b90058
:102a3800880078000100400084027800049627008e
:102a4800042ab8000500400080027800060242000f
:102a580087824a000200420083804a005e0a900092
:102a6800ee0a900086c12f0006abb9000603780075
:102a78008083eb0007a1b9008203780007034300b5
:102a88008402780084c12f00042ab800050343009b
:102a9800860278000002420081824a004206200035
:102aa800030020000400be00e3f707000002be0098
:102ab800740f9800051798001e029000ae0290004f
:102ac8000660230006abb9000600780056462c00c5
:102ad80006a3b900060378000600400084027800c7
:102ae80004602300042bb80007004000800378002e
:102af8003e029000ce02900000f0210000a8b9002c
:102b080000007800a1a02f0001a1b9008200780080
:102b1800010040008402780004f02100042ab80073
:102b280005004000800278000603420087834a00bf
:102b38005e129000ee1290000601420087814a0062
:102b48007e0290008e0a900006dc2b0006abb900ce
:102b58000600780006ff2f0006a3b90006037800d8
:102b6800060040008402780004dc2b00042bb80027
:102b780007004000800378005e029000ee0290009b
:102b88000098260000a8b9000000780071f62f0010
:102b980001a4b90088007800010040008402780090
:102ba80004982600042ab800050040008002780036
:102bb8000602420087824a000201420083814a00dd
:102bc8003e0a9000ce0a9000068f2d0006abb90091
:102bd800060078000083eb0006a3b900060378001e
:102be8000600400084027800048f2d00042bb800f2
:102bf80007004000800378001e0a9000ae0a90008b
:102c08000096270000a8b90000007800e1ff2f0017
:102c180001a4b9008800780001004000840278000f
:102c280004962700042ab8000500400080027800b6
:102c38000602420087824a000201420083814a005c
:102c48007e0a90008e129000c6f92f0006abb900dc
:102c5800060078000083eb0006a3b900060378009d
:102c68000600400084027800c4f92f00042bb80045
:102c780007004000800378005e0a9000ee0a90008a
:102c880080c12f0000a8b900000078008080eb0008
:102c980001a4b9008800780001004000840278008f
:102ca80084c12f00042ab800050040008002780083
:102cb8000602420087824a000202420083824a00da
:102cc800a2002000030020000400be005af70700fd
:102cd8000002be0014179800251798001e029000e5
:102ce800ae0290000660230006abb900060078002b
:102cf80056462c0006a3b9000603780006004000db
:102d08008402780004602300042bb8000700400008
:102d1800800378003e029000ce02900000f021006f
:102d280000a8b90000007800a1a02f0001a1b900f7
:102d380082007800010040008402780004f021003d
:102d4800042ab8000500400080027800060342000b
:102d580087834a005e129000ee129000060142003e
:102d680087814a007e0290008e0a900006dc2b00c4
:102d780006abb9000600780006ff2f0006a3b900cd
:102d880006037800060040008402780004dc2b006b
:102d9800042bb80007004000800378005e02900012
:102da800ee0290000098260000a8b9000000780004
:102db80071f62f0001a4b9008800780001004000d6
:102dc8008402780004982600042ab8000500400010
:102dd800800278000602420087824a00020142000f
:102de80083814a003e0a9000ce0a9000068f2d008b
:102df80006abb900060078000083eb0006a3b90013
:102e0800060378000600400084027800048f2d0035
:102e1800042bb80007004000800378001e0a9000c9
:102e2800ae0a90000096270000a8b90000007800bc
:102e3800e1ff2f0001a4b9008800780001004000dc
:102e48008402780004962700042ab8000500400090
:102e5800800278000602420087824a00020142008e
:102e680083814a007e0a90008e129000c6f92f00d6
:102e780006abb900060078000083eb0006a3b90092
:102e8800060378000600400084027800c4f92f0089
:102e9800042bb80007004000800378005e0a900009
:102ea800ee0a900080c12f0000a8b9000000780049
:102eb8008080eb0001a4b900880078000100400080
:102ec8008402780084c12f00042ab800050040005d
:102ed800800278000602420087824a00020042000f
:102ee80083804a001e129000ae12900066ff2f00e9
:102ef80006abb900060378008083eb0007a1b90090
:102f080082037800070343008402780064ff2f00df
:102f1800042ab80005034300860278000002420034
:102f280081824a0034179800451798001e029000c5
:102f3800ae029000044278000443b00085a020004f
:102f48009e824200844a78001e0fe8003e029000ec
:102f5800ce029000044278000443b00085a020000f
:102f68009e824200844a78001e0fe8005e029000ac
:102f7800ee029000044278000443b00085a02000cf
:102f88009e824200844a78001e0fe8007e0290006c
:102f98008e0a9000044278000443b00085a0200007
:102fa8009e824200844a78001e0fe8001e0a9000a4
:102fb800ae0a9000044278000443b00085a02000c7
:102fc8009e824200844a78001e0fe8003e0a900064
:102fd800ce0a9000044278000443b00085a0200087
:102fe8009e824200844a78001e0fe8005e0a900024
:102ff800ee0a9000044278000443b00085a0200047
:103008009e824200844a78001e0fe8007e0a9000e3
:103018008e129000044278000443b00085a020007e
:103028009e824200844a78001e0fe8001e1290001b
:10303800ae129000044278000443b00085a020003e
:103048009e824200844a78001e0fe8003e129000db
:10305800ce129000044278000443b00085a02000fe
:103068009e824200844a78001e0fe80084a0200057
:103078009e0242000042eb00844a78001e0fe800de
:1030880084a02000040078004f04be000080fa00ed
:10309800000006000200fa00000f78001e00780009
:1030a800e0fb0700000278008400780010c0b3003d
:1030b800a4fb07000080fa00000006000400fa00e4
:1030c800008fbe001e00be005dfc070000027800f5
:1030d8008400780010c0b3009afb07000080fa0053
:1030e800000006000000fa0014c0b3000440780095
:1030f800a9e9b70014c0b30004407800aae9b700f2
:1031080024c0b30004407800abe9b7000042eb00ec
:1031180004407800ace9b700009020006022b800b5
:1031280006002000870124000498be000690be0017
:10313800009120006022b8000600200087012400ca
:103148000498be000690be00808f20006022b80060
:103158006033b8000498be000690be00809020003e
:103168006022b8006033b8000498be000690be0024
:10317800808e20006022b8006033b8000498be003a
:103188000690be000088200024fc2c00052427009f
:1031980036522f00770f24000498be000690be0018
:1031a8005a0007001a020700d2a2a80014c0b300f0
:1031b80004407800a8e9b7000080fa000000060083
:1031c8000c00fa00008fbe00220798003307980011
:1031d80044079800550798001e00be006af60700cd
:1031e8000002be000203be00808220000498be00d8
:1031f8000690be002e009000be00900062f6070008
:103208000002be000203be00008320000498be0036
:103218000690be00848220003400be002401be0057
:10322800f422230055bf250046042a003704240051
:10323800baf607000002be000203be00808120002b
:103248000498be000690be00048320003400be002f
:103258002401be00f422230055bf250046042a009d
:1032680037042400adf607000002be000203be00ca
:10327800008220000498be000690be004e00900018
:10328800de0090008ef60700a4ee220045442500db
:10329800b61f220097002400a0f607000002be0017
:1032a8000203be000400be000601be006022b80092
:1032b800060028006706240085f507000002be0006
:1032c8000203be00008020000498be000690be00e5
:1032d8000080fa00000006000000fa008099200033
:1032e8006022b8006033b8000498be000690be00a3
:1032f800009a20006022b8006033b8000498be002d
:103308000690be000080fa00000006000000fa00e7
:10331800008920006022b8006033b8000498be001d
:103328000690be00808820006022b8006033b80094
:103338000498be000690be00808a20006022b80073
:103348006033b8000498be000690be00809120004b
:103358006022b8006033b8000498be000690be0032
:10336800009220006022b8006033b8000498be00c4
:103378000690be00809220006022b8006033b8003a
:103388000498be000690be00008c20006022b800a1
:103398006033b8000498be000690be00008b200081
:1033a8006022b8006033b8000498be000690be00e2
:1033b800808b20006022b8006033b8000498be00fb
:1033c8000690be00808d20006022b8006033b800ef
:1033d8000498be000690be00808c20006022b800d1
:1033e8006033b8000498be000690be00008d20002f
:1033f8006022b8006033b8000498be000690be0092
:103408000080fa00000006000000fa00881f78001b
:10341800849920003400be002401be0018c0b30007
:103428006022b800060020009705240023f5070055
:1034380000027800e00f520001003c000044eb005d
:10344800e04f540007003200809920006022b80045
:1034580006002000970524000498be000690be00d0
:1034680014003700849920003400be002401be00f7
:1034780018c0b3006022b8000600200097052c0091
:1034880009f5070000027800e00f5200010035003e
:103498000044eb00e04f5400060032008099200001
:1034a8006022b8000600200097052c000498be0092
:1034b8000690be00049a20003400be002401be001d
:1034c80018c0b3006022b800060020009705240049
:1034d800faf4070000027800e00f520001003c00f7
:1034e8000044eb00e04f540007003200009a20002f
:1034f8006022b80006002000970524000498be004a
:103508000690be0014003700049a20003400be0064
:103518002401be0018c0b3006022b80006002000d5
:1035280097052c00e0f4070000027800e00f520035
:10353800010035000044eb00e04f54000600320063
:10354800009a20006022b8000600200097052c0091
:103558000498be000690be004f0478000080fa0070
:10356800000006000000fa00c49a20001442780007
:10357800e14f520027003200949a2000144278004c
:10358800e14f520001003a0024000700a49a2000ed
:1035980014427800e14f520001003a00cb000700c6
:1035a800b49a200014427800e14f520001003a001a
:1035b8001401070048ff07000040eb00490107001d
:1035c80091ff0700849920005403be004402be0006
:1035d8000400be000601be008af507000002be0016
:1035e8000401be000040eb005a070700049a2000bf
:1035f8005403be004402be000400be000601be0023
:1036080080f507000002be000401be0010c0b30030
:10361800500707000080fa00000006000000fa00ca
:10362800889fbe008a9fbe008c1f7800a44e800031
:10363800b54e800061024200e0824a00a44e880034
:10364800b54e880010c0b300260107000002be0076
:103658000203be00809d20000498be000690be00b4
:10366800048820003400be002401be000489200024
:103678005403be004402be00ccf607000002be00a0
:103688000203be000400be000601be005df507008f
:103698000002be000402780004f0a7000402ea0059
:1036a800cfa2de000400be0082f5070018c0b300f8
:1036b800b4eb2700252f270056852800870724000c
:1036c8007ef4070000027800e00f520001003c0081
:1036d8000044eb00e04f540053003200849d20006a
:1036e8003400be002401be0018c0b3006022b80038
:1036f8006033b80071f4070000027800e00f520050
:1037080001003c000044eb00e04f54000700320089
:10371800008e20006022b80006002000e705240083
:103728000498be000690be0013003700849d200058
:103738003400be002401be0018c0b3006022b800e7
:103748006033b80058f4070000027800e00f520018
:10375800010035000044eb00e04f54000600320041
:10376800008e20006022b80006002000e7052c002b
:103778000498be000690be00848e20003404be006b
:103788002405be00049120003400be002401be00c0
:103798006022b80006002000470224004cf407000d
:1037a8000002be000203be000800be000a01be00ff
:1037b80047f407000002be000203be000404be0076
:1037c8000605be00849d20003400be002401be0012
:1037d800848e20005403be004402be003cf407005f
:1037e8000002be000203be001cc0b3000800be00f9
:1037f8000a01be0031f4070000027800e00f520011
:1038080001003c000046eb00e04f56002a00320061
:10381800008e20006022b8006033b8000498be0013
:103828000690be0024003700044f80000402e80020
:10383800044f8800054f800044062000848f520002
:103848001d003a006011b8000040eb00c1060700f7
:103858006011b80010c0b300be06070014c0b30062
:1038680004407800ace9b70024c0b30004407800f5
:10387800a8e9b700d2a2a900809920006022b80068
:103888006033b8000498be000690be00009a20007d
:103898006022b8006033b8000498be000690be00ed
:1038a8006011b8000040eb00aa0607006011b800dc
:1038b80010c0b300a70607004f0678004f05be00ea
:1038c8004f04be000080fa00000006000000fa0065
:1038d800881f7800944e8000ea0f520037003a00a3
:1038e8000002eb00944e8800848e20003400be0055
:1038f8002401be00048e20005403be004402be0012
:1039080018c0b300e8f3070000027800e00f520087
:10391800010035000044eb00e04f54000d00320078
:10392800848e20003400be002401be0004902000d4
:103938005403be004402be005cf307000002be0050
:103948000203be00808e20000498be000690be00d0
:103958001a003700848e20003400be002401be0007
:10396800048e20005403be004402be0018c0b300f9
:10397800d2f3070000027800e00f520001003c007b
:103988000044eb00e04f54000c003200848e20000d
:103998003400be002401be00049120005403be0080
:1039a8004402be0001f607000002be000203be008a
:1039b800808e20000498be000690be00848e2000f1
:1039c8005403be004402be00008b20000498be00d1
:1039d8000690be00848e20005403be004402be0040
:1039e800808c20000498be000690be00944e800093
:1039f8000402e800944e88004f0478000080fa0022
:103a0800000006000000fa000080fa00000006002e
:103a18000000fa0080832000a499290095992900c4
:103a28009699290097fc23000498be000690be00d2
:103a380000842000a49929009599290096992900c5
:103a480097fc23000498be000690be0080842000e6
:103a58006022b8006033b8000498be000690be002b
:103a6800808620006022b8000600200007ff23009f
:103a78000498be000690be00008720006022b800af
:103a88006033b8000498be000690be00808720000e
:103a98006022b8006033b8000498be000690be00eb
:103aa800008520006022b8006033b8000498be008a
:103ab8000690be00808520006022b8006033b80000
:103ac8000498be000690be00008620006022b80060
:103ad8006033b8000498be000690be000080fa006b
:103ae800000006000200fa00889fbe008a9fbe0000
:103af800004f78001e427800e04f5200a5003a00bf
:103b0800048b20003400be002401be00048c200079
:103b18005403be004402be00a4f507000002be0024
:103b28000203be00809320000498be000690be00e9
:103b3800049420003400be002401be0084932000b9
:103b48005403be004402be00d8f207000002be00c3
:103b58000203be00009420000498be000690be0038
:103b6800848c20003400be002401be00848d200017
:103b78005403be004402be008cf507000002be00dc
:103b88000203be00809520000498be000690be0087
:103b9800049620003400be002401be008495200055
:103ba8005403be004402be00c0f207000002be007b
:103bb8000203be00009620000498be000690be00d6
:103bc800849320003400be002401be0084832000ba
:103bd8005403be004402be0050f407000002be00b9
:103be8000203be000404be000605be0004942000c3
:103bf8003400be002401be00048420005403be002b
:103c08004402be0045f407000002be000203be00e5
:103c18000800be000a01be00a4f207000002be00b0
:103c28000203be000404be000605be008493200003
:103c38003400be002401be00849420005403be005a
:103c48004402be0059f507000002be000203be0090
:103c58000400be000601be00848420005403be0098
:103c68004402be002df407000002be000203be009d
:103c78000800be000a01be008cf207000002be0068
:103c88000203be00809920000498be000690be0082
:103c9800849520003400be002401be0084832000e7
:103ca8005403be004402be001cf407000002be001c
:103cb8000203be000404be000605be0004962000f0
:103cc8003400be002401be00048420005403be005a
:103cd8004402be0011f407000002be000203be0049
:103ce8000800be000a01be0070f207000002be0014
:103cf8000203be000404be000605be008495200031
:103d08003400be002401be00849620005403be0087
:103d18004402be0025f507000002be000203be00f3
:103d28000400be000601be00848420005403be00c7
:103d38004402be00f9f307000002be000203be0001
:103d48000800be000a01be0058f207000002be00cb
:103d58000203be00009a20000498be000690be0030
:103d6800849320005403be004402be0080942000c7
:103d78000498be000690be00849520005403be003f
:103d88004402be00809620000498be000690be0043
:103d98005f0037001e427800e14f52005c003a0095
:103da800048820003400be002401be0004892000dd
:103db8005403be004402be00fcf407000002be002b
:103dc8000203be00809120000498be000690be0049
:103dd800049220003400be002401be00849120001b
:103de8005403be004402be0030f207000002be00c9
:103df8000203be00009220000498be000690be0098
:103e0800849120003400be002401be008486200076
:103e18005403be004402be00c0f307000002be0007
:103e28000203be000404be000605be000492200082
:103e38003400be002401be00048720005403be00e5
:103e48004402be00b5f307000002be000203be0034
:103e58000800be000a01be0014f207000002be00fe
:103e68000203be000404be000605be0084912000c3
:103e78003400be002401be00849220005403be001a
:103e88004402be00c9f407000002be000203be00df
:103e98000400be000601be00848720005403be0053
:103ea8004402be009df307000002be000203be00ec
:103eb8000800be000a01be00bcf407000002be00f4
:103ec8000203be00a09c20000498be000690be001d
:103ed800a49c20005403be004402be0000932000ae
:103ee8000498be000690be00849120005403be00d2
:103ef8004402be00809220000498be000690be00d6
:103f0800a49c20005403be004402be0002003700f7
:103f18006022b8006033b8000400be000601be008d
:103f28004f05be004f04be000080fa0000000600e6
:103f38000000fa00889fbe008a9fbe001000200083
:103f4800a403070020002000a2030700a64f80005a
:103f5800b74f8000e44f8000f54f80000402530003
:103f680085825b004f2bde0007002000060242001e
:103f780087824a008582d1000482d300744d88006c
:103f8800854d8800a64f8000b74f8000e44f800021
:103f9800f54f80000602420087824a004f2bde0060
:103fa800070020000602420087824a008582d1006d
:103fb8000482d300944d8800a54d88000489200010
:103fc8003404be002405be00944d8000a54d800039
:103fd8000400be0037f307000002be000203be0063
:103fe8000800be000a01be00b0f107000002be00d2
:103ff8000203be00008920000498be000690be009f
:10400800944d8000a54d80000400be0029f30700f0
:104018000002be000203be00008f20000498be000c
:104028000690be00a44f8000b54f80000400be007b
:1040380020f307000002be000203be00008c20002f
:104048000498be000690be00e44f8000f54f800043
:104058000400be0017f307000002be000203be0002
:10406800808d20000498be000690be00848a20003f
:104078003404be002405be00744d8000854d8000c8
:104088000400be000bf307000002be000203be00de
:104098000800be000a01be0084f107000002be004d
:1040a8000203be00808a20000498be000690be006d
:1040b800b64d8000c74d8000744d8000854d80004e
:1040c8000602420087824a00b44d8800c54d880028
:1040d800048020003404be002405be00b44d8000d6
:1040e800c54d80000400be00f2f20700c4cb2c00ce
:1040f800e5642300a6672b00070b2400f4f10700f2
:104108000002be000203be000800be000a01be0095
:1041180066f107000002be000203be000081200015
:104128000498be000690be00048120005403be001f
:104138004402be000400be000601be00d8f107001c
:104148000004be000205be00944d8000a54d80000d
:104158000400be00d7f207000002be000203be0042
:104168000800be000a01be00ecf207000002be0013
:104178000203be00a09b20000498be000690be006b
:10418800048120005403be004402be000400be00a7
:104198000601be0056f307000004be000205be007b
:1041a800944d8000a54d80000400be00c1f20700b8
:1041b8000002be000203be000800be000a01be00e5
:1041c800d6f207000002be000203be00209c2000b9
:1041d8000498be000690be00848120003400be0012
:1041e8002401be00a49b20005403be004402be006c
:1041f8002ef107000002be000203be0080812000ed
:104208000498be000690be00048220003400be0060
:104218002401be00249c20005403be004402be00ba
:1042280022f107000002be000203be000082200047
:104238000498be000690be004f05be004f04be00a5
:104248000080fa00000006000000fa0005e1a9005d
:104258000421a90004c1a900240880000440a0008a
:104268000450a000240888000002eb00040888001d
:10427800e4302000140888008460a9009460a80035
:104288000080fa00000006000000fa001fe1a90003
:104298001e21a9001e61a9001ec1a900f408800002
:1042a8000440a0000450a000f40888000002eb00bd
:1042b800a4088800b4612000d40888008760a90099
:1042c8009760a8000080fa00000006000000fa00cd
:1042d80021e1a9002021a90020c1a900040980002a
:1042e8000440a0000450a000040988000002eb006c
:1042f800a408880084a12700d40888008780a90022
:104308009780a8000080fa00000006000000fa006c
:1043180013e1a90011e1a9001061a8001021a9006a
:1043280010c1a900840880000440a0000450a00027
:10433800840888000002eb00540888000002eb00a3
:1043480034088800640d200074088800a4f6290049
:10435800640888008500a9009500a8000080fa007c
:10436800000006000000fa0011e1a8000080fa0031
:10437800000006000000fa00453a800004fc2f0007
:1043880004826200443a8800143a80000480a10044
:104398000490a10004a0a100143a88004207a800d4
:1043a80000000000143a800061026200e00f520031
:1043b800fcff3a0064092000343a8800243a80005f
:1043c8000460a1000470a100243a8800253a800006
:1043d80004fe2f00048262005400b300243a8800cf
:1043e800243a800004c0a10004d0a10004e0a10088
:1043f800243a8800143a80000480a0000490a100a8
:1044080004a0a100143a88004207a8000000000098
:10441800143a800061026200e00f5200fcff3a008b
:1044280000000000153a80000402200004826200a7
:10443800e00f5200fbff32000080fa000000060087
:104448000000fa002535800004fe2f000482620077
:10445800e400b3002435880075368000f40f2e0080
:10446800848262000430200004827200743688005e
:104478003535800004fe2f00048262005400b3002a
:10448800343588003536800004fe2f00048262002f
:104498005400b30034368800e5348000f40f2e0051
:1044a800848262000490210004827200e43488004f
:1044b800e534800004fe2f00048262008401b3000a
:1044c800e434880005358000f40f2e0084826200f1
:1044d80004702100048272000435880005358000cc
:1044e80004fe2f00048262006401b30004358800d2
:1044f800c0622800e1012000110407000080fa00d2
:10450800000006000000fa0021e3a9002c03a8001f
:104518002c23a8002c43a8002c63a8002c83a800f7
:104528002ca3a8002cc3a8002ce3a8002d03a800e6
:10453800c801a900c881a900c821a900c8a1a9006b
:10454800c841a900c8c1a900c002a8006040a900cc
:104558006840a900c022a8006060a9006860a9009e
:10456800c062a80063a0a9006ba0a900c082a8002f
:104578006000a9006800a900c0e2a900c102a80063
:10458800c122a800c142a900c802a9006080a900f0
:104598006880a900c822a90060a0a90068a0a90095
:1045a800c842a90060c0a90068c0a900c862a900e3
:1045b80060e0a90068e0a900c882a8006020a900fe
:1045c8006820a900c8a2a8006360a9006b60a900c0
:1045d800c8c2a9006300a9006b00a900c8e2a9002d
:1045e80062e0a9006ae0a900c902a90062c0a900a6
:1045f8006ac0a900c922a90062a0a9006aa0a900ee
:10460800c942a9006200a9006a00a900c962a900fc
:1046180061e0a90069e0a900c982a90061c0a900f8
:1046280069c0a900c9a2a90061a0a90069a0a90040
:10463800c9c2a8006180a9006980a900c9e2a900cf
:104648006160a9006960a900d002a8006100a90002
:104658006900a900d022a8006120a9006920a9004a
:10466800d042a8006140a9006940a900d062a80012
:104678006380a9006b80a900d082a8006320a900ec
:104688006b20a900d0a2a9006340a9006b40a90033
:10469800d0c2a8006240a9006a40a900d0e2a800e0
:1046a8006220a9006a20a900d102a8006280a9009e
:1046b8006a80a900d122a8006260a9006a60a900e6
:1046c800c402a900c422a900c462a900c482a90026
:1046d800c4e2a900c502a900c522a900c542a900d3
:1046e800cc02a900cc22a900cc42a900cc62a90026
:1046f800cc82a900cca2a900ccc2a900cce2a90016
:10470800cd02a900cd22a900cd42a900cd62a90001
:10471800cd82a900cda2a900cdc2a900cde2a900f1
:10472800d402a900d422a900d442a900d462a900c5
:10473800d482a900d4a2a900d4c2a900d4e2a900b5
:10474800d502a900d522a9000080fa0000000600c1
:104758000000fa0083e0a9008200a90085c0a90032
:1047680085a0a9008580a9008560a9008540a900c9
:104778008520a9008500a90084e0a90084c0a900bb
:1047880084a0a9008480a9008460a9008440a900ad
:104798008420a9008400a90087e0a90087c0a90097
:1047a80087a0a9008780a9008760a9008740a90081
:1047b8008720a9008700a90086e0a90086c0a90073
:1047c8008680a9008660a9008640a9008620a900e5
:1047d8008600a90089c0a90089a0a9008880a9002d
:1047e8008860a9008840a9008820a9008800a9003d
:1047f8008be0a9008bc0a9008ba0a9008b40a90061
:104808008b20a9008de0a9008dc0a9008d60a900aa
:104818008d40a9008d20a9008cc0a9008ca0a900fa
:104828008c80a9008c60a9008c40a9008c20a9006c
:104838002405800004c0a00004d0a10004e0a0006a
:1048480024058800240580000480a1000490a100ac
:1048580004a0a10024058800240580000440a100cc
:104868000450a1000460a1002405880024058000ec
:104878000400a1000410a1000420a1002405880060
:104888003405800004c0a10004d0a10004e0a10008
:1048980034058800340580000480a1000490a1003c
:1048a80004a0a10034058800340580000440a1005c
:1048b8000450a1000460a10034058800340580007c
:1048c8000400a1000410a1000420a1003405880000
:1048d8004405800004c0a00004d0a10004e0a100a9
:1048e80044058800440580000480a1000490a100cc
:1048f80004a0a10044058800440580000440a100ec
:104908000450a1000460a10044058800440580000b
:104918000400a1000410a0000420a00044058800a1
:10492800540580000480a1000490a10004a0a10007
:1049380054058800540580000440a1000450a100db
:104948000460a10054058800540580000400a100fb
:104958000410a1000420a10054058800640580000b
:1049680004c0a10004d0a10004e0a10064058800ef
:10497800640580000440a0000450a1000460a00069
:1049880064058800640580000400a1000410a100eb
:104998000420a000640588007405800004c0a100fc
:1049a80004d0a10004e0a10074058800740580000b
:1049b8000480a1000490a10004a0a100740588004f
:1049c800740580000400a1000410a1000420a100c7
:1049d800740588008405800004c0a10004d0a000ec
:1049e80004e0a10084058800840580000480a100fb
:1049f8000490a10004a0a10084058800840580001b
:104a08000440a1000450a1000460a10084058800ae
:104a1800840580000400a1000410a1000420a10066
:104a2800840588009405800004c0a10004d0a1007a
:104a380004e0a10094058800940580000480a0008b
:104a48000490a00004a0a1009405880094058000ab
:104a58000440a1000450a1000460a100940588004e
:104a6800940580000400a0000410a1000420a10007
:104a780094058800a405800004c0a10004d0a1000a
:104a880004e0a100a4058800a40580000480a1001a
:104a98000490a10004a0a100a4058800a40580003a
:104aa8000440a1000450a1000460a100a4058800ee
:104ab800a40580000400a1000410a1000420a100a6
:104ac800a4058800b40580000400a1000410a1001a
:104ad8000420a100b4058800d40580000480a1004a
:104ae8000490a10004a0a100d4058800d40580008a
:104af8000440a1000450a1000460a100d40588006e
:104b0800040680000480a0000490a00004a0a00077
:104b180004068800040680000440a1000450a10097
:104b28000460a100040688001406800004c0a100e7
:104b380004d0a10004e0a100140688001406800037
:104b48000480a1000490a10004a0a100140688001c
:104b5800140680000440a1000450a1000460a100d4
:104b680014068800240680000480a1000490a10097
:104b780004a0a10024068800240680000440a100a7
:104b88000450a1000460a1002406880024068000c7
:104b980004c0a10004d0a10004e0a10024068800fc
:104ba800340680000480a1000490a10004a0a100a4
:104bb80034068800340680000440a1000450a10097
:104bc8000460a10034068800340680000400a100b7
:104bd8000410a1000420a1003406880044068000c7
:104be80004c0a00004d0a00004e0a000440688008f
:104bf800440680000480a1000490a10004a0a10044
:104c080044068800440680000440a1000450a10026
:104c18000460a100440688005406800004c0a10076
:104c280004d0a10004e0a1005406880054068000c6
:104c38000480a1000490a10004a0a10054068800eb
:104c480095c0a90095a0a9009580a9009560a90024
:104c58009540a9009520a9009500a80094e0a90016
:104c680094c0a90094a0a9009480a9009460a80009
:104c78009440a9009420a9009400a90097e0a900f5
:104c880097c0a80097a0a9009780a8009760a800df
:104c98009740a9009720a9009700a90096e0a900cd
:104ca80096c0a9009680a9009660a9009620a90040
:104cb8009600a90099c0a90099a0a9009880a90008
:104cc8009860a9009840a9009820a9009800a90018
:104cd8009be0a9009bc0a9009ba0a9009b40a8003d
:104ce8009b20a9009de0a9009dc0a9009d60a80087
:104cf8009d40a9009d20a9009cc0a9009ca0a900d6
:104d08009c80a9009c60a9009c40a9009c20a90047
:104d18000080fa00000006000000fa000000000011
:104d28000080fa00000006000000fa00e1e1a90096
:104d3800e1a1a900040f80000480a0000490a00055
:104d480004a0a000040f8800e0e1a900e0c1a800c9
:104d5800e341a900e321a900e301a900e2e1a800d9
:104d6800140f80000440a1000450a0000460a100ba
:104d7800140f8800c4182000340f8800f1e1a9003e
:104d8800f1a1a900840f80000480a0000490a00075
:104d980004a0a000840f8800f0e1a900f0c1a800d9
:104da800f341a900f321a900f301a900f2e1a80049
:104db800940f80000440a1000450a0000460a100ea
:104dc800940f8800c4182000b40f88000080fa00ef
:104dd800000006000600fa00200798002e02900046
:104de800e10f52000b003a00250f80002e029000c0
:104df8004323dd00a49e200004024300050a780036
:104e0800c41820001450880014002000040f7800f3
:104e18000a003700a50f80002e0290004323dd0012
:104e2800a49e200004024300050a7800c41820004c
:104e3800145088000082eb00040f78002e029000c6
:104e480084024200249e20000482420094027800da
:104e5800150798002e02900084024200249e20002c
:104e6800048242008002eb00050a78002e029000be
:104e78004322dd008482e800849e200004824200f0
:104e8800140278006123b8002e029000c322dd00ce
:104e9800849e20000482420014027800050020004d
:104ea8000402530085825b00245088003550880036
:104eb8001e029000e00f5200140032001e02900003
:104ec8006123b900145080000500200004b8b9001f
:104ed8000000780006a9b9008200780001004000af
:104ee80006037800040278000432b8000500400088
:104ef800800278002650800037508000040243006a
:104f080085824b002450880035508800245080004a
:104f180035508000422bdd00ce23de00870373006e
:104f28004223dd001e027800cfa2de0004b8b900db
:104f38000000780006a9b90082007800010040004e
:104f480006037800040278000432b8000500400027
:104f5800800278002e039000c333dd00c69e200037
:104f680006834300048bbe002e0290004322dd001e
:104f78008482e800849e2000048242009402780023
:104f88002e0290004323dd00849e2000040243008b
:104f9800050a78000080fa00000006000000fa0008
:104fa800045080000402e80004508800848c20002b
:104fb8003400be002401be006022b80006002400b0
:104fc800f708240055ef07000002be000203be00e8
:104fd8000400be000601be000aef07000002be0082
:104fe8000400be0035f80700e1d9280010c0b3005e
:104ff800d4f30700848d20003400be002401be00d5
:105008006022b80006002400f708240043ef0700d8
:105018000002be000203be000400be000601be007e
:10502800f8ee07000002be000400be0023f80700e7
:10503800e1d9280010c0b300c2f30700849520000e
:105048003400be002401be006022b800060024001f
:10505800f708240031ef07000002be000203be007b
:105068000400be000601be00e6ee07000002be0016
:105078000400be0011f80700e1d9280010c0b300f1
:10508800b0f30700049620003400be002401be00df
:105098006022b80006002400f70824001fef07006c
:1050a8000002be000203be000400be000601be00ee
:1050b800d4ee07000002be000400be00fff70700a0
:1050c800e1d9280010c0b3009ef3070084952000a2
:1050d8003400be002401be00849620005403be00a4
:1050e8004402be0031f007000002be000203be0009
:1050f8000400be000601be006022b80006002400bd
:10510800f708240005ef07000002be000203be00f6
:105118000400be000601be00baee07000002be0091
:105128000400be00e5f70700e1d9280010c0b3006d
:1051380084f30700049a20005403be004402be0012
:105148000400be000601be00aeee07000002be006d
:105158000400be00d9f70700e1d9280010c0b30049
:1051680078f30700048820005403be004402be0000
:105178000400be000601be00a2ee07000002be0049
:105188000400be00cdf70700e1d9280010c0b30025
:105198006cf30700048920005403be004402be00db
:1051a8000400be000601be0096ee07000002be0025
:1051b8000400be00c1f70700e1d9280010c0b30001
:1051c80060f30700849120003400be002401be0073
:1051d8006022b80006002400f7082400cfee07007c
:1051e8000002be000203be000400be000601be00ad
:1051f80084ee07000002be000400be00aff70700ff
:10520800e1d9280010c0b3004ef3070084912000b4
:105218003400be002401be00849220005403be0066
:105228004402be00e1ef07000002be000203be0018
:105238000400be000601be006022b800060024007b
:10524800f7082400b5ee07000002be000203be0006
:105258000400be000601be006aee07000002be00a0
:105268000400be0095f70700e1d9280010c0b3007c
:1052780034f30700049320003400be002401be006c
:105288006022b80006002400f7082400a3ee0700f7
:105298000002be000203be000400be000601be00fc
:1052a80058ee07000002be000400be0083f70700a6
:1052b80001da280010c0b30022f307000080fa00ca
:1052c800000006000000fa00c1e1a800c1e5a9003d
:1052d800c1a1a800040e80000440a1000450a10050
:1052e8000460a1000470a100040e8800040e800070
:1052f8000420a1000430a100040e8800040e8000e0
:105308000400a1000410a100040e8800743e2000cf
:10531800240e8800c901a900c921a900c881a900d3
:10532800c801a900c8a1a800c821a900c8c1a8002f
:10533800c841a900c885a900c805a9000002eb005a
:10534800c40e88000002eb00d40e88000080fa002a
:10535800000006000800fa0020479800220798007d
:10536800330798002e02900004f0a7000402ea0018
:10537800040f78001e0278006e22b900040278003b
:10538800040f78002e429000e04f520011003a00be
:10539800445a20009e027800848f52000200360092
:1053a800445a2000040f78002e029000be0290009c
:1053b800e00f5200e08f5a0002003d00cb62a800c7
:1053c80001003700cb62a9001e027800d40e8800c5
:1053d800130037002e429000e14f520010003a00af
:1053e800445a20009e027800848f52000200360042
:1053f800445a2000040f78002e029000be0290004c
:10540800e00f5200e08f5a0002003d00cba2a90035
:1054180001003700cba2a8001e027800c40e880045
:105428000080fa00000006000400fa00000f78006f
:1054380011079800d0db230011132000400007005b
:10544800ccfb0700d0a2a9000002eb00244f880083
:105458000002eb00344f88000002eb00844f880004
:105468000002eb00c44f88000002eb00944f880054
:105478000002eb00d44f88006022b8006011b80029
:105488006000b8004ef707007ffb07006efb0700bf
:105498009efb0700eafb07001afc070022fe070034
:1054a800abfc070002202c001300200010c0b30042
:1054b800a3f1070041d5280010c0b300a1f20700ee
:1054c800d0db2300111320001d0007007dff07001b
:1054d80061d6280010c0b3009af20700d0db230081
:1054e8001113200016000700802c2600811e2000c2
:1054f8001300070005e1a80071d7280010c0b30009
:1055080090f20700d0db2300111320000c000700e5
:10551800b0502200710b20000900070071d8280044
:1055280010c0b30087f2070010272700717220000f
:105538000300070021e1a800eaf60700ffff370093
:020000040000fa
:10554800f03fb1000180b10006003500ee0309000c
:1055580000000000403fb1000180b100fbff3d00aa
:105568001000b000203fb0000200350000800900a4
:08557800000000000000060025
:020000040000fa
:1055800000080000e201000000000000080a00001e
:105590001800000000000000e209000026000000e2
:1055a00000000000200a00000200000000000000cf
:0455b00000000000f7
:020000040000fa
:0200000401f009
:04000000cf0000002d
:020000040000fa
:0200000401f009
:04000400cf00000029
:020000040000fa
:0200000401f009
:0400080007000000ed
:020000040000fa
:0200000401f009
:04000c0001000000ef
:020000040000fa
:0200000401f009
:0400100043000000a9
:020000040000fa
:0200000401f009
:040014005f00000089
:020000040000fa
:0200000401f009
:04001800f7000000ed
:020000040000fa
:0200000401f009
:04001c00dfff000002
:00000001FF
