:020000040000fa
:080000000002040000000000f2
:020000040000fa
:10000800e2030000e2030000e2030000e203000054
:10001800e2030000e2030000e2030000e203000044
:10002800e2030000e2030000e20300009402000083
:10003800e2030000e2030000e2030000e203000024
:10004800bc020000e2030000e203000062030000bb
:10005800e2030000e2030000e2030000e203000004
:10006800e2030000e2030000e2030000e2030000f4
:10007800e2030000e2030000e2030000e2030000e4
:10008800e2030000e2030000e2030000d6020000e1
:10009800f8020000e2030000aa030000cc030000fd
:1000a800e2030000e2030000e2030000e2030000b4
:1000b800e2030000e2030000e2030000e2030000a4
:1000c800e2030000e2030000e2030000e203000094
:1000d800e2030000e2030000e2030000e203000084
:1000e800e2030000e2030000e2030000e203000074
:1000f800e2030000e2030000e2030000e203000064
:10010800e2030000e20300001a030000e20300001b
:10011800e2030000e2030000e2030000e203000043
:10012800e2030000e2030000e2030000e203000033
:10013800e2030000e2030000e2030000e203000023
:10014800e2030000e2030000e20300003e030000b7
:10015800e2030000e2030000e2030000e203000003
:10016800e2030000e2030000e2030000e2030000f3
:10017800e2030000e2030000e2030000e2030000e3
:10018800e2030000e2030000e2030000e2030000d3
:10019800e2030000e2030000e2030000e2030000c3
:1001a800e2030000e2030000e2030000e2030000b3
:1001b800e2030000e2030000e2030000e2030000a3
:1001c800e2030000e2030000e2030000e203000093
:1001d800e2030000e2030000e2030000e203000083
:1001e800e2030000e2030000e2030000e203000073
:0801f800e2030000e203000035
:020000040000fa
:10020800e2030000e2030000e2030000e203000052
:10021800e2030000e2030000e2030000e203000042
:10022800e2030000e2030000e20300009402000081
:10023800e2030000e2030000e2030000e203000022
:10024800bc020000e2030000e203000062030000b9
:10025800e2030000e2030000e2030000e203000002
:10026800e2030000e2030000e2030000e2030000f2
:10027800e2030000e2030000e2030000e2030000e2
:10028800e2030000e2030000e2030000d6020000df
:10029800f8020000e2030000aa030000cc030000fb
:1002a800e2030000e2030000e2030000e2030000b2
:1002b800e2030000e2030000e2030000e2030000a2
:1002c800e2030000e2030000e2030000e203000092
:1002d800e2030000e2030000e2030000e203000082
:1002e800e2030000e2030000e2030000e203000072
:1002f800e2030000e2030000e2030000e203000062
:10030800e2030000e20300001a030000e203000019
:10031800e2030000e2030000e2030000e203000041
:10032800e2030000e2030000e2030000e203000031
:10033800e2030000e2030000e2030000e203000021
:10034800e2030000e2030000e20300003e030000b5
:10035800e2030000e2030000e2030000e203000001
:10036800e2030000e2030000e2030000e2030000f1
:10037800e2030000e2030000e2030000e2030000e1
:10038800e2030000e2030000e2030000e2030000d1
:10039800e2030000e2030000e2030000e2030000c1
:1003a800e2030000e2030000e2030000e2030000b1
:1003b800e2030000e2030000e2030000e2030000a1
:1003c800e2030000e2030000e2030000e203000091
:1003d800e2030000e2030000e2030000e203000081
:1003e800e2030000e2030000e2030000e203000071
:0803f800e2030000e203000033
:020000040000fa
:100400002fd220000e7f24000e0188000000000083
:1004100000012000200288000c00070000a8250031
:100420000100200011000700000020000000e00093
:10043000020032000000020000000000d85a020052
:10044000000000000040da000000fe004440a90067
:10045000e00220000000e000030032000000200065
:10046000a00188004440a800000006009101880017
:10047000800078000000eb0015003700e2804000ab
:1004800032a0b4009101ba00e280400032a0b40072
:100490009102ba00e280400032a0b4000002eb00fa
:1004a000472bde00f507b200602ce10004003a00a3
:1004b0000059eb008301e900fdff3e000400370016
:1004c0006128e100010032000082eb000400070017
:1004d0001101ba000200e000e8ff3a000000060047
:1004e0003159ba008301e9000c0032002159ba00e9
:1004f0008301e900080032000400e00003003a0034
:10050000e280400032a0b400f5ff370011d9ba00f4
:100510008301e900faff3a008100e800e180400031
:1005200032a0b400000006003600f800809fbe0034
:10053000829fbe00849fbe00869fbe000000fa001e
:100540008460a9001716070004ac2000144278004c
:10055000e14f520001003a00b90f07000080fa0095
:100560004f03be004f02be004f01be004f00be0051
:100570003600f900004006000000fa00d2a2a900ef
:1005800094e0a9009460a9009760a9009780a90051
:100590009b40a9009d60a9001fe1a90005e1a900f9
:1005a00011e1a90021e1a900ffff37003600f800a2
:1005b000809fbe00829fbe00849fbe00869fbe00bb
:1005c0000000fa001fe1a9008760a900782a07004f
:1005d0001fe1a8000080fa004f03be004f02be00da
:1005e0004f01be004f00be003600f900004006007b
:1005f0003600f800809fbe00829fbe00849fbe0030
:10060000869fbe000000fa0021e1a9009f28070094
:100610008780a90021e1a8000080fa004f03be00f6
:100620004f02be004f01be004f00be003600f90071
:1006300000400600849fbe000000fa008b40a90025
:10064000050f80000480200004826200e00f520049
:1006500004003200d46680000402e800d4668800fa
:1006600003003700d46680000402e900d4668800e5
:100670000080fa004f02be0000400600849fbe00ca
:100680000000fa008d60a900850f80000480200022
:1006900004826200e00f520004003200e466800031
:1006a0000402e800e466880003003700e466800086
:1006b0000402e900e46688000080fa004f02be00f0
:1006c00000400600801f7800849fbe00861f7800cf
:1006d0000200fa009560a9008560a900341180002d
:1006e000044f7800c4d120001442780061426200b7
:1006f0000482fb00610262004522dd009616800044
:10070000f5fd2f00850263000482720094168800b4
:10071000c4d1200014427800e04f520004003a0097
:1007200014c0b300044078001cedb700030037008c
:100730000042eb00044078001cedb7009560a80073
:100740000080fa004f0378004f02be004f0078008f
:10075000004006003600f800809fbe00829fbe0069
:10076000849fbe00869fbe000000fa0097c0a900cb
:1007700087c0a9005e23070097c0a8000080fa0088
:100780004f03be004f02be004f01be004f00be002f
:100790003600f90000400600801f7800841f7800b2
:1007a0000000fa0087e0a90014c0b30004407800fc
:1007b00052ebb7000080fa004f0278004f0078003b
:1007c000004006000040da000000fe002800fa00a9
:1007d000889fbe008a9fbe008c9fbe0007067800df
:1007e000878669000c003b000304780087047800ca
:1007f00008f0a10009f0a100840f5000858f580077
:10080000860f5900890f5c00030033000cf0a20032
:1008100001003a000cf0a100b00107006400e10003
:100820005f003200780147006408e1006100320097
:100830006c014700748557003200be001201be00f3
:100840003a04be001a05be001e039000be0a9000c6
:100850008503530006003d000004fd008104fd00f7
:100860000205fd008305fd008703ea00050378000b
:100870000df8a3000400320060041400e0841c00a2
:1008800060051d00e0851d006022b8007d0320008a
:100890000d38e1008006eb000b0039004433dd0029
:1008a000f300b200830173003900370084827200c4
:1008b0000d027800e10664008b85d1000a85d30023
:1008c0008984d3000884d3008703e900f7ff3b0045
:1008d00008004000898048000a0149008b814900d6
:1008e00004003b0060001000e08018006001190067
:1008f000e08119000358a300090032008d827200c4
:1009000084827200610260008301d1000281d30001
:100910008180d3000080d3000603e8001b0037006d
:100920000348a30017003a000600e0001700340057
:100930000603e9000d00a300000048008180480084
:1009400002014900838149000348a3000f003a00d7
:100950000600e000090034000603e9000000400042
:1009600081804800020149008381490001003a006a
:100970000003eb000348a300f5ff32006022b8003b
:100980000200370084827200618266001501070050
:1009900003f0a1000cf0a70003f0a00063013700f2
:1009a000640147006408e10002003a000df8a3006a
:1009b0005b013a003200be001201be005b0137004d
:1009c00003f0a200889fbe008a9fbe008c1f7800a3
:1009d0000a020700110233006450e1004f003200a8
:1009e0006420e1005200320003826c0007003b00eb
:1009f0000905d0000306d000820f54000c065d00ec
:100a000002003900020032008901780003067800f4
:100a10008582550004003d000003fd008103fd00b8
:100a20008502ea008b854200840f720002003b00c1
:100a300060001000e08018006011b8000005eb00b5
:100a40007a28e1000a00390006007800c75ddd0061
:100a5000f707b200878075002d0037008281710092
:100a60000a017800610560008180d1000080d30018
:100a70008502e900f9ff3b00060440008784480036
:100a800002003b0060041400e0841c000988a300fd
:100a9000070032008a817100828171006101640067
:100aa0008904d1000884d3008b05e80017003700c3
:100ab0000978a30013003a000b00e0001300340093
:100ac0008b05e9000804440089844c000a44740042
:100ad0000978a3000d003a000b00e0000700340085
:100ae0008b05e9000804440089844c0001003a00a9
:100af0000b0020000978a300f7ff32000001eb0093
:100b000002003700828171000a017800800107002d
:100b10000cf0a70001f0a000c90137006420e1003b
:100b200002003a00838f6c00c90133000801be0047
:100b30000200be00c20137000000fa00889fbe001c
:100b40008a9fbe008c9fbe000404be000605be0046
:100b5000d0000700040678000c78a30020003a00bb
:100b60000800fd008900fd000a01fd008b01fd0069
:100b7000c8000700840678000d78a30018003a002a
:100b80000d0666006460e100190032006160e1005a
:100b9000170032000002be000203be000a01be00c0
:100ba0000800be00070478002000070003f0a10041
:100bb000a304070008f0a6000600370003f0a20017
:100bc00097002400b61f22004544250084d122004e
:100bd000fefe07000bf0a70003f0a200d3003700d1
:100be00018022000086988000330a000cf003700f9
:100bf0001802200008698800c90037000002eb00d5
:100c0000410237008f1fd100430507008f87e9009d
:100c10000000e00000000600809feb003e0507009a
:100c20008f87e9000000e000000006002800fa00bd
:100c3000889fbe008a9fbe008c9fbe0003866b000b
:100c4000a60007006400e100440032006408e100ef
:100c50004a0032006100e100460032006108e10014
:100c600049003200ec0647006000b8003d02be00bb
:100c70003d03be00f48657006011b8003d04be007d
:100c80003d05be007d0320000b0037000000a000e2
:100c90008d06e900130032000402420085824a00fa
:100ca00006034b0087834b00000040008180480012
:100cb00002014900838149000802520089825a00da
:100cc0000a035b008b835b00f0ff3b0008024200dd
:100cd00089824a000a034b008b834b008d06e90092
:100ce000edff3a008482720086827200f707b2003c
:100cf0008782720001003200150020001e0490005f
:100d00003e0b900006035400e63fb0000368a300ca
:100d1000070032000000a7000500a0008301d100f9
:100d20000281d3008180d3000080d3000603e80055
:100d30008301d1000281d3008180d3000080d300e1
:100d40000002eb000482d2002600070003f0a1009d
:100d50000cf0a70003f0a000740037006402470005
:100d60006408e1006e0032003400be003401be00b1
:100d7000f6ff37006108e100690032006011b80039
:100d80006000b800f1ff370003ff270002002000d9
:100d9000fbff3700839f68000100e00002003d0078
:100da00060001000e08018000300e00002003d0039
:100db00060011100e0811900fd0207004f00e00012
:100dc00002003b0060001000e080180000000600f8
:100dd000801feb00d00407008f87e9000000e000cf
:100de00000000600180020005700200008045300ef
:100df0000d003d000600200097fc2f000740e10099
:100e00001e00340084827200610260008301d10000
:100e10000281d3008180d3000080d3000804e80061
:100e2000f8ff3a00470020006104600005047400e8
:100e3000040464000d00320061004000e0804800be
:100e400060014900e081490003b8a50007003200b5
:100e50000603e8006538e10004003a008301d10090
:100e60000281d3008180d3000080d300f87f20006e
:100e70000830e10003003500080378006000b80086
:100e80006011b8004433dd00f300b2008301730049
:100e90000000060005ff2700058261000700320000
:100ea0000428e100010032002400050006000700cc
:100eb00001003a0044000500040805000200070094
:100ec000f9ff3a00140005006f8261008102700092
:100ed0008502710085027200000006006804470068
:100ee0000294be000094be00fc0447008694be003d
:100ef0008494be0009007800be0407000800780052
:100f0000bc04070099007800814f70000b003b0083
:100f10000800be00a90407004f00b100030037001d
:100f2000f3ff2700f2ff2f006110b9004f06be004b
:100f30004f05be004f04be000080fa00000006000e
:100f400081037800980007000001be006000b8002f
:100f50000478a30013003a006220e10015003e006f
:100f60000d0039008301d1000281d3008180d300bc
:100f70008301d1000281d3008180d3008301d1009d
:100f80000281d3008180d3000538b000c42add007f
:100f9000f300b2008381720007f0a70003f0a00005
:100fa00000000600f3ff2700f2ff2f006110b900d8
:100fb000fbff370003ff2700f7ff37001400fa009c
:100fc000889fbe008a9fbe008c9fbe000004be00aa
:100fd0000205be00680047000a90be000890be00ef
:100fe000840407000070a7000bf0a100304320002c
:100ff0009e02900080825200b0fe2f000028e10087
:1010000011003d00b0fc2f000028e1001500340065
:101010001e0990008e0890007e0090000501b0002f
:101020000201d1008180d3000080d3008502e80056
:10103000fbff3a000b00e000bcff3b00600010002b
:10104000e0801800b9ff3700f0ff2f00f1ff270004
:101050000b00e000b5ff3b0001002800000020006d
:10106000b2ff37006000b800b0ff37000001be00db
:101070004d0007000470a70003f0a1006509b1004e
:10108000160032000d0035006828e100060035002a
:10109000f0ff2f00f1ff27000300e00013003b00ea
:1010a0000100280000000500000040008180480089
:1010b0008502e900fcff3a0008003700f88f420083
:1010c00002003c008000eb00000005008100d10020
:1010d0000080d3008502e800fcff3a000300e00036
:1010e00002003b0060001000e080180000000600d5
:1010f0004f89de0082017800650437004f89de00e9
:1011000082017800720437006011b8008004370053
:1011100081002000618055000b003d000b00200085
:1011200061fe2f000100e1001d003400828171008a
:10113000610164008904d1000884d3000000e80044
:10114000faff3a00710020006100640003007000a3
:10115000020060000900320061044400e0844c0099
:101160000988a500050032008b05e8006808e10049
:1011700002003a008904d1000884d300f20f200055
:101180000258e10005003d00c75ddd00f907b2002f
:101190008980750008007800000006000bf8270021
:1011a0008b00780000000500c70ade00f107b200de
:1011b000f50fb20008003200e1cf42000200320019
:1011c0000170a00024000500810f700001003200b2
:1011d0000408050044000500810f700002003a0079
:1011e000140005008502e9000000400081c04800ad
:1011f000fcff3b000170a000240005000004be00bd
:10120000e9ff07000003be000405be000200be00a7
:10121000e5ff0700844f7500000006000200be00d5
:101220006450e100050036006420e1000200360051
:101230000968a30001003a000800be000160a00098
:101240004f0678004f05be004f04be0000000600a8
:10125000f0ff2f00f1ff2700f9ff37002800fa0008
:10126000889fbe008a9fbe008c9fbe0003866b00d5
:101270001aff07000028a30064003a000128a30019
:1012800067003a000008a30062003a000108a300ca
:1012900065003a001e009000be08900081064000e4
:1012a000ed3fb100f4805700ee019000111ab80034
:1012b0008e099000311bb8009e099000311cb800c7
:1012c000511db800f485570046000700fe0190004c
:1012d0003a0007008b85e8003e0007008e09900069
:1012e00040000700ee019000340007008b85e80005
:1012f000380007008e099000400007009e0990000a
:101300001b18b800890440000a854800fe019000bf
:10131000340007008b85e80038000700ee019000dc
:10132000300007008e0990001b18b80089044000a7
:101330000a8548000a98a30008003a000402420007
:1013400085824a0006034b0087834b0008044c004b
:1013500089844c000a054d008d06e90084827200e4
:10136000850273004c3add008502720001003200f4
:1013700015002000443ade001400b2004538de00bb
:10138000cb45dd000b007000c540de00cb4ddd001d
:101390008b8070004549de00cb55dd000b017100ec
:1013a000c551de000d0378008efe070003f0a1009a
:1013b0000cf0a70003f0a000dcfe37001b18b800fb
:1013c0008502400006834800e0834b0060044c0027
:1013d000070037001b18b800060340008783480049
:1013e000faff37001b18b800870340000884480044
:1013f000e0844c0060054d00000006001b18b8009a
:101400000804400089844800faff37000108a3005f
:10141000c3fe3a005800be005801be00e3ff37008b
:101420000008a300befe3a0009047800f9ff370067
:10143000889fbe008a9fbe008c1f78006fff070048
:1014400076ff330003866c006450e1002400320014
:101450006420e100270032006150e10022003200e8
:101460006120e100210032008b854200eb07b100d2
:101470000134b800003ab8000804420089844a00e8
:10148000013ab8000030b8008880400009014a00e5
:101490000400330000004000818048000201490040
:1014a0008b05e900c909dd008301700001003200ed
:1014b00013002000c814de004814dd004709de00d8
:1014c0001200b200c808de000884700010ff070098
:1014d00001f0a1000cf0a70001f0a00058ff3700b8
:1014e0006120e1005aff32000801be000200be0088
:1014f000f7ff37006150e100fcff3a0054ff37006e
:1015000014002000000037000800fa00889fbe0089
:101510008a9fbe008c9fbe00040678000004be00b7
:101520000205be005bfe07006420e1009f003e0054
:101530009b0032006120e1009600320003f0a10020
:10154000171b240036582c0005a0210004002000a1
:10155000acfd07000800be000a01be000700350010
:1015600097012400b61f22004544250084d12200a3
:10157000c10307000004be000205be008006eb00a8
:101580000c00a700cf1ede0003f0a1000bf0a100ad
:1015900047fd230006f3250095dc260034882c0047
:1015a0002eff07006022b8000003eb0007fe2300b7
:1015b0000c00a60007ff230084fc07007ffe070045
:1015c0000000a7000d00a200c9fe07000c00e0000b
:1015d00004003a0007fe2300060020006022b80045
:1015e000c600070003f0a200009fbe000297be00e5
:1015f00097002400060022006022b80017ff0700b1
:101600000802be000a03be0070fc0700809fbe00f7
:10161000829fbe003e00be002e01be00f7f42300f4
:1016200046542b00152d2400a44628000bff07006c
:101630004f03be004f02be0064fc07000004be0062
:101640000205be0003f0a10067e42300e6092a00ba
:10165000f5672600d4bc23006afd07000800be0021
:101660000a01be00480035000002be000203be00b1
:10167000fafe0700009fbe000297be0087ce23003f
:10168000f60f28003599260054f92d00f3fe0700c7
:10169000a7d62b0006422e0085c02d00c499240039
:1016a0004afc07003e02be002e03be00ebfe070010
:1016b00067de2300c6232100a586260004432d00f3
:1016c00042fc07003e02be002e03be00e3fe070000
:1016d000a7e52b0056642e00d5b52400b40a2c00d3
:1016e0003afc07003e02be002e03be00dbfe0700f0
:1016f00077ec230036de210045522a0034062f0005
:1017000032fc07003e02be002e03be00d3fe0700df
:10171000a7f22b00061a200015a02100a4e1230047
:101720002afc07003e02be002e03be00cbfe0700cf
:1017300017f823001611210015112100040b2100b8
:1017400022fc07003e02be002e03be00c3fe0700bf
:1017500057fc2b005655250055552500545525009e
:101760001afc07003e02be002e03be00bbfe0700af
:101770000802be000a03be00b8fe07000802be0051
:101780000a03be0011fc07000d00a70003f0a20031
:10179000e6fd37000c00a60003ff2300e3fd370041
:1017a000f3ff2700f2ff2f006110b9000330a00003
:1017b0001402200004698800dcfd37001400fa00e0
:1017c000889fbe008a9fbe008c9fbe000004be00a2
:1017d0000205be00680047000a90be000890be00e7
:1017e000840207000078a3003d003a006100e10098
:1017f0003c0032000bf8a3003d003a006400e10019
:10180000380032006c0347001e009000f03fb1002a
:101810003602be001603be000008a300040032001a
:101820000402420085824a0006034b0087834b0076
:10183000100798008e1f78006000b8006011b80093
:101840005c0020006d0120006e00200002003700c7
:101850008d86e900fc0020000402420085824a00d7
:1018600006034b0087834b0000044000818448003e
:1018700002054900838549006060e1001d60ad00fc
:101880000804520089845a000a055b008b855b00be
:10189000030039001e60ad000802be000a03be004e
:1018a0000c06e900ecff3b000e87e900e8ff3b0077
:1018b0004f07780061026000840278008301d10044
:1018c0000281d3008180d3000080d3001e039000ea
:1018d00041b3de00f63fb00042fd070093fd370044
:1018e0000b30a0000800be000a01be008ffd3700cb
:1018f000120220000269880089fd370007f0a2006b
:10190000b2fb37001400fa00889fbe008a9fbe0019
:101910008c9fbe000005be000206be0068004700a6
:101920000c90be000a90be00320207006400e10085
:101930001a00320016003e006100e1001a00320079
:101940006e049000fe0490000e0b90009e0b900021
:101950006011b8009e0590000b38b100d501200041
:1019600082817100610164008703d1000683d30086
:101970008984d3000884d3008502e900f8ff3a0087
:10198000e3fd07000df0a70001f0a00067fd3700a0
:10199000f1ff2700f0ff2f0064fd370001f827005a
:1019a00000002000f7ff37006000b800f5ff3700a7
:1019b0006022b800060220000000d0008180d20022
:1019c0000482d2008582d2000000a00002025200f0
:1019d00083825a00030031000202420083824a00df
:1019e0000000a1000603e900f3ff3a000000060032
:1019f000889fbe008a9fbe003004be002005be0046
:101a00000404440085844c0006054d0087854d0084
:101a10000898be000a90be000440e10005c8e1003d
:101a200006d0e10007d8e100020031006800400064
:101a30001008e8004f05be004f04be00000006007d
:101a40001000fa00889fbe008a9fbe000605be00f7
:101a50000404be003002be002003be00c4b79f00d5
:101a6000d5b79f00e6b79f00f7b79f000802520066
:101a700089825a000a035b008b835b0084bf9f004e
:101a800095bf9f00a6bf9f00b7bf9f000498be00f0
:101a90000698be00110020004fb29700dfb29700f9
:101aa0006fb39700ffb397000820e10009a8e10099
:101ab0000ab0e1000bb8e100010039008000eb0042
:101ac000108810004f05be004f04be000080fa00d1
:101ad000000006001400fa00889fbe008a9fbe0026
:101ae0008c9fbe003f0007000605be000404be0038
:101af0000006eb00ccb79f00bcb79f00acb79f00bf
:101b00009cb79f008cb79f000d0420004fb3970037
:101b1000bfb29700860343002fb29700e00f530037
:101b200004003d003d0007000f004000b0ff07002b
:101b300003003700390007000f004000c0ff070016
:101b4000cfb2970095bf9f00e08f5200090035008b
:101b50002b00070014002000050020006033b800af
:101b600000007200818072000201730083817300a3
:101b70001c0007000c06e8008d0f5600e3ff3a003a
:101b80001fba9700e00f520005003d000802be009a
:101b90000a03be0000fe2f000f00400094ff070064
:101ba0004faa9700e00f520008003a000fb49700c8
:101bb0009fb497002fb59700bfb59700d8b79f0087
:101bc000e9b79f00fab79f008bbf9f000c0007008a
:101bd0004f06be004f05be004f04be000080fa0055
:101be00000000600010007000000060090b79f00fb
:101bf000a1b79f00b2b79f00c3b79f0000000600c7
:101c000001000700000006001fb09700afb097006a
:101c10003fb19700cfb19700000006004f2bde00c8
:101c200087037300a7b79f004f23de008582420021
:101c30008502730095b79f00ffaa97004f2bde0027
:101c4000040242000402730084b79f006faa970049
:101c50004f23de008582420085027300f5af9f00ae
:101c6000e9ff07004f18de00040242000002720084
:101c7000e4af9f00e4ff07000000400081804800bf
:101c80000201490083814900d8ff07000802be0015
:101c90000a03be0000fe2f0000000600881f780027
:101ca00018002000881f78008aff07008f87e9004e
:101cb0004f04780000000600801feb0085ff07003e
:101cc0008f87e90000000600889fbe008a9fbe0043
:101cd000e00f5000e08f5800e00f5900e08f5900ee
:101ce0000c003d006044b8006055b800000054008e
:101cf00081805c0002015d0083815d00180020008e
:101d00001500070008003d00180007000004eb0064
:101d1000050037000004eb000f00070002003d0043
:101d20001200070018002000dcff0700e00f54003d
:101d3000060032006022b8006033b8000000520094
:101d400081805a0002015b0083815b004f05be0069
:101d50004f04be0000000600e00f5200e08f5a0062
:101d6000e00f5b00e08f5b00000006006044b800fd
:101d70006055b8000402540085825c0006035d00d3
:101d800087835d0000000600889fbe008a9fbe001a
:101d90008c1f7800e00f5000e08f5800e00f5900d2
:101da000e08f59000d003d006044b8006055b80058
:101db0000000540081805c0002015d0083815d00b1
:101dc0001c0020000820e10009a8e1000ab0e100a1
:101dd0000bb8e1000d003d00080037000006eb00e5
:101de000e00f5200e08f5a00e00f5b00e08f5b00d5
:101df00006003d006044b8006055b800040254007d
:101e000085825c0006035d0087835d00aaff0700f2
:101e1000e00f5600060032006022b8006033b800c0
:101e20000000520081805a0002015b0083815b0048
:101e30004f0678004f05be004f04be0000000600ac
:101e40000800fa00889fbe008a9fbe008c9fbe00db
:101e50000004be000205be00830678000dfc0700ea
:101e60006420e100a3003e00a60032000006eb0063
:101e70000bf0a10003ff2300020020006000b80067
:101e80000802be000a03be0063fb070009003d0014
:101e900003ff2300020020006000b8000802be001b
:101ea0000a03be0061fb07000004be000205be007d
:101eb0002c00200013fd230042612200e1e92500ef
:101ec00060d52c000802be000a03be0052fb0700ca
:101ed0001d003d00b3ff2300a2672b0081852e006b
:101ee000a0ca24000802be000a03be0037fa070099
:101ef000009fbe000297be0073fe230052cf260053
:101f0000010b2d00509529000802be000a03be00f7
:101f1000d2fc070007ff2300060020006022b80063
:101f200076fe07000802be000a03be0027fa07007b
:101f30003e02be002e03be003cfb07000004be00b4
:101f40000205be000c06e8000800be000a01be0043
:101f500003f0a10067e42300e6092a00f5672600e4
:101f6000d4bc230027fb07000800be000a01be0006
:101f70004c0035000802be000a03be00b7fc070093
:101f8000009fbe000297be00e702240096c4200016
:101f9000a5142e0004712c000cfa07003e02be00ae
:101fa0002e03be00adfc0700d7042400a6a02c0021
:101fb000d5202300743d2a0004fa07003e02be002b
:101fc0002e03be00a5fc07005705240026a128000b
:101fd000b540200054da2600fcf907003e02be009e
:101fe0002e03be009dfc070047042400c68728007e
:101ff00045cc2b00945a2900f4f90700809fbe00bd
:10200000829fbe003e00be002e01be00a7fe2b0038
:10201000a6d72c00159b2d00d47b28008ffc070031
:1020200007022c00f6d32f00d5c8250034a62600c1
:10203000e6f907003e02be002e03be0087fc070043
:1020400047032c00f6172800259e2b00b4cc2b004c
:10205000def907003e02be002e03be007ffc070033
:10206000b7022c00660a26006510250024ce210048
:10207000d6f907003e02be002e03be0077fc070023
:102080004f03be004f02be00e8fa07000802be0080
:102090000a03be0071fc07000802be000a03be006e
:1020a000caf907000c00e0000f0032000c10a70076
:1020b00003f0a20084d1220045442500b61f22006f
:1020c00097ff23006260e1000600320064362700bb
:1020d000d582230026152c0007fe23000c10a70034
:1020e00007ff2300b9f907000df0a70003f0a200d5
:1020f0008efb37000330a000140220000469880022
:102100008afb370093ff2300b21f220041442500c1
:1021100080d12200f4ff3700889fbe008a9fbe0056
:102120008c9fbe000404be000605be00809fbe005a
:10213000829fbe0057fb0700040678000800be001f
:102140000a01be0053fb0700840678004f03be005f
:102150004f02be008d4f76007fb097001300330012
:10216000f0ff2f008b8f6b0006003b000d06660012
:102170000c00a7000a00370007f0a600100020009e
:102180000a003700880f5200898f5a008a0f5b00bf
:102190008b8f5b00030039001000200001003e001f
:1021a0000000200007f0a7000000ea004f06be0074
:1021b0004f05be004f04be0000000600e482400050
:1021c0001078a30007003200640240001178a300d9
:1021d0003400be001401be00040032000330a7002a
:1021e000000006003500be001501be000330a0004f
:1021f00000000600800078005002be005003be00c0
:102200004439de00f700b200f37f200003016100d3
:10221000090032000218e10016003a008501720040
:1022200083017300838173000008200015003a00c9
:102230004000200013003700850172008301730005
:102240008381730005003a0004a8be0006a8be0002
:10225000100020000b0037000201e90004024200d8
:1022600085824a0006034b0087834b000748a30082
:10227000f9ff32000740a00004a8be0006a8be0077
:1022800020002000800098009200980000000600c6
:10229000881f7800030478000300e00007003d0079
:1022a00060001000e080180060011900e081190052
:1022b00002003b0001f02d0003003700140007006e
:1022c00008f0a70003f0a0004f047800000006000b
:1022d000881f7800030478000300e00007003d0039
:1022e00060001000e080180060011900e081190012
:1022f00002003b0001f02d00030037002f00070013
:1023000008f0a70001f0a0004f04780000000600cc
:10231000889fbe0000827000040271000482710078
:102320002400320036432000c50020008383cf0004
:102330000a0039000541b1008283cf00070039004f
:102340000541b1008183cf00040039000541b1008f
:102350008083cf00010039000541b10085c35300df
:102360006022b800120032000a003b008482720032
:10237000610260008301d1000281d3008180d3001b
:102380000080d3000603e8008743e800f7ff3a0027
:10239000070037000000400081804800020149002a
:1023a000838149000603e9008743e900f9ff3a0009
:1023b0008cfa07004f04be0000000600889fbe0094
:1023c0008a9fbe00008270000402710004827100c6
:1023d000260032000004be000200be006011b800fa
:1023e0006b092000950220000182cf000a0039000d
:1023f0000541b1000082cf00070039000541b1005e
:102400000982cf00040039000541b1000882cf00e5
:10241000010039000541b1000542520012003200ae
:102420000a003b0082817100610164008100d100db
:102430000080d3008984d3000884d3008b05e80092
:102440000442e800f7ff3a000700370008044400a0
:1024500089844c0000004800818048008b05e90019
:102460000442e900f9ff3a0029fb07004f05be00ce
:102470004f04be0000000600801feb0002000700b2
:102480008f87e900000006002800fa00889fbe0040
:102490008a9fbe008c9fbe000efe97008ffa070039
:1024a0006108e1005c0032006200e1005a003e0079
:1024b000540039006408e100520032006c0147000a
:1024c000748557003200be001201be003a04be00ff
:1024d0001a05be009e029000be0e90000d825200b2
:1024e00017003b000402e80046003a00880f500045
:1024f000898f58008a0f59008b8f59004100340092
:1025000064014700780347003200be001201be009c
:102510003602be001603be0007f0a10003f0a600bd
:1025200007f0a0000c70a700a8f807007ffa37009a
:102530000000400081804800020149008381490079
:102540000c00a00008005000898058000a015900c2
:102550008b81590005003b0008004000898048003d
:102560000a0149008b8149000c00a1000402e90026
:10257000efff3b0000024000818248000203490057
:10258000838349001b0032000802520089825a00ee
:102590000a035b008b835b004200f80005003700f4
:1025a0000000400081804800020149008381490009
:1025b0008d06e9000340a600f9ff37006022b8004d
:1025c0000d03780007fa0700780347004200f9007e
:1025d0000800350002003c000c08a3000500320092
:1025e0003602be001603be0007f0a0000c70a70064
:1025f00076f807005e02900004f0a70003f0a20046
:102600004afa37002e009000be0090004e01900064
:10261000de01900045fa3700100220000c70a60081
:08262000006988003efa370052
:020000040000fa
:102628000a0a00000a0a00000d200000494e0000b6
:1026380049540000205200004f4200004f5400004f
:10264800203a0000200a00000a0a00000a0a0000d6
:102658000a0d00000000000020200000494400008e
:1026680020000000203a0000200000000d000000bb
:0c267800090000000a0d00000000000036
:020000040000fa
:102684000000fa0024c0b30004407800c1eab70097
:1026940024c0b30004407800c2eab70024c0b300e9
:1026a40004407800c3eab70014c0b30004407800c3
:1026b400c9eab70024c0b30004407800c4eab700f4
:1026c4000042eb0004407800cdeab70014c0b30028
:1026d40004407800caeab70014c0b300044078008c
:1026e400c5eab70093000700a70b0700d2a2a80011
:1026f40014c0b30004407800c0eab7000080fa00b8
:10270400000006001000fa00009fbe000297be0001
:1027140044079800550798006607980077079800c3
:102724003e00be002e01be000f0007004e009000c8
:10273400de0090006e019000fe019000250007006d
:102744003eb89700ceb897006efa07000002be00ac
:102754000203be000400be000601be0037000700ed
:102764000080fa00000006000800fa00889fbe00fe
:102774008a9fbe00009fbe000297be000481200015
:102784003e04be002e05be00089abe000a92be009a
:10279400048120003400be002401be0054912300b3
:1027a40035722a003603240067052400aafa0700bc
:1027b4000002be000203be00008920000498be008f
:1027c4000690be004f05be004f04be000080fa0014
:1027d400000006000800fa00009fbe000297be0039
:1027e4003e00be002e01be00611407000002be00c0
:1027f4000203be00808120000498be000690be0043
:10280400848120003400be002401be0054912300c2
:1028140035722a0036032400670524008efa070067
:102824000002be000203be00808a20000498be009d
:102834000690be000080fa00000006000800fa00be
:10284400009fbe000297be003e00be002e01be00e7
:10285400471407000002be000203be00049fbe002e
:102864000697be00a4ee220045442500b61f2200b0
:10287400970024003e00be002e01be0076fa070039
:102884000002be000203be000400be000601be003a
:102894006022b8000600280067062400e2f807005a
:1028a4000002be000203be000400be000601be001a
:1028b400e4222300656c2300f66a2500470d2400fa
:1028c40065fa07000002be000203be000400be0059
:1028d4000601be006022b8000600200007002400a4
:1028e400d1f807000002be000203be008090200061
:1028f4000498be000690be000080fa0000000600a6
:102904000000fa0000ab20006022b8006033b80079
:102914000498be000690be0080ab20006022b80080
:102924006033b8000498be000690be000080fa0030
:10293400000006000000fa0024c0b3000440780040
:10294400c4eab7000042eb0004407800cdeab700c7
:1029540074c0b30004407800cbeab70074c0b3007d
:1029640004407800cceab700e0ac20006022b80054
:102974006033b8000498be000690be00008f2000ab
:102984006022b8006033b8000498be000690be0010
:10299400808e20006022b8006033b8000498be0026
:1029a4000690be00008e20006022b8006033b8009c
:1029b4000498be000690be00009020006022b8007b
:1029c4006033b8000498be000690be00808f2000db
:1029d4006022b8006033b8000498be000690be00c0
:1029e400009c20006022b8006033b8000498be0048
:1029f4000690be00809c20006022b8006033b800be
:102a04000498be000690be00809d20006022b8009d
:102a14006033b8000498be000690be0080a3200076
:102a24006022b8006033b8000498be000690be006f
:102a340000a520006022b8006033b8000498be00ee
:102a44000690be0000a420006022b8006033b800e5
:102a54000498be000690be00809e20006022b8004c
:102a64006033b8000498be000690be00009f2000aa
:102a74006022b8006033b8000498be000690be001f
:102a840000a020006022b8006033b8000498be00a3
:102a94000690be0000a120006022b8006033b80098
:102aa4000498be000690be0080a120006022b800f9
:102ab4006033b8000498be000690be0080a22000d7
:102ac4006022b8006033b8000498be000690be00cf
:102ad400809620006022b8006033b8000498be00dd
:102ae4000690be00809520006022b8006033b800d4
:102af4000498be000690be00009620006022b80034
:102b04006033b8000498be000690be000098200010
:102b14006022b8006033b8000498be000690be007e
:102b2400009720006022b8006033b8000498be000b
:102b34000690be00809720006022b8006033b80081
:102b44000498be000690be00009220006022b800e7
:102b54006033b8000498be000690be0000912000c7
:102b64006022b8006033b8000498be000690be002e
:102b7400809120006022b8006033b8000498be0041
:102b84000690be00809320006022b8006033b80035
:102b94000498be000690be00809220006022b80017
:102ba4006033b8000498be000690be000093200075
:102bb4006022b8006033b8000498be000690be00de
:102bc400d2a2a8000080fa00000006000000fa006b
:102bd400048120005403be004402be000400be0071
:102be4000601be000080fa00000006000000fa00a2
:102bf400848120005403be004402be000400be00d1
:102c04000601be005a1307000002be000203be0004
:102c14000400be000601be000080fa0000000600a9
:102c24000000fa00048020005403be004402be00e9
:102c34000400be000601be004d1307000002be00e2
:102c44000203be000400be000601be000080fa00bc
:102c5400000006000000fa00881f780004ab200082
:102c64003400be002401be0018c0b3006022b800c6
:102c74000600200097052400e6f70700000278000c
:102c8400e00f520001003c000044eb00e04f540010
:102c94000700320000ab20006022b80006002000cc
:102ca400970524000498be000690be001400370067
:102cb40004ab20003400be002401be0018c0b300e1
:102cc4006022b8000600200097052c00ccf707000e
:102cd40000027800e00f5200010035000044eb00d0
:102ce400e04f54000600320000ab20006022b80020
:102cf4000600200097052c000498be000690be0034
:102d040084ab20003400be002401be0018c0b30010
:102d14006022b8000600200097052400bdf70700d4
:102d240000027800e00f520001003c000044eb0078
:102d3400e04f54000700320080ab20006022b8004e
:102d440006002000970524000498be000690be00eb
:102d54001400370084ab20003400be002401be0000
:102d640018c0b3006022b8000600200097052c00ac
:102d7400a3f7070000027800e00f520001003500bd
:102d84000044eb00e04f54000600320080ab20000a
:102d94006022b8000600200097052c000498be00ad
:102da4000690be004f0478000080fa000000060080
:102db4000200fa00881f7800004f78001e42780055
:102dc400e14f520053003a00049920003400be0041
:102dd4002401be00848720005403be004402be00c8
:102de40018c0b3008bf7070000027800e00f520010
:102df40001003c000044eb00e04f540007003200a7
:102e0400848720005403be004402be0000992000c1
:102e14000498be000690be00930037000499200079
:102e24003400be002401be00848720005403be0089
:102e34004402be0007f0a20018c0b30070f70700f8
:102e440000027800e00f5200010035000044eb005e
:102e5400e04f540008003200848720005403be0071
:102e64004402be0007f0a200009920000498be00ae
:102e74000690be007c003700849820003400be0019
:102e84002401be006022b8006033b8005cf707007c
:102e940000027800e00f520073003a000499200009
:102ea4005403be004402be000400be000601be007e
:102eb40041f807000002be000402780004f0a700f5
:102ec4000402ea00cfa2de000400be0087f8070077
:102ed400849b20005403be004402be0018c0b3000b
:102ee40047f7070000027800e00f520001003500a8
:102ef4000044eb00e04f54005b00320000992000d6
:102f04006022b8006033b8000498be000690be008a
:102f1400550037001e427800e24f520052003a003a
:102f2400849420003400be002401be0004872000e5
:102f34005403be004402be0018c0b30035f70700b6
:102f440000027800e00f520001003c000044eb0056
:102f5400e04f540007003200048720005403be00f1
:102f64004402be00809420000498be000690be0077
:102f74003d003700849420003400be002401be00cc
:102f8400048720005403be004402be0007f0a200e0
:102f940018c0b3001af7070000027800e00f5200cf
:102fa400010035000044eb00e04f540008003200fb
:102fb400048720005403be004402be0007f0a200b0
:102fc400809420000498be000690be0026003700be
:102fd400049420003400be002401be006022b80026
:102fe4006033b80006f7070000027800e00f5200d3
:102ff4001d003a00849420005403be004402be0025
:103004000400be000601be00ebf707000002be008c
:103014000402780004f0a7000402ea00cfa2de0054
:103024000400be0031f80700049b20005403be00d6
:103034004402be0018c0b300f1f607000002780095
:10304400e00f5200010035000044eb00e04f540053
:1030540005003200809420006022b8006033b8007c
:103064000498be000690be004f0478000080fa0069
:10307400000006000000fa00881f7800049f20006a
:103084003400be002401be0018c0b3006022b800a2
:1030940006802c00970a2400def607000002780060
:1030a400e00f520001003c000044eb00e04f5400ec
:1030b40007003200009f20006022b80006802c0028
:1030c400970a24000498be000690be00140037003e
:1030d400049f20003400be002401be0018c0b300c9
:1030e4006022b80006802c00970a2c00c4f6070062
:1030f40000027800e00f5200010035000044eb00ac
:10310400e04f540006003200009f20006022b80007
:1031140006802c00970a2c000498be000690be007e
:1031240084a120003400be002401be0018c0b300f6
:103134006022b80006802c00970a2400b5f6070028
:1031440000027800e00f520001003c000044eb0054
:10315400e04f54000700320080a120006022b80034
:1031640006802c00970a24000498be000690be0036
:103174001400370084a120003400be002401be00e6
:1031840018c0b3006022b80006802c00970a2c00f7
:103194009bf6070000027800e00f520001003500a2
:1031a4000044eb00e04f54000600320080a12000f0
:1031b4006022b80006802c00970a2c000498be00f8
:1031c4000690be004f0478000080fa00000006005c
:1031d4000000fa00889fbe008a9fbe008c1f780002
:1031e400849620003404be002405be00849520008b
:1031f4003400be002401be00a49929009599290039
:103204009699290097fc230013f807000002be00da
:103214000203be001cc0b3000800be000a01be00c9
:1032240077f6070000027800e00f52000100350035
:103234000046eb00e04f560025003200049f2000ba
:103244003400be002401be006022b80006802c00b9
:10325400970a24006af6070000027800e00f520083
:103264000a003200049f20003400be002401be0086
:103274006022b80006802c00970a2c0060f6070034
:1032840000027800e00f520055003a00e4ac200040
:103294003400be002401be001400200005002000fc
:1032a4006033b8000002420081824a0002034b00ee
:1032b40083834b00e0ac20000498be000690be005f
:1032c40014c0b30004407800cdeab70044003700ce
:1032d400849620003404be002405be00849520009a
:1032e4003400be002401be00a49929009599290048
:1032f4009699290097fc2300d7f707000002be0027
:103304000203be001cc0b3000800be000a01be00d8
:103314003bf6070000027800e00f52000100350080
:103324000046eb00e04f56002500320084a1200047
:103334003400be002401be006022b80006802c00c8
:10334400970a24002ef6070000027800e00f5200ce
:103354000a00320084a120003400be002401be0013
:103364006022b80006802c00970a2c0024f607007f
:1033740000027800e00f520019003a00e4ac20008b
:103384003400be002401be0014002000050020000b
:103394006033b8000002420081824a0002034b00fd
:1033a40083834b00e0ac20000498be000690be006e
:1033b40014c0b30004407800cdeab7000800370019
:1033c400e0ac20006022b8006033b8000498be006e
:1033d4000690be000042eb0004407800cdeab7003e
:1033e4004f0678004f05be004f04be000080fa006f
:1033f400000006001000fa00889fbe008a9fbe00ed
:1034040040079800510798006207980073079800d6
:103414008b020700048e20003400be002401be008d
:1034240018c0b300f45b26008513270026ab2b00dd
:10343400570e2400f7f5070000027800e00f520051
:1034440001003c000044eb00e04f54002200320035
:10345400048e20003400be002401be00f45b26006c
:103464008513270026ab2b00570e240022f90700f2
:103474000002be000203be00049fbe000697be0009
:103484006022b80006002000070024003e00be00b1
:103494002e01be00e4f507000002be000203be00d8
:1034a400049fbe000697be00f45b26008513270028
:1034b40026ab2b00570e24003e00be002e01be009a
:1034c400c1f407000002be000203be00049fbe0058
:1034d4000697be0005003700048e20003404be00a9
:1034e4002405be00089fbe000a97be0034982e0033
:1034f400a56c2b00e66a2200f70624003e00be00fd
:103504002e01be0054f707000002be000203be00f5
:10351400808720000498be000690be0084872000a7
:103524003400be002401be00f45b2600851327008e
:1035340026ab2b00570e2400bbf507000002be008b
:103544000203be00808720000498be000690be00df
:10355400848720003400be002401be004e02900087
:10356400de0290006e039000fe0390003af707001d
:103574000002be000203be00808720000498be0043
:103584000690be00848720003400be002401be00e3
:103594006022b8000600200097052400a2f5070069
:1035a4000002be000203be00808720000498be0013
:1035b4000690be00848720003400be002401be00b3
:1035c40018c0b3006022b8006033b8008cf507005f
:1035d40000027800e00f5200010035000044eb00c7
:1035e400e04f540007003200848720005403be00db
:1035f4004402be0007f0a200808720000498be00a9
:103604000690be00848720003400be002401be0062
:1036140018c0b30004ad2600a5d52b0066022b000c
:10362400070724007bf5070000027800e00f520032
:1036340001003c000044eb00e04f5400070032005e
:103644008087200004ad2600a5d52b0066022b0040
:10365400070724000498be000690be004f05be0074
:103664004f04be000080fa00000006000000fa00cb
:10367400881f7800848720003400be002401be0027
:1036840018c0b30034982e00a56c2b00e66a220003
:10369400f70624005af5070000027800e00f5200f4
:1036a400010035000044eb00e04f54008b00320071
:1036b400048e20003400be002401be0018c0b300f4
:1036c4006022b8006033b80052f5070000027800a9
:1036d400e00f520001003c000044eb00e04f5400b6
:1036e4003f003200848720005403be004402be0021
:1036f400809a20000498be000690be00849a2000a0
:103704003400be002401be006022b8000600200080
:1037140047002400d0f607000002be000203be00ea
:10372400809a20000498be000690be00849a20006f
:103734003400be002401be0034982e00a56c2b007a
:10374400e66a2200f706240037f507000002be00ef
:103754000203be00809a20000498be000690be00ba
:10376400848720005403be004402be00809b2000d6
:103774000498be000690be00849b20003400be0066
:103784002401be006022b800060020004700240087
:10379400b1f607000002be000203be00809b2000b9
:1037a4000498be000690be00849b20003400be0036
:1037b4002401be0034982e00a56c2b00e66a22007a
:1037c400f706240018f507000002be000203be003d
:1037d400809b20000498be000690be006500370060
:1037e400848720005403be004402be00809a200057
:1037f4000498be000690be00849a20003400be00e7
:103804002401be006022b800060020004700240006
:1038140091f607000002be000203be00809a200059
:103824000498be000690be00849a20003400be00b6
:103834002401be0034982e00a56c2b00e66a2200f9
:10384400f7062400f8f407000002be000203be00dd
:10385400809a20000498be000690be008487200051
:103864005403be004402be00809b20000498be00a6
:103874000690be00849b20003400be002401be00dc
:103884006022b800060020004700240072f60700fa
:103894000002be000203be00809b20000498be000c
:1038a4000690be00849b20003400be002401be00ac
:1038b40034982e00a56c2b00e66a2200f70624003b
:1038c400d9f407000002be000203be00809b200062
:1038d4000498be000690be0026003700048e200027
:1038e4003400be002401be0018c0b3006022b8003a
:1038f4006033b800c7f4070000027800e00f5200fc
:1039040001003c000044eb00e04f54000d00320085
:10391400809a20006022b80006002000470024009e
:103924000498be000690be00809b20006022b80070
:1039340006002000470024000498be000690be0044
:103944000c003700809a20006022b8000600200096
:10395400470024000498be000690be00809b20000f
:103964006022b80006002000470024000498be002e
:103974000690be004f0478000080fa0000000600a4
:103984000800fa00881f7800009fbe000297be005e
:103994002b01070020c0b300330707000087200075
:1039a400a47d2700153f2c00a666280037062400b6
:1039b4000498be000690be0084a320003400be001c
:1039c4002401be00048720005403be004402be004c
:1039d40021f607000002be000203be00008720009b
:1039e4000498be000690be00048720003400be0088
:1039f4002401be0014662100159f2000462a2f00d2
:103a0400f70c240088f407000002be000203be0085
:103a1400008720000498be000690be0004872000a2
:103a24003400be002401be003e02be002e03be00d0
:103a340009f607000002be000203be000087200052
:103a44000498be000690be00048720003400be0027
:103a54002401be006022b80006002000970524005f
:103a640071f407000002be000203be0000872000bc
:103a74000498be000690be00048720003400be00f7
:103a84002401be0018c0b3006022b8006033b8003f
:103a94005bf4070000027800e00f520001003500db
:103aa4000044eb00e04f540007003200048720007c
:103ab4005403be004402be0007f0a20000872000a9
:103ac4000498be000690be00048720003400be00a7
:103ad4002401be0018c0b30004ad2600a5d52b00f8
:103ae40066022b00070724004af40700000278004e
:103af400e00f520001003c000044eb00e04f540092
:103b0400070032008087200004ad2600a5d52b00d5
:103b140066022b00070724000498be000690be002e
:103b24004f0478000080fa00000006000000fa004c
:103b3400881f7800048720003400be002401be00e2
:103b440018c0b300a47d2700153f2c00a6662800ea
:103b5400370624002af4070000027800e00f520020
:103b6400010035000044eb00e04f54008b003200ac
:103b740084a320003400be002401be0018c0b3009a
:103b84006022b8006033b80022f407000002780015
:103b9400e00f520001003c000044eb00e04f5400f1
:103ba4003f003200048720005403be004402be00dc
:103bb400009a20000498be000690be00049a2000db
:103bc4003400be002401be006022b80006002000bc
:103bd40007012400a0f507000002be000203be0096
:103be400009a20000498be000690be00049a2000ab
:103bf4003400be002401be00a47d2700153f2c0024
:103c0400a66628003706240007f407000002be0059
:103c14000203be00009a20000498be000690be0075
:103c2400048720005403be004402be00009b200011
:103c34000498be000690be00049b20003400be0021
:103c44002401be006022b800060020008700240082
:103c540081f507000002be000203be00009b2000a5
:103c64000498be000690be00049b20003400be00f1
:103c74002401be00a47d2700153f2c00a666280061
:103c840037062400e8f307000002be000203be006a
:103c9400009b20000498be000690be00650037001b
:103ca400048720005403be004402be00009a200092
:103cb4000498be000690be00049a20003400be00a2
:103cc4002401be006022b800060020008700240002
:103cd40061f507000002be000203be00009a200046
:103ce4000498be000690be00049a20003400be0072
:103cf4002401be00a47d2700153f2c00a6662800e1
:103d040037062400c8f307000002be000203be0009
:103d1400009a20000498be000690be00048720008c
:103d24005403be004402be00009b20000498be0061
:103d34000690be00049b20003400be002401be0097
:103d44006022b800060020000701240042f50700a5
:103d54000002be000203be00009b20000498be00c7
:103d64000690be00049b20003400be002401be0067
:103d7400a47d2700153f2c00a666280037062400e2
:103d8400a9f307000002be000203be00009b20004e
:103d94000498be000690be002600370084a32000cd
:103da4003400be002401be0018c0b3006022b80075
:103db4006033b80097f3070000027800e00f520068
:103dc40001003c000044eb00e04f54000d003200c1
:103dd400009a20006022b800060020000701240099
:103de4000498be000690be00009b20006022b8002c
:103df40006002000870024000498be000690be0040
:103e04000c003700009a20006022b8000600200051
:103e1400870024000498be000690be00009b20008a
:103e24006022b80006002000070124000498be00a8
:103e34000690be004f0478000080fa0000000600df
:103e44000000fa00889fbe008a9fbe0064ad200077
:103e540014427800e24f5200d7003a000488200050
:103e64003400be002401be00048920005403be00b7
:103e74004402be00a0f607000002be000203be001a
:103e840000b320000498be000690be008489200080
:103e94003400be002401be00848a20005403be0006
:103ea4004402be0094f607000002be000203be00f6
:103eb40080b320000498be000690be0004b3200026
:103ec4005403be004402be0080b320005001be0073
:103ed4004000be0017f30700e4222300656c2300b2
:103ee400f66a2500470c2400dbf407000002be003c
:103ef4000203be00808f20000498be000690be001e
:103f040054ac200014427800e14f420028003a00eb
:103f1400848f20003400be002401be0018c0b3000a
:103f24006022b8006033b80035f30700000278005f
:103f3400e00f5200010035000044eb00e04f540054
:103f44000e003200848f20003400be002401be0025
:103f5400f4652100159f2000462a2f00f70d240048
:103f640019f207000002be000203be00808f200089
:103f74000498be000690be000d003700848f200018
:103f84003400be002401be00f4652100159f20000a
:103f9400462a2f00f70d240057f607000002be0042
:103fa4000203be00808f20000498be000690be006d
:103fb40004b320003400be002401be0004b320007a
:103fc4005403be004402be00a3f407000002be0076
:103fd4000203be000404be000605be0084b3200034
:103fe4003400be002401be0084b320005403be008c
:103ff4004402be0098f407000002be000203be00a3
:104004000800be000a01be00eff107000002be0076
:104014000203be000400be000601be00e6f5070070
:104024000002be000203be00008e20000498be0001
:104034000690be00048e20003404be002405be0099
:1040440054ac2000144278000402fb00cfa2de002e
:104054000400be0025f407000002be000203be00f7
:104064000800be000a01be007bf407000002be0087
:104074000203be00008e20000498be000690be001d
:10408400008f20006022b8006033b8000498be009e
:104094000690be00848f20003400be002401be00c0
:1040a400849020005403be004402be0012f60700b0
:1040b4000002be000203be000400be000601be00f2
:1040c40018c0b300f4652100159f2000462a2f0074
:1040d400f70d2400cff2070000027800e00f520031
:1040e40001003c000044eb00e04f54000e0032009d
:1040f400848f20003400be002401be00f46521003a
:10410400159f2000462a2f00f70e2400faf5070019
:104114000002be000203be00808f20000498be008f
:104124000690be0024003700848f20003400be00b7
:104134002401be00849020005403be004402be004b
:10414400edf507000002be000203be000400be003d
:104154000601be0018c0b300f4652100159f2000bd
:10416400462a2f00f70d2c00a5f207000002780064
:10417400e00f5200010035000044eb00e04f540012
:104184000d003200848f20003400be002401be00e4
:10419400f4652100159f2000462a2f00f70e240005
:1041a40089f107000002be000203be00808f2000d8
:1041b4000498be000690be004f05be004f04be002a
:1041c4000080fa00000006000000fa0000a62000ab
:1041d4006022b8006033b8000498be000690be00a8
:1041e40080a620006022b8006033b8000498be00a6
:1041f4000690be0080a720006022b8006033b8009b
:104204000498be000690be0080a820006022b8007a
:104214006033b8000498be000690be0000a92000d8
:104224006022b8006033b8000498be000690be0057
:1042340000aa20006022b8006033b8000498be00d1
:104244000690be00008c20006022b8006033b800e5
:104254000498be000690be00808d20006022b80045
:104264006033b8000498be000690be0014c0b300ca
:1042740004407800c4eab7000080fa000000060099
:104284000000fa00809e20006022b8006033b8006d
:104294000498be000690be00009f20006022b80073
:1042a4006033b8000498be000690be0000a0200051
:1042b4006022b8006033b8000498be000690be00c7
:1042c40000a120006022b8006033b8000498be004a
:1042d4000690be0080a120006022b8006033b800c0
:1042e4000498be000690be0080a220006022b800a0
:1042f4006033b8000498be000690be00809620008b
:104304006022b8006033b8000498be000690be0076
:10431400809520006022b8006033b8000498be0085
:104324000690be00009620006022b8006033b800fa
:104334000498be000690be00009820006022b800d9
:104344006033b8000498be000690be0000972000b9
:104354006022b8006033b8000498be000690be0026
:10436400809720006022b8006033b8000498be0033
:104374000690be00009220006022b8006033b800ae
:104384000498be000690be00009120006022b80090
:104394006033b8000498be000690be0080912000ef
:1043a4006022b8006033b8000498be000690be00d6
:1043b400809320006022b8006033b8000498be00e7
:1043c4000690be00809220006022b8006033b800de
:1043d4000498be000690be00009320006022b8003e
:1043e4006033b8000498be000690be000042eb00a3
:1043f40004407800cdeab70024c0b300044078003c
:10440400c4eab7000080fa00000006000000fa00c9
:1044140024c0b30004407800c6eab70044c0b30027
:1044240004407800c7eab70014c0b3000440780021
:10443400c9eab7000080fa00000006000000fa0094
:10444400809520006022b8006033b8000498be0054
:104454000690be00009720006022b8006033b800c8
:104464000498be000690be0064ac2000144278009c
:10447400e24f520036003a0074ac20001442780037
:10448400e44f520032003a0094ac20001442780009
:10449400e14f52002e003200d2a2a900e4ac200069
:1044a4003400be002401be001400200005002000da
:1044b4006033b8000002420081824a0002034b00cc
:1044c40083834b00e0ac20000498be000690be003d
:1044d400a4ac200014427800e14f520005003a00d9
:1044e40044ac200014427800e24f520001003a002c
:1044f40035ff0700e4ac20003400be002401be00f8
:10450400b4122000050020006033b8000400e1006c
:104514000588e1000690e1000798e10004003600f8
:1045240014c0b30004407800c9eab7001b00370088
:10453400a4ac200014427800e24f520016003a0066
:1045440014c0b30004407800c9eab7001300370070
:10455400e4ac20003400be002401be004406200068
:10456400050020006033b8000400e1000588e10084
:104574000690e1000798e1000800360024c0b3006b
:1045840004407800c6eab70044c0b3000440780091
:10459400c7eab700010037000000000094ac200017
:1045a40014427800e14f52000800320064ac20004d
:1045b40014427800e64f52000800320074ac200028
:1045c40014427800e64f52000400320044ac20004c
:1045d40014427800e14f52003b003a0044ac200002
:1045e40014427800e24f520018003a0014ac200044
:1045f40014427800e14f520001003a0031010700f3
:1046040034ac200014427800e14f520001003a001b
:10461400b502070024ac200014427800e14f520098
:104624000a003a0014ac200014427800e14f520012
:1046340001003a004502070034ac2000144278001f
:10464400e14f520001003a006e030700acf8070086
:1046540044ac200014427800e24f520003003a00b8
:104664000040eb00000407000100370022000700af
:1046740078f9070004ab20005403be004402be00d6
:104684000400be000601be004bf207000002be009b
:104694000401be000040eb003e1b070084ab200079
:1046a4005403be004402be000400be000601be0066
:1046b40041f207000002be000401be0010c0b300b6
:1046c400341b07000a003700a4ac20001442780011
:1046d400e14f520006003a006011b8000040eb00c0
:1046e4002c1b07006011b80010c0b300291b070081
:1046f4000080fa00000006000000fa00889fbe0057
:104704008a9fbe00048c20005403be004402be00f5
:1047140000a620000498be000690be00848d2000f0
:104724005403be004402be0080a820000498be00ca
:104734000690be0084a620003400be002401be0002
:1047440004a620005403be004402be001ef007006d
:104754000002be000203be0080a620000498be0032
:104764000690be0004a920003400be002401be004f
:1047740084a820005403be004402be0012f00700c7
:104784000002be000203be0000a920000498be007f
:104794000690be0084a620003400be002401be00a2
:1047a40018c0b3006022b80006002400f7082400f3
:1047b40018f1070000027800e00f520001003c00ed
:1047c4000044eb00e04f54000600320080a62000b5
:1047d4006022b80006002400f70824000498be00f4
:1047e4000690be0004a920003400be002401be00cf
:1047f40018c0b3006022b80006002400f7082400a3
:1048040004f1070000027800e00f520001003c00b0
:104814000044eb00e04f54000600320000a92000e1
:104824006022b80006002400f70824000498be00a3
:104834000690be0084a620003400be002401be0001
:1048440018c0b3006022b80006002400f7082c004a
:10485400ebf0070000027800e00f52000100350081
:104864000044eb00e04f54000600320080a6200014
:104874006022b80006802c00970a2c000498be0021
:104884000690be0004a920003400be002401be002e
:1048940018c0b3006022b80006002400f7082c00fa
:1048a400d7f0070000027800e00f52000100350045
:1048b4000044eb00e04f54000600320000a9200041
:1048c4006022b80006002400f7082c000498be00fb
:1048d4000690be0004a620003400be002401be00e1
:1048e40084eb210055b82e0016852b00e7fa23002f
:1048f40059f207000002be000203be000404be0019
:104904000605be0084a620003400be002401be00bb
:10491400c49f2a00152f2d00d624260007f8230053
:104924004df207000002be000203be000800be00f4
:104934000a01be00a4ef07000002be000203be008d
:104944000404be000605be0004a620003400be0018
:104954002401be0084a720005403be004402be000c
:10496400e5f307000002be000203be000400be001f
:104974000601be006022b8000600200087ff230065
:1049840035f207000002be000203be000800be00ac
:104994000a01be008cef07000002be000203be0045
:1049a40000ab20000498be000690be0084a820003e
:1049b4003400be002401be0084eb210055b82e0053
:1049c40016852b00e7fa230023f207000002be003d
:1049d4000203be000404be000605be0004a92000b4
:1049e4003400be002401be00c49f2a00152f2d00f0
:1049f400d624260007f8230017f207000002be00a1
:104a04000203be000800be000a01be006eef0700ec
:104a14000002be000203be000404be000605be0080
:104a240084a820003400be002401be0004aa200093
:104a34005403be004402be00aff307000002be00f0
:104a44000203be000400be000601be006022b800de
:104a54000600200087ff2300fff107000002be00cc
:104a64000203be000800be000a01be0056ef0700a4
:104a74000002be000203be0080ab20000498be000a
:104a84000690be0004a620005403be004402be00eb
:104a940080a720000498be000690be0084a82000d1
:104aa4005403be004402be0000aa20000498be00c5
:104ab4000690be004f05be004f04be000080fa0001
:104ac400000006000000fa00881f7800dcfc0700e4
:104ad40010c0b300e40207000002be000203be00df
:104ae40080b120000498be000690be0054ac2000a3
:104af400144278000402fb00cfa2de000400be00d2
:104b04007af1070084b120005403be004402be00c1
:104b1400d1f107000002be000203be000400be0083
:104b24000601be0018c0b3005491230035722a0058
:104b3400360324006706240036f0070000027800dc
:104b4400e00f520001003c000044eb00e04f540031
:104b5400ef00320054ac2000144278000402fb0041
:104b6400cfa2de000400be0060f1070084b1200083
:104b74005403be004402be00b7f107000002be00a9
:104b84000203be000400be000601be0018c0b3004c
:104b94004458200015cb260006c32d00470a2400e4
:104ba40017f0070000027800e00f52000100350002
:104bb4000044eb00e04f54001e00320024c0b30058
:104bc40004407800c3eab700049c20003400be000f
:104bd4002401be00849d20005403be004402be0094
:104be40018c0b3000bf0070000027800e00f520079
:104bf40001003c000044eb00e04f54000d00320083
:104c040024c0b30004407800c1eab70024c0b30054
:104c140004407800c3eab70044c0b30004407800fd
:104c2400c7eab70024c0b30004407800c6eab7005e
:104c3400c3003700a4ac200014427800e24f5200b5
:104c440021003a0054ac2000144278000402fb0016
:104c5400cfa2de000400be0024f1070084b12000ce
:104c64005403be004402be007bf107000002be00f4
:104c74000203be000400be000601be0018c0b3005b
:104c8400546e2400d57d2800c6332100a70c2400cf
:104c9400dbef070000027800e00f5200010035004e
:104ca4000044eb00e04f54000700320024c0b3007e
:104cb40004407800c6eab70044c0b300044078005a
:104cc400c7eab7009e00370064c0b3000440780010
:104cd400c7eab70084b120003400be002401be003e
:104ce40018c0b3006022b8006033b800c9ef0700f1
:104cf40000027800e00f520001003c000044eb0089
:104d0400e04f540013003200848720005403be0097
:104d14004402be00809820000498be000690be00a5
:104d2400049920003400be002401be00849b2000ae
:104d34005403be004402be00bbef07000002be00e5
:104d44000203be0000b220000498be000690be001c
:104d54002000370084b120003400be002401be00ce
:104d640018c0b3006022b8006033b800a4ef070095
:104d740000027800e00f5200010035000044eb000f
:104d8400e04f540013003200848720005403be0017
:104d94004402be0007f0a200809820000498be00e0
:104da4000690be00049920003400be002401be0019
:104db400849a20005403be004402be009aef070008
:104dc4000002be000203be0000b220000498be0030
:104dd4000690be00a4ac200014427800e14f5200bb
:104de40057003a0084b120003400be002401be0004
:104df400049920005403be004402be008aef070059
:104e04000002be000203be0080b220000498be006f
:104e14000690be0004b220003400be002401be008f
:104e240018c0b3006022b8006033b80074ef070004
:104e340000027800e00f5200010035000044eb004e
:104e4400e04f54000700320004b220005403be00b7
:104e54004402be0007f0a20000b220000498be0085
:104e64000690be0084b220003400be002401be00bf
:104e740018c0b3006022b8006033b80060ef0700c8
:104e840000027800e00f5200010035000044eb00fe
:104e9400e04f54000700320084b220005403be00e7
:104ea4004402be0007f0a20080b220000498be00b5
:104eb4000690be0004b220003400be002401be00ef
:104ec40084b220005403be004402be0018c0b300e4
:104ed40050ef070000027800e00f520001003c0090
:104ee4000044eb00e04f54001500320064c0b300ee
:104ef40004407800cceab700809820006022b80013
:104f04006033b8000498be000690be000c00370061
:104f140044c0b30004407800c7eab70024c0b3001b
:104f240004407800c1eab70024c0b300044078000c
:104f3400c3eab70024c0b30004407800c6eab7004f
:104f44004f0478000080fa00000006000000fa0018
:104f5400881f7800c4ac200014427800e74f520048
:104f640009003200049420003400be002401be0075
:104f74006022b8006033b80021ef07000002780017
:104f8400e00f520037003a00049920003400be00bc
:104f94002401be00849820005403be004402be00d5
:104fa40018c0b30016ef070000027800e00f5200ab
:104fb400010035000044eb00e04f54000d003200c6
:104fc400049920003400be002401be00849a20000d
:104fd4005403be004402be00fbed07000002be0005
:104fe4000203be00009920000498be000690be0093
:104ff4001a003700049920003400be002401be00ca
:10500400849820005403be004402be0018c0b300bc
:1050140000ef070000027800e00f520001003c009e
:105024000044eb00e04f54000c00320004992000cf
:105034003400be002401be00849b20005403be0043
:105044004402be002cf207000002be000203be00b0
:10505400009920000498be000690be0010c0b30062
:1050640053f7070034ac200014427800e14f52009b
:1050740002003a0030c0b3007b0107008495200091
:105084003400be002401be00049920005403be0075
:105094004402be00cced07000002be000203be00c5
:1050a400809520000498be000690be00049720005e
:1050b4003400be002401be00049920005403be0045
:1050c4004402be00c0ed07000002be000203be00a1
:1050d400009720000498be000690be004f0478009c
:1050e4000080fa00000006000000fa00881f780023
:1050f40020c0b3005c0107000002be000203be0032
:1051040000b020000498be000690be0004b0200049
:105114003400be002401be0018c0b300d427200010
:10512400954a2e00c6cb220027042400b9ee0700be
:1051340000027800e00f520001003c000044eb0044
:10514400e04f54000f003a0004b020003400be00c9
:105154002401be0018c0b300d4272000954a2e00b5
:10516400c6cb220027042c00a5ee0700000278001d
:10517400e00f5200010035000044eb00e04f540002
:105184009200320064c0b30004407800c6eab7005d
:1051940004b020003400be002401be0018c0b300d7
:1051a4006022b8006033b8009aee0700000278006d
:1051b400e00f520001003c000044eb00e04f5400bb
:1051c40013003200048720005403be004402be00d2
:1051d400009420000498be000690be008494200031
:1051e4003400be002401be00049b20005403be0012
:1051f4004402be008cee07000002be000203be00a3
:1052040080b020000498be000690be002000370045
:1052140004b020003400be002401be0018c0b30056
:105224006022b8006033b80075ee07000002780011
:10523400e00f5200010035000044eb00e04f540041
:1052440013003200048720005403be004402be0051
:1052540007f0a200009420000498be000690be004f
:10526400849420003400be002401be00049a20006f
:105274005403be004402be006bee07000002be00f1
:105284000203be0080b020000498be000690be0059
:1052940004b020003400be002401be008494200029
:1052a4005403be004402be005fee07000002be00cd
:1052b4000203be0000b120000498be000690be00a8
:1052c40084b020003400be002401be0018c0b30026
:1052d4006022b8006033b80049ee0700000278008d
:1052e400e00f5200010035000044eb00e04f540091
:1052f4000700320084b020005403be004402be0004
:1053040007f0a20080b020000498be000690be0002
:1053140004b120003400be002401be0018c0b30054
:105324006022b8006033b80035ee07000002780050
:10533400e00f5200010035000044eb00e04f540040
:105344000700320004b120005403be004402be0032
:1053540007f0a20000b120000498be000690be0031
:1053640084b020003400be002401be0004b120003b
:105374005403be004402be0018c0b30025ee07006b
:1053840000027800e00f520001003c000044eb00f2
:10539400e04f54001800320084ac2000144278001e
:1053a400e04f520003003a0064c0b30004407800a8
:1053b400cbeab700009420006022b8006033b80044
:1053c4000498be000690be000b00370080942000b5
:1053d4006022b8006033b8000498be000690be0096
:1053e40024c0b30004407800c6eab70074c0b30018
:1053f40004407800cbeab7004f0478000080fa003c
:10540400000006000000fa00881f7800b4ac2000f9
:1054140014427800e74f520009003200049420003f
:105424003400be002401be006022b8006033b8001e
:10543400f3ed070000027800e00f520037003a0055
:10544400849420003400be002401be000494200093
:105454005403be004402be0018c0b300e8ed0700c8
:1054640000027800e00f5200010035000044eb0018
:10547400e04f54000d003200849420003400be003c
:105484002401be00049a20005403be004402be005e
:10549400cdec07000002be000203be008094200091
:1054a4000498be000690be001a00370084942000c1
:1054b4003400be002401be00049420005403be0046
:1054c4004402be0018c0b300d2ed07000002780009
:1054d400e00f520001003c000044eb00e04f540098
:1054e4000c003200849420003400be002401be006d
:1054f400049b20005403be004402be00fef00700db
:105504000002be000203be00809420000498be0086
:105514000690be0020c0b30025f607008495200045
:105524003400be002401be00849420005403be0055
:105534004402be00a4ec07000002be000203be0049
:10554400809520000498be000690be0004972000b9
:105554003400be002401be00849420005403be0025
:105564004402be00e4f007000002be000203be00d5
:10557400009720000498be000690be004f047800f7
:105584000080fa00000006000000fa0000822000fb
:10559400a4992900959929009699290097fe23003a
:1055a4000498be000690be008082200084eb210097
:1055b40055b82e0016852b00e7f923000498be0089
:1055c4000690be0000832000a49929009599290023
:1055d4009699290097fc23000498be000690be000b
:1055e400008520006022b8000600200007ff230089
:1055f4000498be000690be00808520006022b8009a
:105604006033b8000498be000690be0000862000f7
:105614006022b8006033b8000498be000690be0053
:10562400808320006022b8000600200007ff2300ca
:105634000498be000690be00008420006022b800da
:105644006033b8000498be000690be008084200039
:105654006022b8006033b8000498be000690be0013
:105664000080fa00000006000200fa00889fbe00d5
:105674008a9fbe00004f78001e427800e04f52001f
:10568400a7003a00849520003400be002401be0027
:10569400849620005403be004402be0096f0070026
:1056a4000002be000203be00809e20000498be00db
:1056b4000690be00049f20003400be002401be00fa
:1056c400849e20005403be004402be003eec07004a
:1056d4000002be000203be00009f20000498be002a
:1056e4000690be00049720003400be002401be00d2
:1056f400049820005403be004402be007ef007005c
:105704000002be000203be0000a120000498be00f7
:105714000690be0084a120003400be002401be0017
:1057240004a120005403be004402be0026ec07007e
:105734000002be000203be0080a120000498be0047
:105744000690be004bf60700a1f60700849e2000d9
:105754003400be002401be00048220005403be00b5
:105764004402be00bcee07000002be000203be00fd
:105774000404be000605be00049f20003400be00e1
:105784002401be00848220005403be004402be00f3
:10579400b1ee07000002be000203be000800be0016
:1057a4000a01be0008ec07000002be000203be00ae
:1057b4000404be000605be00849e20003400be0022
:1057c4002401be0004a020005403be004402be0015
:1057d40049f007000002be000203be000400be0040
:1057e4000601be00048320005403be004402be0030
:1057f40099ee07000002be000203be000800be00ce
:105804000a01be00f0eb07000002be000203be0066
:1058140000ab20000498be000690be0004a1200046
:105824003400be002401be00048220005403be00e4
:105834004402be0088ee07000002be000203be0060
:105844000404be000605be0084a120003400be008e
:105854002401be00848220005403be004402be0022
:105864007dee07000002be000203be000800be0079
:105874000a01be00d4eb07000002be000203be0012
:105884000404be000605be0004a120003400be00ce
:105894002401be0084a220005403be004402be00c2
:1058a40015f007000002be000203be000400be00a3
:1058b4000601be00048320005403be004402be005f
:1058c40065ee07000002be000203be000800be0031
:1058d4000a01be00bceb07000002be000203be00ca
:1058e40080ab20000498be000690be00849e200079
:1058f4005403be004402be0000a020000498be0071
:105904000690be0004a120005403be004402be0061
:1059140080a220000498be000690be001801370043
:105924001e427800e14f520028003a00048e200005
:105934003400be002401be00048f20005403be00c6
:105944004402be00ecef07000002be000203be00ea
:10595400009c20000498be000690be00849c200099
:105964003400be002401be00049c20005403be0089
:105974004402be0094eb07000002be000203be0016
:10598400809c20000498be000690be00049c200069
:105994005403be004402be0000af20000498be00c1
:1059a4000690be00049c20005403be004402be00c6
:1059b400809d20000498be000690be0004af200025
:1059c4005403be004402be00ef0037001e427800bc
:1059d400e24f52008f003a00848f20003400be0052
:1059e4002401be00849020005403be004402be0083
:1059f400c1ef07000002be000203be0080a3200026
:105a04000498be000690be000d00370084a3200059
:105a14003400be002401be00f4652100159f20005f
:105a2400462a2f00f70e2400b3ef07000002be0041
:105a34000203be0080a320000498be000690be00ae
:105a440084a320003400be002401be0018c0b300ab
:105a5400f4652100159f2000462a2f00f70d24002d
:105a64006cec070000027800e00f520001003c00db
:105a74000044eb00e04f5400e4ff3a000d0037000f
:105a840084a320003400be002401be00f46521007c
:105a9400159f2000462a2f00f70e24004aeb07002a
:105aa4000002be000203be0080a320000498be00d2
:105ab4000690be0084a320003400be002401be0072
