:020000040000fa
:080000000002040000000000f2
:020000040000fa
:100008005204000052040000520400005204000090
:100018005204000052040000520400005204000080
:100028005204000052040000520400009a0200002a
:100038005204000052040000520400005204000060
:10004800fc0200005204000052040000d00300002b
:100058005204000052040000520400005204000040
:100068005204000052040000520400005204000030
:100078005204000052040000520400005204000020
:10008800520400005204000052040000380300002b
:100098005e030000520400001a0400003c04000043
:1000a80052040000520400005204000052040000f0
:1000b80052040000520400005204000052040000e0
:1000c80052040000520400005204000052040000d0
:1000d80052040000520400005204000052040000c0
:1000e80052040000520400005204000052040000b0
:1000f80052040000520400005204000052040000a0
:100108005204000052040000800300005204000062
:10011800520400005204000052040000520400007f
:10012800520400005204000052040000520400006f
:10013800520400005204000052040000520400005f
:10014800520400005204000052040000a8030000fa
:10015800520400005204000052040000520400003f
:10016800520400005204000052040000520400002f
:10017800520400005204000052040000520400001f
:10018800520400005204000052040000520400000f
:1001980052040000520400005204000052040000ff
:1001a80052040000520400005204000052040000ef
:1001b80052040000520400005204000052040000df
:1001c80052040000520400005204000052040000cf
:1001d80052040000520400005204000052040000bf
:1001e80052040000520400005204000052040000af
:0801f800520400005204000053
:020000040000fa
:10020800520400005204000052040000520400008e
:10021800520400005204000052040000520400007e
:100228005204000052040000520400009a02000028
:10023800520400005204000052040000520400005e
:10024800fc0200005204000052040000d003000029
:10025800520400005204000052040000520400003e
:10026800520400005204000052040000520400002e
:10027800520400005204000052040000520400001e
:100288005204000052040000520400003803000029
:100298005e030000520400001a0400003c04000041
:1002a80052040000520400005204000052040000ee
:1002b80052040000520400005204000052040000de
:1002c80052040000520400005204000052040000ce
:1002d80052040000520400005204000052040000be
:1002e80052040000520400005204000052040000ae
:1002f800520400005204000052040000520400009e
:100308005204000052040000800300005204000060
:10031800520400005204000052040000520400007d
:10032800520400005204000052040000520400006d
:10033800520400005204000052040000520400005d
:10034800520400005204000052040000a8030000f8
:10035800520400005204000052040000520400003d
:10036800520400005204000052040000520400002d
:10037800520400005204000052040000520400001d
:10038800520400005204000052040000520400000d
:1003980052040000520400005204000052040000fd
:1003a80052040000520400005204000052040000ed
:1003b80052040000520400005204000052040000dd
:1003c80052040000520400005204000052040000cd
:1003d80052040000520400005204000052040000bd
:1003e80052040000520400005204000052040000ad
:0803f800520400005204000051
:020000040000fa
:100400006fb521000e7f24000e018800000000005f
:10041000000020000000e000020032000001200087
:10042000200288000c00070020fe290001002000a7
:1004300011000700000020000000e0000200320070
:100440000000020000000000b49e02000000000056
:100450000040da000000fe004440a90080082000af
:100460000000e0000300320000002000a00188002e
:100470004440a80000000600910188008000780038
:100480000000eb0015003700e280400032a0b4000d
:100490009101ba00e280400032a0b4009102ba009b
:1004a000e280400032a0b4000002eb00472bde00e7
:1004b000f507b200602ce10004003a000059eb009f
:1004c0008301e900fdff3e00040037006128e100e0
:1004d000010032000082eb00040007001101ba00a5
:1004e0000200e000e8ff3a00000006003159ba00bf
:1004f0008301e9000c0032002159ba008301e900b0
:10050000080032000400e00003003a00e2804000ee
:1005100032a0b400f5ff370011d9ba008301e90019
:10052000faff3a008100e800e180400032a0b40008
:10053000000006003600f800809fbe00829fbe00cb
:10054000849fbe00869fbe000000fa008460a90060
:1005500063390700e48e210014427800e14f520015
:1005600001003a00dd32070064da80000402e8008e
:1005700064da880065da800044062000848f520027
:1005800015003a0094da8000e10f520003003a00af
:100590000002eb0094da880002003700140020000b
:1005a00094da880094da80000442780061426200a4
:1005b0000482fb00610262004322dd001616800007
:1005c00075ff2f0085026300050272001416880073
:1005d0000002eb0064da8800000000000080fa00ee
:1005e0004f03be004f02be004f01be004f00be00d1
:1005f0003600f900004006003600f800809fbe007b
:10060000829fbe00849fbe00869fbe000000fa004d
:10061000d2a2a90094e0a9009460a9009760a90063
:100620009780a9009b40a9009d60a9001fe1a90037
:1006300005e1a90011e1a90021e1a9006022b800ab
:100640006033b8000040eb00834b07006022b80025
:100650006033b80010c0b3007f4b07006022b800c1
:100660006033b80020c0b3007b4b0700ffff3700aa
:100670003600f800809fbe00829fbe00849fbe00af
:10068000869fbe000000fa001fe1a900ef480700a6
:100690000002eb00a40888008760a9001fe1a80001
:1006a0000080fa004f03be004f02be004f01be00a3
:1006b0004f00be003600f900004006003600f8008a
:1006c000809fbe00829fbe00849fbe00869fbe00aa
:1006d0000000fa0021e1a900e64907008780a9008f
:1006e00021e1a8000080fa004f03be004f02be00c7
:1006f0004f01be004f00be003600f900004006006a
:10070000801f7800849fbe000000fa008b40a90083
:10071000050f80000480200004826200e00f520078
:100720000400320044d880000402e80044d8880065
:100730000300370044d880000402e90044d8880050
:100740000080fa004f02be004f0078000040060013
:10075000801f7800849fbe000000fa008d60a90011
:10076000850f80000480200004826200e00f5200a8
:100770000400320054d880000402e80054d88800f5
:100780000300370054d880000402e90054d88800e0
:100790000080fa004f02be004f00780000400600c3
:1007a000801f7800849fbe00861f78000200fa0038
:1007b0009560a9008560a90034118000044f78007d
:1007c000a4b4210014427800614262000482fb005c
:1007d000610262004522dd0096168000f5fd2f00c3
:1007e000850263000502720094168800a4b42100fb
:1007f00014427800e04f520005003a0014c0b300e4
:100800000002fd004afbb7000002fd0003003700b4
:100810000042eb00040078004afbb7009560a80096
:100820000080fa004f0378004f02be004f007800ae
:10083000004006003600f800809fbe00829fbe0088
:10084000849fbe00869fbe000000fa0097c0a900ea
:1008500087c0a9000d42070097c0a8000080fa00d9
:100860004f03be004f02be004f01be004f00be004e
:100870003600f90000400600801f7800841f7800d1
:100880000000fa0087e0a90014c0b300040078005b
:1008900080f9b7000080fa004f0278004f0078001e
:1008a000004006000040da000000fe002800fa00c8
:1008b000889fbe008a9fbe008c9fbe0007067800fe
:1008c000878669000c003b000304780087047800e9
:1008d00008f0a10009f0a100840f5000858f580096
:1008e000860f5900890f5c00030033000cf0a20052
:1008f00001003a000cf0a100b00107006400e10023
:100900005f003200780147006408e10061003200b6
:100910006c014700748557003200be001201be0012
:100920003a04be001a05be001e039000be0a9000e5
:100930008503530006003d000004fd008104fd0016
:100940000205fd008305fd008703ea00050378002a
:100950000df8a3000400320060041400e0841c00c1
:1009600060051d00e0851d006022b8007d032000a9
:100970000d38e1008006eb000b0039004433dd0048
:10098000f300b200830173003900370084827200e3
:100990000d027800e10664008b85d1000a85d30042
:1009a0008984d3000884d3008703e900f7ff3b0064
:1009b00008004000898048000a0149008b814900f5
:1009c00004003b0060001000e08018006001190086
:1009d000e08119000358a300090032008d827200e3
:1009e00084827200610260008301d1000281d30021
:1009f0008180d3000080d3000603e8001b0037008d
:100a00000348a30017003a000600e0001700340076
:100a10000603e9000d00a3000000480081804800a3
:100a200002014900838149000348a3000f003a00f6
:100a30000600e000090034000603e9000000400061
:100a400081804800020149008381490001003a0089
:100a50000003eb000348a300f5ff32006022b8005a
:100a6000020037008482720061826600150107006f
:100a700003f0a1000cf0a70003f0a0006301370011
:100a8000640147006408e10002003a000df8a30089
:100a90005b013a003200be001201be005b0137006c
:100aa00003f0a200889fbe008a9fbe008c1f7800c2
:100ab000340207003b0233006450e1004f00320073
:100ac0006420e1005200320003826c0007003b000a
:100ad0000905d0000306d000820f54000c065d000b
:100ae0000200390002003200890178000306780014
:100af0008582550004003d000003fd008103fd00d8
:100b00008502ea008b854200840f720002003b00e0
:100b100060001000e08018006011b8000005eb00d4
:100b20007a28e1000a00390006007800c75ddd0080
:100b3000f707b200878075002d00370082817100b1
:100b40000a017800610560008180d1000080d30037
:100b50008502e900f9ff3b00060440008784480055
:100b600002003b0060041400e0841c000988a3001c
:100b7000070032008a817100828171006101640086
:100b80008904d1000884d3008b05e80017003700e2
:100b90000978a30013003a000b00e00013003400b2
:100ba0008b05e9000804440089844c000a44740061
:100bb0000978a3000d003a000b00e00007003400a4
:100bc0008b05e9000804440089844c0001003a00c8
:100bd0000b0020000978a300f7ff32000001eb00b2
:100be00002003700828171000a017800aa01070023
:100bf0000cf0a70001f0a000f30137006420e10031
:100c000002003a00838f6c00f30133000801be003c
:100c10000200be00ec0137000000fa00889fbe0011
:100c20008a9fbe008c9fbe000404be000605be0065
:100c3000d0000700040678000c78a30020003a00da
:100c40000800fd008900fd000a01fd008b01fd0088
:100c5000c8000700840678000d78a30018003a0049
:100c60000d0666006460e100190032006160e10079
:100c7000170032000002be000203be000a01be00df
:100c80000800be00070478002000070003f0a10060
:100c9000cd04070008f0a6000600370003f0a2000c
:100ca00097002400b61f22004544250084d122006d
:100cb000fefe07000bf0a70003f0a200d3003700f0
:100cc00018022000a8da88000330a000cf00370007
:100cd00018022000a8da8800c90037000002eb00e3
:100ce0006b0237008f1fd1006d0507008f87e90069
:100cf0000000e00000000600809feb006805070090
:100d00008f87e9000000e000000006002800fa00dc
:100d1000889fbe008a9fbe008c9fbe0003866b002a
:100d2000a60007006400e100440032006408e1000e
:100d30004a0032006100e100460032006108e10033
:100d400049003200ec0647006000b8003d02be00da
:100d50003d03be00f48657006011b8003d04be009c
:100d60003d05be007d0320000b0037000000a00001
:100d70008d06e900130032000402420085824a0019
:100d800006034b0087834b00000040008180480031
:100d900002014900838149000802520089825a00f9
:100da0000a035b008b835b00f0ff3b0008024200fc
:100db00089824a000a034b008b834b008d06e900b1
:100dc000edff3a008482720086827200f707b2005b
:100dd0008782720001003200150020001e0490007e
:100de0003e0b900006035400e63fb0000368a300ea
:100df000070032000000a7000500a0008301d10019
:100e00000281d3008180d3000080d3000603e80074
:100e10008301d1000281d3008180d3000080d30000
:100e20000002eb000482d2002600070003f0a100bc
:100e30000cf0a70003f0a000740037006402470024
:100e40006408e1006e0032003400be003401be00d0
:100e5000f6ff37006108e100690032006011b80058
:100e60006000b800f1ff370003ff270002002000f8
:100e7000fbff3700839f68000100e00002003d0097
:100e800060001000e08018000300e00002003d0058
:100e900060011100e0811900270307004f00e00006
:100ea00002003b0060001000e08018000000060017
:100eb000801feb00fa0407008f87e9000000e000c4
:100ec000000006001800200057002000080453000e
:100ed0000d003d000600200097fc2f000740e100b8
:100ee0001e00340084827200610260008301d10020
:100ef0000281d3008180d3000080d3000804e80081
:100f0000f8ff3a0047002000610460000504740007
:100f1000040464000d00320061004000e0804800dd
:100f200060014900e081490003b8a50007003200d4
:100f30000603e8006538e10004003a008301d100af
:100f40000281d3008180d3000080d300f87f20008d
:100f50000830e10003003500080378006000b800a5
:100f60006011b8004433dd00f300b2008301730068
:100f70000000060005ff270005826100070032001f
:100f80000428e100010032002400050006000700eb
:100f900001003a00440005000408050002000700b3
:100fa000f9ff3a00140005006f82610081027000b1
:100fb0008502710085027200000006006804470087
:100fc0000294be000094be00fc0447008694be005c
:100fd0008494be0009007800e80407000800780047
:100fe000e604070099007800814f70000b003b0079
:100ff0000800be00d30407004f00b1000300370013
:10100000f3ff2700f2ff2f006110b9004f06be006a
:101010004f05be004f04be000080fa00000006002d
:1010200081037800c20007000001be006000b80024
:101030000478a30013003a006220e10015003e008e
:101040000d0039008301d1000281d3008180d300db
:101050008301d1000281d3008180d3008301d100bc
:101060000281d3008180d3000538b000c42add009e
:10107000f300b2008381720007f0a70003f0a00024
:1010800000000600f3ff2700f2ff2f006110b900f7
:10109000fbff370003ff2700f7ff37001400200095
:1010a000dd043700f4ff2f00db0437001400fa00e2
:1010b000889fbe008a9fbe008c9fbe000004be00b9
:1010c0000205be00680047000a90be000890be00fe
:1010d000aa0407000070a7000bf0a1003043200015
:1010e0009e02900080825200b0fe2f000028e10096
:1010f00011003d00b0fc2f000028e1001500340075
:101100001e0990008e0890007e0090000501b0003e
:101110000201d1008180d3000080d3008502e80065
:10112000fbff3a000b00e000b8ff3b00600010003e
:10113000e0801800b5ff3700f0ff2f00f1ff270017
:101140000b00e000b1ff3b00010028000000200080
:10115000aeff37006000b800acff37000001be00f2
:10116000730007000470a70003f0a1006509b10037
:10117000160032000d0035006828e1000600350039
:10118000f0ff2f00f1ff27000300e00013003b00f9
:101190000100280000000500000040008180480098
:1011a0008502e900fcff3a0008003700f88f420092
:1011b00002003c008000eb00000005008100d1002f
:1011c0000080d3008502e800fcff3a000300e00045
:1011d00002003b0060001000e080180000000600e4
:1011e0001400fa00889fbe008a9fbe008c9fbe003c
:1011f0000004be000205be00680047000a90be0061
:101200000890be005d0407000070a7000bf0a1006d
:101210000bf8a30016003a009e0290003043200015
:1012200080825200b0fe2f000028e1000d003c003b
:10123000b0fc2f000028e1000d0034001e099000d2
:101240008e0890007e0090000501b0000201d100e0
:101250008180d3000080d3008502e800fbff3a00c4
:101260006aff3700010028000000200067ff3700f8
:101270006000b80065ff37004f89de00820178000a
:10128000800437004f89de00820178008d0437002a
:101290006011b8009b043700810020006180550078
:1012a0000b003d000b00200061fe2f000100e1005b
:1012b0001d00340082817100610164008904d10045
:1012c0000884d3000000e800faff3a007100200013
:1012d0006100640003007000020060000900320039
:1012e00061044400e0844c000988a5000500320038
:1012f0008b05e8006808e10002003a008904d1008b
:101300000884d300f20f20000258e10005003d00e0
:10131000c75ddd00f907b20089807500080078001c
:10132000000006000bf827008b0078000000050085
:10133000c70ade00f107b200f50fb2000800320064
:10134000e1cf4200020032000170a000240005003d
:10135000810f700001003200040805004400050000
:10136000810f700002003a00140005008502e900b8
:101370000000400081c04800fcff3b000170a0005d
:10138000240005000004be00e9ff07000003be00c2
:101390000405be000200be00e5ff0700844f750093
:1013a000000006000200be006450e10005003600a7
:1013b0006420e100020036000968a30001003a0041
:1013c0000800be000160a0004f0678004f05be0077
:1013d0004f04be0000000600f0ff2f00f1ff2700c1
:1013e000f9ff37002800fa00889fbe008a9fbe00e0
:1013f0008c9fbe0003866b00f0fe07000028a30050
:1014000064003a000128a30067003a000008a30026
:1014100062003a000108a30065003a001e00900037
:10142000be08900081064000ed3fb100f4805700f7
:10143000ee019000111ab8008e099000311bb8001f
:101440009e099000311cb800511db800f48557006a
:1014500046000700fe0190003a0007008b85e80077
:101460003e0007008e09900040000700ee0190004a
:10147000340007008b85e800380007008e099000d3
:10148000400007009e0990001b18b8008904400026
:101490000a854800fe019000340007008b85e800b3
:1014a00038000700ee019000300007008e09900020
:1014b0001b18b800890440000a8548000a98a30058
:1014c00008003a000402420085824a0006034b00ed
:1014d00087834b0008044c0089844c000a054d00aa
:1014e0008d06e90084827200850273004c3add00ab
:1014f000850272000100320015002000443ade002f
:101500001400b2004538de00cb45dd000b00700052
:10151000c540de00cb4ddd008b8070004549de000c
:10152000cb55dd000b017100c551de000d037800c5
:1015300064fe070003f0a1000cf0a70003f0a00078
:10154000b2fe37001b18b800850240000683480031
:10155000e0834b0060044c00070037001b18b80004
:101560000603400087834800faff37001b18b800c5
:101570008703400008844800e0844c0060054d006b
:10158000000006001b18b8000804400089844800c9
:10159000faff37000108a30099fe3a005800be0088
:1015a0005801be00e3ff37000008a30094fe3a0094
:1015b00009047800f9ff3700889fbe008a9fbe00ab
:1015c0008c1f78006fff070076ff330003866c00e6
:1015d0006450e100240032006420e1002700320062
:1015e0006150e100220032006120e1002100320060
:1015f0008b854200eb07b1000134b800003ab80017
:101600000804420089844a00013ab8000030b8005a
:101610008880400009014a000400330000004000b7
:1016200081804800020149008b05e900c909dd00fd
:10163000830170000100320013002000c814de0096
:101640004814dd004709de001200b200c808de00c1
:101650000884700010ff070001f0a1000cf0a70043
:1016600001f0a00058ff37006120e1005aff32006e
:101670000801be000200be00f7ff37006150e10024
:10168000fcff3a0054ff3700140020000000370030
:101690000800fa00889fbe008a9fbe008c9fbe0093
:1016a000040678000004be000205be0031fe0700fb
:1016b0006420e1009f003e009b0032006120e100b9
:1016c0009600320003f0a100171b240036582c00ae
:1016d00005a021000400200082fd07000800be00d4
:1016e0000a01be000700350097012400b61f220042
:1016f0004544250084d12200dc0307000004be001d
:101700000205be008006eb000c00a700cf1ede0025
:1017100003f0a1000bf0a10047fd230006f3250014
:1017200095dc260034882c002eff07006022b800cc
:101730000003eb0007fe23000c00a60007ff2300b8
:101740005afc070059fe07000000a7000d00a20088
:10175000c9fe07000c00e00004003a0007fe230069
:10176000060020006022b800c600070003f0a200b7
:10177000009fbe000297be009700240006002200d2
:101780006022b80017ff07000802be000a03be006f
:1017900046fc0700809fbe00829fbe003e00be0048
:1017a0002e01be00f7f4230046542b00152d240013
:1017b000a44628000bff07004f03be004f02be00e7
:1017c0003afc07000004be000205be0003f0a100c1
:1017d00067e42300e6092a00f5672600d4bc23004d
:1017e00040fd07000800be000a01be0048003500a9
:1017f0000002be000203be00fafe0700009fbe000a
:101800000297be0087ce2300f60f280035992600e8
:1018100054f92d00f3fe0700a7d62b0006422e0038
:1018200085c02d00c499240020fc07003e02be00a4
:101830002e03be00ebfe070067de2300c623210057
:10184000a586260004432d0018fc07003e02be00ba
:101850002e03be00e3fe0700a7e52b0056642e0012
:10186000d5b52400b40a2c0010fc07003e02be00cf
:101870002e03be00dbfe070077ec230036de2100de
:1018800045522a0034062f0008fc07003e02be0025
:101890002e03be00d3fe0700a7f22b00061a20007d
:1018a00015a02100a4e1230000fc07003e02be00b9
:1018b0002e03be00cbfe070017f8230016112100ef
:1018c00015112100040b2100f8fb07003e02be00a9
:1018d0002e03be00c3fe070057fc2b005655250003
:1018e0005555250054552500f0fb07003e02be006b
:1018f0002e03be00bbfe07000802be000a03be00a6
:10190000b8fe07000802be000a03be00e7fb07009e
:101910000d00a70003f0a200bcfd37000c00a600dc
:1019200003ff2300b9fd3700f3ff2700f2ff2f006c
:101930006110b9000330a00014022000a4da88006e
:10194000b2fd37001400fa00889fbe008a9fbe00d7
:101950008c9fbe000004be000205be006800470068
:101960000a90be000890be00840207000078a30021
:101970003d003a006100e1003c0032000bf8a3009a
:101980003d003a006400e100380032006c0347007b
:101990001e009000f03fb1003602be001603be00ec
:1019a0000008a300040032000402420085824a00bd
:1019b00006034b0087834b00100798008e1f7800aa
:1019c0006000b8006011b8005c0020006d012000cc
:1019d0006e002000020037008d86e900fc00200028
:1019e0000402420085824a0006034b0087834b00b5
:1019f00000044000818448000205490083854900b5
:101a00006060e1001d60ad000804520089845a0046
:101a10000a055b008b855b00030039001e60ad008a
:101a20000802be000a03be000c06e900ecff3b0002
:101a30000e87e900e8ff3b004f0778006102600075
:101a4000840278008301d1000281d3008180d30019
:101a50000080d3001e03900041b3de00f63fb000cb
:101a600018fd070069fd37000b30a0000800be001c
:101a70000a01be0065fd370012022000a2da8800cc
:101a80005ffd370007f0a20088fb37001400fa0062
:101a9000889fbe008a9fbe008c9fbe000005be00ce
:101aa0000206be00680047000c90be000a90be000f
:101ab000320207006400e1001a00320016003e0006
:101ac0006100e1001a0032006e049000fe049000f4
:101ad0000e0b90009e0b90006011b8009e059000c8
:101ae0000b38b100d50120008281710061016400d2
:101af0008703d1000683d3008984d3000884d300f0
:101b00008502e900f8ff3a00e3fd07000df0a700a9
:101b100001f0a0003dfd3700f1ff2700f0ff2f008e
:101b20003afd370001f8270000002000f7ff3700da
:101b30006000b800f5ff37006022b8000602200000
:101b40000000d0008180d2000482d2008582d200c1
:101b50000000a0000202520083825a0003003100fc
:101b60000202420083824a000000a1000603e9004d
:101b7000f3ff3a0000000600889fbe008a9fbe0067
:101b80003004be002005be000404440085844c00df
:101b900006054d0087854d000898be000a90be00de
:101ba0000440e10005c8e10006d0e10007d8e100eb
:101bb00002003100680040001008e8004f05be0038
:101bc0004f04be00000006001000fa00889fbe000f
:101bd0008a9fbe00110020000605be000404be005e
:101be0003002be002003be00c4b79f00d5b79f00df
:101bf000e6b79f00f7b79f000802520089825a009b
:101c00000a035b008b835b0084bf9f0095bf9f002e
:101c1000a6bf9f00b7bf9f000498be000698be00f5
:101c20004fb29700dfb297006fb39700ffb39700f2
:101c30000820e10009a8e1000ab0e1000bb8e100ca
:101c4000010039008000eb004f05be001088100035
:101c50004f04be000080fa00000006001400fa00e5
:101c6000889fbe008a9fbe008c9fbe000006eb00ce
:101c70003e000700ccb79f00bcb79f00acb79f00e9
:101c80009cb79f008cb79f000605be000404be00f1
:101c90000d0420004fb39700bfb2970086034300a6
:101ca0002fb29700e00f530004003d003d000700f5
:101cb0000f004000b0ff07000300370039000700a5
:101cc0000f004000c0ff0700cfb2970095bf9f00f4
:101cd000e08f5200090035002b000700140020009f
:101ce000050020006033b80000007200818072009f
:101cf00002017300838173001c0007000c06e800da
:101d00008d0f5600e3ff3a001fba9700e00f520014
:101d100005003d000802be000a03be0000fe2f00c1
:101d20000f00400094ff07004faa9700e00f5200f9
:101d300008003a000fb497009fb497002fb59700a2
:101d4000bfb59700d8b79f00e9b79f00fab79f00cb
:101d50008bbf9f000c0007004f06be004f05be0062
:101d60004f04be000080fa000000060001000700da
:101d70000000060090b79f00a1b79f00b2b79f0078
:101d8000c3b79f0000000600010007000000060026
:101d90001fb09700afb097003fb19700cfb1970049
:101da000000006004f2bde00f9ff0700868373005a
:101db000858242004f23de00a7b79f008682720013
:101dc0000402420095b79f00ffaa97004f2bde0048
:101dd000858242000602720084b79f006faa9700b6
:101de0004f23de000402420086827200f5af9f009e
:101df0004f18de0000027200e5ff0700e4af9f000d
:101e000000004000818048000201490083814900b0
:101e10000802be000a03be00d6ff070000fe2f0026
:101e200000000600881f780018002000881f780036
:101e30008aff07008f87e9004f0478000000060042
:101e4000801feb0085ff07008f87e9000000060078
:101e5000889fbe008a9fbe00e00f5000e08f5800b0
:101e6000e00f5900e08f59000c003d006044b800bd
:101e70006055b8000000540081805c0002015d00e4
:101e800083815d00180020001500070008003d0058
:101e9000180007000004eb00050037000004eb0009
:101ea0000f00070002003d0012000700180020008c
:101eb000dcff0700e00f5400060032006022b8008b
:101ec0006033b8000000520081805a0002015b00bc
:101ed00083815b004f05be004f04be00000006007a
:101ee000e00f5200e08f5a00e00f5b00e08f5b00d4
:101ef000000006006044b8006055b80004025400b9
:101f000085825c0006035d0087835d00000006009b
:101f1000889fbe008a9fbe008c1f7800e00f500093
:101f2000e08f5800e00f5900e08f59000d003d0090
:101f30006044b8006055b8001c0020000000540048
:101f400081805c0002015d0083815d000820e1006a
:101f500009a8e1000ab0e1000bb8e1000d003d0066
:101f6000080037000006eb00e00f5200e08f5a0037
:101f7000e00f5b00e08f5b0006003d006044b800ae
:101f80006055b8000402540085825c0006035d00c1
:101f900087835d00aaff0700e00f560006003200ad
:101fa0006022b8006033b8000000520081805a00ff
:101fb00002015b0083815b004f0678004f05be0085
:101fc0004f04be00000006000800fa00889fbe0013
:101fd0008a9fbe008c9fbe000004be000205be00aa
:101fe00083067800e3fb07006420e100a3003e00c5
:101ff000a60032000006eb000bf0a10003ff230057
:10200000020020006000b8000802be000a03be0003
:1020100039fb070009003d0003ff230002002000f8
:102020006000b8000802be000a03be0037fb0700cc
:102030000004be000205be002c00200013fd23009a
:1020400042612200e1e9250060d52c000802be00b3
:102050000a03be0028fb07001d003d00b3ff23005c
:10206000a2672b0081852e00a0ca24000802be00b2
:102070000a03be000dfa0700009fbe000297be00d3
:1020800073fe230052cf2600010b2d00509529002e
:102090000802be000a03be00d2fc070007ff2300af
:1020a000060020006022b80076fe07000802be008d
:1020b0000a03be00fdf907003e02be002e03be006b
:1020c00012fb07000004be000205be000c06e8007b
:1020d0000800be000a01be0003f0a10067e423006f
:1020e000e6092a00f5672600d4bc2300fdfa0700a4
:1020f0000800be000a01be004c0035000802be0008
:102100000a03be00b7fc0700009fbe000297be0096
:10211000e702240096c42000a5142e0004712c00b0
:10212000e2f907003e02be002e03be00adfc070030
:10213000d7042400a6a02c00d5202300743d2a003b
:10214000daf907003e02be002e03be00a5fc070020
:102150005705240026a12800b540200054da2600a7
:10216000d2f907003e02be002e03be009dfc070010
:1021700047042400c687280045cc2b00945a290028
:10218000caf90700809fbe00829fbe003e00be00cd
:102190002e01be00a7fe2b00a6d72c00159b2d00fc
:1021a000d47b28008ffc070007022c00f6d32f00f9
:1021b000d5c8250034a62600bcf907003e02be00a3
:1021c0002e03be0087fc070047032c00f6172800eb
:1021d000259e2b00b4cc2b00b4f907003e02be00b4
:1021e0002e03be007ffc0700b7022c00660a260003
:1021f0006510250024ce2100acf907003e02be0088
:102200002e03be0077fc07004f03be004f02be0046
:10221000befa07000802be000a03be0071fc0700f8
:102220000802be000a03be00a0f907000c00e0008f
:102230000f0032000c10a70003f0a20084d122008e
:1022400045442500b61f220097ff23006260e1008d
:102250000600320064362700d582230026152c00a4
:1022600007fe23000c10a70007ff23008ff90700cb
:102270000df0a70003f0a20064fb37000330a000bc
:1022800014022000a4da880060fb370093ff2300cb
:10229000b21f22004144250080d12200f4ff370004
:1022a000889fbe008a9fbe008c9fbe000404be00b3
:1022b0000605be00809fbe00829fbe002dfb07006a
:1022c000040678000800be000a01be0029fb0700d2
:1022d000840678004f03be004f02be008d4f76008b
:1022e0007fb0970013003300f0ff2f008b8f6b003f
:1022f00006003b000d0666000c00a7000a00370030
:1023000007f0a600100020000a003700880f5200d6
:10231000898f5a008a0f5b008b8f5b0003003900a6
:102320001000200001003e000000200007f0a70080
:102330000000ea004f06be004f05be004f04be007d
:1023400000000600e48240001078a300070032007d
:10235000640240001178a3003400be001401be00e6
:10236000040032000330a700000006003500be0064
:102370001501be000330a0000000060080007800b8
:102380005002be005003be004439de00f700b20028
:10239000f37f200003016100090032000218e10010
:1023a00016003a0085017200830173008381730077
:1023b0000008200015003a004000200013003700fc
:1023c00085017200830173008381730005003a0068
:1023d00004a8be0006a8be00100020000b003700b5
:1023e0000201e9000402420085824a0006034b0014
:1023f00087834b000748a300f9ff32000740a00085
:1024000004a8be0006a8be0020002000800098009e
:102410009200980000000600889fbe008a9fbe00c0
:10242000841f7800d7fb07004f00780011003300ad
:10243000f0ff2f00838f6c0006003b000405650051
:102440000a00a7000800370009f0a60010002000cd
:1024500008003700820f5400838f5c0003003900ae
:102460001000200001003e000000200009f0a7003d
:102470000000ea004f05be004f04be000000e0006f
:1024800000000600881f7800030478000300e000c5
:1024900007003d0060001000e08018006001190096
:1024a000e081190002003b0001f02d00030037001d
:1024b0001400070008f0a70003f0a0004f04780004
:1024c00000000600881f7800030478000300e00085
:1024d00007003d0060001000e08018006001190056
:1024e000e081190002003b0001f02d0003003700dd
:1024f0002f00070008f0a70001f0a0004f047800ab
:1025000000000600889fbe00008270000402710077
:10251000048271002400320036432000c5002000f0
:102520008383cf000a0039000541b1008283cf00c8
:10253000070039000541b1008183cf000400390054
:102540000541b1008083cf00010039000541b10091
:1025500085c353006022b800120032000a003b001d
:1025600084827200610260008301d1000281d30085
:102570008180d3000080d3000603e8008743e80091
:10258000f7ff3a0007003700000040008180480054
:1025900002014900838149000603e9008743e900fd
:1025a000f9ff3a0047fa07004f04be00000006009a
:1025b000889fbe008a9fbe000082700004027100e6
:1025c00004827100260032000004be000200be003a
:1025d0006011b8006b092000950220000182cf0035
:1025e0000a0039000541b1000082cf000700390020
:1025f0000541b1000982cf00040039000541b10056
:102600000882cf00010039000541b10005425200a7
:10261000120032000a003b008281710061016400f7
:102620008100d1000080d3008984d3000884d300c6
:102630008b05e8000442e800f7ff3a000700370086
:102640000804440089844c00000048008180480050
:102650008b05e9000442e900f9ff3a000efb070090
:102660004f05be004f04be0000000600801feb00b7
:10267000020007008f87e900000006002800fa002a
:10268000889fbe008a9fbe008c9fbe000efe9700f2
:102690004afa07006108e1005c0032006200e100d4
:1026a0005a003e00540039006408e1005200320034
:1026b0006c014700748557003200be001201be0055
:1026c0003a04be001a05be009e029000be0e9000a5
:1026d0000d82520017003b000402e80046003a0059
:1026e000880f5000898f58008a0f59008b8f59002e
:1026f0004100340064014700780347003200be0007
:102700001201be003602be001603be0007f0a10093
:1027100003f0a60007f0a0000c70a70063f8070004
:102720003afa370000004000818048000201490069
:10273000838149000c00a0000800500089805800e7
:102740000a0159008b81590005003b000800400038
:10275000898048000a0149008b8149000c00a100d2
:102760000402e900efff3b000002400081824800c4
:1027700002034900838349001b0032000802520013
:1027800089825a000a035b008b835b004200f800d9
:102790000500370000004000818048000201490028
:1027a000838149008d06e9000340a600f9ff370048
:1027b0006022b8000d037800c2f9070078034700d3
:1027c0004200f9000800350002003c000c08a3009c
:1027d000050032003602be001603be0007f0a0005e
:1027e0000c70a70031f807005e02900004f0a7000b
:1027f00003f0a20005fa37002e009000be00900002
:102800004e019000de01900000fa37001002200017
:0c2810000c70a600a0da8800f9f937006f
:020000040000fa
:10281c00726500006a6f0000696e0000647200004f
:10282c00652c0000206a0000652000007375000014
:10283c00697300002061000020000000206500008a
:10284c00746a000065200000766100006973000066
:10285c0020610000200000000a0d00000070000044
:10286c00617300007365000020700000617200004d
:10287c0074000000636f0000756300006f7500004a
:10288c00200a00000d0000003100000032000000a2
:10289c00330000000a0a00000a0a00000d200000a4
:1028ac00494e000049540000205200004f420000e5
:1028bc004f540000203a0000200a00000a0a0000d1
:1028cc000a0a00000a0d0000000a00000a0a0000b3
:1028dc000d200000582000003a20000000200000cd
:1028ec00592000003a200000002000005465000030
:1028fc0074610000203a000020000000202000003d
:10290c004944000020000000203a00002000000094
:10291c000d000000090000000a0d0000000000007e
:020000040000fa
:10292c000000fa009416800068026200e00f52006a
:10293c0002003a0014c0b300010037000042eb0063
:10294c00044078000080fa00000006000800fa003d
:10295c00009fbe000297be00048020001442780045
:10296c00e14f520003003a003e02be002e03be00af
:10297c00030037003e02be002e03be0007f0a2008b
:10298c000400be000601be000080fa000000060034
:10299c000200fa00004f78006022b8000600200008
:1029ac0097052400849fbe00869fbe001e427800bf
:1029bc00841f78006022b80006002400f70724006a
:1029cc006000b8000200270073092400cb01070047
:1029dc00ea8757006022b800060020009705240003
:1029ec00849fbe00869fbe001e427800841f780024
:1029fc006022b8006033b8006000b8000200270005
:102a0c0073092400bd010700ea8757006022b80053
:102a1c000600200097052400849fbe00869fbe0000
:102a2c001e427800841f78006022b8000600240043
:102a3c00f70724006000b8006011b800af01070070
:102a4c00ea8757006022b800060020009705240092
:102a5c00849fbe00869fbe001e427800841f7800b3
:102a6c006022b8006033b8006000b8006011b80094
:102a7c00a2010700ea8757006022b8000600200078
:102a8c00970524006000b8006011b8006f010700c2
:102a9c000080fa00000006000200fa00004f7800e7
:102aac000042eb00841f78006022b80006002c0066
:102abc0027072400849fbe00869fbe001e4278001c
:102acc00841f78006022b8006033b8006000b80042
:102adc000200200093062400ea010700ec8757004f
:102aec0024c0b300841f78006022b80006002000c8
:102afc0097052400849fbe00869fbe001e4278006e
:102b0c00841f78006022b80006002c000705240002
:102b1c006000b80002002200c3072400d90107009e
:102b2c00ec87570024c0b300841f78006022b800e3
:102b3c000600200097052400849fbe00869fbe00df
:102b4c001e427800841f78006022b8000600240022
:102b5c00f70624006000b80002802c003308240023
:102b6c00c8010700ec87570024c0b300841f78000d
:102b7c006022b8000600200097052400849fbe0048
:102b8c00869fbe001e427800841f78006022b80029
:102b9c0006002400f70724006000b80002002e0095
:102bac0053082400b7010700ec87570024c0b3007a
:102bbc00841f78006022b8000600200097052400ce
:102bcc00849fbe00869fbe001e427800841f780042
:102bdc006022b80006002700770824006000b800c7
:102bec0002802c0033082400a6010700ec87570054
:102bfc0024c0b300841f78006022b80006002000b7
:102c0c0097052400849fbe00869fbe001e4278005c
:102c1c00841f78006022b80006802200d7082400a8
:102c2c006000b80002002200c307240095010700d1
:102c3c00ec87570014c0b300841f78006022b800e2
:102c4c000600200097052400849fbe00869fbe00ce
:102c5c001e427800841f78006022b8000600240011
:102c6c00f70824006000b80002002000930624003e
:102c7c0084010700ec8757000080fa000000060072
:102c8c000200fa00004f78000042eb00841f78002d
:102c9c006022b80006002400f7072400849fbe00c1
:102cac00869fbe001e427800841f78006022b80008
:102cbc006033b8006000b8000200200093062400c6
:102ccc0070010700ec87570024c0b300841f780004
:102cdc006022b8000600200097052400849fbe00e7
:102cec00869fbe001e427800841f78006022b800c8
:102cfc0006002c00070624006000b80002002e001d
:102d0c00530824005f010700ec87570024c0b30070
:102d1c00841f78006022b80006002000970524006c
:102d2c00849fbe00869fbe001e427800841f7800e0
:102d3c006022b80006002400f70724006000b800e9
:102d4c0002802a00030924004e010700ec8757007b
:102d5c0024c0b300841f78006022b8000600200055
:102d6c0097052400849fbe00869fbe001e427800fb
:102d7c00841f78006022b80006002400f7082400a5
:102d8c006000b80002002c00230924003d0107005c
:102d9c00ec87570024c0b300841f78006022b80071
:102dac000600200097052400849fbe00869fbe006d
:102dbc001e427800841f78006022b80006002700ad
:102dcc00770924006000b80002802a00030924005f
:102ddc002c010700ec87570024c0b300841f780037
:102dec006022b8000600200097052400849fbe00d6
:102dfc00869fbe001e427800841f78006022b800b7
:102e0c0006802200d70924006000b80002002e00c2
:102e1c00530824001b010700ec87570014c0b300b3
:102e2c00841f78006022b80006002000970524005b
:102e3c00849fbe00869fbe001e427800841f7800cf
:102e4c006022b80006002400f70924006000b800d6
:102e5c0002002000930624000a010700ec875700ab
:102e6c000080fa00000006000200fa00004f780013
:102e7c006022b8000600200097052400849fbe0045
:102e8c00869fbe001e427800841f78006022b80026
:102e9c006033b8006000b80002002400f30724007f
:102eac0096000700ea8757006022b8000600200051
:102ebc0097052400849fbe00869fbe001e427800aa
:102ecc00841f78006022b80006002400f707240055
:102edc006000b80002002400f307240087000700fc
:102eec00ea8757006022b8000600200097052400ee
:102efc00849fbe00869fbe001e427800841f78000f
:102f0c006022b80006002400f70724006000b80017
:102f1c006011b80079000700ea8757006022b800fa
:102f2c000600200097052400849fbe00869fbe00eb
:102f3c001e427800841f78006022b8006033b8000d
:102f4c006000b8006011b8006c000700ea875700f9
:102f5c000080fa00000006000000fa000080fa0071
:102f6c00000006001200fa001007980021079800d4
:102f7c00320798004307980054079800650798009b
:102f8c0076079800070f98001eba9700aeba970004
:102f9c003ebb9700cebb9700849fbe00869fbe00b1
:102fac005e029000ee0290007e0390008e0b90006b
:102fbc001e009000ae0090003e019000ce019000eb
:102fcc00f6000700e887570000427800044f7800ad
:102fdc001e427800e24f52001a003a004480200052
:102fec0014427800e24f520002003a00daff070068
:102ffc00140037004480200014427800e34f520044
:10300c0010003a001eba9700aeba97003ebb97006c
:10301c00cebb9700849fbe00869fbe005e029000d0
:10302c00ee0290007e0390008e0b90001e0090002c
:10303c00ae0090003e019000ce019000c9ff070049
:10304c00e88757000080fa00000006001200fa0022
:10305c001007980021079800320798004307980042
:10306c00540798006507980076079800070f98009a
:10307c005e029000ee0290007e0390008e0b90009a
:10308c001e009000ae0090003e019000ce0190001a
:10309c007201070000427800044f78001e4278004d
:1030ac00e24f520013003a00448020001442780092
:1030bc00e24f520002003a00a7ff07000d00370054
:1030cc004480200014427800e34f520009003a007b
:1030dc005e029000ee0290007e0390008e0b90003a
:1030ec001e009000ae0090003e019000ce019000ba
:1030fc00d6ff07000080fa00000006001200fa005c
:10310c00881f780010079800210798003207980054
:10311c0043079800540798006507980076079800b5
:10312c00070f98000eba97009eba97002ebb970017
:10313c00bebb9700849fbe00869fbe000efa970010
:10314c00841f78005e029000ee0290007e039000d7
:10315c008e0b90001e009000ae0090003e0190007f
:10316c00ce01900076020700ea87570000427800f3
:10317c00044f78001e427800e24f520020003a00c3
:10318c004480200014427800e24f520002003a00c2
:10319c0071ff07001a0037004480200014427800a9
:1031ac00e34f520016003a005e009000ee009000d3
:1031bc007e0190008e099000b9f707000002be0056
:1031cc00040478001e009000ae0090003e019000b8
:1031dc00ce019000b2f707000002be000400780098
:1031ec0093c0b3000eba97009eba97002ebb9700ff
:1031fc00bebb97000ef9970088007800561907009f
:10320c004f0478000080fa00000006001200fa005b
:10321c001007980021079800320798004307980080
:10322c00540798006507980076079800070f9800d8
:10323c005e029000ee0290007e0390008e0b9000d8
:10324c001e009000ae0090003e019000ce01900058
:10325c00b202070000427800044f78001e4278004a
:10326c00e24f520005003a004480200014427800de
:10327c00e24f520001003a0037ff07000080fa00cd
:10328c00000006001200fa00881f78001007980052
:10329c0021079800320798004307980054079800bc
:1032ac006507980076079800070f98006eea97005c
:1032bc00841f78000eba97009eba97002ebb970019
:1032cc00bebb9700849fbe00869fbe000efa97007f
:1032dc00841f78005e029000ee0290007e03900046
:1032ec008e0b90001e009000ae0090003e019000ee
:1032fc00ce019000e2020700ec87570000427800f4
:10330c00044f78001e427800e24f520020003a0031
:10331c004480200014427800e24f520002003a0030
:10332c000dff07001a00370044802000144278007b
:10333c00e34f520016003a005e009000ee00900041
:10334c007e0190008e09900055f707000002be0028
:10335c00040478001e009000ae0090003e01900026
:10336c00ce0190004ef707000002be00040078006a
:10337c00eee997000eba97009eba97002ebb970005
:10338c00bebb97000ef9970088007800f218070072
:10339c004f0478000080fa00000006001000fa00cc
:1033ac00889fbe008a9fbe00009fbe000297be0091
:1033bc00440798005507980066079800770798000f
:1033cc004e009000de0090006e019000fe01900017
:1033dc005efd07000002be000203be004407980019
:1033ec0055079800660798007707980024c0b3002b
:1033fc000002fd00f2f8b7000002fd00ab1f070051
:10340c00f46a2600c5b02200763428002705240073
:10341c003e00be002e01be00eff707000002be000a
:10342c000203be00049fbe000697be00f46a26008d
:10343c00c5b0220076342800270524004e009000e9
:10344c00de0090006e019000fe019000e2f7070094
:10345c000002be000203be00440798005507980006
:10346c00660798007707980014c0b3000400780032
:10347c0004f9b700646d21005403be004402be0081
:10348c004e009000de0090006e019000fe01900056
:10349c0079f907000002be000203be000400be0062
:1034ac000601be006022b8006033b8007df607004c
:1034bc0000027800e00f520010003a00e46b21008b
:1034cc005403be004402be003e00be002e01be00ee
:1034dc0069f907000002be000203be000400be0032
:1034ec000601be006022b8006033b8006df607001c
:1034fc0000027800e00f520051003200e46b210012
:10350c005403be004402be003e00be002e01be00ad
:10351c0059f907000002be000203be000404be00fd
:10352c000605be00646d21005403be004402be00bb
:10353c004e009000de0090006e019000fe019000a5
:10354c004df907000002be000203be000400be00dd
:10355c000601be000802be000a03be00abf5070060
:10356c0044ea2a005519270026a92400670d2400d7
:10357c0099f707000002be000203be000400be0063
:10358c000601be006022b8000600200007002400df
:10359c00dbf507000002be000203be0060722100d2
:1035ac000498be000690be001eb89700aeb89700f7
:1035bc003eb99700ceb99700d723070058240700cf
:1035cc0024c0b30004007800eff8b70014c0b300b7
:1035dc0004007800f1f8b70014c0b30004007800c0
:1035ec00f0f8b7000042eb0004007800f6f8b700e2
:1035fc0064c0b30004007800f4f8b70044c0b30012
:10360c0004007800f5f8b700c08f21006022b800e4
:10361c006033b8000498be000690be000042eb0078
:10362c000002fd00f7f8b7000002fd0000000000ea
:10363c00748f210014427800e14f5200fcff3a00d5
:10364c00b48f210014427800044078004f05be006e
:10365c004f04be000080fa00000006001000fa00c3
:10366c00009fbe000297be004407980055079800c3
:10367c0066079800770798003e00be002e01be003a
:10368c00b2fc07000002be000203be00049fbe0095
:10369c000697be0024c0b3000002fd00f2f8b7008c
:1036ac000002fd00011f070014c0b30004007800e5
:1036bc0004f9b700a4ee220045442500b61f2200f1
:1036cc00970024003e00be002e01be0042f707000a
:1036dc000002be000203be000400be000601be00d4
:1036ec006022b800060028006706240084f5070055
:1036fc000002be000203be000400be000601be00b4
:10370c0044ea2a005519270026a92400670c240036
:10371c0031f707000002be000203be0060722100f8
:10372c000498be000690be004e009000de00900093
:10373c006e019000fe01900077230700f82307002c
:10374c0024c0b30004007800eff8b70014c0b30035
:10375c0004007800f1f8b70014c0b300040078003e
:10376c00f0f8b7000042eb0004007800f6f8b70060
:10377c0064c0b30004007800f4f8b70044c0b30090
:10378c0004007800f5f8b700c08f21006022b80063
:10379c006033b8000498be000690be000042eb00f7
:1037ac000002fd00f7f8b7000002fd000000000069
:1037bc00748f210014427800e14f5200fcff3a0054
:1037cc00b48f210014427800044078000080fa0085
:1037dc00000006000c00fa00500798005e029000f2
:1037ec00e00f52000b003d005e0290000402ea0064
:1037fc00540798006022b8000600200007ff2b0039
:10380c00140798002507980036079800470798007a
:10381c00070037006022b8000600200007ff2300d5
:10382c00140798002507980036079800470798005a
:10383c006022b80006002000e70524001e0090005e
:10384c00ae0090003e019000ce019000e2f6070021
:10385c000002be000203be000400be000601be0052
:10386c000042eb003c0007000002eb00040f780064
:10387c00210037006022b80006002000e7052c006c
:10388c001e009000ae0090003e019000ce01900012
:10389c00d1f607000002be000203be000400be0009
:1038ac000601be0024c0b3002b00070024c0b300e7
:1038bc006000b8006011b800270007006022b80053
:1038cc0006002000e70524001e009000ae009000ca
:1038dc003e019000ce019000bff607000002be0032
:1038ec000203be000400be000601be0024c0b300eb
:1038fc00190007001e0fe8005e0290000402e900a8
:10390c009e0f5200dbff3c006022b8000600200036
:10391c00e7052c001e009000ae0090003e019000c8
:10392c00ce019000acf607000002be000203be0000
:10393c000400be000601be0024c0b3000600070050
:10394c0014c0b3006000b8006011b800020007009a
:10395c000080fa00000006000a00fa00009fbe007a
:10396c000297be00044f98000e4a9000e04f5200a0
:10397c0008003a0024c0b3000002fd00f2f8b700c2
:10398c000002fd00491e070014c0b30004007800bb
:10399c0004f9b7003e00be002e01be00ebfb070091
:1039ac000002be000203be00049fbe000697be00cc
:1039bc00a4ee220045442500b61f220097002400e7
:1039cc003e00be002e01be0083f607000002be00c2
:1039dc000203be000400be000601be006022b80057
:1039ec000600280067062400c5f407000002be008c
:1039fc000203be000400be000601be0044ea2a0019
:103a0c005519270026a92400670c240072f607001c
:103a1c000002be000203be00607221000498be00ca
:103a2c000690be00e069210034e42f005572280096
:103a3c0096862800c70624000498be000690be0097
:103a4c00e07c21006022b800060020000701240061
:103a5c000498be000690be00e07d21006022b800f4
:103a6c0006002000870124000498be000690be00ca
:103a7c0024c0b30004007800eff8b70014c0b30002
:103a8c0004007800f1f8b70014c0b300040078000b
:103a9c00f0f8b70074c0b30004007800faf8b7006f
:103aac0074c0b30004007800f9f8b70034c0b30058
:103abc0004007800f6f8b70064c0b3000400780086
:103acc00f4f8b70044c0b30004007800f5f8b70070
:103adc00c08f21006022b8006033b8000498be008b
:103aec000690be000e4a9000e14f520005003a00cd
:103afc0014c0b3000002fd00f8f8b7000002fd008e
:103b0c000400370024c0b3000002fd00f8f8b70031
:103b1c000002fd000042eb000002fd00f7f8b700c8
:103b2c000002fd0000000000748f21001442780098
:103b3c00e14f5200fcff3a000080fa000000060042
:103b4c001000fa00009fbe000297be0044079800c8
:103b5c005507980066079800770798004e0090006c
:103b6c00de0090006e019000fe01900077fb0700d4
:103b7c000002be000203be004407980055079800df
:103b8c00660798007707980024c0b3000002fd0078
:103b9c00f2f8b7000002fd00c41d0700f46a26000d
:103bac00c5b0220076342800270524003e00be0054
:103bbc002e01be0008f607000002be000203be0084
:103bcc00e06a21000498be000690be00f46a26004c
:103bdc00c5b0220076342800270524004e00900042
:103bec00de0090006e019000fe019000faf50700d7
:103bfc000002be000203be00606c21000498be00ef
:103c0c000690be0024c0b3000400780004f9b7008d
:103c1c000ef89700f3f8b7000eb897009eb897000f
:103c2c002eb99700beb99700992007004d210700c7
:103c3c00e069210034e42f00557228009686280094
:103c4c00c70624000498be000690be00e07c21004c
:103c5c006022b80006002000070124000498be0072
:103c6c000690be00e07d21006022b8000600200016
:103c7c00870124000498be000690be0014c0b30057
:103c8c0004007800eff8b70014c0b300040078000b
:103c9c00f1f8b70014c0b30004007800f0f8b700d6
:103cac0064c0b30004007800f4f8b70064c0b3003b
:103cbc0004007800f5f8b70014c0b30004007800d5
:103ccc00f6f8b70014c0b30004007800f8f8b70099
:103cdc00c08f21006022b8006033b8000498be0089
:103cec000690be000042eb000002fd00f7f8b700a2
:103cfc000002fd0000000000748f210014427800c7
:103d0c00e14f5200fcff3a00b48f210014427800be
:103d1c00044078000080fa00000006001000fa0051
:103d2c00881f7800009fbe000297be0044079800d1
:103d3c0055079800660798007707980024c0b300d1
:103d4c000002fd00f2f8b7000002fd00571d07004d
:103d5c0014c0b3000400780004f9b700f46a26001c
:103d6c00c5b0220076342800270524003e00be0092
:103d7c002e01be0098f507000002be000203be0033
:103d8c00e07021000498be000690be0018c0b3007d
:103d9c006022b8006033b8003e00be002e01be00a9
:103dac00cdf3070000027800e00f5200010035004f
:103dbc000044eb00e04f54000500320000c2eb0061
:103dcc000002fd00f3f8b7000002fd00030037000d
:103ddc0014c0b30004007800f3f8b7004e00900054
:103dec00de0090006e019000fe019000282007007c
:103dfc00dc20070014c0b30004007800eff8b70013
:103e0c0024c0b30004007800f1f8b70014c0b3006c
:103e1c0004007800f0f8b70024c0b3000400780068
:103e2c00f4f8b70064c0b30004007800f5f8b700ec
:103e3c00c08f21006022b8006033b8000498be0027
:103e4c000690be000042eb000002fd00f7f8b70040
:103e5c000002fd0000000000748f21001442780065
:103e6c00e14f5200fcff3a00b48f2100144278005d
:103e7c00044078004f0478000080fa00000006002f
:103e8c001000fa00009fbe000297be004407980085
:103e9c005507980066079800770798006eea970018
:103eac00e04f520008003a0024c0b3000002fd00ad
:103ebc00f2f8b7000002fd00fc1c070024c0b300a0
:103ecc000400780004f9b7004e009000de0090006a
:103edc006e019000fe0190009cfa07000002be00eb
:103eec000203be0044079800550798006607980027
:103efc0077079800f46a2600c5b0220076342800b3
:103f0c00270524003e00be002e01be0032f507003e
:103f1c000002be000203be00e06a21000498be004d
:103f2c000690be00f46a2600c5b022007634280044
:103f3c00270524004e009000de0090006e019000da
:103f4c00fe01900024f507000002be000203be0033
:103f5c00606c21000498be000690be000eb897005d
:103f6c009eb897002eb99700beb99700c81f0700de
:103f7c007c200700e069210034e42f0055722800f2
:103f8c0096862800c70624000498be000690be0042
:103f9c00e07c21006022b80006002000070124000c
:103fac000498be000690be00e07d21006022b8009f
:103fbc0006002000870124000498be000690be0075
:103fcc000042eb0004007800fbf8b70014c0b3000b
:103fdc0004007800eff8b70014c0b30004007800b8
:103fec00f1f8b70014c0b30004007800f0f8b70083
:103ffc000ef89700f3f8b70074c0b3000400780013
:10400c00faf8b70074c0b30004007800f9f8b700f0
:10401c0024c0b30004007800f6f8b70064c0b30005
:10402c0004007800f4f8b70064c0b3000400780012
:10403c00f5f8b700c08f21006022b8006033b800db
:10404c000498be000690be006eea9700e14f520045
:10405c0005003a0014c0b3000002fd00f8f8b700e8
:10406c000002fd000400370024c0b3000002fd0074
:10407c00f8f8b7000002fd000042eb000002fd0062
:10408c00f7f8b7000002fd0000000000748f21005b
:10409c0014427800e14f5200fcff3a00b48f21002b
:1040ac0014427800044078000080fa0000000600fa
:1040bc001000fa00889fbe008a9fbe0040479800ff
:1040cc003407980045079800560798006707980032
:1040dc00614f98000002eb00040f780034b18000af
:1040ec00140798001e02e8006622b900040278004a
:1040fc008482e800e41621000482420094027800d5
:10410c00c4f92f0004aab90084027800047d2000b1
:10411c0004824200cfa2de000400be0053f407006c
:10412c006022b8000600200097042400dcf1070090
:10413c000002be000203be000404be000605be0061
:10414c001e02e8006622b90084027800e416210001
:10415c0004824200940278004406200004aab900ac
:10416c0004027800cfa2de000400be003ff407007a
:10417c006022b8000600200097042400c8f1070054
:10418c000002be000203be000400be000601be0019
:10419c003e029000ce0290005e039000ee03900071
:1041ac00849fbe00869fbe000802be000a03be00ac
:1041bc006cfb0700e8875700ca0037006e4a900076
:1041cc00e94f52007e003a0024c0b300040078008e
:1041dc0001e8b700e140290010c0b300c52c07006e
:1041ec00b1c7b30010c0b300a02c0700f61c070029
:1041fc000002be000203be000400be000601be00a9
:10420c00a7f307000002be00040278000400780047
:10421c000c31070001c2b30010c0b300932c07008f
:10422c00f11c07000002be000203be000400be0029
:10423c000601be009af307000002be0004027800db
:10424c0004007800ff300700d1c7b30010c0b300e2
:10425c00862c07004142290010c0b300a52c070092
:10426c00b1c7b30010c0b300802c0700d61c0700e8
:10427c000002be000203be000400be000601be0028
:10428c0087f307000002be000402780004007800e7
:10429c00ec30070001c2b30010c0b300732c070050
:1042ac00d11c07000002be000203be000400be00c9
:1042bc000601be007af307000002be00040278007b
:1042cc0004007800df300700d1c7b30010c0b30082
:1042dc00662c07002143290010c0b300852c070071
:1042ec001e02e8006622b900040278008482e8000d
:1042fc00e41621000482420094027800c4f92f00d5
:10430c0004aab90084027800047d200004824200d3
:10431c00cfa2de000400be00d4f307006022b80078
:10432c0006002000970424005df107000002be0087
:10433c000203be000404be000605be001e02e80017
:10434c006622b90084027800e4162100048242003f
:10435c00940278004406200004aab90004027800f4
:10436c00cfa2de000400be00c0f307006022b8003c
:10437c00060020009704240049f107000002be004b
:10438c000203be000400be000601be003e02900007
:10439c00ce0290005e039000ee039000849fbe005e
:1043ac00869fbe004e429000841f78000802be001b
:1043bc000a03be0051fb0700ea875700480037008c
:1043cc005143290010c0b3004a2c070024c0b3008d
:1043dc000002fd0001e8b7000002fd001e0278009b
:1043ec00e00f520003003a000042eb00644f9800cb
:1043fc000200370024c0b300644f98001e02e8008e
:10440c006622b900040278008482e800e4162100d8
:10441c000482420094027800c4f92f0004aab90067
:10442c0084027800047d200004824200cfa2de00ca
:10443c000400be008df307006022b80006002000c7
:10444c009704240016f107000002be000203be0010
:10445c000404be000605be001e02e8006622b90078
:10446c0084027800e4162100048242009402780051
:10447c004406200004aab90004027800cfa2de0092
:10448c000400be0079f307006022b800060020008b
:10449c009704240002f107000002be000203be00d4
:1044ac000400be000601be006e4a9000841f780016
:1044bc003e029000ce0290005e039000ee0390004e
:1044cc00849fbe00869fbe004e429000841f7800e1
:1044dc000802be000a03be006afb0700ec87570007
:1044ec001e0fe800d46580000402e9009e0f520004
:1044fc000c00340034b180009e029000848f520076
:10450c0008003a001e02e8006622b9008402780016
:10451c00e41621000482420014027800e10f4200ec
:10452c0026ff3a004f05be004f04be000080fa0083
:10453c00000006000600fa000002eb00040f7800f1
:10454c000002eb0014079800330037001e027800bd
:10455c006622b90084027800e4cb20000482420079
:10456c00140378001e02e8006622b9008402780069
:10457c00e4cb2000048242001402780004025300b1
:10458c00240798002e029000e00f520003003d001b
:10459c002e0290000402ea00240798009e0290006c
:1045ac002e02900004824200140798001e0278002c
:1045bc006622b900040278008482e800e4cb200073
:1045cc0004824200140378001e02e8006622b9003f
:1045dc00040278008482e800e4cb200004824200cc
:1045ec001402780004025300240798002e02900055
:1045fc00e00f520003003d002e0290000402ea007e
:10460c00240798009e0290002e0290000482420023
:10461c00140798001e0fe8001e0278006622b900ed
:10462c0084027800e4cb200004824200140278005b
:10463c00e10f42000400320065b180003406200016
:10464c00848f5200c1ff34001e02900004007800d9
:10465c000080fa00000006000400fa000002eb00e3
:10466c0034b188000002eb0044b188000002eb007a
:10467c00e46588000002eb00140798002b0037005b
:10468c000002eb00040f7800220037001e027800b5
:10469c00e10f5200090034001e027800fb0f52009b
:1046ac0006003c001e029000e10f52000300340093
:1046bc001e029000f10f52000b0034001e02780015
:1046cc007422b900840278001e0290000482420019
:1046dc0084024200a48020000482420015002000c5
:1046ec00050a78000a0037001e0278007422b9000f
:1046fc00840278001e029000048242008402420070
:10470c00a4802000048242008002eb00050a78009d
:10471c001e0fe8001e027800fd0f5200dbff340074
:10472c001e0290000402e800140798001e0290007c
:10473c00f30f5200d2ff340094002000040f7800d5
:10474c00140037000002eb00140798000d0037002e
:10475c001e0278007422b900840278001e029000b8
:10476c000482420084024200a480200004824200a1
:10477c0015002000050a78001e0290000402e800d3
:10478c00140798001e029000e80f5200f0ff34004e
:10479c001e0fe8001e027800f40f5200e9ff3400ef
:1047ac00a4002000040f780014003700140120002e
:1047bc00140798000d0037001e0278007422b9000f
:1047cc00840278001e02900004824200840242009f
:1047dc00a48020000482420015002000050a780005
:1047ec001e0290000402e800140798001e029000bc
:1047fc00f30f5200f0ff34001e0fe8001e02780089
:10480c00f30f5200e9ff34000480200014427800ba
:10481c00e14f52004f003a000002eb00040f780009
:10482c001400370034002000140798000d003700e6
:10483c001e0278007422b900840278001e029000d7
:10484c000482420084024200a480200004824200c0
:10485c0015002000050a78001e0290000402e800f2
:10486c00140798001e029000e80f5200f0ff34006d
:10487c001e0fe8001e027800e50f5200e9ff34001d
:10488c000002eb00040f780014003700b400200085
:10489c00140798000d0037001e0278007422b9002e
:1048ac00840278001e0290000482420084024200be
:1048bc00a48020000482420015002000050a780024
:1048cc001e0290000402e800140798001e029000db
:1048dc00ef0f5200f0ff34001e0fe8001e027800ac
:1048ec00e50f5200e9ff340064012000040f78004a
:1048fc001400370064002000140798000d003700e6
:10490c001e0278007422b900840278001e02900006
:10491c000482420084024200a480200004824200ef
:10492c0015002000050a78001e0290000402e80021
:10493c00140798001e029000ec0f5200f0ff340098
:10494c001e0fe8001e027800fe0f5200e9ff340033
:10495c004e00370084012000040f7800140037004b
:10496c0034002000140798000d0037001e02780058
:10497c007422b900840278001e0290000482420066
:10498c0084024200a4802000048242001500200012
:10499c00050a78001e0290000402e8001407980033
:1049ac001e029000e80f5200f0ff34001e0fe800ca
:1049bc001e027800fe0f5200e9ff34008401200033
:1049cc00040f780014003700b4002000140798007e
:1049dc000d0037001e0278007422b90084027800a2
:1049ec001e0290000482420084024200a480200037
:1049fc000482420015002000050a78001e02900077
:104a0c000402e800140798001e029000ef0f5200f9
:104a1c00f0ff34001e0fe8001e027800fe0f52005b
:104a2c00e9ff34000002eb00040f7800140037009b
:104a3c0064002000140798000d0037001e02780057
:104a4c007422b900840278001e0290000482420095
:104a5c0084024200a4802000048242001500200041
:104a6c00050a78001e0290000402e8001407980062
:104a7c001e029000ec0f5200f0ff34001e0fe800f5
:104a8c001e027800e70f5200e9ff34000080fa00a4
:104a9c00000006000200fa00000f78001e027800e9
:104aac006123b9000082eb008082eb000602420019
:104abc0087824a006600200007002000860f520003
:104acc00878f5a0010003e0004600100060037007a
:104adc000d003700060037000b00370006003700ca
:104aec00090037000600370054002000070037008b
:104afc00240020000500370064002000030037006c
:104b0c0014002000010037000082eb000400780044
:104b1c000080fa00000006000800fa001007980058
:104b2c0021079800320798000002eb00040f780070
:104b3c003e0290006123b9000082eb008082eb0002
:104b4c000602420087824a007600200007002000ff
:104b5c00860f5200878f5a0086063e0004600100c3
:104b6c000c003700da003700a80137007602370056
:104b7c004403370017043700e5043700b30537004a
:104b8c0004b180000402e80004b188001e0fe800a4
:104b9c00010037000000000004b180000402e800ae
:104bac00f30f520024003c00f4b0800005b18000eb
:104bbc000503e8007422b9000402780006024200e2
:104bcc0084024200a4802000048242001402780077
:104bdc00e00f520018003a00f4b080000402e90023
:104bec0006b180007422b90004027800060242006b
:104bfc0084024200a4802000048242001402780047
:104c0c00e00f52000c003200f5b080001e02900044
:104c1c00848f520004003a0005b180002e029000ef
:104c2c00848f52000400320065b1800034062000ed
:104c3c00848f5200d2ff3400f4b080000402e900eb
:104c4c0006b180007422b90004027800060242000a
:104c5c0084024200a48020000482420014027800e6
:104c6c00e00f520008003200f5b080001e029000e8
:104c7c00848f52003c003a0005b180002e02900057
:104c8c00848f520038003a001e027800e00f520068
:104c9c0033003200d46580006622b90084027800ab
:104cac0024cc20000482420015002000050a780064
:104cbc00d46580000402e800d4658800d4658000c7
:104ccc00f6b080006622b90084027800e4cb2000a4
:104cdc0004824200060a7800d465800006b1800088
:104cec006622b9008402780004cc200004824200c1
:104cfc00060a7800d46580006622b9008402780028
:104d0c0024cc20000482420075002000050a7800a3
:104d1c00d46580000402e800d4658800f4b08000fb
:104d2c000402e900f4b08800d4658000f6b080007d
:104d3c006622b90084027800e4cb20000482420091
:104d4c00060a7800d465800006b180006622b9009e
:104d5c008402780004cc200004824200060a780009
:104d6c000002eb000406370004b18000f30f520080
:104d7c000c003200f4b0800005b180000503e8009f
:104d8c007422b90004027800060242008402420038
:104d9c00a48020000482420014027800e00f52002c
:104dac0044003200f4b080000402e80006b1800038
:104dbc007422b90004027800060242008402420008
:104dcc00a48020000482420014027800e00f5200fc
:104ddc0038003a001e027800e00f52003300320017
:104dec00d46580006622b9008402780024cc2000af
:104dfc000482420015002000050a7800d46580006a
:104e0c000402e800d4658800d4658000f6b0800008
:104e1c006622b90084027800e4cb200004824200b0
:104e2c00060a7800d465800006b180006622b900bd
:104e3c008402780004cc200004824200060a780028
:104e4c00d46580006622b9008402780024cc20004e
:104e5c000482420035002000050a7800d4658000e9
:104e6c000402e800d4658800f4b080000402e80075
:104e7c00f4b08800d4658000f6b080006622b900da
:104e8c0084027800e4cb200004824200060a7800f9
:104e9c00d465800006b180006622b90084027800d7
:104eac0004cc200004824200060a78005400200042
:104ebc00b10537000082eb00af05370004b180006c
:104ecc000402e80004b188001e0fe800010037005e
:104edc000000000004b180000402e800f30f52004f
:104eec0024003c00f4b0800005b180000503e8000c
:104efc007422b900040278000602420084024200c7
:104f0c00a48020000482420014027800e00f5200ba
:104f1c0018003a00f4b080000402e80006b18000ea
:104f2c007422b90004027800060242008402420096
:104f3c00a48020000482420014027800e00f52008a
:104f4c000c003200f5b080001e029000848f5200dd
:104f5c0004003a0005b180002e029000848f5200ac
:104f6c000400320065b1800034062000848f5200aa
:104f7c00d2ff3400f4b080000402e80006b18000d7
:104f8c007422b90004027800060242008402420036
:104f9c00a48020000482420014027800e00f52002a
:104fac0008003200f5b080001e029000848f520081
:104fbc003c003a0005b180002e029000848f520014
:104fcc0038003a001e027800e00f52003300320025
:104fdc00d46580006622b9008402780024cc2000bd
:104fec000482420015002000050a7800d465800078
:104ffc000402e800d4658800d4658000f6b0800017
:10500c006622b90084027800e4cb200004824200be
:10501c00060a7800d465800006b180006622b900cb
:10502c008402780004cc200004824200060a780036
:10503c00d46580006622b9008402780024cc20005c
:10504c000482420035002000050a7800d4658000f7
:10505c000402e800d4658800f4b080000402e80083
:10506c00f4b08800d4658000f6b080006622b900e8
:10507c0084027800e4cb200004824200060a780007
:10508c00d465800006b180006622b90084027800e5
:10509c0004cc200004824200060a78000002eb00d7
:1050ac003505370004b18000f30f52000c003200bc
:1050bc00f4b0800005b180000503e8007422b9004b
:1050cc00040278000602420084024200a480200000
:1050dc000482420014027800e00f520044003200b7
:1050ec00f4b080000402e90006b180007422b9001b
:1050fc00040278000602420084024200a4802000d0
:10510c000482420014027800e00f520038003a008a
:10511c001e027800e00f520033003200d46580008c
:10512c006622b9008402780024cc2000048242005c
:10513c0015002000050a7800d46580000402e80000
:10514c00d4658800d4658000f6b080006622b90072
:10515c0084027800e4cb200004824200060a780026
:10516c00d465800006b180006622b9008402780004
:10517c0004cc200004824200060a7800d46580002a
:10518c006622b9008402780024cc200004824200fc
:10519c0075002000050a7800d46580000402e80040
:1051ac00d4658800f4b080000402e900f4b08800f3
:1051bc00d4658000f6b080006622b90084027800c5
:1051cc00e4cb200004824200060a7800d4658000fb
:1051dc0006b180006622b9008402780004cc20005d
:1051ec0004824200060a780074002000e2043700b2
:1051fc000082eb00e004370004b180000402e900f7
:10520c0004b188001e0fe800010037000000000008
:10521c0004b180000402e900e00f520024003500c4
:10522c00f4b0800005b180000503e9007422b900d8
:10523c00040278000602420084024200a48020008e
:10524c000482420014027800e00f520018003a0069
:10525c00f4b080000402e90006b180007422b900a9
:10526c00040278000602420084024200a48020005e
:10527c000482420014027800e00f52000c0032004d
:10528c00f5b080001e029000848f520004003a009a
:10529c0005b180002e029000848f52000400320071
:1052ac0065b1800034062000848f5200d2ff340098
:1052bc00f4b080000402e90006b180007422b90049
:1052cc00040278000602420084024200a4802000fe
:1052dc000482420014027800e00f520008003200f1
:1052ec00f5b080001e029000848f52003c003a0002
:1052fc0005b180002e029000848f520038003a00d5
:10530c001e027800e00f520033003200d46580009a
:10531c006622b9008402780024cc2000048242006a
:10532c0055002000050a7800d46580000402e800ce
:10533c00d4658800d4658000f6b080006622b90080
:10534c0084027800e4cb200004824200060a780034
:10535c00d465800006b180006622b9008402780012
:10536c0004cc200004824200060a7800d465800038
:10537c006622b9008402780024cc2000048242000a
:10538c0075002000050a7800d46580000402e8004e
:10539c00d4658800f4b080000402e900f4b0880001
:1053ac00d4658000f6b080006622b90084027800d3
:1053bc00e4cb200004824200060a7800d465800009
:1053cc0006b180006622b9008402780004cc20006b
:1053dc0004824200060a78000002eb0066043700e3
:1053ec0004b18000e00f52000c003200f4b08000d9
:1053fc0005b180000503e9007422b90004027800ad
:10540c000602420084024200a48020000482420072
:10541c0014027800e00f520044003200f4b0800017
:10542c000402e80006b180007422b900040278007e
:10543c000602420084024200a48020000482420042
:10544c0014027800e00f520038003a001e02780077
:10545c00e00f520033003200d46580006622b900a0
:10546c008402780024cc20000482420055002000e5
:10547c00050a7800d46580000402e800d465880031
:10548c00d4658000f6b080006622b90084027800f2
:10549c00e4cb200004824200060a7800d465800028
:1054ac0006b180006622b9008402780004cc20008a
:1054bc0004824200060a7800d46580006622b90096
:1054cc008402780024cc20000482420035002000a5
:1054dc00050a7800d46580000402e800d4658800d1
:1054ec00f4b080000402e800f4b08800d4658000b9
:1054fc00f6b080006622b90084027800e4cb20006c
:10550c0004824200060a7800d465800006b180004f
:10551c006622b9008402780004cc20000482420088
:10552c00060a780064002000130437000082eb00a8
:10553c001104370004b180000402e90004b18800b2
:10554c001e0fe800010037000000000004b18000cd
:10555c000402e900e00f520024003500f4b0800092
:10556c0005b180000503e9007422b900040278003b
:10557c000602420084024200a48020000482420001
:10558c0014027800e00f520018003a00f4b08000ca
:10559c000402e80006b180007422b900040278000d
:1055ac000602420084024200a480200004824200d1
:1055bc0014027800e00f52000c003200f5b08000ad
:1055cc001e029000848f520004003a0005b1800046
:1055dc002e029000848f52000400320065b18000ce
:1055ec0034062000848f5200d2ff3400f4b08000c7
:1055fc000402e80006b180007422b90004027800ad
:10560c000602420084024200a48020000482420070
:10561c0014027800e00f520008003200f5b0800050
:10562c001e029000848f52003c003a0005b18000ad
:10563c002e029000848f520038003a001e0278002f
:10564c00e00f520033003200d46580006622b900ae
:10565c008402780024cc20000482420055002000f3
:10566c00050a7800d46580000402e800d46588003f
:10567c00d4658000f6b080006622b9008402780000
:10568c00e4cb200004824200060a7800d465800036
:10569c0006b180006622b9008402780004cc200098
:1056ac0004824200060a7800d46580006622b900a4
:1056bc008402780024cc20000482420035002000b3
:1056cc00050a7800d46580000402e800d4658800df
:1056dc00f4b080000402e800f4b08800d4658000c7
:1056ec00f6b080006622b90084027800e4cb20007a
:1056fc0004824200060a7800d465800006b180005e
:10570c006622b9008402780004cc20000482420096
:10571c00060a78000002eb009703370004b1800002
:10572c00e00f52000c003200f4b0800005b1800094
:10573c000503e9007422b900040278000602420055
:10574c0084024200a48020000482420014027800eb
:10575c00e00f520044003200f4b080000402e90073
:10576c0006b180007422b9000402780006024200df
:10577c0084024200a48020000482420014027800bb
:10578c00e00f520038003a001e027800e00f520081
:10579c0033003200d46580006622b90084027800a0
:1057ac0024cc20000482420055002000050a780019
:1057bc00d46580000402e800d4658800d4658000bc
:1057cc00f6b080006622b90084027800e4cb200099
:1057dc0004824200060a7800d465800006b180007d
:1057ec006622b9008402780004cc200004824200b6
:1057fc00060a7800d46580006622b900840278001d
:10580c0024cc20000482420075002000050a780098
:10581c00d46580000402e800d4658800f4b08000f0
:10582c000402e900f4b08800d4658000f6b0800072
:10583c006622b90084027800e4cb20000482420086
:10584c00060a7800d465800006b180006622b90093
:10585c008402780004cc200004824200060a7800fe
:10586c0084002000440337000082eb004203370021
:10587c00f4b080000402e800f4b088001e0fe800c9
:10588c000100370000000000f4b080000402e800c2
:10589c00fd0f520024003c00f4b080000402e8002c
:1058ac0006b180007422b90004027800060242009e
:1058bc0084024200a480200004824200140278007a
:1058cc00e00f520018003a00f4b0800005b18000df
:1058dc000503e8007422b9000402780006024200b5
:1058ec0084024200a480200004824200140278004a
:1058fc00e00f52000c003200f5b080001e02900048
:10590c00848f520004003a0005b180002e029000f2
:10591c00848f52000400320065b1800034062000f0
:10592c00848f5200d2ff3400f4b08000fe0f52007e
:10593c0002003a000082eb000f033700f4b0800045
:10594c0005b180000503e8007422b9000402780058
:10595c000602420084024200a4802000048242001d
:10596c0014027800e00f520008003200f5b08000fd
:10597c001e029000848f52003c003a0005b180005a
:10598c002e029000848f520038003a001e027800dc
:10599c00e00f520033003200d46580006622b9005b
:1059ac008402780024cc20000482420035002000c0
:1059bc00050a7800d46580000402e800d4658800ec
:1059cc00d4658000f6b080006622b90084027800ad
:1059dc00e4cb200004824200060a7800d4658000e3
:1059ec0006b180006622b9008402780004cc200045
:1059fc0004824200060a7800d46580006622b90051
:105a0c008402780024cc200004824200150020007f
:105a1c00050a7800d46580000402e800d46588008b
:105a2c0004b180000402e80004b18800d465800051
:105a3c00f6b080006622b90084027800e4cb200026
:105a4c0004824200060a7800d465800006b180000a
:105a5c006622b9008402780004cc20000482420043
:105a6c00060a78000002eb00c3023700f4b0800095
:105a7c00fd0f52000c003200f4b080000402e8006c
:105a8c0006b180007422b9000402780006024200bc
:105a9c0084024200a4802000048242001402780098
:105aac00e00f520044003200f4b0800005b18000d9
