:020000040000fa
:080000000002040000000000f2
:020000040000fa
:100008005603000056030000560300005603000084
:100018005603000056030000560300005603000074
:100028005603000056030000560300009402000027
:100038005603000056030000560300005603000054
:10004800bc020000560300005603000044030000f1
:100058005603000056030000560300005603000034
:100068005603000056030000560300005603000024
:100078005603000056030000560300005603000014
:10008800560300005603000056030000d602000085
:10009800de02000056030000500300005603000073
:1000a80056030000560300005603000056030000e4
:1000b80056030000560300005603000056030000d4
:1000c80056030000560300005603000056030000c4
:1000d80056030000560300005603000056030000b4
:1000e80056030000560300005603000056030000a4
:1000f8005603000056030000560300005603000094
:100108005603000056030000fc02000056030000de
:100118005603000056030000560300005603000073
:100128005603000056030000560300005603000063
:100138005603000056030000560300005603000053
:100148005603000056030000560300002003000079
:100158005603000056030000560300005603000033
:100168005603000056030000560300005603000023
:100178005603000056030000560300005603000013
:100188005603000056030000560300005603000003
:1001980056030000560300005603000056030000f3
:1001a80056030000560300005603000056030000e3
:1001b80056030000560300005603000056030000d3
:1001c80056030000560300005603000056030000c3
:1001d80056030000560300005603000056030000b3
:1001e80056030000560300005603000056030000a3
:0801f80056030000560300004d
:020000040000fa
:100208005603000056030000560300005603000082
:100218005603000056030000560300005603000072
:100228005603000056030000560300009402000025
:100238005603000056030000560300005603000052
:10024800bc020000560300005603000044030000ef
:100258005603000056030000560300005603000032
:100268005603000056030000560300005603000022
:100278005603000056030000560300005603000012
:10028800560300005603000056030000d602000083
:10029800de02000056030000500300005603000071
:1002a80056030000560300005603000056030000e2
:1002b80056030000560300005603000056030000d2
:1002c80056030000560300005603000056030000c2
:1002d80056030000560300005603000056030000b2
:1002e80056030000560300005603000056030000a2
:1002f8005603000056030000560300005603000092
:100308005603000056030000fc02000056030000dc
:100318005603000056030000560300005603000071
:100328005603000056030000560300005603000061
:100338005603000056030000560300005603000051
:100348005603000056030000560300002003000077
:100358005603000056030000560300005603000031
:100368005603000056030000560300005603000021
:100378005603000056030000560300005603000011
:100388005603000056030000560300005603000001
:1003980056030000560300005603000056030000f1
:1003a80056030000560300005603000056030000e1
:1003b80056030000560300005603000056030000d1
:1003c80056030000560300005603000056030000c1
:1003d80056030000560300005603000056030000b1
:1003e80056030000560300005603000056030000a1
:0803f80056030000560300004b
:020000040000fa
:100400000f9720000e7f24000e01880000000000de
:1004100000012000200288000c000700805e2200fe
:100420000100200011000700000020000000e00093
:100430000200320000000200000000001c25020043
:10044000000000000040da000000fe004440a90067
:10045000800720000000e0000300320000002000c0
:10046000a00188004440a800000006009101880017
:10047000800078000000eb0015003700e2804000ab
:1004800032a0b4009101ba00e280400032a0b40072
:100490009102ba00e280400032a0b4000002eb00fa
:1004a000472bde00f507b200602ce10004003a00a3
:1004b0000059eb008301e900fdff3e000400370016
:1004c0006128e100010032000082eb000400070017
:1004d0001101ba000200e000e8ff3a000000060047
:1004e0003159ba008301e9000c0032002159ba00e9
:1004f0008301e900080032000400e00003003a0034
:10050000e280400032a0b400f5ff370011d9ba00f4
:100510008301e900faff3a008100e800e180400031
:1005200032a0b400000006003600f800809fbe0034
:10053000829fbe00849fbe00869fbe000000fa001e
:100540008460a9004d0f0700049020001442780039
:10055000e14f520001003a00d30e07000080fa007c
:100560004f03be004f02be004f01be004f00be0051
:100570003600f900004006000000fa00d2a2a900ef
:1005800094e0a9009460a9009760a9009780a90051
:100590009b40a9009d60a9001fe1a90005e1a900f9
:1005a00011e1a90021e1a900ffff37000000fa00d6
:1005b0008760a9000080fa00004006003600f800bd
:1005c000809fbe00829fbe00849fbe00869fbe00ab
:1005d0000000fa008780a900941007000080fa004c
:1005e0004f03be004f02be004f01be004f00be00d1
:1005f0003600f90000400600849fbe000000fa00ab
:100600008b40a900050f8000048020000482620056
:10061000e00f520004003200a44980000402e80008
:10062000a449880003003700a44980000402e900bf
:10063000a44988000080fa004f02be000040060076
:10064000849fbe000000fa008d60a900850f800025
:100650000480200004826200e00f52000400320097
:10066000b44980000402e800b44988000300370060
:10067000b44980000402e900b44988000080fa000f
:100680004f02be00004006000000fa009560a9007d
:100690008560a9009560a8000080fa00004006006f
:1006a0000000fa000080fa00004006000040da0076
:1006b0000000fe002800fa00889fbe008a9fbe004e
:1006c0008c9fbe0007067800878669000c003b00ff
:1006d000030478008704780008f0a10009f0a10065
:1006e000840f5000858f5800860f5900890f5c00d9
:1006f000030033000cf0a20001003a000cf0a1004e
:100700000a0107006400e1005f0032007801470041
:100710006408e100610032006c01470074855700f5
:100720003200be001201be003a04be001a05be002f
:100730001e039000be0a90008503530006003d0092
:100740000004fd008104fd000205fd008305fd009d
:100750008703ea00050378000df8a30004003200c7
:1007600060041400e0841c0060051d00e0851d008d
:100770006022b8007d0320000d38e1008006eb0008
:100780000b0039004433dd00f300b2008301730035
:1007900039003700848272000d027800e10664009f
:1007a0008b85d1000a85d3008984d3000884d300c7
:1007b0008703e900f7ff3b000800400089804800fc
:1007c0000a0149008b81490004003b0060001000d1
:1007d000e080180060011900e08119000358a300af
:1007e000090032008d827200848272006102600012
:1007f0008301d1000281d3008180d3000080d30027
:100800000603e8001b0037000348a30017003a0066
:100810000600e000170034000603e9000d00a30005
:10082000000048008180480002014900838149009e
:100830000348a3000f003a000600e000090034005e
:100840000603e900000040008180480002014900e1
:100850008381490001003a000003eb000348a30034
:10086000f5ff32006022b800020037008482720077
:10087000618266008100070003f0a1000cf0a70070
:1008800003f0a000bd003700640147006408e100e8
:1008900002003a000df8a300b5003a003200be0095
:1008a0001201be00b50037000002eb006001370006
:1008b0008f1fd100310307008f87e9000000e0009f
:1008c00000000600809feb002c0307008f87e900e3
:1008d0000000e000000006002800fa00889fbe002b
:1008e0008a9fbe008c9fbe0003866b008f000700ae
:1008f0006400e100440032006408e1004a00320074
:100900006100e100460032006108e1004900320068
:10091000ec0647006000b8003d02be003d03be008b
:10092000f48657006011b8003d04be003d05be00ce
:100930007d0320000b0037000000a0008d06e900b9
:10094000130032000402420085824a0006034b0075
:1009500087834b000000400081804800020149006d
:10096000838149000802520089825a000a035b0011
:100970008b835b00f0ff3b000802420089824a0043
:100980000a034b008b834b008d06e900edff3a0014
:100990008482720086827200f707b200878272003a
:1009a00001003200150020001e0490003e0b900054
:1009b00006035400e63fb0000368a30007003200be
:1009c0000000a7000500a0008301d1000281d30030
:1009d0008180d3000080d3000603e8008301d100aa
:1009e0000281d3008180d3000080d3000002eb009d
:1009f0000482d2002100070003f0a1000cf0a70040
:100a000003f0a0005d003700640247006408e100c5
:100a1000570032003400be003401be00f6ff37003c
:100a20006108e100520032006011b8006000b800b7
:100a3000f1ff370003ff270002002000fbff370013
:100a4000839f68000100e00002003d00600010008c
:100a5000e08018000300e00002003d00600111008a
:100a6000e0811900a10107004f00e00002003b00f7
:100a700060001000e0801800000006001800200050
:100a800057002000080453000d003d000600200020
:100a900097fc2f000740e1001e00340084827200a2
:100aa000610260008301d1000281d3008180d30004
:100ab0000080d3000804e800f8ff3a004700200057
:100ac0006104600005047400040464000d00320039
:100ad00061004000e080480060014900e081490079
:100ae00003b8a500070032000603e8006538e100fe
:100af00004003a008301d1000281d3008180d30039
:100b00000080d300f87f20000830e10003003500aa
:100b1000080378006000b8006011b8004433dd00bd
:100b2000f300b20083017300000006006804470070
:100b30000294be000094be00fc0447008694be00f0
:100b40008494be0009007800d502070008007800f0
:100b5000d302070099007800814f70000b003b0022
:100b60000800be00ae0207004f00b10003003700ce
:100b7000f3ff2700f2ff2f006110b9004f06be00ff
:100b80004f05be004f04be000080fa0000000600c2
:100b90001400fa00889fbe008a9fbe008c9fbe0092
:100ba0000004be000205be00680047000a90be00b7
:100bb0000890be00ba0207000070a7000bf0a10069
:100bc000304320009e02900080825200b0fe2f0031
:100bd0000028e10011003d00b0fc2f000028e100da
:100be000150034001e0990008e0890007e009000d1
:100bf0000501b0000201d1008180d3000080d30044
:100c00008502e800fbff3a000b00e000dbff3b0041
:100c100060001000e0801800d8ff3700f0ff2f00c0
:100c2000f1ff27000b00e000d4ff3b00010028008b
:100c300000002000d1ff37006000b800cfff370070
:100c40004f89de0082017800bc0237006011b800d5
:100c5000ca0237002800fa00889fbe008a9fbe00a3
:100c60008c9fbe0003866b00b0ff07000028a30026
:100c700064003a000128a30067003a000008a300be
:100c800062003a000108a30065003a001e009000cf
:100c9000be08900081064000ed3fb100f48057008f
:100ca000ee019000111ab8008e099000311bb800b7
:100cb0009e099000311cb800511db800f485570002
:100cc00046000700fe0190003a0007008b85e8000f
:100cd0003e0007008e09900040000700ee019000e2
:100ce000340007008b85e800380007008e0990006b
:100cf000400007009e0990001b18b80089044000be
:100d00000a854800fe019000340007008b85e8004a
:100d100038000700ee019000300007008e099000b7
:100d20001b18b800890440000a8548000a98a300ef
:100d300008003a000402420085824a0006034b0084
:100d400087834b0008044c0089844c000a054d0041
:100d50008d06e90084827200850273004c3add0042
:100d6000850272000100320015002000443ade00c6
:100d70001400b2004538de00cb45dd000b007000ea
:100d8000c540de00cb4ddd008b8070004549de00a4
:100d9000cb55dd000b017100c551de000d0378005d
:100da00036ff070003f0a1000cf0a70003f0a0003d
:100db00072ff37001b18b800850240000683480008
:100dc000e0834b0060044c00070037001b18b8009c
:100dd0000603400087834800faff37001b18b8005d
:100de0008703400008844800e0844c0060054d0003
:100df000000006001b18b800080440008984480061
:100e0000faff37000108a30059ff3a005800be005e
:100e10005801be00e3ff37000008a30054ff3a006a
:100e200009047800f9ff37001400200000003700a3
:100e30000800fa00889fbe008a9fbe008c9fbe00fb
:100e4000040678000004be000205be00020207008e
:100e50006420e1009f003e009b0032006120e10021
:100e60009600320003f0a100171b240036582c0016
:100e700005a02100040020008dfe07000800be0030
:100e80000a01be000700350097012400b61f2200aa
:100e90004544250084d12200630207000004be00ff
:100ea0000205be008006eb000c00a700cf1ede008e
:100eb00003f0a1000bf0a10047fd230006f325007d
:100ec00095dc260034882c0062ff07006022b80001
:100ed0000003eb0007fe23000c00a60007ff230021
:100ee000f4fd07002aff07000000a7000d00a20084
:100ef00053ff07000c00e00004003a0007fe230047
:100f0000060020006022b8007600070003f0a2006f
:100f1000009fbe000297be0097002400060022003a
:100f20006022b8004bff07000802be000a03be00a3
:100f3000e0fd0700809fbe00829fbe003e00be0015
:100f40002e01be00f7f4230046542b00152d24007b
:100f5000a44628003fff07004f03be004f02be001b
:100f6000d4fd07000004be000205be0003f0a1008e
:100f700067e42300e6092a00f5672600d4bc2300b5
:100f80004bfe07000800be000a01be004800350005
:100f90000002be000203be002eff0700009fbe003d
:100fa0000297be0087ce2300f60f28003599260051
:100fb00054f92d0027ff0700a7d62b0006422e006c
:100fc00085c02d00c4992400bafd07003e02be0072
:100fd0002e03be001fff070067de2300c62321008b
:100fe000a586260004432d00b2fd07003e02be0088
:100ff0002e03be0017ff0700a7e52b0056642e0046
:10100000d5b52400b40a2c00aafd07003e02be009c
:101010002e03be000fff070077ec230036de210011
:1010200045522a0034062f00a2fd07003e02be00f2
:101030002e03be0007ff0700a7f22b00061a2000b0
:1010400015a02100a4e123009afd07003e02be0086
:101050002e03be00fffe070017f823001611210023
:1010600015112100040b210092fd07003e02be0075
:101070002e03be00f7fe070057fc2b005655250037
:1010800055552500545525008afd07003e02be0037
:101090002e03be00effe07000802be000a03be00da
:1010a000ecfe07000802be000a03be0081fd070037
:1010b0000d00a70003f0a200b0fe37000c00a60050
:1010c00003ff2300adfe3700f3ff2700f2ff2f00e0
:1010d0006110b9000330a00014022000744b880096
:1010e000a6fe370007f0a20072fd37006022b800ac
:1010f000060220000000d0008180d2000482d200cd
:101100008582d2000000a0000202520083825a00b1
:10111000030031000202420083824a000000a10065
:101120000603e900f3ff3a0000000600889fbe00b6
:101130008a9fbe003004be002005be0004044400a7
:1011400085844c0006054d0087854d000898be003b
:101150000a90be000440e10005c8e10006d0e100ad
:1011600007d8e10002003100680040001008e800e4
:101170004f05be004f04be00000006001000fa003c
:10118000889fbe008a9fbe000605be000404be0004
:101190003002be002003be00c4b79f00d5b79f0039
:1011a000e6b79f00f7b79f000802520089825a00f5
:1011b0000a035b008b835b0084bf9f0095bf9f0089
:1011c000a6bf9f00b7bf9f000498be000698be0050
:1011d000110020004fb29700dfb297006fb3970065
:1011e000ffb397000820e10009a8e1000ab0e10080
:1011f0000bb8e100010039008000eb0010881000fe
:101200004f05be004f04be000080fa00000006003b
:101210001400fa00889fbe008a9fbe008c9fbe000b
:101220003f0007000605be000404be000006eb00f8
:10123000ccb79f00bcb79f00acb79f009cb79f0086
:101240008cb79f000d0420004fb39700bfb29700ea
:10125000860343002fb29700e00f530004003d00c7
:101260003d0007000f004000b0ff070003003700fb
:10127000390007000f004000c0ff0700cfb2970001
:1012800095bf9f00e08f5200090035002b0007003a
:1012900014002000050020006033b8000000720038
:1012a0008180720002017300838173001c000700bb
:1012b0000c06e8008d0f5600e3ff3a001fba9700b6
:1012c000e00f520005003d000802be000a03be0008
:1012d00000fe2f000f00400094ff07004faa970068
:1012e000e00f520008003a000fb497009fb4970037
:1012f0002fb59700bfb59700d8b79f00e9b79f00fb
:10130000fab79f008bbf9f000c0007004f06be007e
:101310004f05be004f04be000080fa00000006002a
:10132000010007000000060090b79f00a1b79f00d2
:10133000b2b79f00c3b79f0000000600010007007e
:10134000000006001fb09700afb097003fb19700b4
:10135000cfb19700000006004f2bde00870373001b
:10136000a7b79f004f23de008582420085027300ed
:1013700095b79f00ffaa97004f2bde0004024200a2
:101380000402730084b79f006faa97004f23de000a
:101390008582420085027300f5af9f00e9ff0700d8
:1013a0004f18de000402420000027200e4af9f000a
:1013b000e4ff07000000400081804800020149006e
:1013c00083814900d8ff07000802be000a03be005f
:1013d00000fe2f0000000600881f78001800200083
:1013e000881f78008aff07008f87e9004f04780084
:1013f00000000600801feb0085ff07008f87e900d3
:1014000000000600889fbe008a9fbe00e00f5000cb
:10141000e08f5800e00f5900e08f59000c003d00ac
:101420006044b8006055b8000000540081805c0042
:1014300002015d0083815d00180020001500070097
:1014400008003d00180007000004eb00050037000d
:101450000004eb000f00070002003d00120007002f
:1014600018002000dcff0700e00f540006003200e7
:101470006022b8006033b8000000520081805a003a
:1014800002015b0083815b004f05be004f04be007c
:1014900000000600e00f5200e08f5a00e00f5b00f2
:1014a000e08f5b00000006006044b8006055b800a3
:1014b0000402540085825c0006035d0087835d00a2
:1014c00000000600889fbe008a9fbe008c1f780027
:1014d000e00f5000e08f5800e00f5900e08f5900f6
:1014e0000d003d006044b8006055b8000000540095
:1014f00081805c0002015d0083815d001c00200092
:101500000820e10009a8e1000ab0e1000bb8e10001
:101510000d003d00080037000006eb00e00f520010
:10152000e08f5a00e00f5b00e08f5b0006003d009b
:101530006044b8006055b8000402540085825c0025
:1015400006035d0087835d00aaff0700e00f5600d9
:10155000060032006022b8006033b800000052007c
:1015600081805a0002015b0083815b004f06780096
:101570004f05be004f04be0000000600889fbe005d
:101580008a9fbe008c9fbe000404be000605be00fc
:10159000809fbe00829fbe002f00070004067800d7
:1015a0000800be000a01be002b0007008406780078
:1015b0004f03be004f02be008d4f76007fb09700f4
:1015c00013003300f0ff2f008b8f6b0006003b00f1
:1015d0000d0666000c00a7000a00370007f0a60001
:1015e000100020000a003700880f5200898f5a002f
:1015f0008a0f5b008b8f5b00030039001000200016
:1016000001003e000000200007f0a7000000ea00f3
:101610004f06be004f05be004f04be00000006008e
:10162000e48240001078a30007003200640240000a
:101630001178a3003400be001401be000400320083
:101640000330a700000006003500be001501be00f3
:101650000330a0000000060005ff2700058261009e
:10166000070032000428e1000100320024000500d8
:101670000600070001003a004400050004080500c8
:1016800002000700f9ff3a00140005006f826100b4
:101690008102700085027100850272000000060060
:1016a000800078005002be005003be004439de00c6
:1016b000f700b200f37f200003016100090032004f
:1016c0000218e10016003a008501720083017300e0
:1016d000838173000008200015003a0040002000bc
:1016e000130037008501720083017300838173004a
:1016f00005003a0004a8be0006a8be0010002000a5
:101700000b0037000201e9000402420085824a0012
:1017100006034b0087834b000748a300f9ff320004
:101720000740a00004a8be0006a8be0020002000bc
:10173000800098009200980000000600881f780042
:10174000030478000300e00007003d006000100083
:10175000e080180060011900e081190002003b00e0
:1017600001f02d00030037000400070008f0a70077
:1017700003f0a0004f04780000000600889fbe0020
:1017800000827000040271000482710024003200a3
:1017900036432000c50020008383cf000a003900b3
:1017a0000541b1008283cf00070039000541b10037
:1017b0008183cf00040039000541b1008083cf0050
:1017c000010039000541b10085c353006022b80013
:1017d000120032000a003b00848272006102600045
:1017e0008301d1000281d3008180d3000080d30027
:1017f0000603e8008743e800f7ff3a0007003700d8
:1018000000004000818048000201490083814900b6
:101810000603e9008743e900f9ff3a0097fc070057
:101820004f04be0000000600801feb00020007000e
:101830008f87e900000006002800fa00889fbe009c
:101840008a9fbe008c9fbe000efe9700b7fc07006b
:101850006108e1005c0032006200e1005a003e00d5
:10186000540039006408e100520032006c01470066
:10187000748557003200be001201be003a04be005b
:101880001a05be009e029000be0e90000d8252000e
:1018900017003b000402e80046003a00880f5000a1
:1018a000898f58008a0f59008b8f590041003400ee
:1018b00064014700780347003200be001201be00f9
:1018c0003602be001603be0007f0a10003f0a6001a
:1018d00007f0a0000c70a70076fb0700a7fc3700fc
:1018e00000004000818048000201490083814900d6
:1018f0000c00a00008005000898058000a0159001f
:101900008b81590005003b00080040008980480099
:101910000a0149008b8149000c00a1000402e90082
:10192000efff3b00000240008182480002034900b3
:10193000838349001b0032000802520089825a004a
:101940000a035b008b835b004200f8000500370050
:101950000000400081804800020149008381490065
:101960008d06e9000340a600f9ff37006022b800a9
:101970000d03780041fc0700780347004200f9009e
:101980000800350002003c000c08a30005003200ee
:101990003602be001603be0007f0a0000c70a700c0
:1019a00044fb07005e02900004f0a70003f0a200d1
:1019b00072fc37002e009000be0090004e01900097
:1019c000de0190006dfc3700100220000c70a600b4
:0819d000704b880066fc370033
:020000040000fa
:1019d8005541000052540000206300006f6e000063
:1019e800666900006775000072650000200a000043
:1019f8000d000000505700004d200000636f0000ec
:101a08006e660000696700007572000065200000be
:101a18000a0d000000540000494d00004552000026
:101a280020610000637400006976000065200000f2
:101a38000a0d0000000a00000a0d00006173000092
:101a48007365000072760000206100006374000076
:101a580069760000652000000a0a00000a0d0000ef
:101a680000000000434f00004e53000049470000ab
:101a78004e450000203a0000205b0000005d000099
:101a88002c2000004163000074750000203a00001b
:101a9800205b0000005d00002c200000546800005e
:101aa800e96f000072690000717500006520000090
:101ab8003a2000005b0000005d2000000d000000df
:020000040000fa
:101ac8000600fa00004f78001207980023079800d4
:101ad8001e427800e14f520025003a001e00900097
:101ae800ae0090004b000700000278004411880007
:101af80021e2a90022a2a900141180000460a1001b
:101b08000470a100141188002362a90023c2a9004f
:101b180023a2a90023e2a90022c2a90022e2a90067
:101b28002002a900041180000410a1000420a100d3
:101b3800041188002062a8002082a90020a2a90020
:101b480020c2a90020e2a900041180000480a1009d
:101b58000490a100041188002162a9002182a90033
:101b680021a2a90021e2a8002342a80027003700eb
:101b78001e427800e34f520024003a001e009000f5
:101b8800ae0090002300070000027800c41188000e
:101b980031e2a90032a2a900941180000460a100da
:101ba8000470a100941188003362a90033c2a9000f
:101bb80033a2a90033e2a90032c2a90032e2a90087
:101bc8003002a900841180000410a1000420a100a3
:101bd800841188003062a8003082a90030a2a900d0
:101be80030c2a90030e2a900841180000480a1005d
:101bf8000490a100841188003162a9003182a900f3
:101c080031a2a90031e2a8003342a8000080fa00fe
:101c1800000006000400fa00889fbe008a9fbe00ec
:101c2800008fbe001e02be0006d420003700200030
:101c3800860f5200878f5a004200320006d42000d7
:101c480037002000860f5200878f5a001b003e0085
:101c580006b0240007002000860f5200878f5a0024
:101c68003e00320006b0240007002000860f520014
:101c7800878f5a0006003e00065822000700200001
:101c8800860f5200878f5a0036003200370037001f
:101c980006102e0007002000860f5200878f5a007a
:101ca8002c00320006202c0017002000860f52005e
:101cb800878f5a00250032002c00370006a8210023
:101cc80067002000860f5200878f5a0019003200e3
:101cd80006a8210067002000860f5200878f5a004f
:101ce80006003e0006092d0037002000860f52002e
:101cf800878f5a00110032001c00370006122a0094
:101d080077002000860f5200878f5a0007003200a4
:101d180006242400f7002000860f5200878f5a00ff
:101d280012003a00940020003300370034012000ec
:101d380031003700840120002f0037007402200092
:101d48002d003700140320002b0037006405200005
:101d580029003700d40a20002700370084202000fb
:101d68002500370014412000230037001e04be0060
:101d78000005eb008005eb000802be000a03be0068
:101d8800b0b72700212620006011b8009bfd07008e
:101d98000203be000002be00e00f5200e08f5a00ae
:101da800e00f5b00e08f5b0007003d003000200083
:101db800010020006011b80004024000858248003c
:101dc80006034900878349004222de00ce28dd0051
:101dd80004827000c22ade00ce30dd0085827000e9
:101de8004233de00ce38dd0006837000c2bbde0061
:101df800040278000402e900040078004f05be00e0
:101e08004f04be000080fa00000006000600fa0039
:101e1800004f780012079800230798001e427800a8
:101e2800e14f520007003a0021e2a9001e0090008d
:101e3800ae00900077ff0700000278004411880088
:101e480021e2a8000080fa00000006000200fa0063
:101e5800004f7800114798001e427800e14f520069
:101e68000a003a000000000015118000042020003c
:101e780004826200e00f5200fbff3a001e4290000d
:101e88000482fb00241188000c0037001e427800f1
:101e9800e34f520009003a0000000000951180004d
:101ea8000420200004826200e00f5200fbff3a0089
:101eb8001e4290000482fb00a41188000080fa00f2
:101ec800000006000400fa00004f7800110798008f
:101ed8001e02900014427800844078001e4078006a
:101ee800daff07001e029000144278000482fb000b
:101ef8000402ea004f22de00044278009e029000ad
:101f08008502e80015079800e04f5200f0ff3a00fc
:101f18000080fa00000006000800fa002047980038
:101f280021079800320798000002eb00040f7800a0
:101f3800160037002e429000e14f520008003a0088
:101f48001e027800ae02900004824200144278001b
:101f58008440780010c0b300bcff07000a003700b7
:101f68002e429000e34f520007003a001e0278000c
:101f7800ae02900004824200144278008440780047
:101f880030c0b300b1ff07001e0fe8009e027800c2
:101f98003e029000848f5200e6ff39000080fa006c
:101fa800000006000e00fa00600798000002eb002f
:101fb800040f78006e029000e00f520008003d0008
:101fc8006e0290000402ea0064079800549620000c
:101fd8009e024200d4c2b300844a78001e0fe80073
:101fe800ee02900004712200110009008402d8005a
:101ff80000027800140798009e029000048f2d00bc
:1020080004aab900840278006e029000848242001b
:10201800843e2000110009008402d80000027800e4
:10202800240798009e029000048f2d0004aab9008e
:1020380004037800ae02900084c12f0004aab900fe
:1020480004027800840243006e02900084824200f9
:1020580044062000110009008402d800000278001c
:10206800340798009e029000048f2d0004aab9003e
:1020780004037800ae02900084c12f0004aab900be
:1020880004027800840243006e0290000483420038
:10209800be029000c4f92f0004aab9000402780017
:1020a80084024300a4002000110009008402d80023
:1020b80000027800440798009e029000048f2d00cb
:1020c80004aab90004037800ae02900084c12f006e
:1020d80004aab90004027800840243006e0290004a
:1020e80004834200ce02900064ff2f0004aab900c6
:1020f80084037800be029000c4f92f0004aab90036
:102108000402780004824300040243005407980044
:102118001e029000044278000443b0005596200047
:102128009e824200844a78001e0fe8002e0290002a
:10213800044278000443b000559620009e82420075
:10214800844a78001e0fe8003e029000044278009e
:102158000443b000559620009e824200844a7800cd
:102168001e0fe8004e029000044278000443b000bd
:10217800559620009e824200844a78001e0fe8008f
:102188005e029000044278000443b0005596200097
:102198009e824200844a78001e0fe8005496200070
:1021a8009e0242000042eb00844a78001e0fe800bd
:1021b80054962000040078000080fa000000060011
:1021c8002e00fa00889fbe005017980061179800eb
:1021d8000002eb00040f78005e129000ee129000ef
:1021e800e00f5200e08f5a000b003d005e12900095
:1021f800ee12900060021200e0821a005417980054
:1022080065179800649520009e024200d4c2b3006e
:10221800844a78001e0fe8005e129000ee129000cb
:1022280002a02c00a3b923000400be0002fa070094
:102238000002be0014079800250798001e029000af
:10224800ae0290000660230006abb90006037800d2
:1022580057462c0007a0b900800378000703430005
:102268008402780004602300042ab80005034300b0
:10227800860278005e139000ee139000040243007b
:1022880085824b0002102e00535f20000400be0020
:10229800e9f907000002be003407980045079800d6
:1022a8001e029000ae0290000660230006abb90043
:1022b8000600780056462c0006a3b90006037800ed
:1022c800060040008402780004602300042bb80054
:1022d80007004000800378003e029000ce02900084
:1022e80000f0210000a8b90000007800a1a02f008c
:1022f80001a1b90082007800010040008402780042
:1023080004f02100042ab80005004000800278008b
:102318000603420087834a005e129000ee12900086
:102328000602420087824a000268290083092000c9
:102338000400be00c0f907000002be005407980060
:10234800650798001e029000ae0290000660230008
:1023580006abb9000600780056462c0006a3b90063
:102368000603780006004000840278000460230019
:10237800042bb80007004000800378003e0290005c
:10238800ce02900000f0210000a8b90000007800fb
:10239800a1a02f0001a1b90082007800010040002f
:1023a8008402780004f02100042ab80005004000e7
:1023b800800278000603420087834a005e1290007c
:1023c800ee1290000600420087804a005e029000ec
:1023d800ee0290000698260006abb90006037800c6
:1023e80077f62f0007a1b90082037800070343009e
:1023f8008402780004982600042ab80005034300e4
:10240800860278000002420081824a0002242400e9
:10241800f30020000400be0087f907000002be0098
:1024280074079800050f98001e029000ae029000f5
:102438000660230006abb9000600780056462c005b
:1024480006a3b9000603780006004000840278005d
:1024580004602300042bb8000700400080037800c4
:102468003e029000ce02900000f0210000a8b900c2
:1024780000007800a1a02f0001a1b9008200780017
:10248800010040008402780004f02100042ab8000a
:1024980005004000800278000603420087834a0056
:1024a8005e129000ee1290000601420087814a00f9
:1024b8007e0290008e0a900006dc2b0006abb90065
:1024c8000600780006ff2f0006a3b900060378006f
:1024d800060040008402780004dc2b00042bb800be
:1024e80007004000800378005e029000ee02900032
:1024f8000098260000a8b9000000780071f62f00a7
:1025080001a4b90088007800010040008402780026
:1025180004982600042ab8000500400080027800cc
:102528000602420087824a000202420083824a0071
:10253800026a2800130020000400be003ef90700cc
:102548000002be00140f9800250f98001e0290008c
:10255800ae0290000660230006abb90006007800c2
:1025680056462c0006a3b900060378000600400072
:102578008402780004602300042bb80007004000a0
:10258800800378003e029000ce02900000f0210007
:1025980000a8b90000007800a1a02f0001a1b9008f
:1025a80082007800010040008402780004f02100d5
:1025b800042ab800050040008002780006034200a3
:1025c80087834a005e129000ee12900006014200d6
:1025d80087814a007e0290008e0a900006dc2b005c
:1025e80006abb9000600780006ff2f0006a3b90065
:1025f80006037800060040008402780004dc2b0003
:10260800042bb80007004000800378005e029000a9
:10261800ee0290000098260000a8b900000078009b
:1026280071f62f0001a4b90088007800010040006d
:102638008402780004982600042ab80005004000a7
:10264800800278000602420087824a0002004200a7
:1026580083804a001e0a9000ae0a90000696270062
:1026680006abb90006037800e7ff2f0007a1b90001
:102678008203780007034300840278000496270049
:10268800042ab800050343008602780000024200cd
:1026980081824a0002712200030020000400be006b
:1026a800e5f807000002be00340f9800450f9800b7
:1026b8001e029000ae0290000660230006abb9002f
:1026c8000600780056462c0006a3b90006037800d9
:1026d800060040008402780004602300042bb80040
:1026e80007004000800378003e029000ce02900070
:1026f80000f0210000a8b90000007800a1a02f0078
:1027080001a1b9008200780001004000840278002d
:1027180004f02100042ab800050040008002780077
:102728000603420087834a005e129000ee12900072
:102738000601420087814a007e0290008e0a9000be
:1027480006dc2b0006abb9000600780006ff2f0058
:1027580006a3b9000603780006004000840278004a
:1027680004dc2b00042bb80007004000800378002d
:102778005e029000ee0290000098260000a8b900c2
:102788000000780071f62f0001a4b90088007800d5
:10279800010040008402780004982600042ab8004a
:1027a80005004000800278000602420087824a0045
:1027b8000201420083814a003e0a9000ce0a90003e
:1027c800068f2d0006abb900060078000083eb00e9
:1027d80006a3b900060378000600400084027800ca
:1027e800048f2d00042bb8000700400080037800f8
:1027f8001e0a9000ae0a90000096270000a8b900b3
:1028080000007800e1ff2f0001a4b90088007800db
:10281800010040008402780004962700042ab800ca
:1028280005004000800278000602420087824a00c4
:102838000202420083824a00823e200003002000f8
:102848000400be007cf807000002be00540f980088
:10285800650f98001e029000ae02900006602300eb
:1028680006abb9000600780056462c0006a3b9004e
:102878000603780006004000840278000460230004
:10288800042bb80007004000800378003e02900047
:10289800ce02900000f0210000a8b90000007800e6
:1028a800a1a02f0001a1b90082007800010040001a
:1028b8008402780004f02100042ab80005004000d2
:1028c800800278000603420087834a005e12900067
:1028d800ee1290000601420087814a007e029000b5
:1028e8008e0a900006dc2b0006abb90006007800c3
:1028f80006ff2f0006a3b900060378000600400073
:102908008402780004dc2b00042bb8000700400088
:10291800800378005e029000ee0290000098260086
:1029280000a8b9000000780071f62f0001a4b900d2
:10293800880078000100400084027800049826008e
:10294800042ab80005004000800278000602420010
:1029580087824a000201420083814a003e0a9000b1
:10296800ce0a9000068f2d0006abb900060078004d
:102978000083eb0006a3b9000603780006004000b8
:1029880084027800048f2d00042bb8000700400053
:10299800800378001e0a9000ae0a90000096270077
:1029a80000a8b90000007800e1ff2f0001a4b900d9
:1029b800880078000100400084027800049627000f
:1029c800042ab80005004000800278000602420090
:1029d80087824a000200420083804a005e0a900013
:1029e800ee0a900086c12f0006abb90006037800f6
:1029f8008083eb0007a1b900820378000703430036
:102a08008402780084c12f00042ab800050343001b
:102a1800860278000002420081824a0042062000b5
:102a2800030020000400be0003f807000002be00f7
:102a3800740f9800051798001e029000ae029000cf
:102a48000660230006abb9000600780056462c0045
:102a580006a3b90006037800060040008402780047
:102a680004602300042bb8000700400080037800ae
:102a78003e029000ce02900000f0210000a8b900ac
:102a880000007800a1a02f0001a1b9008200780001
:102a9800010040008402780004f02100042ab800f4
:102aa80005004000800278000603420087834a0040
:102ab8005e129000ee1290000601420087814a00e3
:102ac8007e0290008e0a900006dc2b0006abb9004f
:102ad8000600780006ff2f0006a3b9000603780059
:102ae800060040008402780004dc2b00042bb800a8
:102af80007004000800378005e029000ee0290001c
:102b08000098260000a8b9000000780071f62f0090
:102b180001a4b90088007800010040008402780010
:102b280004982600042ab8000500400080027800b6
:102b38000602420087824a000201420083814a005d
:102b48003e0a9000ce0a9000068f2d0006abb90011
:102b5800060078000083eb0006a3b900060378009e
:102b68000600400084027800048f2d00042bb80072
:102b780007004000800378001e0a9000ae0a90000b
:102b88000096270000a8b90000007800e1ff2f0098
:102b980001a4b90088007800010040008402780090
:102ba80004962700042ab800050040008002780037
:102bb8000602420087824a000201420083814a00dd
:102bc8007e0a90008e129000c6f92f0006abb9005d
:102bd800060078000083eb0006a3b900060378001e
:102be8000600400084027800c4f92f00042bb800c6
:102bf80007004000800378005e0a9000ee0a90000b
:102c080080c12f0000a8b900000078008080eb0088
:102c180001a4b9008800780001004000840278000f
:102c280084c12f00042ab800050040008002780003
:102c38000602420087824a000202420083824a005a
:102c4800a2002000030020000400be007af707005d
:102c58000002be0014179800251798001e02900065
:102c6800ae0290000660230006abb90006007800ab
:102c780056462c0006a3b90006037800060040005b
:102c88008402780004602300042bb8000700400089
:102c9800800378003e029000ce02900000f02100f0
:102ca80000a8b90000007800a1a02f0001a1b90078
:102cb80082007800010040008402780004f02100be
:102cc800042ab8000500400080027800060342008c
:102cd80087834a005e129000ee12900006014200bf
:102ce80087814a007e0290008e0a900006dc2b0045
:102cf80006abb9000600780006ff2f0006a3b9004e
:102d080006037800060040008402780004dc2b00eb
:102d1800042bb80007004000800378005e02900092
:102d2800ee0290000098260000a8b9000000780084
:102d380071f62f0001a4b900880078000100400056
:102d48008402780004982600042ab8000500400090
:102d5800800278000602420087824a00020142008f
:102d680083814a003e0a9000ce0a9000068f2d000b
:102d780006abb900060078000083eb0006a3b90093
:102d8800060378000600400084027800048f2d00b6
:102d9800042bb80007004000800378001e0a90004a
:102da800ae0a90000096270000a8b900000078003d
:102db800e1ff2f0001a4b90088007800010040005d
:102dc8008402780004962700042ab8000500400011
:102dd800800278000602420087824a00020142000f
:102de80083814a007e0a90008e129000c6f92f0057
:102df80006abb900060078000083eb0006a3b90013
:102e0800060378000600400084027800c4f92f0009
:102e1800042bb80007004000800378005e0a900089
:102e2800ee0a900080c12f0000a8b90000007800c9
:102e38008080eb0001a4b900880078000100400000
:102e48008402780084c12f00042ab80005004000dd
:102e5800800278000602420087824a00020042008f
:102e680083804a001e129000ae12900066ff2f0069
:102e780006abb900060378008083eb0007a1b90010
:102e880082037800070343008402780064ff2f0060
:102e9800042ab800050343008602780000024200b5
:102ea80081824a0034179800451798001e02900046
:102eb800ae029000044278000443b00065952000fb
:102ec8009e824200844a78001e0fe8003e0290006d
:102ed800ce029000044278000443b00065952000bb
:102ee8009e824200844a78001e0fe8005e0290002d
:102ef800ee029000044278000443b000659520007b
:102f08009e824200844a78001e0fe8007e029000ec
:102f18008e0a9000044278000443b00065952000b2
:102f28009e824200844a78001e0fe8001e0a900024
:102f3800ae0a9000044278000443b0006595200072
:102f48009e824200844a78001e0fe8003e0a9000e4
:102f5800ce0a9000044278000443b0006595200032
:102f68009e824200844a78001e0fe8005e0a9000a4
:102f7800ee0a9000044278000443b00065952000f2
:102f88009e824200844a78001e0fe8007e0a900064
:102f98008e129000044278000443b000659520002a
:102fa8009e824200844a78001e0fe8001e1290009c
:102fb800ae129000044278000443b00065952000ea
:102fc8009e824200844a78001e0fe8003e1290005c
:102fd800ce129000044278000443b00065952000aa
:102fe8009e824200844a78001e0fe8006495200003
:102ff8009e0242000042eb00844a78001e0fe8005f
:1030080064952000040078004f04be000080fa0098
:10301800000006000200fa00000f78001e00780089
:10302800e0fb0700000278008400780010c0b300bd
:10303800a4fb07000080fa00000006000400fa0064
:10304800008fbe001e00be005dfc07000002780075
:103058008400780010c0b3009afb07000080fa00d3
:10306800000006000000fa0005e1a9000421a900fb
:1030780004c1a900240880000440a0000450a00056
:10308800240888000002eb0004088800c4612000be
:10309800140888008460a9009460a8000080fa00e1
:1030a800000006000000fa001fe1a9001e21a90087
:1030b8001e61a9001ec1a900f40880000440a000f8
:1030c8000450a000f40888000002eb00a40888005f
:1030d800b4612000d40888008760a9009760a80020
:1030e8000080fa00000006000000fa0021e1a900b3
:1030f8002021a90020c1a900040980000440a000e3
:103108000450a000040988000002eb00a40888000d
:1031180084a12700d40888008780a9009780a80088
:103128000080fa00000006000000fa0013e1a90080
:1031380011e1a9001061a8001021a90010c1a9007f
:10314800840880000440a0000450a000840888007f
:103158000002eb00540888000002eb0034088800e5
:10316800640d200074088800a4f62900640888000b
:103178008500a9009500a8000080fa00000006005c
:103188000000fa0011e1a8000080fa000000060023
:103198000000fa00453a800004fc2f000482620017
:1031a800443a8800143a80000480a1000490a100e9
:1031b80004a0a100143a88004207a80000000000fb
:1031c800143a800061026200e00f5200fcff3a00ee
:1031d80064092000343a8800243a80000460a10081
:1031e8000470a100243a8800253a800004fe2f00cc
:1031f800048262005400b300243a8800243a800014
:1032080004c0a10004d0a10004e0a100243a880071
:10321800143a80000480a0000490a10004a0a1003a
:10322800143a88004207a80000000000143a800001
:1032380061026200e00f5200fcff3a00000000004b
:10324800153a80000402200004826200e00f520058
:10325800fbff32000080fa00000006000000fa00c0
:103268002535800004fe2f0004826200e400b300cc
:103278002435880075368000f40f2e0084826200a1
:1032880004302000048272007436880035358000ce
:1032980004fe2f00048262005400b3003435880015
:1032a8003536800004fe2f00048262005400b3000b
:1032b80034368800e5348000f40f2e0084826200e2
:1032c8000490210004827200e4348800e534800010
:1032d80004fe2f00048262008401b300e4348800f5
:1032e80005358000f40f2e008482620004702100ee
:1032f80004827200043588000535800004fe2f0022
:10330800048262006401b30004358800c0622800aa
:10331800e10120001e0607000080fa0000000600f8
:103328000000fa0021e3a9002c03a8002c23a80020
:103338002c43a8002c63a8002c83a8002ca3a80069
:103348002cc3a8002ce3a8002d03a800c801a900dd
:10335800c881a900c821a900c8a1a900c841a9001d
:10336800c8c1a900c002a8006040a9006840a9001f
:10337800c022a8006060a9006860a900c062a80017
:1033880063a0a9006ba0a900c082a8006000a900e2
:103398006800a900c0e2a900c102a800c122a800d3
:1033a800c142a900c802a9006080a9006880a900dc
:1033b800c822a90060a0a90068a0a900c842a90065
:1033c80060c0a90068c0a900c862a90060e0a9009f
:1033d80068e0a900c882a8006020a9006820a900a8
:1033e800c8a2a8006360a9006b60a900c8c2a900b0
:1033f8006300a9006b00a900c8e2a90062e0a90067
:103408006ae0a900c902a90062c0a9006ac0a900af
:10341800c922a90062a0a9006aa0a900c942a900fe
:103428006200a9006a00a900c962a90061e0a900b8
:1034380069e0a900c982a90061c0a90069c0a90002
:10344800c9a2a90061a0a90069a0a900c9c2a800d1
:103458006180a9006980a900c9e2a9006160a9008a
:103468006960a900d002a8006100a9006900a9004c
:10347800d022a8006120a9006920a900d042a80094
:103488006140a9006940a900d062a8006380a90032
:103498006b80a900d082a8006320a9006b20a90036
:1034a800d0a2a9006340a9006b40a900d0c2a8001f
:1034b8006240a9006a40a900d0e2a8006220a900e1
:1034c8006a20a900d102a8006280a9006a80a90028
:1034d800d122a8006260a9006a60a900c402a900fc
:1034e800c422a900c462a900c482a900c4e2a90038
:1034f800c502a900c522a900c542a900cc02a9009d
:10350800cc22a900cc42a900cc62a900cc82a90097
:10351800cca2a900ccc2a900cce2a900cd02a90086
:10352800cd22a900cd42a900cd62a900cd82a90073
:10353800cda2a900cdc2a900cde2a900d402a9005c
:10354800d422a900d442a900d462a900d482a90037
:10355800d4a2a900d4c2a900d4e2a900d502a90026
:10356800d522a9000080fa00000006000000fa0039
:1035780083e0a9008200a90085c0a90085a0a90050
:103588008580a9008560a9008540a9008520a9003b
:103598008500a90084e0a90084c0a90084a0a9002e
:1035a8008480a9008460a9008440a9008420a9001f
:1035b8008400a90087e0a90087c0a90087a0a90006
:1035c8008780a9008760a9008740a9008720a900f3
:1035d8008700a90086e0a90086c0a9008680a90006
:1035e8008660a9008640a9008620a9008600a90057
:1035f80089c0a90089a0a9008880a9008860a900bd
:103608008840a9008820a9008800a9008be0a900ab
:103618008bc0a9008ba0a9008b40a9008b20a90012
:103628008de0a9008dc0a9008d60a9008d40a9007a
:103638008d20a9008cc0a9008ca0a9008c80a900ad
:103648008c60a9008c40a9008c20a900240580006a
:1036580004c0a00004d0a10004e0a0002405880054
:10366800240580000480a1000490a10004a0a1000a
:1036780024058800240580000440a1000450a1000e
:103688000460a10024058800240580000400a1002e
:103698000410a1000420a10024058800340580003e
:1036a80004c0a10004d0a10004e0a10034058800f2
:1036b800340580000480a1000490a10004a0a100aa
:1036c80034058800340580000440a1000450a1009e
:1036d8000460a10034058800340580000400a100be
:1036e8000410a1000420a1003405880044058000ce
:1036f80004c0a00004d0a10004e0a1004405880093
:10370800440580000480a1000490a10004a0a10049
:1037180044058800440580000440a1000450a1002d
:103728000460a10044058800440580000400a1004d
:103738000410a0000420a00044058800540580005f
:103748000480a1000490a10004a0a10054058800f1
:10375800540580000440a1000450a1000460a100a9
:1037680054058800540580000400a1000410a1003d
:103778000420a100540588006405800004c0a1004d
:1037880004d0a10004e0a10064058800640580005d
:103798000440a0000450a1000460a0006405880053
:1037a800640580000400a1000410a1000420a0000a
:1037b800640588007405800004c0a10004d0a1003d
:1037c80004e0a10074058800740580000480a1004d
:1037d8000490a10004a0a10074058800740580006d
:1037e8000400a1000410a1000420a10074058800b1
:1037f8008405800004c0a10004d0a00004e0a1005a
:1038080084058800840580000480a1000490a1003c
:1038180004a0a10084058800840580000440a1005c
:103828000450a1000460a10084058800840580007c
:103838000400a1000410a1000420a1008405880050
:103848009405800004c0a10004d0a10004e0a100f8
:1038580094058800940580000480a0000490a000ce
:1038680004a0a10094058800940580000440a100ec
:103878000450a1000460a10094058800940580000c
:103888000400a0000410a1000420a10094058800f1
:10389800a405800004c0a10004d0a10004e0a10098
:1038a800a4058800a40580000480a1000490a1005c
:1038b80004a0a100a4058800a40580000440a1007c
:1038c8000450a1000460a100a4058800a40580009c
:1038d8000400a1000410a1000420a100a405880090
:1038e800b40580000400a1000410a1000420a10078
:1038f800b4058800d40580000480a1000490a100cc
:1039080004a0a100d4058800d40580000440a100cb
:103918000450a1000460a100d405880004068000ba
:103928000480a0000490a00004a0a0000406880061
:10393800040680000440a1000450a1000460a10016
:10394800040688001406800004c0a10004d0a10069
:1039580004e0a10014068800140680000480a10079
:103968000490a10004a0a100140688001406800099
:103978000440a1000450a1000460a10014068800be
:10398800240680000480a1000490a10004a0a100e6
:1039980024068800240680000440a1000450a100e9
:1039a8000460a100240688002406800004c0a10049
:1039b80004d0a10004e0a100240688003406800099
:1039c8000480a1000490a10004a0a100340688008e
:1039d800340680000440a1000450a1000460a10046
:1039e80034068800340680000400a1000410a100f9
:1039f8000420a100340688004406800004c0a0000a
:103a080004d0a00004e0a00044068800440680001a
:103a18000480a1000490a10004a0a100440688002d
:103a2800440680000440a1000450a1000460a100e5
:103a3800440688005406800004c0a10004d0a100f8
:103a480004e0a10054068800540680000480a10008
:103a58000490a10004a0a1005406880095c0a90004
:103a680095a0a9009580a9009560a9009540a90096
:103a78009520a9009500a80094e0a90094c0a90089
:103a880094a0a9009480a9009460a8009440a9007b
:103a98009420a9009400a90097e0a90097c0a80065
:103aa80097a0a9009780a8009760a8009740a90050
:103ab8009720a9009700a90096e0a90096c0a90040
:103ac8009680a9009660a9009620a9009600a900f2
:103ad80099c0a90099a0a9009880a9009860a90098
:103ae8009840a9009820a9009800a9009be0a90087
:103af8009bc0a9009ba0a9009b40a8009b20a900ef
:103b08009de0a9009dc0a9009d60a8009d40a90056
:103b18009d20a9009cc0a9009ca0a9009c80a90088
:103b28009c60a9009c40a9009c20a9000080fa0084
:103b3800000006000000fa00000000000080fa0003
:103b4800000006000000fa0014c0b300044078002a
:103b580001e9b70014c0b3000440780002e9b700d7
:103b680024c0b3000440780003e9b700008b2000ac
:103b78006022b8000600200007fe23000498be005b
:103b88000690be008085200024302700d51c2c001c
:103b980026a82200370b24000498be000690be0019
:103ba8005400070014c0b3000440780000e9b700cf
:103bb8000080fa00000006000c00fa00008fbe002a
:103bc8002207980033079800440798005507980083
:103bd8004e009000de0090001af407000002be00bc
:103be8000203be00008120000498be000690be00bb
:103bf8000080fa00000006000000fa00868f20000e
:103c08006022b800048bbe00868f20006022b800b6
:103c180024039800350398000080fa00000006008d
:103c28000000fa00848f20001403be004406200020
:103c380005002000840f5300858f5b0005003400c9
:103c4800868f20004406200005002000048bbe005b
:103c58000b003700848f20001403be00c4f92f0026
:103c6800f5ff2f00840f5300858f5b0004003d0093
:103c7800868f2000c4f92f00f5ff2f00048bbe00ab
:103c8800848f200024039000b40390004406200091
:103c980005002000840f5300858f5b000600340068
:103ca800868f200044062000050020002403980089
:103cb800350398000d003700848f200024039000fe
:103cc800b4039000c4f92f00f5ff2f00840f5300b0
:103cd800858f5b0005003d00868f2000c4f92f000a
:103ce800f5ff2f0024039800350398000080fa00a0
:103cf800000006000000fa00808620006022b8005c
:103d08006033b8000498be000690be00008620000c
:103d18006022b8006033b8000498be000690be0068
:103d2800008720006022b8006033b8000498be0005
:103d38000690be00808820006022b8006033b8007a
:103d48000498be000690be00808b20006022b80058
:103d58006033b8000498be000690be00008c2000b6
:103d68006022b8006033b8000498be000690be0018
:103d7800808c20006022b8006033b8000498be0030
:103d88000690be000080fa00000006000000fa005d
:103d9800889fbe008a9fbe008c1f7800544980000f
:103da8006549800061024200e0824a005449880067
:103db80065498800848520003400be002401be00c7
:103dc800848620005403be004402be00c3f40700ea
:103dd8000002be000203be000400be000601be00d1
:103de80069f307000002be0074498800854988000d
:103df80074498000854980000400be008ef30700e6
:103e080018c0b300f422230055bf250046042a0039
:103e180037022400a9f2070000027800e00f5200e0
:103e280001003c000044eb00e04f54003c0032002d
:103e38007449800085498000e00f5200e08f5a00e5
:103e480007003400808920006022b80006002000a6
:103e5800970524000498be000690be000b003700aa
:103e68007449800085498000e00f5200e08f5a00b5
:103e780006003d00808920006022b800060020006e
:103e880097052c000498be000690be00048a200006
:103e98003400be002401be00048b20005403be0081
:103ea8004402be008af207000002be000203be0000
:103eb8000404be000605be007449800085498000e0
:103ec8000400be005cf30700048a20005403be000f
:103ed8004402be007ef207000002be000203be00dc
:103ee8001cc0b3000800be000a01be0073f2070040
:103ef80000027800e00f520001003c000046eb0091
:103f0800e04f560015003200808920006022b8007a
:103f18006033b8000498be000690be000f0037005a
:103f2800808920006022b80006002500270a2400a6
:103f38000498be000690be006011b8000040eb0077
:103f4800860207006011b80010c0b30083020700a2
:103f580024c0b3000440780000e9b7004f06780099
:103f68004f05be004f04be000080fa0000000600a6
:103f78000000fa00881f7800048a20003400be0080
:103f88002401be00848920005403be004402be0000
:103f980018c0b30044f2070000027800e00f520096
:103fa800010035000044eb00e04f54000d003200e2
:103fb800048a20003400be002401be00048b2000c7
:103fc8005403be004402be00b8f107000002be0060
:103fd8000203be00008a20000498be000690be00be
:103fe8001a003700048a20003400be002401be00f5
:103ff800848920005403be004402be0018c0b300e8
:104008002ef2070000027800e00f520001003c0089
:104018000044eb00e04f54000c003200048a2000fa
:104028003400be002401be00048b20005403be00ef
:104038004402be0029f407000002be000203be00cd
:10404800008a20000498be000690be0084892000e3
:104058003400be002401be006022b800060025001e
:10406800270a240010f2070000027800e00f52002f
:1040780005003a00008a20006022b8006033b800ca
:104088000498be000690be004f0478000080fa0035
:10409800000006000000fa000080fa000000060098
:1040a8000000fa001490200014427800e14f5200fa
:1040b80001003a0035ff07002490200014427800e0
:1040c800e14f520001003a00a9ff07003490200098
:1040d80014427800e14f520001003a00edff07005a
:1040e800048620003400be002401be00048a20009b
:1040f8005403be004402be006cf107000002be007b
:104108000203be00008620000498be000690be0090
:10411800048620003400be002401be0084862000ee
:104128005403be004402be00ecf307000002be00c8
:104138000203be00808b20000498be000690be00db
:10414800adfe07000e000700b5fe0700848f2000b3
:104158001402be000401be000040eb00ff0107008e
:10416800848f2000b4029000240290000401be0055
:1041780010c0b300f90107000080fa000000060033
:104188000000fa00048a20005403be004402be0066
:10419800009220000498be000690be00848f200084
:1041a8001402be000400be00a3f20700049220001f
:1041b8005403be004402be003cf107000002be00ea
:1041c8000203be000400be000601be006ef2070036
:1041d8000002be00868f2000048bbe00848f200062
:1041e800b4029000240290000400be0092f207007e
:1041f800049220005403be004402be002bf10700c5
:104208000002be000203be000400be000601be009c
:104218005df207000002be00868f2000240398008c
:1042280035039800048c20003400be002401be0031
:10423800848b20005403be004402be001bf107001b
:104248000002be000203be00008c20000498be00dd
:104258000690be00848b20005403be004402be00ba
:10426800808c20000498be000690be000080fa00f2
:10427800000006000000fa00889fbe008a9fbe006a
:1042880010002000f900070020002000f7000700b8
:10429800264a8000374a8000644a8000754a8000b8
:1042a8000402530085825b004f2bde0007002000cc
:1042b8000602420087824a008582d1000482d30028
:1042c8002448880035488800264a8000374a8000fc
:1042d800644a8000754a80000602420087824a00cc
:1042e8004f2bde00070020000602420087824a00aa
:1042f8008582d1000482d30044488800554888004c
:10430800848620003404be002405be004448800092
:10431800554880000400be0047f207000002be00b6
:104328000203be000800be000a01be00dff007005d
:104338000002be000203be00808620000498be0072
:104348000690be0044488000554880000400be0026
:1043580039f207000002be000203be00808a200076
:104368000498be000690be00848820003404be0075
:104378002405be0024488000354880000400be00a3
:104388002df207000002be000203be000800be00b6
:104398000a01be00c5f007000002be000203be000d
:1043a800808820000498be000690be006648800001
:1043b8007748800024488000354880000602420083
:1043c80087824a00644888007548880064488000ed
:1043d800754880000400be0017f20700c4cb2c000b
:1043e800e5642300a6672b000709240038f10700bd
:1043f8000002be000203be00008120000498be0037
:104408000690be00048120003400be002401be00d6
:104418006022b80006002800670624000bf2070097
:104428000002be000203be000400be000601be007a
:10443800a4ee220045442500b61f22009700240060
:1044480023f107000002be000203be0080802000a6
:104458000498be000690be00048120005403be00ec
:104468004402be000400be000601be000cf10700b5
:104478000004be000205be00444880005548800084
:104488000400be00ecf107000002be000203be00fb
:104498000800be000a01be00ecf107000002be00e1
:1044a8000203be00009120000498be000690be00e2
:1044b800048120005403be004402be000400be0074
:1044c8000601be0056f207000004be000205be0049
:1044d80044488000554880000400be00d6f107001b
:1044e8000002be000203be000800be000a01be00b2
:1044f800d6f107000002be000203be008091200032
:104508000498be000690be00848120003404be00da
:104518002405be00049120003400be002401be0022
:1045280044bb2500a5a8210096672100a7fb23000e
:10453800c6f107000002be000203be000800be006c
:104548000a01be0059f007000002be000203be00c7
:10455800808120000498be000690be0004822000de
:104568003404be002405be00849120003400be003f
:104578002401be0044bb2500a5a8210096672100a0
:10458800a7fb2300b1f107000002be000203be0032
:104598000800be000a01be0044f007000002be0089
:1045a8000203be00008220000498be000690be00f0
:1045b8004f05be004f04be000080fa000000060050
:1045c8000000fa00e1e1a900e1a1a900040f8000c0
:1045d8000480a0000490a00004a0a000040f88009c
:1045e800e0e1a900e0c1a800e341a900e321a90096
:1045f800e301a900e2e1a800140f80000440a10033
:104608000450a0000460a100140f8800c418200002
:10461800340f8800f1e1a900f1a1a900840f8000fe
:104628000480a0000490a00004a0a000840f8800cb
:10463800f0e1a900f0c1a800f341a900f321a90005
:10464800f301a900f2e1a800940f80000440a10042
:104658000450a0000460a100940f8800c418200032
:10466800b40f88000080fa00000006000600fa0077
:10467800200798002e029000e10f52000b003a002c
:10468800250f80002e0290004323dd00a493200014
:1046980004024300050a7800c4182000844a8800f0
:1046a80014002000040f78000a003700a50f8000ce
:1046b8002e0290004323dd00a4932000040243004f
:1046c800050a7800c4182000844a88000082eb009c
:1046d800040f78002e0290008402420024932000e8
:1046e8000482420094027800150798002e02900078
:1046f8008402420024932000048242008002eb00de
:10470800050a78002e0290004322dd008482e8002a
:104718008493200004824200140278006123b800c8
:104728002e029000c322dd00849320000482420000
:1047380014027800050020000402530085825b0003
:10474800944a8800a54a88001e029000e00f520093
:10475800140032001e0290006123b900844a8000d0
:104768000500200004b8b9000000780006a9b900c7
:1047780082007800010040000603780004027800f7
:104788000432b8000500400080027800964a800094
:10479800a74a80000402430085824b00944a88009f
:1047a800a54a88001e0278006123b900944a800057
:1047b800a54a800004b8b9000000780006a9b9002d
:1047c80082007800010040000603780004027800a7
:1047d8000432b80005004000800278002e039000e3
:1047e800c333dd00c693200006834300048bbe005c
:1047f8002e0290004322dd008482e800849320008a
:1048080004824200940278002e0290004323dd00c7
:104818008493200004024300050a78000080fa000f
:10482800000006000000fa0061d3280010c0b300a1
:10483800a4f50700848520005403be004402be008e
:104848000400be000601be00cff007000002be0053
:104858000400be00f9f9070031d4280010c0b300e5
:1048680098f50700848620005403be004402be0069
:104878000400be000601be00c3f007000002be002f
:104888000400be00edf90700f1d4280010c0b30001
:104898008cf50700048a20005403be004402be00c1
:1048a8000400be000601be00b7f007000002be000b
:1048b8000400be00e1f9070001d6280010c0b300cb
:1048c80080f507000080fa00000006000000fa00ea
:1048d800c1e1a800c1e5a900c1a1a800040e80009b
:1048e8000440a1000450a1000460a1000470a100cc
:1048f800040e8800040e80000420a1000430a100ea
:10490800040e8800040e80000400a1000410a10019
:10491800040e8800743e2000240e8800c901a900f6
:10492800c921a900c881a900c801a900c8a1a80077
:10493800c821a900c8c1a800c841a900c885a90004
:10494800c805a9000002eb00c40e88000002eb00b5
:10495800d40e88000080fa00000006000800fa0063
:104968002047980022079800330798002e029000ed
:1049780004f0a7000402ea00040f78001e02780081
:104988006722b90004027800040f78002e429000d4
:10499800e04f520011003a00242d20009e027800ba
:1049a800848f520002003600242d2000040f780066
:1049b8002e029000be029000e00f5200e08f5a00d5
:1049c80002003d00cb62a80001003700cb62a900bd
:1049d8001e027800d40e8800130037002e42900083
:1049e800e14f520010003a00242d20009e0278006a
:1049f800848f520002003600242d2000040f780016
:104a08002e029000be029000e00f5200e08f5a0084
:104a180002003d00cba2a90001003700cba2a800ec
:104a28001e027800c40e88000080fa00000006000c
:104a38000400fa00000f780011079800d0db23006b
:104a48001113200052000700d1f90700d0a2a900d5
:104a58000002eb00a44988000002eb00b44988007a
:104a68000002eb00044a88000002eb00444a880078
:104a78000002eb00144a88000002eb00544a880048
:104a88006022b8006011b8006000b8004afc070056
:104a9800008320006022b8000600200007ff2300e2
:104aa8000498be000690be00808320006022b800f3
:104ab8006033b8000498be000690be0080822000d3
:104ac8006022b8000600200007ff23000498be00fb
:104ad8000690be0073f9070062f9070092f9070013
:104ae800def907000efa0700b5fe07009ffa070077
:104af80002202c001300200010c0b300f0f30700c0
:104b0800c1ce280010c0b300eef40700d0db2300ac
:104b1800111320001e0007006cff0700e1cf2800da
:104b280010c0b300e7f40700d0db23001113200006
:104b380017000700802c2600811e200014000700a3
:104b48001fe1a80005e1a800f1d0280010c0b300bb
:104b5800dcf40700d0db2300111320000c00070051
:104b6800b0502200710b200009000700f1d1280085
:104b780010c0b300d3f4070010272700717220007b
:104b88000300070021e1a800eefb0700ffff370044
:020000040000fa
:104b9800f03fb1000180b10006003500ee030900c6
:104ba80000000000403fb1000180b100fbff3d0064
:104bb8001000b000203fb00002003500008009005e
:084bc8000000000000000600df
:020000040000fa
:104bd000000800003201000000000000560900003b
:104be000180000000000000032090000240000004e
:104bf000000000006e09000002000000000000003c
:044c000000000000b0
:020000040000fa
:0200000401f009
:04000000cf0000002d
:020000040000fa
:0200000401f009
:04000400cf00000029
:020000040000fa
:0200000401f009
:0400080007000000ed
:020000040000fa
:0200000401f009
:04000c0001000000ef
:020000040000fa
:0200000401f009
:0400100043000000a9
:020000040000fa
:0200000401f009
:040014005f00000089
:020000040000fa
:0200000401f009
:04001800f7000000ed
:020000040000fa
:0200000401f009
:04001c00dfff000002
:00000001FF
